{
	"data": {
		"bytecode": {
			"linkReferences": {},
			"object": "608060405234801561001057600080fd5b506130f0806100206000396000f3fe608060405234801561001057600080fd5b50600436106100b45760003560e01c80634a0beecb116100715780634a0beecb146101a35780638ebc0627146101c1578063bed34bba146101df578063ce9d4aaa1461020f578063dd4a9aa71461022e578063f851a4401461024c576100b4565b806302266147146100b95780630d8e6e2c146100e95780631d504dc6146101075780631f78f57e1461012357806326782247146101535780633b4fef6314610171575b600080fd5b6100d360048036036100ce91908101906126b6565b61026a565b6040516100e09190612d66565b60405180910390f35b6100f1610308565b6040516100fe9190612d66565b60405180910390f35b610121600480360361011c9190810190612798565b610311565b005b61013d600480360361013891908101906126b6565b6104c1565b60405161014a9190612d4b565b60405180910390f35b61015b61059f565b6040516101689190612c25565b60405180910390f35b61018b600480360361018691908101906126b6565b6105c5565b60405161019a93929190612d81565b60405180910390f35b6101ab610668565b6040516101b89190612d66565b60405180910390f35b6101c9610702565b6040516101d69190612c25565b60405180910390f35b6101f960048036036101f49190810190612802565b610728565b6040516102069190612c77565b60405180910390f35b610217610781565b604051610225929190612c40565b60405180910390f35b6102366108ac565b6040516102439190612c25565b60405180910390f35b6102546108d2565b6040516102619190612c25565b60405180910390f35b6000806102756108f7565b90508073ffffffffffffffffffffffffffffffffffffffff1663fc57d4df846040518263ffffffff1660e01b81526004016102b09190612c25565b60206040518083038186803b1580156102c857600080fd5b505afa1580156102dc573d6000803e3d6000fd5b505050506040513d601f19601f820116820180604052506103009190810190612897565b915050919050565b60006001905090565b8073ffffffffffffffffffffffffffffffffffffffff1663f851a4406040518163ffffffff1660e01b815260040160206040518083038186803b15801561035757600080fd5b505afa15801561036b573d6000803e3d6000fd5b505050506040513d601f19601f8201168201806040525061038f91908101906126df565b73ffffffffffffffffffffffffffffffffffffffff163373ffffffffffffffffffffffffffffffffffffffff16146103fc576040517f08c379a00000000000000000000000000000000000000000000000000000000081526004016103f390612ceb565b60405180910390fd5b60008173ffffffffffffffffffffffffffffffffffffffff1663c1e803346040518163ffffffff1660e01b8152600401602060405180830381600087803b15801561044657600080fd5b505af115801561045a573d6000803e3d6000fd5b505050506040513d601f19601f8201168201806040525061047e9190810190612897565b146104be576040517f08c379a00000000000000000000000000000000000000000000000000000000081526004016104b590612d0b565b60405180910390fd5b50565b6104c96122a4565b60006104d3610913565b90506104dd6122be565b8173ffffffffffffffffffffffffffffffffffffffff16631ea6374161050161092f565b61050961094b565b876040518463ffffffff1660e01b815260040161052893929190612c92565b608060405180830381600087803b15801561054257600080fd5b505af1158015610556573d6000803e3d6000fd5b505050506040513d601f19601f8201168201806040525061057a919081019061286e565b9050806000015183600001818152505080606001518360200181815250505050919050565b600160009054906101000a900473ffffffffffffffffffffffffffffffffffffffff1681565b6000606060008060606105d66122fc565b6105f8876105f36105e5610967565b670de0b6b3a76400006109c9565b610a13565b9250925092506000600481111561060b57fe5b83600481111561061757fe5b1461063c5782600481111561062857fe5b826000809050955095509550505050610661565b6000816000015181915060405180602001604052806000815250909550955095505050505b9193909250565b6000806106736108f7565b90508073ffffffffffffffffffffffffffffffffffffffff1663fe2c61986040518163ffffffff1660e01b81526004016106ac90612d2b565b60206040518083038186803b1580156106c457600080fd5b505afa1580156106d8573d6000803e3d6000fd5b505050506040513d601f19601f820116820180604052506106fc9190810190612897565b91505090565b600260009054906101000a900473ffffffffffffffffffffffffffffffffffffffff1681565b60008160405160200161073b9190612c0e565b60405160208183030381529060405280519060200120836040516020016107629190612c0e565b6040516020818303038152906040528051906020012014905092915050565b606080606061078e610b76565b9050606081516040519080825280602002602001820160405280156107c757816020015b60608152602001906001900390816107b25790505b509050606082516040519080825280602002602001820160405280156107fc5781602001602082028038833980820191505090505b5090506108076122fc565b60008090505b84518110156108915761083a61083586838151811061082857fe5b6020026020010151610e6b565b610fe5565b915084818151811061084857fe5b602002602001015184828151811061085c57fe5b6020026020010181905250816000015183828151811061087857fe5b602002602001018181525050808060010191505061080d565b5061089c8383611126565b8096508197505050505050509091565b600360009054906101000a900473ffffffffffffffffffffffffffffffffffffffff1681565b6000809054906101000a900473ffffffffffffffffffffffffffffffffffffffff1681565b600073922018674c12a7f0d394ebeef9b58f186cde13c1905090565b600073d513d22422a3062bd342ae374b4b9c20e0a9a074905090565b600073c00e94cb662c3520282e6f5717214004a7f26888905090565b6000733d9819210a31b4961b30ef54be2aed79b9c9cd3b905090565b600080600e905060006301e13380905060006109816122fc565b61098b8385611331565b915091506000600381111561099c57fe5b8260038111156109a857fe5b146109ba5760009450505050506109c6565b80600001519450505050505b90565b6000610a0b83836040518060400160405280600e81526020017f646976696465206279207a65726f000000000000000000000000000000000000815250611405565b905092915050565b60006060610a1f6122fc565b6060610a29610b76565b90506000815190506000809050606082604051908082528060200260200182016040528015610a7257816020015b610a5f61230f565b815260200190600190039081610a575790505b50905060405180602001604052806000815250945060008090505b83811015610b4f576060858281518110610aa357fe5b60200260200101519050610ac08b610aba83610e6b565b8c611460565b809050848481518110610acf57fe5b60200260200101819052819550505060006004811115610aeb57fe5b846004811115610af757fe5b14610b2257838160405180602001604052806000815250809050985098509850505050505050610b6f565b610b3f87848481518110610b3257fe5b60200260200101516116d3565b9650508080600101915050610a8d565b506000856040518060200160405280600081525090965096509650505050505b9250925092565b60606000610b8261094b565b905060608173ffffffffffffffffffffffffffffffffffffffff1663b0772d0b6040518163ffffffff1660e01b815260040160006040518083038186803b158015610bcc57600080fd5b505afa158015610be0573d6000803e3d6000fd5b505050506040513d6000823e3d601f19601f82011682018060405250610c099190810190612708565b905060008060008060608551604051908082528060200260200182016040528015610c4857816020015b6060815260200190600190039081610c335790505b50905060008090505b8651811015610de157868181518110610c6657fe5b602002602001015193508773ffffffffffffffffffffffffffffffffffffffff16638e8f294b856040518263ffffffff1660e01b8152600401610ca99190612c25565b60606040518083038186803b158015610cc157600080fd5b505afa158015610cd5573d6000803e3d6000fd5b505050506040513d601f19601f82011682018060405250610cf99190810190612749565b90508096508197505050858015610d0d5750845b15610dd4576000878281518110610d2057fe5b6020026020010151905060608173ffffffffffffffffffffffffffffffffffffffff166395d89b416040518163ffffffff1660e01b815260040160006040518083038186803b158015610d7257600080fd5b505afa158015610d86573d6000803e3d6000fd5b505050506040513d6000823e3d601f19601f82011682018060405250610daf91908101906127c1565b905080848681518110610dbe57fe5b6020026020010181905250848060010195505050505b8080600101915050610c51565b5081604051908082528060200260200182016040528015610e1657816020015b6060815260200190600190039081610e015790505b50975060008090505b8851811015610e6057818181518110610e3457fe5b6020026020010151898281518110610e4857fe5b60200260200101819052508080600101915050610e1f565b505050505050505090565b600080610e7661094b565b905060608173ffffffffffffffffffffffffffffffffffffffff1663b0772d0b6040518163ffffffff1660e01b815260040160006040518083038186803b158015610ec057600080fd5b505afa158015610ed4573d6000803e3d6000fd5b505050506040513d6000823e3d601f19601f82011682018060405250610efd9190810190612708565b905060008090505b8151811015610fd8576000828281518110610f1c57fe5b6020026020010151905060608173ffffffffffffffffffffffffffffffffffffffff166395d89b416040518163ffffffff1660e01b815260040160006040518083038186803b158015610f6e57600080fd5b505afa158015610f82573d6000803e3d6000fd5b505050506040513d6000823e3d601f19601f82011682018060405250610fab91908101906127c1565b9050610fb78188610728565b15610fc9578195505050505050610fe0565b50508080600101915050610f05565b506000925050505b919050565b610fed6122fc565b6000610ff761094b565b9050600061100361092f565b73ffffffffffffffffffffffffffffffffffffffff1663313ce5676040518163ffffffff1660e01b815260040160206040518083038186803b15801561104857600080fd5b505afa15801561105c573d6000803e3d6000fd5b505050506040513d601f19601f820116820180604052506110809190810190612897565b905060008273ffffffffffffffffffffffffffffffffffffffff16631d7b33d7866040518263ffffffff1660e01b81526004016110bd9190612c25565b60206040518083038186803b1580156110d557600080fd5b505afa1580156110e9573d6000803e3d6000fd5b505050506040513d601f19601f8201168201806040525061110d9190810190612897565b90506111198183611703565b9350839350505050919050565b6060806060600185510160405190808252806020026020018201604052801561116357816020015b606081526020019060019003908161114e5790505b5090506060600185510160405190808252806020026020018201604052801561119b5781602001602082028038833980820191505090505b50905060008090505b8651811015611211578681815181106111b957fe5b60200260200101518382815181106111cd57fe5b60200260200101819052508581815181106111e457fe5b60200260200101518282815181106111f857fe5b60200260200101818152505080806001019150506111a4565b50611223828260006001865103611766565b80925081935050506060865160405190808252806020026020018201604052801561126257816020015b606081526020019060019003908161124d5790505b509050606086516040519080825280602002602001820160405280156112975781602001602082028038833980820191505090505b50905060008090505b885181101561131f578460018201815181106112b857fe5b6020026020010151838260018c510303815181106112d257fe5b60200260200101819052508360018201815181106112ec57fe5b6020026020010151828260018c5103038151811061130657fe5b60200260200101818152505080806001019150506112a0565b50818195509550505050509250929050565b600061133b6122fc565b60008061135086670de0b6b3a7640000611900565b915091506000600381111561136157fe5b82600381111561136d57fe5b146113915781604051806020016040528060008152508090509350935050506113fe565b60008061139e8388611953565b91509150600060038111156113af57fe5b8260038111156113bb57fe5b146113e157816040518060200160405280600081525080905095509550505050506113fe565b600060405180602001604052808381525080905095509550505050505b9250929050565b6000808311829061144c576040517f08c379a00000000000000000000000000000000000000000000000000000000081526004016114439190612cc9565b60405180910390fd5b5082848161145657fe5b0490509392505050565b600061146a6122fc565b611472612322565b8473ffffffffffffffffffffffffffffffffffffffff1663313ce5676040518163ffffffff1660e01b815260040160206040518083038186803b1580156114b857600080fd5b505afa1580156114cc573d6000803e3d6000fd5b505050506040513d601f19601f820116820180604052506114f09190810190612897565b81600001818152505061150285611987565b81602001818152505061151485610fe5565b8161016001819052506115278686611ad6565b84606001856080018660a0018760c001848152508481525084815250848152505050505060008160600151146115765760036040518060200160405280600081525080905092509250506116cb565b6115a46040518060200160405280836080015181525060405180602001604052808460c00151815250611d05565b81610180018190525060405180602001604052808260a00151815250816101a001819052506115d285611d46565b816101200181815250506115e585611eea565b81610140018181525050611614611609826101800151670de0b6b3a7640000611f76565b826101200151611fa2565b816101e00181905250611642611637826101a00151670de0b6b3a7640000611f76565b826101400151611fa2565b81610200018190525061165a81610160015185611f76565b816102800181905250611677816102800151826101e00151611d05565b816102200181905250611694816102800151826102000151611d05565b8161024001819052506116b18161022001518261024001516116d3565b816102600181905250600081610260015180905092509250505b935093915050565b6116db6122fc565b60405180602001604052806116f885600001518560000151611fce565b815250905092915050565b61170b6122fc565b600060128311156117345761172d84611725856012612018565b600a0a6109c9565b905061174e565b61174b84611743601286612018565b600a0a612062565b90505b60405180602001604052808281525091505092915050565b6060806000849050600084905060008760028888038161178257fe5b0488018151811061178f57fe5b602002602001015190505b8183116118c0575b808884815181106117af57fe5b602002602001015110156117ca5782806001019350506117a2565b5b8782815181106117d757fe5b60200260200101518110156117f4578180600190039250506117cb565b8183116118bb5788828151811061180757fe5b602002602001015189848151811061181b57fe5b60200260200101518a858151811061182f57fe5b602002602001018b858151811061184257fe5b60200260200101829052829052505087828151811061185d57fe5b602002602001015188848151811061187157fe5b602002602001015189858151811061188557fe5b602002602001018a858151811061189857fe5b602002602001018281525082815250505082806001019350508180600190039250505b61179a565b818710156118d7576118d489898985611766565b50505b858310156118ee576118eb89898589611766565b50505b88889450945050505094509492505050565b600080600084141561191b576000808090509150915061194c565b600083850290508385828161192c57fe5b04146119435760026000809050925092505061194c565b60008192509250505b9250929050565b600080600083141561196f576001600080905091509150611980565b600083858161197a57fe5b04915091505b9250929050565b60006119916120ac565b73ffffffffffffffffffffffffffffffffffffffff168273ffffffffffffffffffffffffffffffffffffffff1614156119cd5760129050611ad1565b60008273ffffffffffffffffffffffffffffffffffffffff16636f307dc36040518163ffffffff1660e01b815260040160206040518083038186803b158015611a1557600080fd5b505afa158015611a29573d6000803e3d6000fd5b505050506040513d601f19601f82011682018060405250611a4d91908101906126df565b90508073ffffffffffffffffffffffffffffffffffffffff1663313ce5676040518163ffffffff1660e01b815260040160206040518083038186803b158015611a9557600080fd5b505afa158015611aa9573d6000803e3d6000fd5b505050506040513d601f19601f82011682018060405250611acd9190810190612897565b9150505b919050565b600080600080611ae46123fe565b600086905060008773ffffffffffffffffffffffffffffffffffffffff1663313ce5676040518163ffffffff1660e01b815260040160206040518083038186803b158015611b3157600080fd5b505afa158015611b45573d6000803e3d6000fd5b505050506040513d601f19601f82011682018060405250611b699190810190612897565b90506000611b7689611987565b90508273ffffffffffffffffffffffffffffffffffffffff1663c37f68e28b6040518263ffffffff1660e01b8152600401611bb19190612c25565b60806040518083038186803b158015611bc957600080fd5b505afa158015611bdd573d6000803e3d6000fd5b505050506040513d601f19601f82011682018060405250611c0191908101906128c0565b8760000188602001896040018a60600184815250848152508481525084815250505050506000846000015114611c555783600001516000806000829250819150809050975097509750975050505050611cfc565b611c63846020015183611703565b846101000181905250611c7a846040015182611703565b846101400181905250611c998460600151611c948b6120c8565b611703565b84610180018190525083610100015160000151846080018181525050836101400151600001518460a0018181525050836101800151600001518460c0018181525050600084608001518560a001518660c001518393509750975097509750505050505b92959194509250565b611d0d6122fc565b6040518060200160405280670de0b6b3a7640000611d3386600001518660000151612062565b81611d3a57fe5b04815250905092915050565b6000808273ffffffffffffffffffffffffffffffffffffffff16633b1d21a26040518163ffffffff1660e01b815260040160206040518083038186803b158015611d8f57600080fd5b505afa158015611da3573d6000803e3d6000fd5b505050506040513d601f19601f82011682018060405250611dc79190810190612897565b905060008373ffffffffffffffffffffffffffffffffffffffff166347bd37186040518163ffffffff1660e01b815260040160206040518083038186803b158015611e1157600080fd5b505afa158015611e25573d6000803e3d6000fd5b505050506040513d601f19601f82011682018060405250611e499190810190612897565b905060008473ffffffffffffffffffffffffffffffffffffffff16638f840ddd6040518163ffffffff1660e01b815260040160206040518083038186803b158015611e9357600080fd5b505afa158015611ea7573d6000803e3d6000fd5b505050506040513d601f19601f82011682018060405250611ecb9190810190612897565b9050611ee0611eda8484611fce565b82612018565b9350505050919050565b6000808290508073ffffffffffffffffffffffffffffffffffffffff166347bd37186040518163ffffffff1660e01b815260040160206040518083038186803b158015611f3657600080fd5b505afa158015611f4a573d6000803e3d6000fd5b505050506040513d601f19601f82011682018060405250611f6e9190810190612897565b915050919050565b611f7e6122fc565b6040518060200160405280611f97856000015185612062565b815250905092915050565b611faa6122fc565b6040518060200160405280611fc38560000151856109c9565b815250905092915050565b600061201083836040518060400160405280601181526020017f6164646974696f6e206f766572666c6f77000000000000000000000000000000815250612175565b905092915050565b600061205a83836040518060400160405280601581526020017f7375627472616374696f6e20756e646572666c6f7700000000000000000000008152506121cf565b905092915050565b60006120a483836040518060400160405280601781526020017f6d756c7469706c69636174696f6e206f766572666c6f77000000000000000000815250612224565b905092915050565b6000734ddc2d193948926d02f9b1fe9e1daa0718270ed5905090565b6000806120d483611987565b905060008373ffffffffffffffffffffffffffffffffffffffff1663313ce5676040518163ffffffff1660e01b815260040160206040518083038186803b15801561211e57600080fd5b505afa158015612132573d6000803e3d6000fd5b505050506040513d601f19601f820116820180604052506121569190810190612897565b905061216c612166601284611fce565b82612018565b92505050919050565b60008083850190508481101583906121c3576040517f08c379a00000000000000000000000000000000000000000000000000000000081526004016121ba9190612cc9565b60405180910390fd5b50809150509392505050565b6000838311158290612217576040517f08c379a000000000000000000000000000000000000000000000000000000000815260040161220e9190612cc9565b60405180910390fd5b5082840390509392505050565b6000808414806122345750600083145b15612242576000905061229d565b600083850290508385828161225357fe5b04148390612297576040517f08c379a000000000000000000000000000000000000000000000000000000000815260040161228e9190612cc9565b60405180910390fd5b50809150505b9392505050565b604051806040016040528060008152602001600081525090565b60405180608001604052806000815260200160008152602001600073ffffffffffffffffffffffffffffffffffffffff168152602001600081525090565b6040518060200160405280600081525090565b6040518060200160405280600081525090565b604051806102a00160405280600081526020016000815260200160008152602001600081526020016000815260200160008152602001600081526020016000815260200160008152602001600081526020016000815260200161238361230f565b815260200161239061230f565b815260200161239d61230f565b81526020016123aa61230f565b81526020016123b761230f565b81526020016123c461230f565b81526020016123d161230f565b81526020016123de61230f565b81526020016123eb61230f565b81526020016123f861230f565b81525090565b604051806101a00160405280600081526020016000815260200160008152602001600081526020016000815260200160008152602001600081526020016000600381111561244857fe5b815260200161245561230f565b81526020016000600381111561246757fe5b815260200161247461230f565b81526020016000600381111561248657fe5b815260200161249361230f565b81525090565b6000813590506124a88161303a565b92915050565b6000815190506124bd8161303a565b92915050565b600082601f8301126124d457600080fd5b81516124e76124e282612dec565b612dbf565b9150818183526020840193506020810190508385602084028201111561250c57600080fd5b60005b8381101561253c5781612522888261255b565b84526020840193506020830192505060018101905061250f565b5050505092915050565b60008151905061255581613051565b92915050565b60008151905061256a81613068565b92915050565b60008135905061257f8161307f565b92915050565b600082601f83011261259657600080fd5b81516125a96125a482612e14565b612dbf565b915080825260208301602083018583830111156125c557600080fd5b6125d0838284612ff6565b50505092915050565b600082601f8301126125ea57600080fd5b81356125fd6125f882612e40565b612dbf565b9150808252602083016020830185838301111561261957600080fd5b612624838284612fe7565b50505092915050565b60006080828403121561263f57600080fd5b6126496080612dbf565b90506000612659848285016126a1565b600083015250602061266d848285016126a1565b6020830152506040612681848285016124ae565b6040830152506060612695848285016126a1565b60608301525092915050565b6000815190506126b081613096565b92915050565b6000602082840312156126c857600080fd5b60006126d684828501612499565b91505092915050565b6000602082840312156126f157600080fd5b60006126ff848285016124ae565b91505092915050565b60006020828403121561271a57600080fd5b600082015167ffffffffffffffff81111561273457600080fd5b612740848285016124c3565b91505092915050565b60008060006060848603121561275e57600080fd5b600061276c86828701612546565b935050602061277d868287016126a1565b925050604061278e86828701612546565b9150509250925092565b6000602082840312156127aa57600080fd5b60006127b884828501612570565b91505092915050565b6000602082840312156127d357600080fd5b600082015167ffffffffffffffff8111156127ed57600080fd5b6127f984828501612585565b91505092915050565b6000806040838503121561281557600080fd5b600083013567ffffffffffffffff81111561282f57600080fd5b61283b858286016125d9565b925050602083013567ffffffffffffffff81111561285857600080fd5b612864858286016125d9565b9150509250929050565b60006080828403121561288057600080fd5b600061288e8482850161262d565b91505092915050565b6000602082840312156128a957600080fd5b60006128b7848285016126a1565b91505092915050565b600080600080608085870312156128d657600080fd5b60006128e4878288016126a1565b94505060206128f5878288016126a1565b9350506040612906878288016126a1565b9250506060612917878288016126a1565b91505092959194509250565b600061292f8383612ac8565b905092915050565b60006129438383612bf0565b60208301905092915050565b61295881612f21565b82525050565b600061296982612e8c565b6129738185612ed2565b93508360208202850161298585612e6c565b8060005b858110156129c157848403895281516129a28582612923565b94506129ad83612eb8565b925060208a01995050600181019050612989565b50829750879550505050505092915050565b60006129de82612e97565b6129e88185612ee3565b93506129f383612e7c565b8060005b83811015612a24578151612a0b8882612937565b9750612a1683612ec5565b9250506001810190506129f7565b5085935050505092915050565b612a3a81612f45565b82525050565b612a4981612f9f565b82525050565b612a5881612fc3565b82525050565b6000612a6982612ead565b612a738185612f05565b9350612a83818560208601612ff6565b612a8c81613029565b840191505092915050565b6000612aa282612ead565b612aac8185612f16565b9350612abc818560208601612ff6565b80840191505092915050565b6000612ad382612ea2565b612add8185612ef4565b9350612aed818560208601612ff6565b612af681613029565b840191505092915050565b6000612b0e601c83612f05565b91507f6f6e6c792061646d696e2063616e206368616e676520627261696e73000000006000830152602082019050919050565b6000612b4e601583612f05565b91507f6368616e676573206e6f74207065726d697474656400000000000000000000006000830152602082019050919050565b6000612b8e600483612f05565b91507f434f4d50000000000000000000000000000000000000000000000000000000006000830152602082019050919050565b604082016000820151612bd76000850182612bf0565b506020820151612bea6020850182612bf0565b50505050565b612bf981612f95565b82525050565b612c0881612f95565b82525050565b6000612c1a8284612a97565b915081905092915050565b6000602082019050612c3a600083018461294f565b92915050565b60006040820190508181036000830152612c5a818561295e565b90508181036020830152612c6e81846129d3565b90509392505050565b6000602082019050612c8c6000830184612a31565b92915050565b6000606082019050612ca76000830186612a40565b612cb46020830185612a4f565b612cc1604083018461294f565b949350505050565b60006020820190508181036000830152612ce38184612a5e565b905092915050565b60006020820190508181036000830152612d0481612b01565b9050919050565b60006020820190508181036000830152612d2481612b41565b9050919050565b60006020820190508181036000830152612d4481612b81565b9050919050565b6000604082019050612d606000830184612bc1565b92915050565b6000602082019050612d7b6000830184612bff565b92915050565b6000606082019050612d966000830186612bff565b8181036020830152612da88185612a5e565b9050612db76040830184612bff565b949350505050565b6000604051905081810181811067ffffffffffffffff82111715612de257600080fd5b8060405250919050565b600067ffffffffffffffff821115612e0357600080fd5b602082029050602081019050919050565b600067ffffffffffffffff821115612e2b57600080fd5b601f19601f8301169050602081019050919050565b600067ffffffffffffffff821115612e5757600080fd5b601f19601f8301169050602081019050919050565b6000819050602082019050919050565b6000819050602082019050919050565b600081519050919050565b600081519050919050565b600081519050919050565b600081519050919050565b6000602082019050919050565b6000602082019050919050565b600082825260208201905092915050565b600082825260208201905092915050565b600082825260208201905092915050565b600082825260208201905092915050565b600081905092915050565b6000612f2c82612f75565b9050919050565b6000612f3e82612f75565b9050919050565b60008115159050919050565b6000612f5c82612f21565b9050919050565b6000612f6e82612f33565b9050919050565b600073ffffffffffffffffffffffffffffffffffffffff82169050919050565b6000819050919050565b6000612faa82612fb1565b9050919050565b6000612fbc82612f75565b9050919050565b6000612fce82612fd5565b9050919050565b6000612fe082612f75565b9050919050565b82818337600083830152505050565b60005b83811015613014578082015181840152602081019050612ff9565b83811115613023576000848401525b50505050565b6000601f19601f8301169050919050565b61304381612f21565b811461304e57600080fd5b50565b61305a81612f45565b811461306557600080fd5b50565b61307181612f51565b811461307c57600080fd5b50565b61308881612f63565b811461309357600080fd5b50565b61309f81612f95565b81146130aa57600080fd5b5056fea365627a7a72315820f7e9029c086c93a927ba4b0e6074084da17ba9e1ae467786cd9f379bbc9392246c6578706572696d656e74616cf564736f6c63430005110040",
			"opcodes": "PUSH1 0x80 PUSH1 0x40 MSTORE CALLVALUE DUP1 ISZERO PUSH2 0x10 JUMPI PUSH1 0x0 DUP1 REVERT JUMPDEST POP PUSH2 0x30F0 DUP1 PUSH2 0x20 PUSH1 0x0 CODECOPY PUSH1 0x0 RETURN INVALID PUSH1 0x80 PUSH1 0x40 MSTORE CALLVALUE DUP1 ISZERO PUSH2 0x10 JUMPI PUSH1 0x0 DUP1 REVERT JUMPDEST POP PUSH1 0x4 CALLDATASIZE LT PUSH2 0xB4 JUMPI PUSH1 0x0 CALLDATALOAD PUSH1 0xE0 SHR DUP1 PUSH4 0x4A0BEECB GT PUSH2 0x71 JUMPI DUP1 PUSH4 0x4A0BEECB EQ PUSH2 0x1A3 JUMPI DUP1 PUSH4 0x8EBC0627 EQ PUSH2 0x1C1 JUMPI DUP1 PUSH4 0xBED34BBA EQ PUSH2 0x1DF JUMPI DUP1 PUSH4 0xCE9D4AAA EQ PUSH2 0x20F JUMPI DUP1 PUSH4 0xDD4A9AA7 EQ PUSH2 0x22E JUMPI DUP1 PUSH4 0xF851A440 EQ PUSH2 0x24C JUMPI PUSH2 0xB4 JUMP JUMPDEST DUP1 PUSH4 0x2266147 EQ PUSH2 0xB9 JUMPI DUP1 PUSH4 0xD8E6E2C EQ PUSH2 0xE9 JUMPI DUP1 PUSH4 0x1D504DC6 EQ PUSH2 0x107 JUMPI DUP1 PUSH4 0x1F78F57E EQ PUSH2 0x123 JUMPI DUP1 PUSH4 0x26782247 EQ PUSH2 0x153 JUMPI DUP1 PUSH4 0x3B4FEF63 EQ PUSH2 0x171 JUMPI JUMPDEST PUSH1 0x0 DUP1 REVERT JUMPDEST PUSH2 0xD3 PUSH1 0x4 DUP1 CALLDATASIZE SUB PUSH2 0xCE SWAP2 SWAP1 DUP2 ADD SWAP1 PUSH2 0x26B6 JUMP JUMPDEST PUSH2 0x26A JUMP JUMPDEST PUSH1 0x40 MLOAD PUSH2 0xE0 SWAP2 SWAP1 PUSH2 0x2D66 JUMP JUMPDEST PUSH1 0x40 MLOAD DUP1 SWAP2 SUB SWAP1 RETURN JUMPDEST PUSH2 0xF1 PUSH2 0x308 JUMP JUMPDEST PUSH1 0x40 MLOAD PUSH2 0xFE SWAP2 SWAP1 PUSH2 0x2D66 JUMP JUMPDEST PUSH1 0x40 MLOAD DUP1 SWAP2 SUB SWAP1 RETURN JUMPDEST PUSH2 0x121 PUSH1 0x4 DUP1 CALLDATASIZE SUB PUSH2 0x11C SWAP2 SWAP1 DUP2 ADD SWAP1 PUSH2 0x2798 JUMP JUMPDEST PUSH2 0x311 JUMP JUMPDEST STOP JUMPDEST PUSH2 0x13D PUSH1 0x4 DUP1 CALLDATASIZE SUB PUSH2 0x138 SWAP2 SWAP1 DUP2 ADD SWAP1 PUSH2 0x26B6 JUMP JUMPDEST PUSH2 0x4C1 JUMP JUMPDEST PUSH1 0x40 MLOAD PUSH2 0x14A SWAP2 SWAP1 PUSH2 0x2D4B JUMP JUMPDEST PUSH1 0x40 MLOAD DUP1 SWAP2 SUB SWAP1 RETURN JUMPDEST PUSH2 0x15B PUSH2 0x59F JUMP JUMPDEST PUSH1 0x40 MLOAD PUSH2 0x168 SWAP2 SWAP1 PUSH2 0x2C25 JUMP JUMPDEST PUSH1 0x40 MLOAD DUP1 SWAP2 SUB SWAP1 RETURN JUMPDEST PUSH2 0x18B PUSH1 0x4 DUP1 CALLDATASIZE SUB PUSH2 0x186 SWAP2 SWAP1 DUP2 ADD SWAP1 PUSH2 0x26B6 JUMP JUMPDEST PUSH2 0x5C5 JUMP JUMPDEST PUSH1 0x40 MLOAD PUSH2 0x19A SWAP4 SWAP3 SWAP2 SWAP1 PUSH2 0x2D81 JUMP JUMPDEST PUSH1 0x40 MLOAD DUP1 SWAP2 SUB SWAP1 RETURN JUMPDEST PUSH2 0x1AB PUSH2 0x668 JUMP JUMPDEST PUSH1 0x40 MLOAD PUSH2 0x1B8 SWAP2 SWAP1 PUSH2 0x2D66 JUMP JUMPDEST PUSH1 0x40 MLOAD DUP1 SWAP2 SUB SWAP1 RETURN JUMPDEST PUSH2 0x1C9 PUSH2 0x702 JUMP JUMPDEST PUSH1 0x40 MLOAD PUSH2 0x1D6 SWAP2 SWAP1 PUSH2 0x2C25 JUMP JUMPDEST PUSH1 0x40 MLOAD DUP1 SWAP2 SUB SWAP1 RETURN JUMPDEST PUSH2 0x1F9 PUSH1 0x4 DUP1 CALLDATASIZE SUB PUSH2 0x1F4 SWAP2 SWAP1 DUP2 ADD SWAP1 PUSH2 0x2802 JUMP JUMPDEST PUSH2 0x728 JUMP JUMPDEST PUSH1 0x40 MLOAD PUSH2 0x206 SWAP2 SWAP1 PUSH2 0x2C77 JUMP JUMPDEST PUSH1 0x40 MLOAD DUP1 SWAP2 SUB SWAP1 RETURN JUMPDEST PUSH2 0x217 PUSH2 0x781 JUMP JUMPDEST PUSH1 0x40 MLOAD PUSH2 0x225 SWAP3 SWAP2 SWAP1 PUSH2 0x2C40 JUMP JUMPDEST PUSH1 0x40 MLOAD DUP1 SWAP2 SUB SWAP1 RETURN JUMPDEST PUSH2 0x236 PUSH2 0x8AC JUMP JUMPDEST PUSH1 0x40 MLOAD PUSH2 0x243 SWAP2 SWAP1 PUSH2 0x2C25 JUMP JUMPDEST PUSH1 0x40 MLOAD DUP1 SWAP2 SUB SWAP1 RETURN JUMPDEST PUSH2 0x254 PUSH2 0x8D2 JUMP JUMPDEST PUSH1 0x40 MLOAD PUSH2 0x261 SWAP2 SWAP1 PUSH2 0x2C25 JUMP JUMPDEST PUSH1 0x40 MLOAD DUP1 SWAP2 SUB SWAP1 RETURN JUMPDEST PUSH1 0x0 DUP1 PUSH2 0x275 PUSH2 0x8F7 JUMP JUMPDEST SWAP1 POP DUP1 PUSH20 0xFFFFFFFFFFFFFFFFFFFFFFFFFFFFFFFFFFFFFFFF AND PUSH4 0xFC57D4DF DUP5 PUSH1 0x40 MLOAD DUP3 PUSH4 0xFFFFFFFF AND PUSH1 0xE0 SHL DUP2 MSTORE PUSH1 0x4 ADD PUSH2 0x2B0 SWAP2 SWAP1 PUSH2 0x2C25 JUMP JUMPDEST PUSH1 0x20 PUSH1 0x40 MLOAD DUP1 DUP4 SUB DUP2 DUP7 DUP1 EXTCODESIZE ISZERO DUP1 ISZERO PUSH2 0x2C8 JUMPI PUSH1 0x0 DUP1 REVERT JUMPDEST POP GAS STATICCALL ISZERO DUP1 ISZERO PUSH2 0x2DC JUMPI RETURNDATASIZE PUSH1 0x0 DUP1 RETURNDATACOPY RETURNDATASIZE PUSH1 0x0 REVERT JUMPDEST POP POP POP POP PUSH1 0x40 MLOAD RETURNDATASIZE PUSH1 0x1F NOT PUSH1 0x1F DUP3 ADD AND DUP3 ADD DUP1 PUSH1 0x40 MSTORE POP PUSH2 0x300 SWAP2 SWAP1 DUP2 ADD SWAP1 PUSH2 0x2897 JUMP JUMPDEST SWAP2 POP POP SWAP2 SWAP1 POP JUMP JUMPDEST PUSH1 0x0 PUSH1 0x1 SWAP1 POP SWAP1 JUMP JUMPDEST DUP1 PUSH20 0xFFFFFFFFFFFFFFFFFFFFFFFFFFFFFFFFFFFFFFFF AND PUSH4 0xF851A440 PUSH1 0x40 MLOAD DUP2 PUSH4 0xFFFFFFFF AND PUSH1 0xE0 SHL DUP2 MSTORE PUSH1 0x4 ADD PUSH1 0x20 PUSH1 0x40 MLOAD DUP1 DUP4 SUB DUP2 DUP7 DUP1 EXTCODESIZE ISZERO DUP1 ISZERO PUSH2 0x357 JUMPI PUSH1 0x0 DUP1 REVERT JUMPDEST POP GAS STATICCALL ISZERO DUP1 ISZERO PUSH2 0x36B JUMPI RETURNDATASIZE PUSH1 0x0 DUP1 RETURNDATACOPY RETURNDATASIZE PUSH1 0x0 REVERT JUMPDEST POP POP POP POP PUSH1 0x40 MLOAD RETURNDATASIZE PUSH1 0x1F NOT PUSH1 0x1F DUP3 ADD AND DUP3 ADD DUP1 PUSH1 0x40 MSTORE POP PUSH2 0x38F SWAP2 SWAP1 DUP2 ADD SWAP1 PUSH2 0x26DF JUMP JUMPDEST PUSH20 0xFFFFFFFFFFFFFFFFFFFFFFFFFFFFFFFFFFFFFFFF AND CALLER PUSH20 0xFFFFFFFFFFFFFFFFFFFFFFFFFFFFFFFFFFFFFFFF AND EQ PUSH2 0x3FC JUMPI PUSH1 0x40 MLOAD PUSH32 0x8C379A000000000000000000000000000000000000000000000000000000000 DUP2 MSTORE PUSH1 0x4 ADD PUSH2 0x3F3 SWAP1 PUSH2 0x2CEB JUMP JUMPDEST PUSH1 0x40 MLOAD DUP1 SWAP2 SUB SWAP1 REVERT JUMPDEST PUSH1 0x0 DUP2 PUSH20 0xFFFFFFFFFFFFFFFFFFFFFFFFFFFFFFFFFFFFFFFF AND PUSH4 0xC1E80334 PUSH1 0x40 MLOAD DUP2 PUSH4 0xFFFFFFFF AND PUSH1 0xE0 SHL DUP2 MSTORE PUSH1 0x4 ADD PUSH1 0x20 PUSH1 0x40 MLOAD DUP1 DUP4 SUB DUP2 PUSH1 0x0 DUP8 DUP1 EXTCODESIZE ISZERO DUP1 ISZERO PUSH2 0x446 JUMPI PUSH1 0x0 DUP1 REVERT JUMPDEST POP GAS CALL ISZERO DUP1 ISZERO PUSH2 0x45A JUMPI RETURNDATASIZE PUSH1 0x0 DUP1 RETURNDATACOPY RETURNDATASIZE PUSH1 0x0 REVERT JUMPDEST POP POP POP POP PUSH1 0x40 MLOAD RETURNDATASIZE PUSH1 0x1F NOT PUSH1 0x1F DUP3 ADD AND DUP3 ADD DUP1 PUSH1 0x40 MSTORE POP PUSH2 0x47E SWAP2 SWAP1 DUP2 ADD SWAP1 PUSH2 0x2897 JUMP JUMPDEST EQ PUSH2 0x4BE JUMPI PUSH1 0x40 MLOAD PUSH32 0x8C379A000000000000000000000000000000000000000000000000000000000 DUP2 MSTORE PUSH1 0x4 ADD PUSH2 0x4B5 SWAP1 PUSH2 0x2D0B JUMP JUMPDEST PUSH1 0x40 MLOAD DUP1 SWAP2 SUB SWAP1 REVERT JUMPDEST POP JUMP JUMPDEST PUSH2 0x4C9 PUSH2 0x22A4 JUMP JUMPDEST PUSH1 0x0 PUSH2 0x4D3 PUSH2 0x913 JUMP JUMPDEST SWAP1 POP PUSH2 0x4DD PUSH2 0x22BE JUMP JUMPDEST DUP2 PUSH20 0xFFFFFFFFFFFFFFFFFFFFFFFFFFFFFFFFFFFFFFFF AND PUSH4 0x1EA63741 PUSH2 0x501 PUSH2 0x92F JUMP JUMPDEST PUSH2 0x509 PUSH2 0x94B JUMP JUMPDEST DUP8 PUSH1 0x40 MLOAD DUP5 PUSH4 0xFFFFFFFF AND PUSH1 0xE0 SHL DUP2 MSTORE PUSH1 0x4 ADD PUSH2 0x528 SWAP4 SWAP3 SWAP2 SWAP1 PUSH2 0x2C92 JUMP JUMPDEST PUSH1 0x80 PUSH1 0x40 MLOAD DUP1 DUP4 SUB DUP2 PUSH1 0x0 DUP8 DUP1 EXTCODESIZE ISZERO DUP1 ISZERO PUSH2 0x542 JUMPI PUSH1 0x0 DUP1 REVERT JUMPDEST POP GAS CALL ISZERO DUP1 ISZERO PUSH2 0x556 JUMPI RETURNDATASIZE PUSH1 0x0 DUP1 RETURNDATACOPY RETURNDATASIZE PUSH1 0x0 REVERT JUMPDEST POP POP POP POP PUSH1 0x40 MLOAD RETURNDATASIZE PUSH1 0x1F NOT PUSH1 0x1F DUP3 ADD AND DUP3 ADD DUP1 PUSH1 0x40 MSTORE POP PUSH2 0x57A SWAP2 SWAP1 DUP2 ADD SWAP1 PUSH2 0x286E JUMP JUMPDEST SWAP1 POP DUP1 PUSH1 0x0 ADD MLOAD DUP4 PUSH1 0x0 ADD DUP2 DUP2 MSTORE POP POP DUP1 PUSH1 0x60 ADD MLOAD DUP4 PUSH1 0x20 ADD DUP2 DUP2 MSTORE POP POP POP POP SWAP2 SWAP1 POP JUMP JUMPDEST PUSH1 0x1 PUSH1 0x0 SWAP1 SLOAD SWAP1 PUSH2 0x100 EXP SWAP1 DIV PUSH20 0xFFFFFFFFFFFFFFFFFFFFFFFFFFFFFFFFFFFFFFFF AND DUP2 JUMP JUMPDEST PUSH1 0x0 PUSH1 0x60 PUSH1 0x0 DUP1 PUSH1 0x60 PUSH2 0x5D6 PUSH2 0x22FC JUMP JUMPDEST PUSH2 0x5F8 DUP8 PUSH2 0x5F3 PUSH2 0x5E5 PUSH2 0x967 JUMP JUMPDEST PUSH8 0xDE0B6B3A7640000 PUSH2 0x9C9 JUMP JUMPDEST PUSH2 0xA13 JUMP JUMPDEST SWAP3 POP SWAP3 POP SWAP3 POP PUSH1 0x0 PUSH1 0x4 DUP2 GT ISZERO PUSH2 0x60B JUMPI INVALID JUMPDEST DUP4 PUSH1 0x4 DUP2 GT ISZERO PUSH2 0x617 JUMPI INVALID JUMPDEST EQ PUSH2 0x63C JUMPI DUP3 PUSH1 0x4 DUP2 GT ISZERO PUSH2 0x628 JUMPI INVALID JUMPDEST DUP3 PUSH1 0x0 DUP1 SWAP1 POP SWAP6 POP SWAP6 POP SWAP6 POP POP POP POP PUSH2 0x661 JUMP JUMPDEST PUSH1 0x0 DUP2 PUSH1 0x0 ADD MLOAD DUP2 SWAP2 POP PUSH1 0x40 MLOAD DUP1 PUSH1 0x20 ADD PUSH1 0x40 MSTORE DUP1 PUSH1 0x0 DUP2 MSTORE POP SWAP1 SWAP6 POP SWAP6 POP SWAP6 POP POP POP POP JUMPDEST SWAP2 SWAP4 SWAP1 SWAP3 POP JUMP JUMPDEST PUSH1 0x0 DUP1 PUSH2 0x673 PUSH2 0x8F7 JUMP JUMPDEST SWAP1 POP DUP1 PUSH20 0xFFFFFFFFFFFFFFFFFFFFFFFFFFFFFFFFFFFFFFFF AND PUSH4 0xFE2C6198 PUSH1 0x40 MLOAD DUP2 PUSH4 0xFFFFFFFF AND PUSH1 0xE0 SHL DUP2 MSTORE PUSH1 0x4 ADD PUSH2 0x6AC SWAP1 PUSH2 0x2D2B JUMP JUMPDEST PUSH1 0x20 PUSH1 0x40 MLOAD DUP1 DUP4 SUB DUP2 DUP7 DUP1 EXTCODESIZE ISZERO DUP1 ISZERO PUSH2 0x6C4 JUMPI PUSH1 0x0 DUP1 REVERT JUMPDEST POP GAS STATICCALL ISZERO DUP1 ISZERO PUSH2 0x6D8 JUMPI RETURNDATASIZE PUSH1 0x0 DUP1 RETURNDATACOPY RETURNDATASIZE PUSH1 0x0 REVERT JUMPDEST POP POP POP POP PUSH1 0x40 MLOAD RETURNDATASIZE PUSH1 0x1F NOT PUSH1 0x1F DUP3 ADD AND DUP3 ADD DUP1 PUSH1 0x40 MSTORE POP PUSH2 0x6FC SWAP2 SWAP1 DUP2 ADD SWAP1 PUSH2 0x2897 JUMP JUMPDEST SWAP2 POP POP SWAP1 JUMP JUMPDEST PUSH1 0x2 PUSH1 0x0 SWAP1 SLOAD SWAP1 PUSH2 0x100 EXP SWAP1 DIV PUSH20 0xFFFFFFFFFFFFFFFFFFFFFFFFFFFFFFFFFFFFFFFF AND DUP2 JUMP JUMPDEST PUSH1 0x0 DUP2 PUSH1 0x40 MLOAD PUSH1 0x20 ADD PUSH2 0x73B SWAP2 SWAP1 PUSH2 0x2C0E JUMP JUMPDEST PUSH1 0x40 MLOAD PUSH1 0x20 DUP2 DUP4 SUB SUB DUP2 MSTORE SWAP1 PUSH1 0x40 MSTORE DUP1 MLOAD SWAP1 PUSH1 0x20 ADD KECCAK256 DUP4 PUSH1 0x40 MLOAD PUSH1 0x20 ADD PUSH2 0x762 SWAP2 SWAP1 PUSH2 0x2C0E JUMP JUMPDEST PUSH1 0x40 MLOAD PUSH1 0x20 DUP2 DUP4 SUB SUB DUP2 MSTORE SWAP1 PUSH1 0x40 MSTORE DUP1 MLOAD SWAP1 PUSH1 0x20 ADD KECCAK256 EQ SWAP1 POP SWAP3 SWAP2 POP POP JUMP JUMPDEST PUSH1 0x60 DUP1 PUSH1 0x60 PUSH2 0x78E PUSH2 0xB76 JUMP JUMPDEST SWAP1 POP PUSH1 0x60 DUP2 MLOAD PUSH1 0x40 MLOAD SWAP1 DUP1 DUP3 MSTORE DUP1 PUSH1 0x20 MUL PUSH1 0x20 ADD DUP3 ADD PUSH1 0x40 MSTORE DUP1 ISZERO PUSH2 0x7C7 JUMPI DUP2 PUSH1 0x20 ADD JUMPDEST PUSH1 0x60 DUP2 MSTORE PUSH1 0x20 ADD SWAP1 PUSH1 0x1 SWAP1 SUB SWAP1 DUP2 PUSH2 0x7B2 JUMPI SWAP1 POP JUMPDEST POP SWAP1 POP PUSH1 0x60 DUP3 MLOAD PUSH1 0x40 MLOAD SWAP1 DUP1 DUP3 MSTORE DUP1 PUSH1 0x20 MUL PUSH1 0x20 ADD DUP3 ADD PUSH1 0x40 MSTORE DUP1 ISZERO PUSH2 0x7FC JUMPI DUP2 PUSH1 0x20 ADD PUSH1 0x20 DUP3 MUL DUP1 CODESIZE DUP4 CODECOPY DUP1 DUP3 ADD SWAP2 POP POP SWAP1 POP JUMPDEST POP SWAP1 POP PUSH2 0x807 PUSH2 0x22FC JUMP JUMPDEST PUSH1 0x0 DUP1 SWAP1 POP JUMPDEST DUP5 MLOAD DUP2 LT ISZERO PUSH2 0x891 JUMPI PUSH2 0x83A PUSH2 0x835 DUP7 DUP4 DUP2 MLOAD DUP2 LT PUSH2 0x828 JUMPI INVALID JUMPDEST PUSH1 0x20 MUL PUSH1 0x20 ADD ADD MLOAD PUSH2 0xE6B JUMP JUMPDEST PUSH2 0xFE5 JUMP JUMPDEST SWAP2 POP DUP5 DUP2 DUP2 MLOAD DUP2 LT PUSH2 0x848 JUMPI INVALID JUMPDEST PUSH1 0x20 MUL PUSH1 0x20 ADD ADD MLOAD DUP5 DUP3 DUP2 MLOAD DUP2 LT PUSH2 0x85C JUMPI INVALID JUMPDEST PUSH1 0x20 MUL PUSH1 0x20 ADD ADD DUP2 SWAP1 MSTORE POP DUP2 PUSH1 0x0 ADD MLOAD DUP4 DUP3 DUP2 MLOAD DUP2 LT PUSH2 0x878 JUMPI INVALID JUMPDEST PUSH1 0x20 MUL PUSH1 0x20 ADD ADD DUP2 DUP2 MSTORE POP POP DUP1 DUP1 PUSH1 0x1 ADD SWAP2 POP POP PUSH2 0x80D JUMP JUMPDEST POP PUSH2 0x89C DUP4 DUP4 PUSH2 0x1126 JUMP JUMPDEST DUP1 SWAP7 POP DUP2 SWAP8 POP POP POP POP POP POP POP SWAP1 SWAP2 JUMP JUMPDEST PUSH1 0x3 PUSH1 0x0 SWAP1 SLOAD SWAP1 PUSH2 0x100 EXP SWAP1 DIV PUSH20 0xFFFFFFFFFFFFFFFFFFFFFFFFFFFFFFFFFFFFFFFF AND DUP2 JUMP JUMPDEST PUSH1 0x0 DUP1 SWAP1 SLOAD SWAP1 PUSH2 0x100 EXP SWAP1 DIV PUSH20 0xFFFFFFFFFFFFFFFFFFFFFFFFFFFFFFFFFFFFFFFF AND DUP2 JUMP JUMPDEST PUSH1 0x0 PUSH20 0x922018674C12A7F0D394EBEEF9B58F186CDE13C1 SWAP1 POP SWAP1 JUMP JUMPDEST PUSH1 0x0 PUSH20 0xD513D22422A3062BD342AE374B4B9C20E0A9A074 SWAP1 POP SWAP1 JUMP JUMPDEST PUSH1 0x0 PUSH20 0xC00E94CB662C3520282E6F5717214004A7F26888 SWAP1 POP SWAP1 JUMP JUMPDEST PUSH1 0x0 PUSH20 0x3D9819210A31B4961B30EF54BE2AED79B9C9CD3B SWAP1 POP SWAP1 JUMP JUMPDEST PUSH1 0x0 DUP1 PUSH1 0xE SWAP1 POP PUSH1 0x0 PUSH4 0x1E13380 SWAP1 POP PUSH1 0x0 PUSH2 0x981 PUSH2 0x22FC JUMP JUMPDEST PUSH2 0x98B DUP4 DUP6 PUSH2 0x1331 JUMP JUMPDEST SWAP2 POP SWAP2 POP PUSH1 0x0 PUSH1 0x3 DUP2 GT ISZERO PUSH2 0x99C JUMPI INVALID JUMPDEST DUP3 PUSH1 0x3 DUP2 GT ISZERO PUSH2 0x9A8 JUMPI INVALID JUMPDEST EQ PUSH2 0x9BA JUMPI PUSH1 0x0 SWAP5 POP POP POP POP POP PUSH2 0x9C6 JUMP JUMPDEST DUP1 PUSH1 0x0 ADD MLOAD SWAP5 POP POP POP POP POP JUMPDEST SWAP1 JUMP JUMPDEST PUSH1 0x0 PUSH2 0xA0B DUP4 DUP4 PUSH1 0x40 MLOAD DUP1 PUSH1 0x40 ADD PUSH1 0x40 MSTORE DUP1 PUSH1 0xE DUP2 MSTORE PUSH1 0x20 ADD PUSH32 0x646976696465206279207A65726F000000000000000000000000000000000000 DUP2 MSTORE POP PUSH2 0x1405 JUMP JUMPDEST SWAP1 POP SWAP3 SWAP2 POP POP JUMP JUMPDEST PUSH1 0x0 PUSH1 0x60 PUSH2 0xA1F PUSH2 0x22FC JUMP JUMPDEST PUSH1 0x60 PUSH2 0xA29 PUSH2 0xB76 JUMP JUMPDEST SWAP1 POP PUSH1 0x0 DUP2 MLOAD SWAP1 POP PUSH1 0x0 DUP1 SWAP1 POP PUSH1 0x60 DUP3 PUSH1 0x40 MLOAD SWAP1 DUP1 DUP3 MSTORE DUP1 PUSH1 0x20 MUL PUSH1 0x20 ADD DUP3 ADD PUSH1 0x40 MSTORE DUP1 ISZERO PUSH2 0xA72 JUMPI DUP2 PUSH1 0x20 ADD JUMPDEST PUSH2 0xA5F PUSH2 0x230F JUMP JUMPDEST DUP2 MSTORE PUSH1 0x20 ADD SWAP1 PUSH1 0x1 SWAP1 SUB SWAP1 DUP2 PUSH2 0xA57 JUMPI SWAP1 POP JUMPDEST POP SWAP1 POP PUSH1 0x40 MLOAD DUP1 PUSH1 0x20 ADD PUSH1 0x40 MSTORE DUP1 PUSH1 0x0 DUP2 MSTORE POP SWAP5 POP PUSH1 0x0 DUP1 SWAP1 POP JUMPDEST DUP4 DUP2 LT ISZERO PUSH2 0xB4F JUMPI PUSH1 0x60 DUP6 DUP3 DUP2 MLOAD DUP2 LT PUSH2 0xAA3 JUMPI INVALID JUMPDEST PUSH1 0x20 MUL PUSH1 0x20 ADD ADD MLOAD SWAP1 POP PUSH2 0xAC0 DUP12 PUSH2 0xABA DUP4 PUSH2 0xE6B JUMP JUMPDEST DUP13 PUSH2 0x1460 JUMP JUMPDEST DUP1 SWAP1 POP DUP5 DUP5 DUP2 MLOAD DUP2 LT PUSH2 0xACF JUMPI INVALID JUMPDEST PUSH1 0x20 MUL PUSH1 0x20 ADD ADD DUP2 SWAP1 MSTORE DUP2 SWAP6 POP POP POP PUSH1 0x0 PUSH1 0x4 DUP2 GT ISZERO PUSH2 0xAEB JUMPI INVALID JUMPDEST DUP5 PUSH1 0x4 DUP2 GT ISZERO PUSH2 0xAF7 JUMPI INVALID JUMPDEST EQ PUSH2 0xB22 JUMPI DUP4 DUP2 PUSH1 0x40 MLOAD DUP1 PUSH1 0x20 ADD PUSH1 0x40 MSTORE DUP1 PUSH1 0x0 DUP2 MSTORE POP DUP1 SWAP1 POP SWAP9 POP SWAP9 POP SWAP9 POP POP POP POP POP POP POP PUSH2 0xB6F JUMP JUMPDEST PUSH2 0xB3F DUP8 DUP5 DUP5 DUP2 MLOAD DUP2 LT PUSH2 0xB32 JUMPI INVALID JUMPDEST PUSH1 0x20 MUL PUSH1 0x20 ADD ADD MLOAD PUSH2 0x16D3 JUMP JUMPDEST SWAP7 POP POP DUP1 DUP1 PUSH1 0x1 ADD SWAP2 POP POP PUSH2 0xA8D JUMP JUMPDEST POP PUSH1 0x0 DUP6 PUSH1 0x40 MLOAD DUP1 PUSH1 0x20 ADD PUSH1 0x40 MSTORE DUP1 PUSH1 0x0 DUP2 MSTORE POP SWAP1 SWAP7 POP SWAP7 POP SWAP7 POP POP POP POP POP JUMPDEST SWAP3 POP SWAP3 POP SWAP3 JUMP JUMPDEST PUSH1 0x60 PUSH1 0x0 PUSH2 0xB82 PUSH2 0x94B JUMP JUMPDEST SWAP1 POP PUSH1 0x60 DUP2 PUSH20 0xFFFFFFFFFFFFFFFFFFFFFFFFFFFFFFFFFFFFFFFF AND PUSH4 0xB0772D0B PUSH1 0x40 MLOAD DUP2 PUSH4 0xFFFFFFFF AND PUSH1 0xE0 SHL DUP2 MSTORE PUSH1 0x4 ADD PUSH1 0x0 PUSH1 0x40 MLOAD DUP1 DUP4 SUB DUP2 DUP7 DUP1 EXTCODESIZE ISZERO DUP1 ISZERO PUSH2 0xBCC JUMPI PUSH1 0x0 DUP1 REVERT JUMPDEST POP GAS STATICCALL ISZERO DUP1 ISZERO PUSH2 0xBE0 JUMPI RETURNDATASIZE PUSH1 0x0 DUP1 RETURNDATACOPY RETURNDATASIZE PUSH1 0x0 REVERT JUMPDEST POP POP POP POP PUSH1 0x40 MLOAD RETURNDATASIZE PUSH1 0x0 DUP3 RETURNDATACOPY RETURNDATASIZE PUSH1 0x1F NOT PUSH1 0x1F DUP3 ADD AND DUP3 ADD DUP1 PUSH1 0x40 MSTORE POP PUSH2 0xC09 SWAP2 SWAP1 DUP2 ADD SWAP1 PUSH2 0x2708 JUMP JUMPDEST SWAP1 POP PUSH1 0x0 DUP1 PUSH1 0x0 DUP1 PUSH1 0x60 DUP6 MLOAD PUSH1 0x40 MLOAD SWAP1 DUP1 DUP3 MSTORE DUP1 PUSH1 0x20 MUL PUSH1 0x20 ADD DUP3 ADD PUSH1 0x40 MSTORE DUP1 ISZERO PUSH2 0xC48 JUMPI DUP2 PUSH1 0x20 ADD JUMPDEST PUSH1 0x60 DUP2 MSTORE PUSH1 0x20 ADD SWAP1 PUSH1 0x1 SWAP1 SUB SWAP1 DUP2 PUSH2 0xC33 JUMPI SWAP1 POP JUMPDEST POP SWAP1 POP PUSH1 0x0 DUP1 SWAP1 POP JUMPDEST DUP7 MLOAD DUP2 LT ISZERO PUSH2 0xDE1 JUMPI DUP7 DUP2 DUP2 MLOAD DUP2 LT PUSH2 0xC66 JUMPI INVALID JUMPDEST PUSH1 0x20 MUL PUSH1 0x20 ADD ADD MLOAD SWAP4 POP DUP8 PUSH20 0xFFFFFFFFFFFFFFFFFFFFFFFFFFFFFFFFFFFFFFFF AND PUSH4 0x8E8F294B DUP6 PUSH1 0x40 MLOAD DUP3 PUSH4 0xFFFFFFFF AND PUSH1 0xE0 SHL DUP2 MSTORE PUSH1 0x4 ADD PUSH2 0xCA9 SWAP2 SWAP1 PUSH2 0x2C25 JUMP JUMPDEST PUSH1 0x60 PUSH1 0x40 MLOAD DUP1 DUP4 SUB DUP2 DUP7 DUP1 EXTCODESIZE ISZERO DUP1 ISZERO PUSH2 0xCC1 JUMPI PUSH1 0x0 DUP1 REVERT JUMPDEST POP GAS STATICCALL ISZERO DUP1 ISZERO PUSH2 0xCD5 JUMPI RETURNDATASIZE PUSH1 0x0 DUP1 RETURNDATACOPY RETURNDATASIZE PUSH1 0x0 REVERT JUMPDEST POP POP POP POP PUSH1 0x40 MLOAD RETURNDATASIZE PUSH1 0x1F NOT PUSH1 0x1F DUP3 ADD AND DUP3 ADD DUP1 PUSH1 0x40 MSTORE POP PUSH2 0xCF9 SWAP2 SWAP1 DUP2 ADD SWAP1 PUSH2 0x2749 JUMP JUMPDEST SWAP1 POP DUP1 SWAP7 POP DUP2 SWAP8 POP POP POP DUP6 DUP1 ISZERO PUSH2 0xD0D JUMPI POP DUP5 JUMPDEST ISZERO PUSH2 0xDD4 JUMPI PUSH1 0x0 DUP8 DUP3 DUP2 MLOAD DUP2 LT PUSH2 0xD20 JUMPI INVALID JUMPDEST PUSH1 0x20 MUL PUSH1 0x20 ADD ADD MLOAD SWAP1 POP PUSH1 0x60 DUP2 PUSH20 0xFFFFFFFFFFFFFFFFFFFFFFFFFFFFFFFFFFFFFFFF AND PUSH4 0x95D89B41 PUSH1 0x40 MLOAD DUP2 PUSH4 0xFFFFFFFF AND PUSH1 0xE0 SHL DUP2 MSTORE PUSH1 0x4 ADD PUSH1 0x0 PUSH1 0x40 MLOAD DUP1 DUP4 SUB DUP2 DUP7 DUP1 EXTCODESIZE ISZERO DUP1 ISZERO PUSH2 0xD72 JUMPI PUSH1 0x0 DUP1 REVERT JUMPDEST POP GAS STATICCALL ISZERO DUP1 ISZERO PUSH2 0xD86 JUMPI RETURNDATASIZE PUSH1 0x0 DUP1 RETURNDATACOPY RETURNDATASIZE PUSH1 0x0 REVERT JUMPDEST POP POP POP POP PUSH1 0x40 MLOAD RETURNDATASIZE PUSH1 0x0 DUP3 RETURNDATACOPY RETURNDATASIZE PUSH1 0x1F NOT PUSH1 0x1F DUP3 ADD AND DUP3 ADD DUP1 PUSH1 0x40 MSTORE POP PUSH2 0xDAF SWAP2 SWAP1 DUP2 ADD SWAP1 PUSH2 0x27C1 JUMP JUMPDEST SWAP1 POP DUP1 DUP5 DUP7 DUP2 MLOAD DUP2 LT PUSH2 0xDBE JUMPI INVALID JUMPDEST PUSH1 0x20 MUL PUSH1 0x20 ADD ADD DUP2 SWAP1 MSTORE POP DUP5 DUP1 PUSH1 0x1 ADD SWAP6 POP POP POP POP JUMPDEST DUP1 DUP1 PUSH1 0x1 ADD SWAP2 POP POP PUSH2 0xC51 JUMP JUMPDEST POP DUP2 PUSH1 0x40 MLOAD SWAP1 DUP1 DUP3 MSTORE DUP1 PUSH1 0x20 MUL PUSH1 0x20 ADD DUP3 ADD PUSH1 0x40 MSTORE DUP1 ISZERO PUSH2 0xE16 JUMPI DUP2 PUSH1 0x20 ADD JUMPDEST PUSH1 0x60 DUP2 MSTORE PUSH1 0x20 ADD SWAP1 PUSH1 0x1 SWAP1 SUB SWAP1 DUP2 PUSH2 0xE01 JUMPI SWAP1 POP JUMPDEST POP SWAP8 POP PUSH1 0x0 DUP1 SWAP1 POP JUMPDEST DUP9 MLOAD DUP2 LT ISZERO PUSH2 0xE60 JUMPI DUP2 DUP2 DUP2 MLOAD DUP2 LT PUSH2 0xE34 JUMPI INVALID JUMPDEST PUSH1 0x20 MUL PUSH1 0x20 ADD ADD MLOAD DUP10 DUP3 DUP2 MLOAD DUP2 LT PUSH2 0xE48 JUMPI INVALID JUMPDEST PUSH1 0x20 MUL PUSH1 0x20 ADD ADD DUP2 SWAP1 MSTORE POP DUP1 DUP1 PUSH1 0x1 ADD SWAP2 POP POP PUSH2 0xE1F JUMP JUMPDEST POP POP POP POP POP POP POP POP SWAP1 JUMP JUMPDEST PUSH1 0x0 DUP1 PUSH2 0xE76 PUSH2 0x94B JUMP JUMPDEST SWAP1 POP PUSH1 0x60 DUP2 PUSH20 0xFFFFFFFFFFFFFFFFFFFFFFFFFFFFFFFFFFFFFFFF AND PUSH4 0xB0772D0B PUSH1 0x40 MLOAD DUP2 PUSH4 0xFFFFFFFF AND PUSH1 0xE0 SHL DUP2 MSTORE PUSH1 0x4 ADD PUSH1 0x0 PUSH1 0x40 MLOAD DUP1 DUP4 SUB DUP2 DUP7 DUP1 EXTCODESIZE ISZERO DUP1 ISZERO PUSH2 0xEC0 JUMPI PUSH1 0x0 DUP1 REVERT JUMPDEST POP GAS STATICCALL ISZERO DUP1 ISZERO PUSH2 0xED4 JUMPI RETURNDATASIZE PUSH1 0x0 DUP1 RETURNDATACOPY RETURNDATASIZE PUSH1 0x0 REVERT JUMPDEST POP POP POP POP PUSH1 0x40 MLOAD RETURNDATASIZE PUSH1 0x0 DUP3 RETURNDATACOPY RETURNDATASIZE PUSH1 0x1F NOT PUSH1 0x1F DUP3 ADD AND DUP3 ADD DUP1 PUSH1 0x40 MSTORE POP PUSH2 0xEFD SWAP2 SWAP1 DUP2 ADD SWAP1 PUSH2 0x2708 JUMP JUMPDEST SWAP1 POP PUSH1 0x0 DUP1 SWAP1 POP JUMPDEST DUP2 MLOAD DUP2 LT ISZERO PUSH2 0xFD8 JUMPI PUSH1 0x0 DUP3 DUP3 DUP2 MLOAD DUP2 LT PUSH2 0xF1C JUMPI INVALID JUMPDEST PUSH1 0x20 MUL PUSH1 0x20 ADD ADD MLOAD SWAP1 POP PUSH1 0x60 DUP2 PUSH20 0xFFFFFFFFFFFFFFFFFFFFFFFFFFFFFFFFFFFFFFFF AND PUSH4 0x95D89B41 PUSH1 0x40 MLOAD DUP2 PUSH4 0xFFFFFFFF AND PUSH1 0xE0 SHL DUP2 MSTORE PUSH1 0x4 ADD PUSH1 0x0 PUSH1 0x40 MLOAD DUP1 DUP4 SUB DUP2 DUP7 DUP1 EXTCODESIZE ISZERO DUP1 ISZERO PUSH2 0xF6E JUMPI PUSH1 0x0 DUP1 REVERT JUMPDEST POP GAS STATICCALL ISZERO DUP1 ISZERO PUSH2 0xF82 JUMPI RETURNDATASIZE PUSH1 0x0 DUP1 RETURNDATACOPY RETURNDATASIZE PUSH1 0x0 REVERT JUMPDEST POP POP POP POP PUSH1 0x40 MLOAD RETURNDATASIZE PUSH1 0x0 DUP3 RETURNDATACOPY RETURNDATASIZE PUSH1 0x1F NOT PUSH1 0x1F DUP3 ADD AND DUP3 ADD DUP1 PUSH1 0x40 MSTORE POP PUSH2 0xFAB SWAP2 SWAP1 DUP2 ADD SWAP1 PUSH2 0x27C1 JUMP JUMPDEST SWAP1 POP PUSH2 0xFB7 DUP2 DUP9 PUSH2 0x728 JUMP JUMPDEST ISZERO PUSH2 0xFC9 JUMPI DUP2 SWAP6 POP POP POP POP POP POP PUSH2 0xFE0 JUMP JUMPDEST POP POP DUP1 DUP1 PUSH1 0x1 ADD SWAP2 POP POP PUSH2 0xF05 JUMP JUMPDEST POP PUSH1 0x0 SWAP3 POP POP POP JUMPDEST SWAP2 SWAP1 POP JUMP JUMPDEST PUSH2 0xFED PUSH2 0x22FC JUMP JUMPDEST PUSH1 0x0 PUSH2 0xFF7 PUSH2 0x94B JUMP JUMPDEST SWAP1 POP PUSH1 0x0 PUSH2 0x1003 PUSH2 0x92F JUMP JUMPDEST PUSH20 0xFFFFFFFFFFFFFFFFFFFFFFFFFFFFFFFFFFFFFFFF AND PUSH4 0x313CE567 PUSH1 0x40 MLOAD DUP2 PUSH4 0xFFFFFFFF AND PUSH1 0xE0 SHL DUP2 MSTORE PUSH1 0x4 ADD PUSH1 0x20 PUSH1 0x40 MLOAD DUP1 DUP4 SUB DUP2 DUP7 DUP1 EXTCODESIZE ISZERO DUP1 ISZERO PUSH2 0x1048 JUMPI PUSH1 0x0 DUP1 REVERT JUMPDEST POP GAS STATICCALL ISZERO DUP1 ISZERO PUSH2 0x105C JUMPI RETURNDATASIZE PUSH1 0x0 DUP1 RETURNDATACOPY RETURNDATASIZE PUSH1 0x0 REVERT JUMPDEST POP POP POP POP PUSH1 0x40 MLOAD RETURNDATASIZE PUSH1 0x1F NOT PUSH1 0x1F DUP3 ADD AND DUP3 ADD DUP1 PUSH1 0x40 MSTORE POP PUSH2 0x1080 SWAP2 SWAP1 DUP2 ADD SWAP1 PUSH2 0x2897 JUMP JUMPDEST SWAP1 POP PUSH1 0x0 DUP3 PUSH20 0xFFFFFFFFFFFFFFFFFFFFFFFFFFFFFFFFFFFFFFFF AND PUSH4 0x1D7B33D7 DUP7 PUSH1 0x40 MLOAD DUP3 PUSH4 0xFFFFFFFF AND PUSH1 0xE0 SHL DUP2 MSTORE PUSH1 0x4 ADD PUSH2 0x10BD SWAP2 SWAP1 PUSH2 0x2C25 JUMP JUMPDEST PUSH1 0x20 PUSH1 0x40 MLOAD DUP1 DUP4 SUB DUP2 DUP7 DUP1 EXTCODESIZE ISZERO DUP1 ISZERO PUSH2 0x10D5 JUMPI PUSH1 0x0 DUP1 REVERT JUMPDEST POP GAS STATICCALL ISZERO DUP1 ISZERO PUSH2 0x10E9 JUMPI RETURNDATASIZE PUSH1 0x0 DUP1 RETURNDATACOPY RETURNDATASIZE PUSH1 0x0 REVERT JUMPDEST POP POP POP POP PUSH1 0x40 MLOAD RETURNDATASIZE PUSH1 0x1F NOT PUSH1 0x1F DUP3 ADD AND DUP3 ADD DUP1 PUSH1 0x40 MSTORE POP PUSH2 0x110D SWAP2 SWAP1 DUP2 ADD SWAP1 PUSH2 0x2897 JUMP JUMPDEST SWAP1 POP PUSH2 0x1119 DUP2 DUP4 PUSH2 0x1703 JUMP JUMPDEST SWAP4 POP DUP4 SWAP4 POP POP POP POP SWAP2 SWAP1 POP JUMP JUMPDEST PUSH1 0x60 DUP1 PUSH1 0x60 PUSH1 0x1 DUP6 MLOAD ADD PUSH1 0x40 MLOAD SWAP1 DUP1 DUP3 MSTORE DUP1 PUSH1 0x20 MUL PUSH1 0x20 ADD DUP3 ADD PUSH1 0x40 MSTORE DUP1 ISZERO PUSH2 0x1163 JUMPI DUP2 PUSH1 0x20 ADD JUMPDEST PUSH1 0x60 DUP2 MSTORE PUSH1 0x20 ADD SWAP1 PUSH1 0x1 SWAP1 SUB SWAP1 DUP2 PUSH2 0x114E JUMPI SWAP1 POP JUMPDEST POP SWAP1 POP PUSH1 0x60 PUSH1 0x1 DUP6 MLOAD ADD PUSH1 0x40 MLOAD SWAP1 DUP1 DUP3 MSTORE DUP1 PUSH1 0x20 MUL PUSH1 0x20 ADD DUP3 ADD PUSH1 0x40 MSTORE DUP1 ISZERO PUSH2 0x119B JUMPI DUP2 PUSH1 0x20 ADD PUSH1 0x20 DUP3 MUL DUP1 CODESIZE DUP4 CODECOPY DUP1 DUP3 ADD SWAP2 POP POP SWAP1 POP JUMPDEST POP SWAP1 POP PUSH1 0x0 DUP1 SWAP1 POP JUMPDEST DUP7 MLOAD DUP2 LT ISZERO PUSH2 0x1211 JUMPI DUP7 DUP2 DUP2 MLOAD DUP2 LT PUSH2 0x11B9 JUMPI INVALID JUMPDEST PUSH1 0x20 MUL PUSH1 0x20 ADD ADD MLOAD DUP4 DUP3 DUP2 MLOAD DUP2 LT PUSH2 0x11CD JUMPI INVALID JUMPDEST PUSH1 0x20 MUL PUSH1 0x20 ADD ADD DUP2 SWAP1 MSTORE POP DUP6 DUP2 DUP2 MLOAD DUP2 LT PUSH2 0x11E4 JUMPI INVALID JUMPDEST PUSH1 0x20 MUL PUSH1 0x20 ADD ADD MLOAD DUP3 DUP3 DUP2 MLOAD DUP2 LT PUSH2 0x11F8 JUMPI INVALID JUMPDEST PUSH1 0x20 MUL PUSH1 0x20 ADD ADD DUP2 DUP2 MSTORE POP POP DUP1 DUP1 PUSH1 0x1 ADD SWAP2 POP POP PUSH2 0x11A4 JUMP JUMPDEST POP PUSH2 0x1223 DUP3 DUP3 PUSH1 0x0 PUSH1 0x1 DUP7 MLOAD SUB PUSH2 0x1766 JUMP JUMPDEST DUP1 SWAP3 POP DUP2 SWAP4 POP POP POP PUSH1 0x60 DUP7 MLOAD PUSH1 0x40 MLOAD SWAP1 DUP1 DUP3 MSTORE DUP1 PUSH1 0x20 MUL PUSH1 0x20 ADD DUP3 ADD PUSH1 0x40 MSTORE DUP1 ISZERO PUSH2 0x1262 JUMPI DUP2 PUSH1 0x20 ADD JUMPDEST PUSH1 0x60 DUP2 MSTORE PUSH1 0x20 ADD SWAP1 PUSH1 0x1 SWAP1 SUB SWAP1 DUP2 PUSH2 0x124D JUMPI SWAP1 POP JUMPDEST POP SWAP1 POP PUSH1 0x60 DUP7 MLOAD PUSH1 0x40 MLOAD SWAP1 DUP1 DUP3 MSTORE DUP1 PUSH1 0x20 MUL PUSH1 0x20 ADD DUP3 ADD PUSH1 0x40 MSTORE DUP1 ISZERO PUSH2 0x1297 JUMPI DUP2 PUSH1 0x20 ADD PUSH1 0x20 DUP3 MUL DUP1 CODESIZE DUP4 CODECOPY DUP1 DUP3 ADD SWAP2 POP POP SWAP1 POP JUMPDEST POP SWAP1 POP PUSH1 0x0 DUP1 SWAP1 POP JUMPDEST DUP9 MLOAD DUP2 LT ISZERO PUSH2 0x131F JUMPI DUP5 PUSH1 0x1 DUP3 ADD DUP2 MLOAD DUP2 LT PUSH2 0x12B8 JUMPI INVALID JUMPDEST PUSH1 0x20 MUL PUSH1 0x20 ADD ADD MLOAD DUP4 DUP3 PUSH1 0x1 DUP13 MLOAD SUB SUB DUP2 MLOAD DUP2 LT PUSH2 0x12D2 JUMPI INVALID JUMPDEST PUSH1 0x20 MUL PUSH1 0x20 ADD ADD DUP2 SWAP1 MSTORE POP DUP4 PUSH1 0x1 DUP3 ADD DUP2 MLOAD DUP2 LT PUSH2 0x12EC JUMPI INVALID JUMPDEST PUSH1 0x20 MUL PUSH1 0x20 ADD ADD MLOAD DUP3 DUP3 PUSH1 0x1 DUP13 MLOAD SUB SUB DUP2 MLOAD DUP2 LT PUSH2 0x1306 JUMPI INVALID JUMPDEST PUSH1 0x20 MUL PUSH1 0x20 ADD ADD DUP2 DUP2 MSTORE POP POP DUP1 DUP1 PUSH1 0x1 ADD SWAP2 POP POP PUSH2 0x12A0 JUMP JUMPDEST POP DUP2 DUP2 SWAP6 POP SWAP6 POP POP POP POP POP SWAP3 POP SWAP3 SWAP1 POP JUMP JUMPDEST PUSH1 0x0 PUSH2 0x133B PUSH2 0x22FC JUMP JUMPDEST PUSH1 0x0 DUP1 PUSH2 0x1350 DUP7 PUSH8 0xDE0B6B3A7640000 PUSH2 0x1900 JUMP JUMPDEST SWAP2 POP SWAP2 POP PUSH1 0x0 PUSH1 0x3 DUP2 GT ISZERO PUSH2 0x1361 JUMPI INVALID JUMPDEST DUP3 PUSH1 0x3 DUP2 GT ISZERO PUSH2 0x136D JUMPI INVALID JUMPDEST EQ PUSH2 0x1391 JUMPI DUP2 PUSH1 0x40 MLOAD DUP1 PUSH1 0x20 ADD PUSH1 0x40 MSTORE DUP1 PUSH1 0x0 DUP2 MSTORE POP DUP1 SWAP1 POP SWAP4 POP SWAP4 POP POP POP PUSH2 0x13FE JUMP JUMPDEST PUSH1 0x0 DUP1 PUSH2 0x139E DUP4 DUP9 PUSH2 0x1953 JUMP JUMPDEST SWAP2 POP SWAP2 POP PUSH1 0x0 PUSH1 0x3 DUP2 GT ISZERO PUSH2 0x13AF JUMPI INVALID JUMPDEST DUP3 PUSH1 0x3 DUP2 GT ISZERO PUSH2 0x13BB JUMPI INVALID JUMPDEST EQ PUSH2 0x13E1 JUMPI DUP2 PUSH1 0x40 MLOAD DUP1 PUSH1 0x20 ADD PUSH1 0x40 MSTORE DUP1 PUSH1 0x0 DUP2 MSTORE POP DUP1 SWAP1 POP SWAP6 POP SWAP6 POP POP POP POP POP PUSH2 0x13FE JUMP JUMPDEST PUSH1 0x0 PUSH1 0x40 MLOAD DUP1 PUSH1 0x20 ADD PUSH1 0x40 MSTORE DUP1 DUP4 DUP2 MSTORE POP DUP1 SWAP1 POP SWAP6 POP SWAP6 POP POP POP POP POP JUMPDEST SWAP3 POP SWAP3 SWAP1 POP JUMP JUMPDEST PUSH1 0x0 DUP1 DUP4 GT DUP3 SWAP1 PUSH2 0x144C JUMPI PUSH1 0x40 MLOAD PUSH32 0x8C379A000000000000000000000000000000000000000000000000000000000 DUP2 MSTORE PUSH1 0x4 ADD PUSH2 0x1443 SWAP2 SWAP1 PUSH2 0x2CC9 JUMP JUMPDEST PUSH1 0x40 MLOAD DUP1 SWAP2 SUB SWAP1 REVERT JUMPDEST POP DUP3 DUP5 DUP2 PUSH2 0x1456 JUMPI INVALID JUMPDEST DIV SWAP1 POP SWAP4 SWAP3 POP POP POP JUMP JUMPDEST PUSH1 0x0 PUSH2 0x146A PUSH2 0x22FC JUMP JUMPDEST PUSH2 0x1472 PUSH2 0x2322 JUMP JUMPDEST DUP5 PUSH20 0xFFFFFFFFFFFFFFFFFFFFFFFFFFFFFFFFFFFFFFFF AND PUSH4 0x313CE567 PUSH1 0x40 MLOAD DUP2 PUSH4 0xFFFFFFFF AND PUSH1 0xE0 SHL DUP2 MSTORE PUSH1 0x4 ADD PUSH1 0x20 PUSH1 0x40 MLOAD DUP1 DUP4 SUB DUP2 DUP7 DUP1 EXTCODESIZE ISZERO DUP1 ISZERO PUSH2 0x14B8 JUMPI PUSH1 0x0 DUP1 REVERT JUMPDEST POP GAS STATICCALL ISZERO DUP1 ISZERO PUSH2 0x14CC JUMPI RETURNDATASIZE PUSH1 0x0 DUP1 RETURNDATACOPY RETURNDATASIZE PUSH1 0x0 REVERT JUMPDEST POP POP POP POP PUSH1 0x40 MLOAD RETURNDATASIZE PUSH1 0x1F NOT PUSH1 0x1F DUP3 ADD AND DUP3 ADD DUP1 PUSH1 0x40 MSTORE POP PUSH2 0x14F0 SWAP2 SWAP1 DUP2 ADD SWAP1 PUSH2 0x2897 JUMP JUMPDEST DUP2 PUSH1 0x0 ADD DUP2 DUP2 MSTORE POP POP PUSH2 0x1502 DUP6 PUSH2 0x1987 JUMP JUMPDEST DUP2 PUSH1 0x20 ADD DUP2 DUP2 MSTORE POP POP PUSH2 0x1514 DUP6 PUSH2 0xFE5 JUMP JUMPDEST DUP2 PUSH2 0x160 ADD DUP2 SWAP1 MSTORE POP PUSH2 0x1527 DUP7 DUP7 PUSH2 0x1AD6 JUMP JUMPDEST DUP5 PUSH1 0x60 ADD DUP6 PUSH1 0x80 ADD DUP7 PUSH1 0xA0 ADD DUP8 PUSH1 0xC0 ADD DUP5 DUP2 MSTORE POP DUP5 DUP2 MSTORE POP DUP5 DUP2 MSTORE POP DUP5 DUP2 MSTORE POP POP POP POP POP PUSH1 0x0 DUP2 PUSH1 0x60 ADD MLOAD EQ PUSH2 0x1576 JUMPI PUSH1 0x3 PUSH1 0x40 MLOAD DUP1 PUSH1 0x20 ADD PUSH1 0x40 MSTORE DUP1 PUSH1 0x0 DUP2 MSTORE POP DUP1 SWAP1 POP SWAP3 POP SWAP3 POP POP PUSH2 0x16CB JUMP JUMPDEST PUSH2 0x15A4 PUSH1 0x40 MLOAD DUP1 PUSH1 0x20 ADD PUSH1 0x40 MSTORE DUP1 DUP4 PUSH1 0x80 ADD MLOAD DUP2 MSTORE POP PUSH1 0x40 MLOAD DUP1 PUSH1 0x20 ADD PUSH1 0x40 MSTORE DUP1 DUP5 PUSH1 0xC0 ADD MLOAD DUP2 MSTORE POP PUSH2 0x1D05 JUMP JUMPDEST DUP2 PUSH2 0x180 ADD DUP2 SWAP1 MSTORE POP PUSH1 0x40 MLOAD DUP1 PUSH1 0x20 ADD PUSH1 0x40 MSTORE DUP1 DUP3 PUSH1 0xA0 ADD MLOAD DUP2 MSTORE POP DUP2 PUSH2 0x1A0 ADD DUP2 SWAP1 MSTORE POP PUSH2 0x15D2 DUP6 PUSH2 0x1D46 JUMP JUMPDEST DUP2 PUSH2 0x120 ADD DUP2 DUP2 MSTORE POP POP PUSH2 0x15E5 DUP6 PUSH2 0x1EEA JUMP JUMPDEST DUP2 PUSH2 0x140 ADD DUP2 DUP2 MSTORE POP POP PUSH2 0x1614 PUSH2 0x1609 DUP3 PUSH2 0x180 ADD MLOAD PUSH8 0xDE0B6B3A7640000 PUSH2 0x1F76 JUMP JUMPDEST DUP3 PUSH2 0x120 ADD MLOAD PUSH2 0x1FA2 JUMP JUMPDEST DUP2 PUSH2 0x1E0 ADD DUP2 SWAP1 MSTORE POP PUSH2 0x1642 PUSH2 0x1637 DUP3 PUSH2 0x1A0 ADD MLOAD PUSH8 0xDE0B6B3A7640000 PUSH2 0x1F76 JUMP JUMPDEST DUP3 PUSH2 0x140 ADD MLOAD PUSH2 0x1FA2 JUMP JUMPDEST DUP2 PUSH2 0x200 ADD DUP2 SWAP1 MSTORE POP PUSH2 0x165A DUP2 PUSH2 0x160 ADD MLOAD DUP6 PUSH2 0x1F76 JUMP JUMPDEST DUP2 PUSH2 0x280 ADD DUP2 SWAP1 MSTORE POP PUSH2 0x1677 DUP2 PUSH2 0x280 ADD MLOAD DUP3 PUSH2 0x1E0 ADD MLOAD PUSH2 0x1D05 JUMP JUMPDEST DUP2 PUSH2 0x220 ADD DUP2 SWAP1 MSTORE POP PUSH2 0x1694 DUP2 PUSH2 0x280 ADD MLOAD DUP3 PUSH2 0x200 ADD MLOAD PUSH2 0x1D05 JUMP JUMPDEST DUP2 PUSH2 0x240 ADD DUP2 SWAP1 MSTORE POP PUSH2 0x16B1 DUP2 PUSH2 0x220 ADD MLOAD DUP3 PUSH2 0x240 ADD MLOAD PUSH2 0x16D3 JUMP JUMPDEST DUP2 PUSH2 0x260 ADD DUP2 SWAP1 MSTORE POP PUSH1 0x0 DUP2 PUSH2 0x260 ADD MLOAD DUP1 SWAP1 POP SWAP3 POP SWAP3 POP POP JUMPDEST SWAP4 POP SWAP4 SWAP2 POP POP JUMP JUMPDEST PUSH2 0x16DB PUSH2 0x22FC JUMP JUMPDEST PUSH1 0x40 MLOAD DUP1 PUSH1 0x20 ADD PUSH1 0x40 MSTORE DUP1 PUSH2 0x16F8 DUP6 PUSH1 0x0 ADD MLOAD DUP6 PUSH1 0x0 ADD MLOAD PUSH2 0x1FCE JUMP JUMPDEST DUP2 MSTORE POP SWAP1 POP SWAP3 SWAP2 POP POP JUMP JUMPDEST PUSH2 0x170B PUSH2 0x22FC JUMP JUMPDEST PUSH1 0x0 PUSH1 0x12 DUP4 GT ISZERO PUSH2 0x1734 JUMPI PUSH2 0x172D DUP5 PUSH2 0x1725 DUP6 PUSH1 0x12 PUSH2 0x2018 JUMP JUMPDEST PUSH1 0xA EXP PUSH2 0x9C9 JUMP JUMPDEST SWAP1 POP PUSH2 0x174E JUMP JUMPDEST PUSH2 0x174B DUP5 PUSH2 0x1743 PUSH1 0x12 DUP7 PUSH2 0x2018 JUMP JUMPDEST PUSH1 0xA EXP PUSH2 0x2062 JUMP JUMPDEST SWAP1 POP JUMPDEST PUSH1 0x40 MLOAD DUP1 PUSH1 0x20 ADD PUSH1 0x40 MSTORE DUP1 DUP3 DUP2 MSTORE POP SWAP2 POP POP SWAP3 SWAP2 POP POP JUMP JUMPDEST PUSH1 0x60 DUP1 PUSH1 0x0 DUP5 SWAP1 POP PUSH1 0x0 DUP5 SWAP1 POP PUSH1 0x0 DUP8 PUSH1 0x2 DUP9 DUP9 SUB DUP2 PUSH2 0x1782 JUMPI INVALID JUMPDEST DIV DUP9 ADD DUP2 MLOAD DUP2 LT PUSH2 0x178F JUMPI INVALID JUMPDEST PUSH1 0x20 MUL PUSH1 0x20 ADD ADD MLOAD SWAP1 POP JUMPDEST DUP2 DUP4 GT PUSH2 0x18C0 JUMPI JUMPDEST DUP1 DUP9 DUP5 DUP2 MLOAD DUP2 LT PUSH2 0x17AF JUMPI INVALID JUMPDEST PUSH1 0x20 MUL PUSH1 0x20 ADD ADD MLOAD LT ISZERO PUSH2 0x17CA JUMPI DUP3 DUP1 PUSH1 0x1 ADD SWAP4 POP POP PUSH2 0x17A2 JUMP JUMPDEST JUMPDEST DUP8 DUP3 DUP2 MLOAD DUP2 LT PUSH2 0x17D7 JUMPI INVALID JUMPDEST PUSH1 0x20 MUL PUSH1 0x20 ADD ADD MLOAD DUP2 LT ISZERO PUSH2 0x17F4 JUMPI DUP2 DUP1 PUSH1 0x1 SWAP1 SUB SWAP3 POP POP PUSH2 0x17CB JUMP JUMPDEST DUP2 DUP4 GT PUSH2 0x18BB JUMPI DUP9 DUP3 DUP2 MLOAD DUP2 LT PUSH2 0x1807 JUMPI INVALID JUMPDEST PUSH1 0x20 MUL PUSH1 0x20 ADD ADD MLOAD DUP10 DUP5 DUP2 MLOAD DUP2 LT PUSH2 0x181B JUMPI INVALID JUMPDEST PUSH1 0x20 MUL PUSH1 0x20 ADD ADD MLOAD DUP11 DUP6 DUP2 MLOAD DUP2 LT PUSH2 0x182F JUMPI INVALID JUMPDEST PUSH1 0x20 MUL PUSH1 0x20 ADD ADD DUP12 DUP6 DUP2 MLOAD DUP2 LT PUSH2 0x1842 JUMPI INVALID JUMPDEST PUSH1 0x20 MUL PUSH1 0x20 ADD ADD DUP3 SWAP1 MSTORE DUP3 SWAP1 MSTORE POP POP DUP8 DUP3 DUP2 MLOAD DUP2 LT PUSH2 0x185D JUMPI INVALID JUMPDEST PUSH1 0x20 MUL PUSH1 0x20 ADD ADD MLOAD DUP9 DUP5 DUP2 MLOAD DUP2 LT PUSH2 0x1871 JUMPI INVALID JUMPDEST PUSH1 0x20 MUL PUSH1 0x20 ADD ADD MLOAD DUP10 DUP6 DUP2 MLOAD DUP2 LT PUSH2 0x1885 JUMPI INVALID JUMPDEST PUSH1 0x20 MUL PUSH1 0x20 ADD ADD DUP11 DUP6 DUP2 MLOAD DUP2 LT PUSH2 0x1898 JUMPI INVALID JUMPDEST PUSH1 0x20 MUL PUSH1 0x20 ADD ADD DUP3 DUP2 MSTORE POP DUP3 DUP2 MSTORE POP POP POP DUP3 DUP1 PUSH1 0x1 ADD SWAP4 POP POP DUP2 DUP1 PUSH1 0x1 SWAP1 SUB SWAP3 POP POP JUMPDEST PUSH2 0x179A JUMP JUMPDEST DUP2 DUP8 LT ISZERO PUSH2 0x18D7 JUMPI PUSH2 0x18D4 DUP10 DUP10 DUP10 DUP6 PUSH2 0x1766 JUMP JUMPDEST POP POP JUMPDEST DUP6 DUP4 LT ISZERO PUSH2 0x18EE JUMPI PUSH2 0x18EB DUP10 DUP10 DUP6 DUP10 PUSH2 0x1766 JUMP JUMPDEST POP POP JUMPDEST DUP9 DUP9 SWAP5 POP SWAP5 POP POP POP POP SWAP5 POP SWAP5 SWAP3 POP POP POP JUMP JUMPDEST PUSH1 0x0 DUP1 PUSH1 0x0 DUP5 EQ ISZERO PUSH2 0x191B JUMPI PUSH1 0x0 DUP1 DUP1 SWAP1 POP SWAP2 POP SWAP2 POP PUSH2 0x194C JUMP JUMPDEST PUSH1 0x0 DUP4 DUP6 MUL SWAP1 POP DUP4 DUP6 DUP3 DUP2 PUSH2 0x192C JUMPI INVALID JUMPDEST DIV EQ PUSH2 0x1943 JUMPI PUSH1 0x2 PUSH1 0x0 DUP1 SWAP1 POP SWAP3 POP SWAP3 POP POP PUSH2 0x194C JUMP JUMPDEST PUSH1 0x0 DUP2 SWAP3 POP SWAP3 POP POP JUMPDEST SWAP3 POP SWAP3 SWAP1 POP JUMP JUMPDEST PUSH1 0x0 DUP1 PUSH1 0x0 DUP4 EQ ISZERO PUSH2 0x196F JUMPI PUSH1 0x1 PUSH1 0x0 DUP1 SWAP1 POP SWAP2 POP SWAP2 POP PUSH2 0x1980 JUMP JUMPDEST PUSH1 0x0 DUP4 DUP6 DUP2 PUSH2 0x197A JUMPI INVALID JUMPDEST DIV SWAP2 POP SWAP2 POP JUMPDEST SWAP3 POP SWAP3 SWAP1 POP JUMP JUMPDEST PUSH1 0x0 PUSH2 0x1991 PUSH2 0x20AC JUMP JUMPDEST PUSH20 0xFFFFFFFFFFFFFFFFFFFFFFFFFFFFFFFFFFFFFFFF AND DUP3 PUSH20 0xFFFFFFFFFFFFFFFFFFFFFFFFFFFFFFFFFFFFFFFF AND EQ ISZERO PUSH2 0x19CD JUMPI PUSH1 0x12 SWAP1 POP PUSH2 0x1AD1 JUMP JUMPDEST PUSH1 0x0 DUP3 PUSH20 0xFFFFFFFFFFFFFFFFFFFFFFFFFFFFFFFFFFFFFFFF AND PUSH4 0x6F307DC3 PUSH1 0x40 MLOAD DUP2 PUSH4 0xFFFFFFFF AND PUSH1 0xE0 SHL DUP2 MSTORE PUSH1 0x4 ADD PUSH1 0x20 PUSH1 0x40 MLOAD DUP1 DUP4 SUB DUP2 DUP7 DUP1 EXTCODESIZE ISZERO DUP1 ISZERO PUSH2 0x1A15 JUMPI PUSH1 0x0 DUP1 REVERT JUMPDEST POP GAS STATICCALL ISZERO DUP1 ISZERO PUSH2 0x1A29 JUMPI RETURNDATASIZE PUSH1 0x0 DUP1 RETURNDATACOPY RETURNDATASIZE PUSH1 0x0 REVERT JUMPDEST POP POP POP POP PUSH1 0x40 MLOAD RETURNDATASIZE PUSH1 0x1F NOT PUSH1 0x1F DUP3 ADD AND DUP3 ADD DUP1 PUSH1 0x40 MSTORE POP PUSH2 0x1A4D SWAP2 SWAP1 DUP2 ADD SWAP1 PUSH2 0x26DF JUMP JUMPDEST SWAP1 POP DUP1 PUSH20 0xFFFFFFFFFFFFFFFFFFFFFFFFFFFFFFFFFFFFFFFF AND PUSH4 0x313CE567 PUSH1 0x40 MLOAD DUP2 PUSH4 0xFFFFFFFF AND PUSH1 0xE0 SHL DUP2 MSTORE PUSH1 0x4 ADD PUSH1 0x20 PUSH1 0x40 MLOAD DUP1 DUP4 SUB DUP2 DUP7 DUP1 EXTCODESIZE ISZERO DUP1 ISZERO PUSH2 0x1A95 JUMPI PUSH1 0x0 DUP1 REVERT JUMPDEST POP GAS STATICCALL ISZERO DUP1 ISZERO PUSH2 0x1AA9 JUMPI RETURNDATASIZE PUSH1 0x0 DUP1 RETURNDATACOPY RETURNDATASIZE PUSH1 0x0 REVERT JUMPDEST POP POP POP POP PUSH1 0x40 MLOAD RETURNDATASIZE PUSH1 0x1F NOT PUSH1 0x1F DUP3 ADD AND DUP3 ADD DUP1 PUSH1 0x40 MSTORE POP PUSH2 0x1ACD SWAP2 SWAP1 DUP2 ADD SWAP1 PUSH2 0x2897 JUMP JUMPDEST SWAP2 POP POP JUMPDEST SWAP2 SWAP1 POP JUMP JUMPDEST PUSH1 0x0 DUP1 PUSH1 0x0 DUP1 PUSH2 0x1AE4 PUSH2 0x23FE JUMP JUMPDEST PUSH1 0x0 DUP7 SWAP1 POP PUSH1 0x0 DUP8 PUSH20 0xFFFFFFFFFFFFFFFFFFFFFFFFFFFFFFFFFFFFFFFF AND PUSH4 0x313CE567 PUSH1 0x40 MLOAD DUP2 PUSH4 0xFFFFFFFF AND PUSH1 0xE0 SHL DUP2 MSTORE PUSH1 0x4 ADD PUSH1 0x20 PUSH1 0x40 MLOAD DUP1 DUP4 SUB DUP2 DUP7 DUP1 EXTCODESIZE ISZERO DUP1 ISZERO PUSH2 0x1B31 JUMPI PUSH1 0x0 DUP1 REVERT JUMPDEST POP GAS STATICCALL ISZERO DUP1 ISZERO PUSH2 0x1B45 JUMPI RETURNDATASIZE PUSH1 0x0 DUP1 RETURNDATACOPY RETURNDATASIZE PUSH1 0x0 REVERT JUMPDEST POP POP POP POP PUSH1 0x40 MLOAD RETURNDATASIZE PUSH1 0x1F NOT PUSH1 0x1F DUP3 ADD AND DUP3 ADD DUP1 PUSH1 0x40 MSTORE POP PUSH2 0x1B69 SWAP2 SWAP1 DUP2 ADD SWAP1 PUSH2 0x2897 JUMP JUMPDEST SWAP1 POP PUSH1 0x0 PUSH2 0x1B76 DUP10 PUSH2 0x1987 JUMP JUMPDEST SWAP1 POP DUP3 PUSH20 0xFFFFFFFFFFFFFFFFFFFFFFFFFFFFFFFFFFFFFFFF AND PUSH4 0xC37F68E2 DUP12 PUSH1 0x40 MLOAD DUP3 PUSH4 0xFFFFFFFF AND PUSH1 0xE0 SHL DUP2 MSTORE PUSH1 0x4 ADD PUSH2 0x1BB1 SWAP2 SWAP1 PUSH2 0x2C25 JUMP JUMPDEST PUSH1 0x80 PUSH1 0x40 MLOAD DUP1 DUP4 SUB DUP2 DUP7 DUP1 EXTCODESIZE ISZERO DUP1 ISZERO PUSH2 0x1BC9 JUMPI PUSH1 0x0 DUP1 REVERT JUMPDEST POP GAS STATICCALL ISZERO DUP1 ISZERO PUSH2 0x1BDD JUMPI RETURNDATASIZE PUSH1 0x0 DUP1 RETURNDATACOPY RETURNDATASIZE PUSH1 0x0 REVERT JUMPDEST POP POP POP POP PUSH1 0x40 MLOAD RETURNDATASIZE PUSH1 0x1F NOT PUSH1 0x1F DUP3 ADD AND DUP3 ADD DUP1 PUSH1 0x40 MSTORE POP PUSH2 0x1C01 SWAP2 SWAP1 DUP2 ADD SWAP1 PUSH2 0x28C0 JUMP JUMPDEST DUP8 PUSH1 0x0 ADD DUP9 PUSH1 0x20 ADD DUP10 PUSH1 0x40 ADD DUP11 PUSH1 0x60 ADD DUP5 DUP2 MSTORE POP DUP5 DUP2 MSTORE POP DUP5 DUP2 MSTORE POP DUP5 DUP2 MSTORE POP POP POP POP POP PUSH1 0x0 DUP5 PUSH1 0x0 ADD MLOAD EQ PUSH2 0x1C55 JUMPI DUP4 PUSH1 0x0 ADD MLOAD PUSH1 0x0 DUP1 PUSH1 0x0 DUP3 SWAP3 POP DUP2 SWAP2 POP DUP1 SWAP1 POP SWAP8 POP SWAP8 POP SWAP8 POP SWAP8 POP POP POP POP POP PUSH2 0x1CFC JUMP JUMPDEST PUSH2 0x1C63 DUP5 PUSH1 0x20 ADD MLOAD DUP4 PUSH2 0x1703 JUMP JUMPDEST DUP5 PUSH2 0x100 ADD DUP2 SWAP1 MSTORE POP PUSH2 0x1C7A DUP5 PUSH1 0x40 ADD MLOAD DUP3 PUSH2 0x1703 JUMP JUMPDEST DUP5 PUSH2 0x140 ADD DUP2 SWAP1 MSTORE POP PUSH2 0x1C99 DUP5 PUSH1 0x60 ADD MLOAD PUSH2 0x1C94 DUP12 PUSH2 0x20C8 JUMP JUMPDEST PUSH2 0x1703 JUMP JUMPDEST DUP5 PUSH2 0x180 ADD DUP2 SWAP1 MSTORE POP DUP4 PUSH2 0x100 ADD MLOAD PUSH1 0x0 ADD MLOAD DUP5 PUSH1 0x80 ADD DUP2 DUP2 MSTORE POP POP DUP4 PUSH2 0x140 ADD MLOAD PUSH1 0x0 ADD MLOAD DUP5 PUSH1 0xA0 ADD DUP2 DUP2 MSTORE POP POP DUP4 PUSH2 0x180 ADD MLOAD PUSH1 0x0 ADD MLOAD DUP5 PUSH1 0xC0 ADD DUP2 DUP2 MSTORE POP POP PUSH1 0x0 DUP5 PUSH1 0x80 ADD MLOAD DUP6 PUSH1 0xA0 ADD MLOAD DUP7 PUSH1 0xC0 ADD MLOAD DUP4 SWAP4 POP SWAP8 POP SWAP8 POP SWAP8 POP SWAP8 POP POP POP POP POP JUMPDEST SWAP3 SWAP6 SWAP2 SWAP5 POP SWAP3 POP JUMP JUMPDEST PUSH2 0x1D0D PUSH2 0x22FC JUMP JUMPDEST PUSH1 0x40 MLOAD DUP1 PUSH1 0x20 ADD PUSH1 0x40 MSTORE DUP1 PUSH8 0xDE0B6B3A7640000 PUSH2 0x1D33 DUP7 PUSH1 0x0 ADD MLOAD DUP7 PUSH1 0x0 ADD MLOAD PUSH2 0x2062 JUMP JUMPDEST DUP2 PUSH2 0x1D3A JUMPI INVALID JUMPDEST DIV DUP2 MSTORE POP SWAP1 POP SWAP3 SWAP2 POP POP JUMP JUMPDEST PUSH1 0x0 DUP1 DUP3 PUSH20 0xFFFFFFFFFFFFFFFFFFFFFFFFFFFFFFFFFFFFFFFF AND PUSH4 0x3B1D21A2 PUSH1 0x40 MLOAD DUP2 PUSH4 0xFFFFFFFF AND PUSH1 0xE0 SHL DUP2 MSTORE PUSH1 0x4 ADD PUSH1 0x20 PUSH1 0x40 MLOAD DUP1 DUP4 SUB DUP2 DUP7 DUP1 EXTCODESIZE ISZERO DUP1 ISZERO PUSH2 0x1D8F JUMPI PUSH1 0x0 DUP1 REVERT JUMPDEST POP GAS STATICCALL ISZERO DUP1 ISZERO PUSH2 0x1DA3 JUMPI RETURNDATASIZE PUSH1 0x0 DUP1 RETURNDATACOPY RETURNDATASIZE PUSH1 0x0 REVERT JUMPDEST POP POP POP POP PUSH1 0x40 MLOAD RETURNDATASIZE PUSH1 0x1F NOT PUSH1 0x1F DUP3 ADD AND DUP3 ADD DUP1 PUSH1 0x40 MSTORE POP PUSH2 0x1DC7 SWAP2 SWAP1 DUP2 ADD SWAP1 PUSH2 0x2897 JUMP JUMPDEST SWAP1 POP PUSH1 0x0 DUP4 PUSH20 0xFFFFFFFFFFFFFFFFFFFFFFFFFFFFFFFFFFFFFFFF AND PUSH4 0x47BD3718 PUSH1 0x40 MLOAD DUP2 PUSH4 0xFFFFFFFF AND PUSH1 0xE0 SHL DUP2 MSTORE PUSH1 0x4 ADD PUSH1 0x20 PUSH1 0x40 MLOAD DUP1 DUP4 SUB DUP2 DUP7 DUP1 EXTCODESIZE ISZERO DUP1 ISZERO PUSH2 0x1E11 JUMPI PUSH1 0x0 DUP1 REVERT JUMPDEST POP GAS STATICCALL ISZERO DUP1 ISZERO PUSH2 0x1E25 JUMPI RETURNDATASIZE PUSH1 0x0 DUP1 RETURNDATACOPY RETURNDATASIZE PUSH1 0x0 REVERT JUMPDEST POP POP POP POP PUSH1 0x40 MLOAD RETURNDATASIZE PUSH1 0x1F NOT PUSH1 0x1F DUP3 ADD AND DUP3 ADD DUP1 PUSH1 0x40 MSTORE POP PUSH2 0x1E49 SWAP2 SWAP1 DUP2 ADD SWAP1 PUSH2 0x2897 JUMP JUMPDEST SWAP1 POP PUSH1 0x0 DUP5 PUSH20 0xFFFFFFFFFFFFFFFFFFFFFFFFFFFFFFFFFFFFFFFF AND PUSH4 0x8F840DDD PUSH1 0x40 MLOAD DUP2 PUSH4 0xFFFFFFFF AND PUSH1 0xE0 SHL DUP2 MSTORE PUSH1 0x4 ADD PUSH1 0x20 PUSH1 0x40 MLOAD DUP1 DUP4 SUB DUP2 DUP7 DUP1 EXTCODESIZE ISZERO DUP1 ISZERO PUSH2 0x1E93 JUMPI PUSH1 0x0 DUP1 REVERT JUMPDEST POP GAS STATICCALL ISZERO DUP1 ISZERO PUSH2 0x1EA7 JUMPI RETURNDATASIZE PUSH1 0x0 DUP1 RETURNDATACOPY RETURNDATASIZE PUSH1 0x0 REVERT JUMPDEST POP POP POP POP PUSH1 0x40 MLOAD RETURNDATASIZE PUSH1 0x1F NOT PUSH1 0x1F DUP3 ADD AND DUP3 ADD DUP1 PUSH1 0x40 MSTORE POP PUSH2 0x1ECB SWAP2 SWAP1 DUP2 ADD SWAP1 PUSH2 0x2897 JUMP JUMPDEST SWAP1 POP PUSH2 0x1EE0 PUSH2 0x1EDA DUP5 DUP5 PUSH2 0x1FCE JUMP JUMPDEST DUP3 PUSH2 0x2018 JUMP JUMPDEST SWAP4 POP POP POP POP SWAP2 SWAP1 POP JUMP JUMPDEST PUSH1 0x0 DUP1 DUP3 SWAP1 POP DUP1 PUSH20 0xFFFFFFFFFFFFFFFFFFFFFFFFFFFFFFFFFFFFFFFF AND PUSH4 0x47BD3718 PUSH1 0x40 MLOAD DUP2 PUSH4 0xFFFFFFFF AND PUSH1 0xE0 SHL DUP2 MSTORE PUSH1 0x4 ADD PUSH1 0x20 PUSH1 0x40 MLOAD DUP1 DUP4 SUB DUP2 DUP7 DUP1 EXTCODESIZE ISZERO DUP1 ISZERO PUSH2 0x1F36 JUMPI PUSH1 0x0 DUP1 REVERT JUMPDEST POP GAS STATICCALL ISZERO DUP1 ISZERO PUSH2 0x1F4A JUMPI RETURNDATASIZE PUSH1 0x0 DUP1 RETURNDATACOPY RETURNDATASIZE PUSH1 0x0 REVERT JUMPDEST POP POP POP POP PUSH1 0x40 MLOAD RETURNDATASIZE PUSH1 0x1F NOT PUSH1 0x1F DUP3 ADD AND DUP3 ADD DUP1 PUSH1 0x40 MSTORE POP PUSH2 0x1F6E SWAP2 SWAP1 DUP2 ADD SWAP1 PUSH2 0x2897 JUMP JUMPDEST SWAP2 POP POP SWAP2 SWAP1 POP JUMP JUMPDEST PUSH2 0x1F7E PUSH2 0x22FC JUMP JUMPDEST PUSH1 0x40 MLOAD DUP1 PUSH1 0x20 ADD PUSH1 0x40 MSTORE DUP1 PUSH2 0x1F97 DUP6 PUSH1 0x0 ADD MLOAD DUP6 PUSH2 0x2062 JUMP JUMPDEST DUP2 MSTORE POP SWAP1 POP SWAP3 SWAP2 POP POP JUMP JUMPDEST PUSH2 0x1FAA PUSH2 0x22FC JUMP JUMPDEST PUSH1 0x40 MLOAD DUP1 PUSH1 0x20 ADD PUSH1 0x40 MSTORE DUP1 PUSH2 0x1FC3 DUP6 PUSH1 0x0 ADD MLOAD DUP6 PUSH2 0x9C9 JUMP JUMPDEST DUP2 MSTORE POP SWAP1 POP SWAP3 SWAP2 POP POP JUMP JUMPDEST PUSH1 0x0 PUSH2 0x2010 DUP4 DUP4 PUSH1 0x40 MLOAD DUP1 PUSH1 0x40 ADD PUSH1 0x40 MSTORE DUP1 PUSH1 0x11 DUP2 MSTORE PUSH1 0x20 ADD PUSH32 0x6164646974696F6E206F766572666C6F77000000000000000000000000000000 DUP2 MSTORE POP PUSH2 0x2175 JUMP JUMPDEST SWAP1 POP SWAP3 SWAP2 POP POP JUMP JUMPDEST PUSH1 0x0 PUSH2 0x205A DUP4 DUP4 PUSH1 0x40 MLOAD DUP1 PUSH1 0x40 ADD PUSH1 0x40 MSTORE DUP1 PUSH1 0x15 DUP2 MSTORE PUSH1 0x20 ADD PUSH32 0x7375627472616374696F6E20756E646572666C6F770000000000000000000000 DUP2 MSTORE POP PUSH2 0x21CF JUMP JUMPDEST SWAP1 POP SWAP3 SWAP2 POP POP JUMP JUMPDEST PUSH1 0x0 PUSH2 0x20A4 DUP4 DUP4 PUSH1 0x40 MLOAD DUP1 PUSH1 0x40 ADD PUSH1 0x40 MSTORE DUP1 PUSH1 0x17 DUP2 MSTORE PUSH1 0x20 ADD PUSH32 0x6D756C7469706C69636174696F6E206F766572666C6F77000000000000000000 DUP2 MSTORE POP PUSH2 0x2224 JUMP JUMPDEST SWAP1 POP SWAP3 SWAP2 POP POP JUMP JUMPDEST PUSH1 0x0 PUSH20 0x4DDC2D193948926D02F9B1FE9E1DAA0718270ED5 SWAP1 POP SWAP1 JUMP JUMPDEST PUSH1 0x0 DUP1 PUSH2 0x20D4 DUP4 PUSH2 0x1987 JUMP JUMPDEST SWAP1 POP PUSH1 0x0 DUP4 PUSH20 0xFFFFFFFFFFFFFFFFFFFFFFFFFFFFFFFFFFFFFFFF AND PUSH4 0x313CE567 PUSH1 0x40 MLOAD DUP2 PUSH4 0xFFFFFFFF AND PUSH1 0xE0 SHL DUP2 MSTORE PUSH1 0x4 ADD PUSH1 0x20 PUSH1 0x40 MLOAD DUP1 DUP4 SUB DUP2 DUP7 DUP1 EXTCODESIZE ISZERO DUP1 ISZERO PUSH2 0x211E JUMPI PUSH1 0x0 DUP1 REVERT JUMPDEST POP GAS STATICCALL ISZERO DUP1 ISZERO PUSH2 0x2132 JUMPI RETURNDATASIZE PUSH1 0x0 DUP1 RETURNDATACOPY RETURNDATASIZE PUSH1 0x0 REVERT JUMPDEST POP POP POP POP PUSH1 0x40 MLOAD RETURNDATASIZE PUSH1 0x1F NOT PUSH1 0x1F DUP3 ADD AND DUP3 ADD DUP1 PUSH1 0x40 MSTORE POP PUSH2 0x2156 SWAP2 SWAP1 DUP2 ADD SWAP1 PUSH2 0x2897 JUMP JUMPDEST SWAP1 POP PUSH2 0x216C PUSH2 0x2166 PUSH1 0x12 DUP5 PUSH2 0x1FCE JUMP JUMPDEST DUP3 PUSH2 0x2018 JUMP JUMPDEST SWAP3 POP POP POP SWAP2 SWAP1 POP JUMP JUMPDEST PUSH1 0x0 DUP1 DUP4 DUP6 ADD SWAP1 POP DUP5 DUP2 LT ISZERO DUP4 SWAP1 PUSH2 0x21C3 JUMPI PUSH1 0x40 MLOAD PUSH32 0x8C379A000000000000000000000000000000000000000000000000000000000 DUP2 MSTORE PUSH1 0x4 ADD PUSH2 0x21BA SWAP2 SWAP1 PUSH2 0x2CC9 JUMP JUMPDEST PUSH1 0x40 MLOAD DUP1 SWAP2 SUB SWAP1 REVERT JUMPDEST POP DUP1 SWAP2 POP POP SWAP4 SWAP3 POP POP POP JUMP JUMPDEST PUSH1 0x0 DUP4 DUP4 GT ISZERO DUP3 SWAP1 PUSH2 0x2217 JUMPI PUSH1 0x40 MLOAD PUSH32 0x8C379A000000000000000000000000000000000000000000000000000000000 DUP2 MSTORE PUSH1 0x4 ADD PUSH2 0x220E SWAP2 SWAP1 PUSH2 0x2CC9 JUMP JUMPDEST PUSH1 0x40 MLOAD DUP1 SWAP2 SUB SWAP1 REVERT JUMPDEST POP DUP3 DUP5 SUB SWAP1 POP SWAP4 SWAP3 POP POP POP JUMP JUMPDEST PUSH1 0x0 DUP1 DUP5 EQ DUP1 PUSH2 0x2234 JUMPI POP PUSH1 0x0 DUP4 EQ JUMPDEST ISZERO PUSH2 0x2242 JUMPI PUSH1 0x0 SWAP1 POP PUSH2 0x229D JUMP JUMPDEST PUSH1 0x0 DUP4 DUP6 MUL SWAP1 POP DUP4 DUP6 DUP3 DUP2 PUSH2 0x2253 JUMPI INVALID JUMPDEST DIV EQ DUP4 SWAP1 PUSH2 0x2297 JUMPI PUSH1 0x40 MLOAD PUSH32 0x8C379A000000000000000000000000000000000000000000000000000000000 DUP2 MSTORE PUSH1 0x4 ADD PUSH2 0x228E SWAP2 SWAP1 PUSH2 0x2CC9 JUMP JUMPDEST PUSH1 0x40 MLOAD DUP1 SWAP2 SUB SWAP1 REVERT JUMPDEST POP DUP1 SWAP2 POP POP JUMPDEST SWAP4 SWAP3 POP POP POP JUMP JUMPDEST PUSH1 0x40 MLOAD DUP1 PUSH1 0x40 ADD PUSH1 0x40 MSTORE DUP1 PUSH1 0x0 DUP2 MSTORE PUSH1 0x20 ADD PUSH1 0x0 DUP2 MSTORE POP SWAP1 JUMP JUMPDEST PUSH1 0x40 MLOAD DUP1 PUSH1 0x80 ADD PUSH1 0x40 MSTORE DUP1 PUSH1 0x0 DUP2 MSTORE PUSH1 0x20 ADD PUSH1 0x0 DUP2 MSTORE PUSH1 0x20 ADD PUSH1 0x0 PUSH20 0xFFFFFFFFFFFFFFFFFFFFFFFFFFFFFFFFFFFFFFFF AND DUP2 MSTORE PUSH1 0x20 ADD PUSH1 0x0 DUP2 MSTORE POP SWAP1 JUMP JUMPDEST PUSH1 0x40 MLOAD DUP1 PUSH1 0x20 ADD PUSH1 0x40 MSTORE DUP1 PUSH1 0x0 DUP2 MSTORE POP SWAP1 JUMP JUMPDEST PUSH1 0x40 MLOAD DUP1 PUSH1 0x20 ADD PUSH1 0x40 MSTORE DUP1 PUSH1 0x0 DUP2 MSTORE POP SWAP1 JUMP JUMPDEST PUSH1 0x40 MLOAD DUP1 PUSH2 0x2A0 ADD PUSH1 0x40 MSTORE DUP1 PUSH1 0x0 DUP2 MSTORE PUSH1 0x20 ADD PUSH1 0x0 DUP2 MSTORE PUSH1 0x20 ADD PUSH1 0x0 DUP2 MSTORE PUSH1 0x20 ADD PUSH1 0x0 DUP2 MSTORE PUSH1 0x20 ADD PUSH1 0x0 DUP2 MSTORE PUSH1 0x20 ADD PUSH1 0x0 DUP2 MSTORE PUSH1 0x20 ADD PUSH1 0x0 DUP2 MSTORE PUSH1 0x20 ADD PUSH1 0x0 DUP2 MSTORE PUSH1 0x20 ADD PUSH1 0x0 DUP2 MSTORE PUSH1 0x20 ADD PUSH1 0x0 DUP2 MSTORE PUSH1 0x20 ADD PUSH1 0x0 DUP2 MSTORE PUSH1 0x20 ADD PUSH2 0x2383 PUSH2 0x230F JUMP JUMPDEST DUP2 MSTORE PUSH1 0x20 ADD PUSH2 0x2390 PUSH2 0x230F JUMP JUMPDEST DUP2 MSTORE PUSH1 0x20 ADD PUSH2 0x239D PUSH2 0x230F JUMP JUMPDEST DUP2 MSTORE PUSH1 0x20 ADD PUSH2 0x23AA PUSH2 0x230F JUMP JUMPDEST DUP2 MSTORE PUSH1 0x20 ADD PUSH2 0x23B7 PUSH2 0x230F JUMP JUMPDEST DUP2 MSTORE PUSH1 0x20 ADD PUSH2 0x23C4 PUSH2 0x230F JUMP JUMPDEST DUP2 MSTORE PUSH1 0x20 ADD PUSH2 0x23D1 PUSH2 0x230F JUMP JUMPDEST DUP2 MSTORE PUSH1 0x20 ADD PUSH2 0x23DE PUSH2 0x230F JUMP JUMPDEST DUP2 MSTORE PUSH1 0x20 ADD PUSH2 0x23EB PUSH2 0x230F JUMP JUMPDEST DUP2 MSTORE PUSH1 0x20 ADD PUSH2 0x23F8 PUSH2 0x230F JUMP JUMPDEST DUP2 MSTORE POP SWAP1 JUMP JUMPDEST PUSH1 0x40 MLOAD DUP1 PUSH2 0x1A0 ADD PUSH1 0x40 MSTORE DUP1 PUSH1 0x0 DUP2 MSTORE PUSH1 0x20 ADD PUSH1 0x0 DUP2 MSTORE PUSH1 0x20 ADD PUSH1 0x0 DUP2 MSTORE PUSH1 0x20 ADD PUSH1 0x0 DUP2 MSTORE PUSH1 0x20 ADD PUSH1 0x0 DUP2 MSTORE PUSH1 0x20 ADD PUSH1 0x0 DUP2 MSTORE PUSH1 0x20 ADD PUSH1 0x0 DUP2 MSTORE PUSH1 0x20 ADD PUSH1 0x0 PUSH1 0x3 DUP2 GT ISZERO PUSH2 0x2448 JUMPI INVALID JUMPDEST DUP2 MSTORE PUSH1 0x20 ADD PUSH2 0x2455 PUSH2 0x230F JUMP JUMPDEST DUP2 MSTORE PUSH1 0x20 ADD PUSH1 0x0 PUSH1 0x3 DUP2 GT ISZERO PUSH2 0x2467 JUMPI INVALID JUMPDEST DUP2 MSTORE PUSH1 0x20 ADD PUSH2 0x2474 PUSH2 0x230F JUMP JUMPDEST DUP2 MSTORE PUSH1 0x20 ADD PUSH1 0x0 PUSH1 0x3 DUP2 GT ISZERO PUSH2 0x2486 JUMPI INVALID JUMPDEST DUP2 MSTORE PUSH1 0x20 ADD PUSH2 0x2493 PUSH2 0x230F JUMP JUMPDEST DUP2 MSTORE POP SWAP1 JUMP JUMPDEST PUSH1 0x0 DUP2 CALLDATALOAD SWAP1 POP PUSH2 0x24A8 DUP2 PUSH2 0x303A JUMP JUMPDEST SWAP3 SWAP2 POP POP JUMP JUMPDEST PUSH1 0x0 DUP2 MLOAD SWAP1 POP PUSH2 0x24BD DUP2 PUSH2 0x303A JUMP JUMPDEST SWAP3 SWAP2 POP POP JUMP JUMPDEST PUSH1 0x0 DUP3 PUSH1 0x1F DUP4 ADD SLT PUSH2 0x24D4 JUMPI PUSH1 0x0 DUP1 REVERT JUMPDEST DUP2 MLOAD PUSH2 0x24E7 PUSH2 0x24E2 DUP3 PUSH2 0x2DEC JUMP JUMPDEST PUSH2 0x2DBF JUMP JUMPDEST SWAP2 POP DUP2 DUP2 DUP4 MSTORE PUSH1 0x20 DUP5 ADD SWAP4 POP PUSH1 0x20 DUP2 ADD SWAP1 POP DUP4 DUP6 PUSH1 0x20 DUP5 MUL DUP3 ADD GT ISZERO PUSH2 0x250C JUMPI PUSH1 0x0 DUP1 REVERT JUMPDEST PUSH1 0x0 JUMPDEST DUP4 DUP2 LT ISZERO PUSH2 0x253C JUMPI DUP2 PUSH2 0x2522 DUP9 DUP3 PUSH2 0x255B JUMP JUMPDEST DUP5 MSTORE PUSH1 0x20 DUP5 ADD SWAP4 POP PUSH1 0x20 DUP4 ADD SWAP3 POP POP PUSH1 0x1 DUP2 ADD SWAP1 POP PUSH2 0x250F JUMP JUMPDEST POP POP POP POP SWAP3 SWAP2 POP POP JUMP JUMPDEST PUSH1 0x0 DUP2 MLOAD SWAP1 POP PUSH2 0x2555 DUP2 PUSH2 0x3051 JUMP JUMPDEST SWAP3 SWAP2 POP POP JUMP JUMPDEST PUSH1 0x0 DUP2 MLOAD SWAP1 POP PUSH2 0x256A DUP2 PUSH2 0x3068 JUMP JUMPDEST SWAP3 SWAP2 POP POP JUMP JUMPDEST PUSH1 0x0 DUP2 CALLDATALOAD SWAP1 POP PUSH2 0x257F DUP2 PUSH2 0x307F JUMP JUMPDEST SWAP3 SWAP2 POP POP JUMP JUMPDEST PUSH1 0x0 DUP3 PUSH1 0x1F DUP4 ADD SLT PUSH2 0x2596 JUMPI PUSH1 0x0 DUP1 REVERT JUMPDEST DUP2 MLOAD PUSH2 0x25A9 PUSH2 0x25A4 DUP3 PUSH2 0x2E14 JUMP JUMPDEST PUSH2 0x2DBF JUMP JUMPDEST SWAP2 POP DUP1 DUP3 MSTORE PUSH1 0x20 DUP4 ADD PUSH1 0x20 DUP4 ADD DUP6 DUP4 DUP4 ADD GT ISZERO PUSH2 0x25C5 JUMPI PUSH1 0x0 DUP1 REVERT JUMPDEST PUSH2 0x25D0 DUP4 DUP3 DUP5 PUSH2 0x2FF6 JUMP JUMPDEST POP POP POP SWAP3 SWAP2 POP POP JUMP JUMPDEST PUSH1 0x0 DUP3 PUSH1 0x1F DUP4 ADD SLT PUSH2 0x25EA JUMPI PUSH1 0x0 DUP1 REVERT JUMPDEST DUP2 CALLDATALOAD PUSH2 0x25FD PUSH2 0x25F8 DUP3 PUSH2 0x2E40 JUMP JUMPDEST PUSH2 0x2DBF JUMP JUMPDEST SWAP2 POP DUP1 DUP3 MSTORE PUSH1 0x20 DUP4 ADD PUSH1 0x20 DUP4 ADD DUP6 DUP4 DUP4 ADD GT ISZERO PUSH2 0x2619 JUMPI PUSH1 0x0 DUP1 REVERT JUMPDEST PUSH2 0x2624 DUP4 DUP3 DUP5 PUSH2 0x2FE7 JUMP JUMPDEST POP POP POP SWAP3 SWAP2 POP POP JUMP JUMPDEST PUSH1 0x0 PUSH1 0x80 DUP3 DUP5 SUB SLT ISZERO PUSH2 0x263F JUMPI PUSH1 0x0 DUP1 REVERT JUMPDEST PUSH2 0x2649 PUSH1 0x80 PUSH2 0x2DBF JUMP JUMPDEST SWAP1 POP PUSH1 0x0 PUSH2 0x2659 DUP5 DUP3 DUP6 ADD PUSH2 0x26A1 JUMP JUMPDEST PUSH1 0x0 DUP4 ADD MSTORE POP PUSH1 0x20 PUSH2 0x266D DUP5 DUP3 DUP6 ADD PUSH2 0x26A1 JUMP JUMPDEST PUSH1 0x20 DUP4 ADD MSTORE POP PUSH1 0x40 PUSH2 0x2681 DUP5 DUP3 DUP6 ADD PUSH2 0x24AE JUMP JUMPDEST PUSH1 0x40 DUP4 ADD MSTORE POP PUSH1 0x60 PUSH2 0x2695 DUP5 DUP3 DUP6 ADD PUSH2 0x26A1 JUMP JUMPDEST PUSH1 0x60 DUP4 ADD MSTORE POP SWAP3 SWAP2 POP POP JUMP JUMPDEST PUSH1 0x0 DUP2 MLOAD SWAP1 POP PUSH2 0x26B0 DUP2 PUSH2 0x3096 JUMP JUMPDEST SWAP3 SWAP2 POP POP JUMP JUMPDEST PUSH1 0x0 PUSH1 0x20 DUP3 DUP5 SUB SLT ISZERO PUSH2 0x26C8 JUMPI PUSH1 0x0 DUP1 REVERT JUMPDEST PUSH1 0x0 PUSH2 0x26D6 DUP5 DUP3 DUP6 ADD PUSH2 0x2499 JUMP JUMPDEST SWAP2 POP POP SWAP3 SWAP2 POP POP JUMP JUMPDEST PUSH1 0x0 PUSH1 0x20 DUP3 DUP5 SUB SLT ISZERO PUSH2 0x26F1 JUMPI PUSH1 0x0 DUP1 REVERT JUMPDEST PUSH1 0x0 PUSH2 0x26FF DUP5 DUP3 DUP6 ADD PUSH2 0x24AE JUMP JUMPDEST SWAP2 POP POP SWAP3 SWAP2 POP POP JUMP JUMPDEST PUSH1 0x0 PUSH1 0x20 DUP3 DUP5 SUB SLT ISZERO PUSH2 0x271A JUMPI PUSH1 0x0 DUP1 REVERT JUMPDEST PUSH1 0x0 DUP3 ADD MLOAD PUSH8 0xFFFFFFFFFFFFFFFF DUP2 GT ISZERO PUSH2 0x2734 JUMPI PUSH1 0x0 DUP1 REVERT JUMPDEST PUSH2 0x2740 DUP5 DUP3 DUP6 ADD PUSH2 0x24C3 JUMP JUMPDEST SWAP2 POP POP SWAP3 SWAP2 POP POP JUMP JUMPDEST PUSH1 0x0 DUP1 PUSH1 0x0 PUSH1 0x60 DUP5 DUP7 SUB SLT ISZERO PUSH2 0x275E JUMPI PUSH1 0x0 DUP1 REVERT JUMPDEST PUSH1 0x0 PUSH2 0x276C DUP7 DUP3 DUP8 ADD PUSH2 0x2546 JUMP JUMPDEST SWAP4 POP POP PUSH1 0x20 PUSH2 0x277D DUP7 DUP3 DUP8 ADD PUSH2 0x26A1 JUMP JUMPDEST SWAP3 POP POP PUSH1 0x40 PUSH2 0x278E DUP7 DUP3 DUP8 ADD PUSH2 0x2546 JUMP JUMPDEST SWAP2 POP POP SWAP3 POP SWAP3 POP SWAP3 JUMP JUMPDEST PUSH1 0x0 PUSH1 0x20 DUP3 DUP5 SUB SLT ISZERO PUSH2 0x27AA JUMPI PUSH1 0x0 DUP1 REVERT JUMPDEST PUSH1 0x0 PUSH2 0x27B8 DUP5 DUP3 DUP6 ADD PUSH2 0x2570 JUMP JUMPDEST SWAP2 POP POP SWAP3 SWAP2 POP POP JUMP JUMPDEST PUSH1 0x0 PUSH1 0x20 DUP3 DUP5 SUB SLT ISZERO PUSH2 0x27D3 JUMPI PUSH1 0x0 DUP1 REVERT JUMPDEST PUSH1 0x0 DUP3 ADD MLOAD PUSH8 0xFFFFFFFFFFFFFFFF DUP2 GT ISZERO PUSH2 0x27ED JUMPI PUSH1 0x0 DUP1 REVERT JUMPDEST PUSH2 0x27F9 DUP5 DUP3 DUP6 ADD PUSH2 0x2585 JUMP JUMPDEST SWAP2 POP POP SWAP3 SWAP2 POP POP JUMP JUMPDEST PUSH1 0x0 DUP1 PUSH1 0x40 DUP4 DUP6 SUB SLT ISZERO PUSH2 0x2815 JUMPI PUSH1 0x0 DUP1 REVERT JUMPDEST PUSH1 0x0 DUP4 ADD CALLDATALOAD PUSH8 0xFFFFFFFFFFFFFFFF DUP2 GT ISZERO PUSH2 0x282F JUMPI PUSH1 0x0 DUP1 REVERT JUMPDEST PUSH2 0x283B DUP6 DUP3 DUP7 ADD PUSH2 0x25D9 JUMP JUMPDEST SWAP3 POP POP PUSH1 0x20 DUP4 ADD CALLDATALOAD PUSH8 0xFFFFFFFFFFFFFFFF DUP2 GT ISZERO PUSH2 0x2858 JUMPI PUSH1 0x0 DUP1 REVERT JUMPDEST PUSH2 0x2864 DUP6 DUP3 DUP7 ADD PUSH2 0x25D9 JUMP JUMPDEST SWAP2 POP POP SWAP3 POP SWAP3 SWAP1 POP JUMP JUMPDEST PUSH1 0x0 PUSH1 0x80 DUP3 DUP5 SUB SLT ISZERO PUSH2 0x2880 JUMPI PUSH1 0x0 DUP1 REVERT JUMPDEST PUSH1 0x0 PUSH2 0x288E DUP5 DUP3 DUP6 ADD PUSH2 0x262D JUMP JUMPDEST SWAP2 POP POP SWAP3 SWAP2 POP POP JUMP JUMPDEST PUSH1 0x0 PUSH1 0x20 DUP3 DUP5 SUB SLT ISZERO PUSH2 0x28A9 JUMPI PUSH1 0x0 DUP1 REVERT JUMPDEST PUSH1 0x0 PUSH2 0x28B7 DUP5 DUP3 DUP6 ADD PUSH2 0x26A1 JUMP JUMPDEST SWAP2 POP POP SWAP3 SWAP2 POP POP JUMP JUMPDEST PUSH1 0x0 DUP1 PUSH1 0x0 DUP1 PUSH1 0x80 DUP6 DUP8 SUB SLT ISZERO PUSH2 0x28D6 JUMPI PUSH1 0x0 DUP1 REVERT JUMPDEST PUSH1 0x0 PUSH2 0x28E4 DUP8 DUP3 DUP9 ADD PUSH2 0x26A1 JUMP JUMPDEST SWAP5 POP POP PUSH1 0x20 PUSH2 0x28F5 DUP8 DUP3 DUP9 ADD PUSH2 0x26A1 JUMP JUMPDEST SWAP4 POP POP PUSH1 0x40 PUSH2 0x2906 DUP8 DUP3 DUP9 ADD PUSH2 0x26A1 JUMP JUMPDEST SWAP3 POP POP PUSH1 0x60 PUSH2 0x2917 DUP8 DUP3 DUP9 ADD PUSH2 0x26A1 JUMP JUMPDEST SWAP2 POP POP SWAP3 SWAP6 SWAP2 SWAP5 POP SWAP3 POP JUMP JUMPDEST PUSH1 0x0 PUSH2 0x292F DUP4 DUP4 PUSH2 0x2AC8 JUMP JUMPDEST SWAP1 POP SWAP3 SWAP2 POP POP JUMP JUMPDEST PUSH1 0x0 PUSH2 0x2943 DUP4 DUP4 PUSH2 0x2BF0 JUMP JUMPDEST PUSH1 0x20 DUP4 ADD SWAP1 POP SWAP3 SWAP2 POP POP JUMP JUMPDEST PUSH2 0x2958 DUP2 PUSH2 0x2F21 JUMP JUMPDEST DUP3 MSTORE POP POP JUMP JUMPDEST PUSH1 0x0 PUSH2 0x2969 DUP3 PUSH2 0x2E8C JUMP JUMPDEST PUSH2 0x2973 DUP2 DUP6 PUSH2 0x2ED2 JUMP JUMPDEST SWAP4 POP DUP4 PUSH1 0x20 DUP3 MUL DUP6 ADD PUSH2 0x2985 DUP6 PUSH2 0x2E6C JUMP JUMPDEST DUP1 PUSH1 0x0 JUMPDEST DUP6 DUP2 LT ISZERO PUSH2 0x29C1 JUMPI DUP5 DUP5 SUB DUP10 MSTORE DUP2 MLOAD PUSH2 0x29A2 DUP6 DUP3 PUSH2 0x2923 JUMP JUMPDEST SWAP5 POP PUSH2 0x29AD DUP4 PUSH2 0x2EB8 JUMP JUMPDEST SWAP3 POP PUSH1 0x20 DUP11 ADD SWAP10 POP POP PUSH1 0x1 DUP2 ADD SWAP1 POP PUSH2 0x2989 JUMP JUMPDEST POP DUP3 SWAP8 POP DUP8 SWAP6 POP POP POP POP POP POP SWAP3 SWAP2 POP POP JUMP JUMPDEST PUSH1 0x0 PUSH2 0x29DE DUP3 PUSH2 0x2E97 JUMP JUMPDEST PUSH2 0x29E8 DUP2 DUP6 PUSH2 0x2EE3 JUMP JUMPDEST SWAP4 POP PUSH2 0x29F3 DUP4 PUSH2 0x2E7C JUMP JUMPDEST DUP1 PUSH1 0x0 JUMPDEST DUP4 DUP2 LT ISZERO PUSH2 0x2A24 JUMPI DUP2 MLOAD PUSH2 0x2A0B DUP9 DUP3 PUSH2 0x2937 JUMP JUMPDEST SWAP8 POP PUSH2 0x2A16 DUP4 PUSH2 0x2EC5 JUMP JUMPDEST SWAP3 POP POP PUSH1 0x1 DUP2 ADD SWAP1 POP PUSH2 0x29F7 JUMP JUMPDEST POP DUP6 SWAP4 POP POP POP POP SWAP3 SWAP2 POP POP JUMP JUMPDEST PUSH2 0x2A3A DUP2 PUSH2 0x2F45 JUMP JUMPDEST DUP3 MSTORE POP POP JUMP JUMPDEST PUSH2 0x2A49 DUP2 PUSH2 0x2F9F JUMP JUMPDEST DUP3 MSTORE POP POP JUMP JUMPDEST PUSH2 0x2A58 DUP2 PUSH2 0x2FC3 JUMP JUMPDEST DUP3 MSTORE POP POP JUMP JUMPDEST PUSH1 0x0 PUSH2 0x2A69 DUP3 PUSH2 0x2EAD JUMP JUMPDEST PUSH2 0x2A73 DUP2 DUP6 PUSH2 0x2F05 JUMP JUMPDEST SWAP4 POP PUSH2 0x2A83 DUP2 DUP6 PUSH1 0x20 DUP7 ADD PUSH2 0x2FF6 JUMP JUMPDEST PUSH2 0x2A8C DUP2 PUSH2 0x3029 JUMP JUMPDEST DUP5 ADD SWAP2 POP POP SWAP3 SWAP2 POP POP JUMP JUMPDEST PUSH1 0x0 PUSH2 0x2AA2 DUP3 PUSH2 0x2EAD JUMP JUMPDEST PUSH2 0x2AAC DUP2 DUP6 PUSH2 0x2F16 JUMP JUMPDEST SWAP4 POP PUSH2 0x2ABC DUP2 DUP6 PUSH1 0x20 DUP7 ADD PUSH2 0x2FF6 JUMP JUMPDEST DUP1 DUP5 ADD SWAP2 POP POP SWAP3 SWAP2 POP POP JUMP JUMPDEST PUSH1 0x0 PUSH2 0x2AD3 DUP3 PUSH2 0x2EA2 JUMP JUMPDEST PUSH2 0x2ADD DUP2 DUP6 PUSH2 0x2EF4 JUMP JUMPDEST SWAP4 POP PUSH2 0x2AED DUP2 DUP6 PUSH1 0x20 DUP7 ADD PUSH2 0x2FF6 JUMP JUMPDEST PUSH2 0x2AF6 DUP2 PUSH2 0x3029 JUMP JUMPDEST DUP5 ADD SWAP2 POP POP SWAP3 SWAP2 POP POP JUMP JUMPDEST PUSH1 0x0 PUSH2 0x2B0E PUSH1 0x1C DUP4 PUSH2 0x2F05 JUMP JUMPDEST SWAP2 POP PUSH32 0x6F6E6C792061646D696E2063616E206368616E676520627261696E7300000000 PUSH1 0x0 DUP4 ADD MSTORE PUSH1 0x20 DUP3 ADD SWAP1 POP SWAP2 SWAP1 POP JUMP JUMPDEST PUSH1 0x0 PUSH2 0x2B4E PUSH1 0x15 DUP4 PUSH2 0x2F05 JUMP JUMPDEST SWAP2 POP PUSH32 0x6368616E676573206E6F74207065726D69747465640000000000000000000000 PUSH1 0x0 DUP4 ADD MSTORE PUSH1 0x20 DUP3 ADD SWAP1 POP SWAP2 SWAP1 POP JUMP JUMPDEST PUSH1 0x0 PUSH2 0x2B8E PUSH1 0x4 DUP4 PUSH2 0x2F05 JUMP JUMPDEST SWAP2 POP PUSH32 0x434F4D5000000000000000000000000000000000000000000000000000000000 PUSH1 0x0 DUP4 ADD MSTORE PUSH1 0x20 DUP3 ADD SWAP1 POP SWAP2 SWAP1 POP JUMP JUMPDEST PUSH1 0x40 DUP3 ADD PUSH1 0x0 DUP3 ADD MLOAD PUSH2 0x2BD7 PUSH1 0x0 DUP6 ADD DUP3 PUSH2 0x2BF0 JUMP JUMPDEST POP PUSH1 0x20 DUP3 ADD MLOAD PUSH2 0x2BEA PUSH1 0x20 DUP6 ADD DUP3 PUSH2 0x2BF0 JUMP JUMPDEST POP POP POP POP JUMP JUMPDEST PUSH2 0x2BF9 DUP2 PUSH2 0x2F95 JUMP JUMPDEST DUP3 MSTORE POP POP JUMP JUMPDEST PUSH2 0x2C08 DUP2 PUSH2 0x2F95 JUMP JUMPDEST DUP3 MSTORE POP POP JUMP JUMPDEST PUSH1 0x0 PUSH2 0x2C1A DUP3 DUP5 PUSH2 0x2A97 JUMP JUMPDEST SWAP2 POP DUP2 SWAP1 POP SWAP3 SWAP2 POP POP JUMP JUMPDEST PUSH1 0x0 PUSH1 0x20 DUP3 ADD SWAP1 POP PUSH2 0x2C3A PUSH1 0x0 DUP4 ADD DUP5 PUSH2 0x294F JUMP JUMPDEST SWAP3 SWAP2 POP POP JUMP JUMPDEST PUSH1 0x0 PUSH1 0x40 DUP3 ADD SWAP1 POP DUP2 DUP2 SUB PUSH1 0x0 DUP4 ADD MSTORE PUSH2 0x2C5A DUP2 DUP6 PUSH2 0x295E JUMP JUMPDEST SWAP1 POP DUP2 DUP2 SUB PUSH1 0x20 DUP4 ADD MSTORE PUSH2 0x2C6E DUP2 DUP5 PUSH2 0x29D3 JUMP JUMPDEST SWAP1 POP SWAP4 SWAP3 POP POP POP JUMP JUMPDEST PUSH1 0x0 PUSH1 0x20 DUP3 ADD SWAP1 POP PUSH2 0x2C8C PUSH1 0x0 DUP4 ADD DUP5 PUSH2 0x2A31 JUMP JUMPDEST SWAP3 SWAP2 POP POP JUMP JUMPDEST PUSH1 0x0 PUSH1 0x60 DUP3 ADD SWAP1 POP PUSH2 0x2CA7 PUSH1 0x0 DUP4 ADD DUP7 PUSH2 0x2A40 JUMP JUMPDEST PUSH2 0x2CB4 PUSH1 0x20 DUP4 ADD DUP6 PUSH2 0x2A4F JUMP JUMPDEST PUSH2 0x2CC1 PUSH1 0x40 DUP4 ADD DUP5 PUSH2 0x294F JUMP JUMPDEST SWAP5 SWAP4 POP POP POP POP JUMP JUMPDEST PUSH1 0x0 PUSH1 0x20 DUP3 ADD SWAP1 POP DUP2 DUP2 SUB PUSH1 0x0 DUP4 ADD MSTORE PUSH2 0x2CE3 DUP2 DUP5 PUSH2 0x2A5E JUMP JUMPDEST SWAP1 POP SWAP3 SWAP2 POP POP JUMP JUMPDEST PUSH1 0x0 PUSH1 0x20 DUP3 ADD SWAP1 POP DUP2 DUP2 SUB PUSH1 0x0 DUP4 ADD MSTORE PUSH2 0x2D04 DUP2 PUSH2 0x2B01 JUMP JUMPDEST SWAP1 POP SWAP2 SWAP1 POP JUMP JUMPDEST PUSH1 0x0 PUSH1 0x20 DUP3 ADD SWAP1 POP DUP2 DUP2 SUB PUSH1 0x0 DUP4 ADD MSTORE PUSH2 0x2D24 DUP2 PUSH2 0x2B41 JUMP JUMPDEST SWAP1 POP SWAP2 SWAP1 POP JUMP JUMPDEST PUSH1 0x0 PUSH1 0x20 DUP3 ADD SWAP1 POP DUP2 DUP2 SUB PUSH1 0x0 DUP4 ADD MSTORE PUSH2 0x2D44 DUP2 PUSH2 0x2B81 JUMP JUMPDEST SWAP1 POP SWAP2 SWAP1 POP JUMP JUMPDEST PUSH1 0x0 PUSH1 0x40 DUP3 ADD SWAP1 POP PUSH2 0x2D60 PUSH1 0x0 DUP4 ADD DUP5 PUSH2 0x2BC1 JUMP JUMPDEST SWAP3 SWAP2 POP POP JUMP JUMPDEST PUSH1 0x0 PUSH1 0x20 DUP3 ADD SWAP1 POP PUSH2 0x2D7B PUSH1 0x0 DUP4 ADD DUP5 PUSH2 0x2BFF JUMP JUMPDEST SWAP3 SWAP2 POP POP JUMP JUMPDEST PUSH1 0x0 PUSH1 0x60 DUP3 ADD SWAP1 POP PUSH2 0x2D96 PUSH1 0x0 DUP4 ADD DUP7 PUSH2 0x2BFF JUMP JUMPDEST DUP2 DUP2 SUB PUSH1 0x20 DUP4 ADD MSTORE PUSH2 0x2DA8 DUP2 DUP6 PUSH2 0x2A5E JUMP JUMPDEST SWAP1 POP PUSH2 0x2DB7 PUSH1 0x40 DUP4 ADD DUP5 PUSH2 0x2BFF JUMP JUMPDEST SWAP5 SWAP4 POP POP POP POP JUMP JUMPDEST PUSH1 0x0 PUSH1 0x40 MLOAD SWAP1 POP DUP2 DUP2 ADD DUP2 DUP2 LT PUSH8 0xFFFFFFFFFFFFFFFF DUP3 GT OR ISZERO PUSH2 0x2DE2 JUMPI PUSH1 0x0 DUP1 REVERT JUMPDEST DUP1 PUSH1 0x40 MSTORE POP SWAP2 SWAP1 POP JUMP JUMPDEST PUSH1 0x0 PUSH8 0xFFFFFFFFFFFFFFFF DUP3 GT ISZERO PUSH2 0x2E03 JUMPI PUSH1 0x0 DUP1 REVERT JUMPDEST PUSH1 0x20 DUP3 MUL SWAP1 POP PUSH1 0x20 DUP2 ADD SWAP1 POP SWAP2 SWAP1 POP JUMP JUMPDEST PUSH1 0x0 PUSH8 0xFFFFFFFFFFFFFFFF DUP3 GT ISZERO PUSH2 0x2E2B JUMPI PUSH1 0x0 DUP1 REVERT JUMPDEST PUSH1 0x1F NOT PUSH1 0x1F DUP4 ADD AND SWAP1 POP PUSH1 0x20 DUP2 ADD SWAP1 POP SWAP2 SWAP1 POP JUMP JUMPDEST PUSH1 0x0 PUSH8 0xFFFFFFFFFFFFFFFF DUP3 GT ISZERO PUSH2 0x2E57 JUMPI PUSH1 0x0 DUP1 REVERT JUMPDEST PUSH1 0x1F NOT PUSH1 0x1F DUP4 ADD AND SWAP1 POP PUSH1 0x20 DUP2 ADD SWAP1 POP SWAP2 SWAP1 POP JUMP JUMPDEST PUSH1 0x0 DUP2 SWAP1 POP PUSH1 0x20 DUP3 ADD SWAP1 POP SWAP2 SWAP1 POP JUMP JUMPDEST PUSH1 0x0 DUP2 SWAP1 POP PUSH1 0x20 DUP3 ADD SWAP1 POP SWAP2 SWAP1 POP JUMP JUMPDEST PUSH1 0x0 DUP2 MLOAD SWAP1 POP SWAP2 SWAP1 POP JUMP JUMPDEST PUSH1 0x0 DUP2 MLOAD SWAP1 POP SWAP2 SWAP1 POP JUMP JUMPDEST PUSH1 0x0 DUP2 MLOAD SWAP1 POP SWAP2 SWAP1 POP JUMP JUMPDEST PUSH1 0x0 DUP2 MLOAD SWAP1 POP SWAP2 SWAP1 POP JUMP JUMPDEST PUSH1 0x0 PUSH1 0x20 DUP3 ADD SWAP1 POP SWAP2 SWAP1 POP JUMP JUMPDEST PUSH1 0x0 PUSH1 0x20 DUP3 ADD SWAP1 POP SWAP2 SWAP1 POP JUMP JUMPDEST PUSH1 0x0 DUP3 DUP3 MSTORE PUSH1 0x20 DUP3 ADD SWAP1 POP SWAP3 SWAP2 POP POP JUMP JUMPDEST PUSH1 0x0 DUP3 DUP3 MSTORE PUSH1 0x20 DUP3 ADD SWAP1 POP SWAP3 SWAP2 POP POP JUMP JUMPDEST PUSH1 0x0 DUP3 DUP3 MSTORE PUSH1 0x20 DUP3 ADD SWAP1 POP SWAP3 SWAP2 POP POP JUMP JUMPDEST PUSH1 0x0 DUP3 DUP3 MSTORE PUSH1 0x20 DUP3 ADD SWAP1 POP SWAP3 SWAP2 POP POP JUMP JUMPDEST PUSH1 0x0 DUP2 SWAP1 POP SWAP3 SWAP2 POP POP JUMP JUMPDEST PUSH1 0x0 PUSH2 0x2F2C DUP3 PUSH2 0x2F75 JUMP JUMPDEST SWAP1 POP SWAP2 SWAP1 POP JUMP JUMPDEST PUSH1 0x0 PUSH2 0x2F3E DUP3 PUSH2 0x2F75 JUMP JUMPDEST SWAP1 POP SWAP2 SWAP1 POP JUMP JUMPDEST PUSH1 0x0 DUP2 ISZERO ISZERO SWAP1 POP SWAP2 SWAP1 POP JUMP JUMPDEST PUSH1 0x0 PUSH2 0x2F5C DUP3 PUSH2 0x2F21 JUMP JUMPDEST SWAP1 POP SWAP2 SWAP1 POP JUMP JUMPDEST PUSH1 0x0 PUSH2 0x2F6E DUP3 PUSH2 0x2F33 JUMP JUMPDEST SWAP1 POP SWAP2 SWAP1 POP JUMP JUMPDEST PUSH1 0x0 PUSH20 0xFFFFFFFFFFFFFFFFFFFFFFFFFFFFFFFFFFFFFFFF DUP3 AND SWAP1 POP SWAP2 SWAP1 POP JUMP JUMPDEST PUSH1 0x0 DUP2 SWAP1 POP SWAP2 SWAP1 POP JUMP JUMPDEST PUSH1 0x0 PUSH2 0x2FAA DUP3 PUSH2 0x2FB1 JUMP JUMPDEST SWAP1 POP SWAP2 SWAP1 POP JUMP JUMPDEST PUSH1 0x0 PUSH2 0x2FBC DUP3 PUSH2 0x2F75 JUMP JUMPDEST SWAP1 POP SWAP2 SWAP1 POP JUMP JUMPDEST PUSH1 0x0 PUSH2 0x2FCE DUP3 PUSH2 0x2FD5 JUMP JUMPDEST SWAP1 POP SWAP2 SWAP1 POP JUMP JUMPDEST PUSH1 0x0 PUSH2 0x2FE0 DUP3 PUSH2 0x2F75 JUMP JUMPDEST SWAP1 POP SWAP2 SWAP1 POP JUMP JUMPDEST DUP3 DUP2 DUP4 CALLDATACOPY PUSH1 0x0 DUP4 DUP4 ADD MSTORE POP POP POP JUMP JUMPDEST PUSH1 0x0 JUMPDEST DUP4 DUP2 LT ISZERO PUSH2 0x3014 JUMPI DUP1 DUP3 ADD MLOAD DUP2 DUP5 ADD MSTORE PUSH1 0x20 DUP2 ADD SWAP1 POP PUSH2 0x2FF9 JUMP JUMPDEST DUP4 DUP2 GT ISZERO PUSH2 0x3023 JUMPI PUSH1 0x0 DUP5 DUP5 ADD MSTORE JUMPDEST POP POP POP POP JUMP JUMPDEST PUSH1 0x0 PUSH1 0x1F NOT PUSH1 0x1F DUP4 ADD AND SWAP1 POP SWAP2 SWAP1 POP JUMP JUMPDEST PUSH2 0x3043 DUP2 PUSH2 0x2F21 JUMP JUMPDEST DUP2 EQ PUSH2 0x304E JUMPI PUSH1 0x0 DUP1 REVERT JUMPDEST POP JUMP JUMPDEST PUSH2 0x305A DUP2 PUSH2 0x2F45 JUMP JUMPDEST DUP2 EQ PUSH2 0x3065 JUMPI PUSH1 0x0 DUP1 REVERT JUMPDEST POP JUMP JUMPDEST PUSH2 0x3071 DUP2 PUSH2 0x2F51 JUMP JUMPDEST DUP2 EQ PUSH2 0x307C JUMPI PUSH1 0x0 DUP1 REVERT JUMPDEST POP JUMP JUMPDEST PUSH2 0x3088 DUP2 PUSH2 0x2F63 JUMP JUMPDEST DUP2 EQ PUSH2 0x3093 JUMPI PUSH1 0x0 DUP1 REVERT JUMPDEST POP JUMP JUMPDEST PUSH2 0x309F DUP2 PUSH2 0x2F95 JUMP JUMPDEST DUP2 EQ PUSH2 0x30AA JUMPI PUSH1 0x0 DUP1 REVERT JUMPDEST POP JUMP INVALID LOG3 PUSH6 0x627A7A723158 KECCAK256 0xF7 0xE9 MUL SWAP13 ADDMOD PUSH13 0x93A927BA4B0E6074084DA17BA9 0xE1 0xAE CHAINID PUSH24 0x86CD9F379BBC9392246C6578706572696D656E74616CF564 PUSH20 0x6F6C634300051100400000000000000000000000 "
		},
		"gasEstimates": {
			"creation": {
				"codeDepositCost": "2505600",
				"executionCost": "2703",
				"totalCost": "2508303"
			},
			"external": {
				"_become(address)": "infinite",
				"admin()": "1324",
				"compFarmingSummaryImplmentation()": "1236",
				"compProfile(address)": "infinite",
				"compareStrings(string,string)": "infinite",
				"getPriceCOMP()": "infinite",
				"getPriceInUSD(address)": "infinite",
				"getVersion()": "360",
				"pendingAdmin()": "1303",
				"pendingCompFarmingSummaryImplmentation()": "1302",
				"sortedCompDistSpeedAllMarkets()": "infinite",
				"totalCompIncomePerYear(address)": "infinite"
			},
			"internal": {
				"cTokenNameList()": "infinite",
				"compDistSpeed(address)": "infinite",
				"compIncomeByCToken(address,address,uint256)": "infinite",
				"contractSymbolToAddressMap(string memory)": "infinite",
				"estimatedNumberOfBlocksPerYear()": "infinite",
				"getAccountSnapshot(address,address)": "infinite",
				"getCEthAddress()": "23",
				"getCTokenTotalSupply(address)": "infinite",
				"getCompAddress()": "23",
				"getCompoundLensAddress()": "23",
				"getTotalBorrow(address)": "infinite",
				"getTotalSupply(address)": "infinite",
				"getUniswapAnchoredViewAddress()": "23",
				"getUnitrollerAddress()": "23",
				"hasCToken(address,string memory[] memory)": "infinite",
				"mantissaOfExchangeRate(address)": "infinite",
				"quickSort(string memory[] memory,uint256[] memory,uint256,uint256)": "infinite",
				"quickSortDESC(string memory[] memory,uint256[] memory)": "infinite",
				"totalCompIncome(address,uint256)": "infinite",
				"underlyingDecimals(address)": "infinite"
			}
		},
		"methodIdentifiers": {
			"_become(address)": "1d504dc6",
			"admin()": "f851a440",
			"compFarmingSummaryImplmentation()": "8ebc0627",
			"compProfile(address)": "1f78f57e",
			"compareStrings(string,string)": "bed34bba",
			"getPriceCOMP()": "4a0beecb",
			"getPriceInUSD(address)": "02266147",
			"getVersion()": "0d8e6e2c",
			"pendingAdmin()": "26782247",
			"pendingCompFarmingSummaryImplmentation()": "dd4a9aa7",
			"sortedCompDistSpeedAllMarkets()": "ce9d4aaa",
			"totalCompIncomePerYear(address)": "3b4fef63"
		}
	},
	"abi": [
		{
			"inputs": [],
			"payable": false,
			"stateMutability": "nonpayable",
			"type": "constructor"
		},
		{
			"anonymous": false,
			"inputs": [
				{
					"indexed": false,
					"internalType": "uint256",
					"name": "error",
					"type": "uint256"
				},
				{
					"indexed": false,
					"internalType": "uint256",
					"name": "info",
					"type": "uint256"
				},
				{
					"indexed": false,
					"internalType": "uint256",
					"name": "detail",
					"type": "uint256"
				}
			],
			"name": "Failure",
			"type": "event"
		},
		{
			"constant": false,
			"inputs": [
				{
					"internalType": "contract CompFarmingSummaryProxy",
					"name": "proxy",
					"type": "address"
				}
			],
			"name": "_become",
			"outputs": [],
			"payable": false,
			"stateMutability": "nonpayable",
			"type": "function"
		},
		{
			"constant": true,
			"inputs": [],
			"name": "admin",
			"outputs": [
				{
					"internalType": "address",
					"name": "",
					"type": "address"
				}
			],
			"payable": false,
			"stateMutability": "view",
			"type": "function"
		},
		{
			"constant": true,
			"inputs": [],
			"name": "compFarmingSummaryImplmentation",
			"outputs": [
				{
					"internalType": "address",
					"name": "",
					"type": "address"
				}
			],
			"payable": false,
			"stateMutability": "view",
			"type": "function"
		},
		{
			"constant": false,
			"inputs": [
				{
					"internalType": "address",
					"name": "account",
					"type": "address"
				}
			],
			"name": "compProfile",
			"outputs": [
				{
					"components": [
						{
							"internalType": "uint256",
							"name": "balance",
							"type": "uint256"
						},
						{
							"internalType": "uint256",
							"name": "yetToClaimed",
							"type": "uint256"
						}
					],
					"internalType": "struct CompFarmingSummaryInterface.CompProfile",
					"name": "_compProfile",
					"type": "tuple"
				}
			],
			"payable": false,
			"stateMutability": "nonpayable",
			"type": "function"
		},
		{
			"constant": true,
			"inputs": [
				{
					"internalType": "string",
					"name": "a",
					"type": "string"
				},
				{
					"internalType": "string",
					"name": "b",
					"type": "string"
				}
			],
			"name": "compareStrings",
			"outputs": [
				{
					"internalType": "bool",
					"name": "",
					"type": "bool"
				}
			],
			"payable": false,
			"stateMutability": "pure",
			"type": "function"
		},
		{
			"constant": true,
			"inputs": [],
			"name": "getPriceCOMP",
			"outputs": [
				{
					"internalType": "uint256",
					"name": "priceInUSD",
					"type": "uint256"
				}
			],
			"payable": false,
			"stateMutability": "view",
			"type": "function"
		},
		{
			"constant": true,
			"inputs": [
				{
					"internalType": "address",
					"name": "cTokenAddress",
					"type": "address"
				}
			],
			"name": "getPriceInUSD",
			"outputs": [
				{
					"internalType": "uint256",
					"name": "priceInUSD",
					"type": "uint256"
				}
			],
			"payable": false,
			"stateMutability": "view",
			"type": "function"
		},
		{
			"constant": true,
			"inputs": [],
			"name": "getVersion",
			"outputs": [
				{
					"internalType": "uint256",
					"name": "",
					"type": "uint256"
				}
			],
			"payable": false,
			"stateMutability": "pure",
			"type": "function"
		},
		{
			"constant": true,
			"inputs": [],
			"name": "pendingAdmin",
			"outputs": [
				{
					"internalType": "address",
					"name": "",
					"type": "address"
				}
			],
			"payable": false,
			"stateMutability": "view",
			"type": "function"
		},
		{
			"constant": true,
			"inputs": [],
			"name": "pendingCompFarmingSummaryImplmentation",
			"outputs": [
				{
					"internalType": "address",
					"name": "",
					"type": "address"
				}
			],
			"payable": false,
			"stateMutability": "view",
			"type": "function"
		},
		{
			"constant": true,
			"inputs": [],
			"name": "sortedCompDistSpeedAllMarkets",
			"outputs": [
				{
					"internalType": "string[]",
					"name": "sortedCTokenNameList",
					"type": "string[]"
				},
				{
					"internalType": "uint256[]",
					"name": "sortedCompSpeedList",
					"type": "uint256[]"
				}
			],
			"payable": false,
			"stateMutability": "view",
			"type": "function"
		},
		{
			"constant": true,
			"inputs": [
				{
					"internalType": "address",
					"name": "_account",
					"type": "address"
				}
			],
			"name": "totalCompIncomePerYear",
			"outputs": [
				{
					"internalType": "uint256",
					"name": "errCode",
					"type": "uint256"
				},
				{
					"internalType": "string",
					"name": "",
					"type": "string"
				},
				{
					"internalType": "uint256",
					"name": "totalCompIncomeMantissa",
					"type": "uint256"
				}
			],
			"payable": false,
			"stateMutability": "view",
			"type": "function"
		}
	]
}