{
	"data": {
		"bytecode": {
			"linkReferences": {},
			"object": "608060405234801561001057600080fd5b50613b1c806100206000396000f3fe608060405234801561001057600080fd5b50600436106100f55760003560e01c80633b4fef6311610097578063bed34bba11610066578063bed34bba146102a0578063ce9d4aaa146102d0578063dd4a9aa7146102ef578063f851a4401461030d576100f5565b80633b4fef63146102145780634a0beecb14610246578063580723ff146102645780638ebc062714610282576100f5565b80631d504dc6116100d35780631d504dc6146101795780631f78f57e1461019557806326782247146101c55780632f22ff6a146101e3576100f5565b806302266147146100fa578063079d242a1461012a5780630d8e6e2c1461015b575b600080fd5b610114600480360361010f9190810190612d6b565b61032b565b6040516101219190613760565b60405180910390f35b610144600480360361013f9190810190612dbd565b6103c9565b604051610152929190613578565b60405180910390f35b6101636107f6565b60405161017091906135a1565b60405180910390f35b610193600480360361018e9190810190612e9c565b610833565b005b6101af60048036036101aa9190810190612d6b565b6109f5565b6040516101bc9190613745565b60405180910390f35b6101cd610b52565b6040516101da91906134d4565b60405180910390f35b6101fd60048036036101f89190810190612dbd565b610b78565b60405161020b929190613578565b60405180910390f35b61022e60048036036102299190810190612d6b565b610de9565b60405161023d9392919061377b565b60405180910390f35b61024e610e8c565b60405161025b9190613760565b60405180910390f35b61026c610f26565b6040516102799190613760565b60405180910390f35b61028a610f88565b60405161029791906134d4565b60405180910390f35b6102ba60048036036102b59190810190612f06565b610fae565b6040516102c79190613526565b60405180910390f35b6102d8611007565b6040516102e69291906134ef565b60405180910390f35b6102f7611132565b60405161030491906134d4565b60405180910390f35b610315611158565b60405161032291906134d4565b60405180910390f35b60008061033661117d565b90508073ffffffffffffffffffffffffffffffffffffffff1663fc57d4df846040518263ffffffff1660e01b815260040161037191906134d4565b60206040518083038186803b15801561038957600080fd5b505afa15801561039d573d6000803e3d6000fd5b505050506040513d601f19601f820116820180604052506103c19190810190612f9b565b915050919050565b60006103d3612982565b6103db612995565b8473ffffffffffffffffffffffffffffffffffffffff1663313ce5676040518163ffffffff1660e01b815260040160206040518083038186803b15801561042157600080fd5b505afa158015610435573d6000803e3d6000fd5b505050506040513d601f19601f820116820180604052506104599190810190612f9b565b81600001818152505061046b85611199565b81602001818152505061047d856112e8565b8161016001819052506104908686611429565b84606001856080018660a0018760c001848152508481525084815250848152505050505060008160600151146104df5760036040518060200160405280600081525080905092509250506107ee565b61050d6040518060200160405280836080015181525060405180602001604052808460c00151815250611658565b81610180018190525060405180602001604052808260a00151815250816101a0018190525061053b85611699565b8161012001818152505061054e8561183d565b8161014001818152505061057c8161018001516105778361012001518460200151600a0a6118c9565b611913565b816101e001819052506105a9816101a001516105a48361014001518460200151600a0a6118c9565b611913565b8161020001819052506105c18161016001518561193f565b8161028001819052506105de816102800151826101e00151611658565b8161022001819052506105fb816102800151826102000151611658565b81610240018190525061061881610220015182610240015161196b565b8161026001819052507f98d0cbf196b9b8d5af7789d9821f2a58027207b1331c70f1325c8ac30eb5ac93816101600151600001516040516106599190613611565b60405180910390a17f98d0cbf196b9b8d5af7789d9821f2a58027207b1331c70f1325c8ac30eb5ac93816101e00151600001516040516106999190613717565b60405180910390a17f98d0cbf196b9b8d5af7789d9821f2a58027207b1331c70f1325c8ac30eb5ac93816102000151600001516040516106d991906135c3565b60405180910390a17f98d0cbf196b9b8d5af7789d9821f2a58027207b1331c70f1325c8ac30eb5ac938161018001516000015160405161071991906136c9565b60405180910390a17f98d0cbf196b9b8d5af7789d9821f2a58027207b1331c70f1325c8ac30eb5ac9381610280015160000151604051610759919061366d565b60405180910390a17f98d0cbf196b9b8d5af7789d9821f2a58027207b1331c70f1325c8ac30eb5ac93816101200151604051610795919061369b565b60405180910390a17f98d0cbf196b9b8d5af7789d9821f2a58027207b1331c70f1325c8ac30eb5ac93816102600151600001516040516107d5919061363f565b60405180910390a1600081610260015180905092509250505b935093915050565b60606040518060400160405280600281526020017f7632000000000000000000000000000000000000000000000000000000000000815250905090565b8073ffffffffffffffffffffffffffffffffffffffff1663f851a4406040518163ffffffff1660e01b815260040160206040518083038186803b15801561087957600080fd5b505afa15801561088d573d6000803e3d6000fd5b505050506040513d601f19601f820116820180604052506108b19190810190612d94565b73ffffffffffffffffffffffffffffffffffffffff163373ffffffffffffffffffffffffffffffffffffffff161461091e576040517f08c379a0000000000000000000000000000000000000000000000000000000008152600401610915906135f1565b60405180910390fd5b60008173ffffffffffffffffffffffffffffffffffffffff1663c1e803346040518163ffffffff1660e01b8152600401602060405180830381600087803b15801561096857600080fd5b505af115801561097c573d6000803e3d6000fd5b505050506040513d601f19601f820116820180604052506109a09190810190612f9b565b9050600081146109af8261199b565b906109f0576040517f08c379a00000000000000000000000000000000000000000000000000000000081526004016109e791906135a1565b60405180910390fd5b505050565b6109fd612a71565b610a05611ac8565b73ffffffffffffffffffffffffffffffffffffffff166370a08231836040518263ffffffff1660e01b8152600401610a3d91906134d4565b60206040518083038186803b158015610a5557600080fd5b505afa158015610a69573d6000803e3d6000fd5b505050506040513d601f19601f82011682018060405250610a8d9190810190612f9b565b8160000181815250506000610aa0611ae4565b90508073ffffffffffffffffffffffffffffffffffffffff16631ea63741610ac6611ac8565b610ace611b00565b866040518463ffffffff1660e01b8152600401610aed93929190613541565b608060405180830381600087803b158015610b0757600080fd5b505af1158015610b1b573d6000803e3d6000fd5b505050506040513d601f19601f82011682018060405250610b3f9190810190612f72565b6060015182602001818152505050919050565b600160009054906101000a900473ffffffffffffffffffffffffffffffffffffffff1681565b6000610b82612982565b610b8a612995565b8473ffffffffffffffffffffffffffffffffffffffff1663313ce5676040518163ffffffff1660e01b815260040160206040518083038186803b158015610bd057600080fd5b505afa158015610be4573d6000803e3d6000fd5b505050506040513d601f19601f82011682018060405250610c089190810190612f9b565b816000018181525050610c1a85611199565b816020018181525050610c2c856112e8565b816101600181905250610c3f8686611429565b84606001856080018660a0018760c00184815250848152508481525084815250505050506000816060015114610c8e576003604051806020016040528060008152508090509250925050610de1565b610cbc6040518060200160405280836080015181525060405180602001604052808460c00151815250611658565b81610180018190525060405180602001604052808260a00151815250816101a00181905250610cea85611699565b81610120018181525050610cfd8561183d565b81610140018181525050610d2b816101800151610d268361012001518460200151600a0a6118c9565b611913565b816101e00181905250610d58816101a00151610d538361014001518460200151600a0a6118c9565b611913565b816102000181905250610d708161016001518561193f565b816102800181905250610d8d816102800151826101e00151611658565b816102200181905250610daa816102800151826102000151611658565b816102400181905250610dc781610220015182610240015161196b565b816102600181905250600081610260015180905092509250505b935093915050565b600060606000806060610dfa612982565b610e1c87610e17610e09610f26565b670de0b6b3a76400006118c9565b611b1c565b92509250925060006004811115610e2f57fe5b836004811115610e3b57fe5b14610e6057826004811115610e4c57fe5b826000809050955095509550505050610e85565b6000816000015181915060405180602001604052806000815250909550955095505050505b9193909250565b600080610e9761117d565b90508073ffffffffffffffffffffffffffffffffffffffff1663fe2c61986040518163ffffffff1660e01b8152600401610ed0906136f7565b60206040518083038186803b158015610ee857600080fd5b505afa158015610efc573d6000803e3d6000fd5b505050506040513d601f19601f82011682018060405250610f209190810190612f9b565b91505090565b600080600e905060006301e1338090506000610f40612982565b610f4a8385611c7f565b9150915060006003811115610f5b57fe5b826003811115610f6757fe5b14610f79576000945050505050610f85565b80600001519450505050505b90565b600260009054906101000a900473ffffffffffffffffffffffffffffffffffffffff1681565b600081604051602001610fc191906134bd565b6040516020818303038152906040528051906020012083604051602001610fe891906134bd565b6040516020818303038152906040528051906020012014905092915050565b6060806060611014611d53565b90506060815160405190808252806020026020018201604052801561104d57816020015b60608152602001906001900390816110385790505b509050606082516040519080825280602002602001820160405280156110825781602001602082028038833980820191505090505b50905061108d612982565b60008090505b8451811015611117576110c06110bb8683815181106110ae57fe5b6020026020010151612048565b6112e8565b91508481815181106110ce57fe5b60200260200101518482815181106110e257fe5b602002602001018190525081600001518382815181106110fe57fe5b6020026020010181815250508080600101915050611093565b5061112283836121c2565b8096508197505050505050509091565b600360009054906101000a900473ffffffffffffffffffffffffffffffffffffffff1681565b6000809054906101000a900473ffffffffffffffffffffffffffffffffffffffff1681565b600073922018674c12a7f0d394ebeef9b58f186cde13c1905090565b60006111a36123cd565b73ffffffffffffffffffffffffffffffffffffffff168273ffffffffffffffffffffffffffffffffffffffff1614156111df57601290506112e3565b60008273ffffffffffffffffffffffffffffffffffffffff16636f307dc36040518163ffffffff1660e01b815260040160206040518083038186803b15801561122757600080fd5b505afa15801561123b573d6000803e3d6000fd5b505050506040513d601f19601f8201168201806040525061125f9190810190612d94565b90508073ffffffffffffffffffffffffffffffffffffffff1663313ce5676040518163ffffffff1660e01b815260040160206040518083038186803b1580156112a757600080fd5b505afa1580156112bb573d6000803e3d6000fd5b505050506040513d601f19601f820116820180604052506112df9190810190612f9b565b9150505b919050565b6112f0612982565b60006112fa611b00565b90506000611306611ac8565b73ffffffffffffffffffffffffffffffffffffffff1663313ce5676040518163ffffffff1660e01b815260040160206040518083038186803b15801561134b57600080fd5b505afa15801561135f573d6000803e3d6000fd5b505050506040513d601f19601f820116820180604052506113839190810190612f9b565b905060008273ffffffffffffffffffffffffffffffffffffffff16631d7b33d7866040518263ffffffff1660e01b81526004016113c091906134d4565b60206040518083038186803b1580156113d857600080fd5b505afa1580156113ec573d6000803e3d6000fd5b505050506040513d601f19601f820116820180604052506114109190810190612f9b565b905061141c81836123e9565b9350839350505050919050565b600080600080611437612a8b565b600086905060008773ffffffffffffffffffffffffffffffffffffffff1663313ce5676040518163ffffffff1660e01b815260040160206040518083038186803b15801561148457600080fd5b505afa158015611498573d6000803e3d6000fd5b505050506040513d601f19601f820116820180604052506114bc9190810190612f9b565b905060006114c989611199565b90508273ffffffffffffffffffffffffffffffffffffffff1663c37f68e28b6040518263ffffffff1660e01b815260040161150491906134d4565b60806040518083038186803b15801561151c57600080fd5b505afa158015611530573d6000803e3d6000fd5b505050506040513d601f19601f820116820180604052506115549190810190612fc4565b8760000188602001896040018a606001848152508481525084815250848152505050505060008460000151146115a8578360000151600080600082925081915080905097509750975097505050505061164f565b6115b68460200151836123e9565b8461010001819052506115cd8460400151826123e9565b8461014001819052506115ec84606001516115e78b61244c565b6123e9565b84610180018190525083610100015160000151846080018181525050836101400151600001518460a0018181525050836101800151600001518460c0018181525050600084608001518560a001518660c001518393509750975097509750505050505b92959194509250565b611660612982565b6040518060200160405280670de0b6b3a7640000611686866000015186600001516124f9565b8161168d57fe5b04815250905092915050565b6000808273ffffffffffffffffffffffffffffffffffffffff16633b1d21a26040518163ffffffff1660e01b815260040160206040518083038186803b1580156116e257600080fd5b505afa1580156116f6573d6000803e3d6000fd5b505050506040513d601f19601f8201168201806040525061171a9190810190612f9b565b905060008373ffffffffffffffffffffffffffffffffffffffff166347bd37186040518163ffffffff1660e01b815260040160206040518083038186803b15801561176457600080fd5b505afa158015611778573d6000803e3d6000fd5b505050506040513d601f19601f8201168201806040525061179c9190810190612f9b565b905060008473ffffffffffffffffffffffffffffffffffffffff16638f840ddd6040518163ffffffff1660e01b815260040160206040518083038186803b1580156117e657600080fd5b505afa1580156117fa573d6000803e3d6000fd5b505050506040513d601f19601f8201168201806040525061181e9190810190612f9b565b905061183361182d8484612543565b8261258d565b9350505050919050565b6000808290508073ffffffffffffffffffffffffffffffffffffffff166347bd37186040518163ffffffff1660e01b815260040160206040518083038186803b15801561188957600080fd5b505afa15801561189d573d6000803e3d6000fd5b505050506040513d601f19601f820116820180604052506118c19190810190612f9b565b915050919050565b600061190b83836040518060400160405280600e81526020017f646976696465206279207a65726f0000000000000000000000000000000000008152506125d7565b905092915050565b61191b612982565b60405180602001604052806119348560000151856118c9565b815250905092915050565b611947612982565b60405180602001604052806119608560000151856124f9565b815250905092915050565b611973612982565b604051806020016040528061199085600001518560000151612543565b815250905092915050565b606060008214156119e3576040518060400160405280600181526020017f30000000000000000000000000000000000000000000000000000000000000008152509050611ac3565b600082905060005b60008214611a0d578080600101915050600a8281611a0557fe5b0491506119eb565b6060816040519080825280601f01601f191660200182016040528015611a425781602001600182028038833980820191505090505b50905060006001830390505b60008614611abb57600a8681611a6057fe5b0660300160f81b82828060019003935081518110611a7a57fe5b60200101907effffffffffffffffffffffffffffffffffffffffffffffffffffffffffffff1916908160001a905350600a8681611ab357fe5b049550611a4e565b819450505050505b919050565b600073c00e94cb662c3520282e6f5717214004a7f26888905090565b600073d513d22422a3062bd342ae374b4b9c20e0a9a074905090565b6000733d9819210a31b4961b30ef54be2aed79b9c9cd3b905090565b60006060611b28612982565b6060611b32611d53565b90506000815190506000809050606082604051908082528060200260200182016040528015611b7b57816020015b611b68612b26565b815260200190600190039081611b605790505b50905060405180602001604052806000815250945060008090505b83811015611c58576060858281518110611bac57fe5b60200260200101519050611bc98b611bc383612048565b8c610b78565b809050848481518110611bd857fe5b60200260200101819052819550505060006004811115611bf457fe5b846004811115611c0057fe5b14611c2b57838160405180602001604052806000815250809050985098509850505050505050611c78565b611c4887848481518110611c3b57fe5b602002602001015161196b565b9650508080600101915050611b96565b506000856040518060200160405280600081525090965096509650505050505b9250925092565b6000611c89612982565b600080611c9e86670de0b6b3a7640000612632565b9150915060006003811115611caf57fe5b826003811115611cbb57fe5b14611cdf578160405180602001604052806000815250809050935093505050611d4c565b600080611cec8388612685565b9150915060006003811115611cfd57fe5b826003811115611d0957fe5b14611d2f5781604051806020016040528060008152508090509550955050505050611d4c565b600060405180602001604052808381525080905095509550505050505b9250929050565b60606000611d5f611b00565b905060608173ffffffffffffffffffffffffffffffffffffffff1663b0772d0b6040518163ffffffff1660e01b815260040160006040518083038186803b158015611da957600080fd5b505afa158015611dbd573d6000803e3d6000fd5b505050506040513d6000823e3d601f19601f82011682018060405250611de69190810190612e0c565b905060008060008060608551604051908082528060200260200182016040528015611e2557816020015b6060815260200190600190039081611e105790505b50905060008090505b8651811015611fbe57868181518110611e4357fe5b602002602001015193508773ffffffffffffffffffffffffffffffffffffffff16638e8f294b856040518263ffffffff1660e01b8152600401611e8691906134d4565b60606040518083038186803b158015611e9e57600080fd5b505afa158015611eb2573d6000803e3d6000fd5b505050506040513d601f19601f82011682018060405250611ed69190810190612e4d565b90508096508197505050858015611eea5750845b15611fb1576000878281518110611efd57fe5b6020026020010151905060608173ffffffffffffffffffffffffffffffffffffffff166395d89b416040518163ffffffff1660e01b815260040160006040518083038186803b158015611f4f57600080fd5b505afa158015611f63573d6000803e3d6000fd5b505050506040513d6000823e3d601f19601f82011682018060405250611f8c9190810190612ec5565b905080848681518110611f9b57fe5b6020026020010181905250848060010195505050505b8080600101915050611e2e565b5081604051908082528060200260200182016040528015611ff357816020015b6060815260200190600190039081611fde5790505b50975060008090505b885181101561203d5781818151811061201157fe5b602002602001015189828151811061202557fe5b60200260200101819052508080600101915050611ffc565b505050505050505090565b600080612053611b00565b905060608173ffffffffffffffffffffffffffffffffffffffff1663b0772d0b6040518163ffffffff1660e01b815260040160006040518083038186803b15801561209d57600080fd5b505afa1580156120b1573d6000803e3d6000fd5b505050506040513d6000823e3d601f19601f820116820180604052506120da9190810190612e0c565b905060008090505b81518110156121b55760008282815181106120f957fe5b6020026020010151905060608173ffffffffffffffffffffffffffffffffffffffff166395d89b416040518163ffffffff1660e01b815260040160006040518083038186803b15801561214b57600080fd5b505afa15801561215f573d6000803e3d6000fd5b505050506040513d6000823e3d601f19601f820116820180604052506121889190810190612ec5565b90506121948188610fae565b156121a65781955050505050506121bd565b505080806001019150506120e2565b506000925050505b919050565b606080606060018551016040519080825280602002602001820160405280156121ff57816020015b60608152602001906001900390816121ea5790505b509050606060018551016040519080825280602002602001820160405280156122375781602001602082028038833980820191505090505b50905060008090505b86518110156122ad5786818151811061225557fe5b602002602001015183828151811061226957fe5b602002602001018190525085818151811061228057fe5b602002602001015182828151811061229457fe5b6020026020010181815250508080600101915050612240565b506122bf8282600060018651036126b9565b8092508193505050606086516040519080825280602002602001820160405280156122fe57816020015b60608152602001906001900390816122e95790505b509050606086516040519080825280602002602001820160405280156123335781602001602082028038833980820191505090505b50905060008090505b88518110156123bb5784600182018151811061235457fe5b6020026020010151838260018c5103038151811061236e57fe5b602002602001018190525083600182018151811061238857fe5b6020026020010151828260018c510303815181106123a257fe5b602002602001018181525050808060010191505061233c565b50818195509550505050509250929050565b6000734ddc2d193948926d02f9b1fe9e1daa0718270ed5905090565b6123f1612982565b6000601283111561241a576124138461240b85601261258d565b600a0a6118c9565b9050612434565b6124318461242960128661258d565b600a0a6124f9565b90505b60405180602001604052808281525091505092915050565b60008061245883611199565b905060008373ffffffffffffffffffffffffffffffffffffffff1663313ce5676040518163ffffffff1660e01b815260040160206040518083038186803b1580156124a257600080fd5b505afa1580156124b6573d6000803e3d6000fd5b505050506040513d601f19601f820116820180604052506124da9190810190612f9b565b90506124f06124ea601284612543565b8261258d565b92505050919050565b600061253b83836040518060400160405280601781526020017f6d756c7469706c69636174696f6e206f766572666c6f77000000000000000000815250612853565b905092915050565b600061258583836040518060400160405280601181526020017f6164646974696f6e206f766572666c6f770000000000000000000000000000008152506128d3565b905092915050565b60006125cf83836040518060400160405280601581526020017f7375627472616374696f6e20756e646572666c6f77000000000000000000000081525061292d565b905092915050565b6000808311829061261e576040517f08c379a000000000000000000000000000000000000000000000000000000000815260040161261591906135a1565b60405180910390fd5b5082848161262857fe5b0490509392505050565b600080600084141561264d576000808090509150915061267e565b600083850290508385828161265e57fe5b04146126755760026000809050925092505061267e565b60008192509250505b9250929050565b60008060008314156126a15760016000809050915091506126b2565b60008385816126ac57fe5b04915091505b9250929050565b606080600084905060008490506000876002888803816126d557fe5b048801815181106126e257fe5b602002602001015190505b818311612813575b8088848151811061270257fe5b6020026020010151101561271d5782806001019350506126f5565b5b87828151811061272a57fe5b60200260200101518110156127475781806001900392505061271e565b81831161280e5788828151811061275a57fe5b602002602001015189848151811061276e57fe5b60200260200101518a858151811061278257fe5b602002602001018b858151811061279557fe5b6020026020010182905282905250508782815181106127b057fe5b60200260200101518884815181106127c457fe5b60200260200101518985815181106127d857fe5b602002602001018a85815181106127eb57fe5b602002602001018281525082815250505082806001019350508180600190039250505b6126ed565b8187101561282a57612827898989856126b9565b50505b858310156128415761283e898985896126b9565b50505b88889450945050505094509492505050565b6000808414806128635750600083145b1561287157600090506128cc565b600083850290508385828161288257fe5b041483906128c6576040517f08c379a00000000000000000000000000000000000000000000000000000000081526004016128bd91906135a1565b60405180910390fd5b50809150505b9392505050565b6000808385019050848110158390612921576040517f08c379a000000000000000000000000000000000000000000000000000000000815260040161291891906135a1565b60405180910390fd5b50809150509392505050565b6000838311158290612975576040517f08c379a000000000000000000000000000000000000000000000000000000000815260040161296c91906135a1565b60405180910390fd5b5082840390509392505050565b6040518060200160405280600081525090565b604051806102a0016040528060008152602001600081526020016000815260200160008152602001600081526020016000815260200160008152602001600081526020016000815260200160008152602001600081526020016129f6612b26565b8152602001612a03612b26565b8152602001612a10612b26565b8152602001612a1d612b26565b8152602001612a2a612b26565b8152602001612a37612b26565b8152602001612a44612b26565b8152602001612a51612b26565b8152602001612a5e612b26565b8152602001612a6b612b26565b81525090565b604051806040016040528060008152602001600081525090565b604051806101a001604052806000815260200160008152602001600081526020016000815260200160008152602001600081526020016000815260200160006003811115612ad557fe5b8152602001612ae2612b26565b815260200160006003811115612af457fe5b8152602001612b01612b26565b815260200160006003811115612b1357fe5b8152602001612b20612b26565b81525090565b6040518060200160405280600081525090565b600081359050612b4881613a66565b92915050565b600081519050612b5d81613a66565b92915050565b600082601f830112612b7457600080fd5b8151612b87612b82826137e6565b6137b9565b91508181835260208401935060208101905083856020840282011115612bac57600080fd5b60005b83811015612bdc5781612bc28882612bfb565b845260208401935060208301925050600181019050612baf565b5050505092915050565b600081519050612bf581613a7d565b92915050565b600081519050612c0a81613a94565b92915050565b600081359050612c1f81613aab565b92915050565b600082601f830112612c3657600080fd5b8151612c49612c448261380e565b6137b9565b91508082526020830160208301858383011115612c6557600080fd5b612c70838284613a15565b50505092915050565b600082601f830112612c8a57600080fd5b8135612c9d612c988261383a565b6137b9565b91508082526020830160208301858383011115612cb957600080fd5b612cc4838284613a06565b50505092915050565b600060808284031215612cdf57600080fd5b612ce960806137b9565b90506000612cf984828501612d56565b6000830152506020612d0d84828501612d56565b6020830152506040612d2184828501612b4e565b6040830152506060612d3584828501612d56565b60608301525092915050565b600081359050612d5081613ac2565b92915050565b600081519050612d6581613ac2565b92915050565b600060208284031215612d7d57600080fd5b6000612d8b84828501612b39565b91505092915050565b600060208284031215612da657600080fd5b6000612db484828501612b4e565b91505092915050565b600080600060608486031215612dd257600080fd5b6000612de086828701612b39565b9350506020612df186828701612b39565b9250506040612e0286828701612d41565b9150509250925092565b600060208284031215612e1e57600080fd5b600082015167ffffffffffffffff811115612e3857600080fd5b612e4484828501612b63565b91505092915050565b600080600060608486031215612e6257600080fd5b6000612e7086828701612be6565b9350506020612e8186828701612d56565b9250506040612e9286828701612be6565b9150509250925092565b600060208284031215612eae57600080fd5b6000612ebc84828501612c10565b91505092915050565b600060208284031215612ed757600080fd5b600082015167ffffffffffffffff811115612ef157600080fd5b612efd84828501612c25565b91505092915050565b60008060408385031215612f1957600080fd5b600083013567ffffffffffffffff811115612f3357600080fd5b612f3f85828601612c79565b925050602083013567ffffffffffffffff811115612f5c57600080fd5b612f6885828601612c79565b9150509250929050565b600060808284031215612f8457600080fd5b6000612f9284828501612ccd565b91505092915050565b600060208284031215612fad57600080fd5b6000612fbb84828501612d56565b91505092915050565b60008060008060808587031215612fda57600080fd5b6000612fe887828801612d56565b9450506020612ff987828801612d56565b935050604061300a87828801612d56565b925050606061301b87828801612d56565b91505092959194509250565b600061303383836131db565b905092915050565b6000613047838361349f565b60208301905092915050565b61305c8161391b565b82525050565b600061306d82613886565b61307781856138cc565b93508360208202850161308985613866565b8060005b858110156130c557848403895281516130a68582613027565b94506130b1836138b2565b925060208a0199505060018101905061308d565b50829750879550505050505092915050565b60006130e282613891565b6130ec81856138dd565b93506130f783613876565b8060005b8381101561312857815161310f888261303b565b975061311a836138bf565b9250506001810190506130fb565b5085935050505092915050565b61313e8161393f565b82525050565b61314d816139ac565b82525050565b61315c816139d0565b82525050565b61316b816139f4565b82525050565b600061317c826138a7565b61318681856138ff565b9350613196818560208601613a15565b61319f81613a48565b840191505092915050565b60006131b5826138a7565b6131bf8185613910565b93506131cf818560208601613a15565b80840191505092915050565b60006131e68261389c565b6131f081856138ee565b9350613200818560208601613a15565b61320981613a48565b840191505092915050565b60006132216015836138ff565b91507f636f6d70496e636f6d654f6e426f72726f7745787000000000000000000000006000830152602082019050919050565b6000613261601c836138ff565b91507f6f6e6c792061646d696e2063616e206368616e676520627261696e73000000006000830152602082019050919050565b60006132a16015836138ff565b91507f636f6d70496e636f6d65506572426c6f636b45787000000000000000000000006000830152602082019050919050565b60006132e1600d836138ff565b91507f636f6d70496e636f6d65457870000000000000000000000000000000000000006000830152602082019050919050565b6000613321600f836138ff565b91507f636f6d7052656c656173656445787000000000000000000000000000000000006000830152602082019050919050565b6000613361600b836138ff565b91507f746f74616c537570706c790000000000000000000000000000000000000000006000830152602082019050919050565b60006133a16019836138ff565b91507f756e6465726c79696e67546f6b656e42616c616e6365457870000000000000006000830152602082019050919050565b60006133e16004836138ff565b91507f434f4d50000000000000000000000000000000000000000000000000000000006000830152602082019050919050565b60006134216015836138ff565b91507f636f6d70496e636f6d654f6e537570706c7945787000000000000000000000006000830152602082019050919050565b60408201600082015161346a600085018261349f565b50602082015161347d602085018261349f565b50505050565b602082016000820151613499600085018261349f565b50505050565b6134a8816139a2565b82525050565b6134b7816139a2565b82525050565b60006134c982846131aa565b915081905092915050565b60006020820190506134e96000830184613053565b92915050565b600060408201905081810360008301526135098185613062565b9050818103602083015261351d81846130d7565b90509392505050565b600060208201905061353b6000830184613135565b92915050565b60006060820190506135566000830186613144565b6135636020830185613153565b6135706040830184613053565b949350505050565b600060408201905061358d6000830185613162565b61359a6020830184613483565b9392505050565b600060208201905081810360008301526135bb8184613171565b905092915050565b600060408201905081810360008301526135dc81613214565b90506135eb60208301846134ae565b92915050565b6000602082019050818103600083015261360a81613254565b9050919050565b6000604082019050818103600083015261362a81613294565b905061363960208301846134ae565b92915050565b60006040820190508181036000830152613658816132d4565b905061366760208301846134ae565b92915050565b6000604082019050818103600083015261368681613314565b905061369560208301846134ae565b92915050565b600060408201905081810360008301526136b481613354565b90506136c360208301846134ae565b92915050565b600060408201905081810360008301526136e281613394565b90506136f160208301846134ae565b92915050565b60006020820190508181036000830152613710816133d4565b9050919050565b6000604082019050818103600083015261373081613414565b905061373f60208301846134ae565b92915050565b600060408201905061375a6000830184613454565b92915050565b600060208201905061377560008301846134ae565b92915050565b600060608201905061379060008301866134ae565b81810360208301526137a28185613171565b90506137b160408301846134ae565b949350505050565b6000604051905081810181811067ffffffffffffffff821117156137dc57600080fd5b8060405250919050565b600067ffffffffffffffff8211156137fd57600080fd5b602082029050602081019050919050565b600067ffffffffffffffff82111561382557600080fd5b601f19601f8301169050602081019050919050565b600067ffffffffffffffff82111561385157600080fd5b601f19601f8301169050602081019050919050565b6000819050602082019050919050565b6000819050602082019050919050565b600081519050919050565b600081519050919050565b600081519050919050565b600081519050919050565b6000602082019050919050565b6000602082019050919050565b600082825260208201905092915050565b600082825260208201905092915050565b600082825260208201905092915050565b600082825260208201905092915050565b600081905092915050565b600061392682613982565b9050919050565b600061393882613982565b9050919050565b60008115159050919050565b60006139568261391b565b9050919050565b60006139688261392d565b9050919050565b600081905061397d82613a59565b919050565b600073ffffffffffffffffffffffffffffffffffffffff82169050919050565b6000819050919050565b60006139b7826139be565b9050919050565b60006139c982613982565b9050919050565b60006139db826139e2565b9050919050565b60006139ed82613982565b9050919050565b60006139ff8261396f565b9050919050565b82818337600083830152505050565b60005b83811015613a33578082015181840152602081019050613a18565b83811115613a42576000848401525b50505050565b6000601f19601f8301169050919050565b60058110613a6357fe5b50565b613a6f8161391b565b8114613a7a57600080fd5b50565b613a868161393f565b8114613a9157600080fd5b50565b613a9d8161394b565b8114613aa857600080fd5b50565b613ab48161395d565b8114613abf57600080fd5b50565b613acb816139a2565b8114613ad657600080fd5b5056fea365627a7a723158207faae5fe9eba252729a38e85ab906de511d7fd757b06d942e18ed413913d0eb66c6578706572696d656e74616cf564736f6c63430005110040",
			"opcodes": "PUSH1 0x80 PUSH1 0x40 MSTORE CALLVALUE DUP1 ISZERO PUSH2 0x10 JUMPI PUSH1 0x0 DUP1 REVERT JUMPDEST POP PUSH2 0x3B1C DUP1 PUSH2 0x20 PUSH1 0x0 CODECOPY PUSH1 0x0 RETURN INVALID PUSH1 0x80 PUSH1 0x40 MSTORE CALLVALUE DUP1 ISZERO PUSH2 0x10 JUMPI PUSH1 0x0 DUP1 REVERT JUMPDEST POP PUSH1 0x4 CALLDATASIZE LT PUSH2 0xF5 JUMPI PUSH1 0x0 CALLDATALOAD PUSH1 0xE0 SHR DUP1 PUSH4 0x3B4FEF63 GT PUSH2 0x97 JUMPI DUP1 PUSH4 0xBED34BBA GT PUSH2 0x66 JUMPI DUP1 PUSH4 0xBED34BBA EQ PUSH2 0x2A0 JUMPI DUP1 PUSH4 0xCE9D4AAA EQ PUSH2 0x2D0 JUMPI DUP1 PUSH4 0xDD4A9AA7 EQ PUSH2 0x2EF JUMPI DUP1 PUSH4 0xF851A440 EQ PUSH2 0x30D JUMPI PUSH2 0xF5 JUMP JUMPDEST DUP1 PUSH4 0x3B4FEF63 EQ PUSH2 0x214 JUMPI DUP1 PUSH4 0x4A0BEECB EQ PUSH2 0x246 JUMPI DUP1 PUSH4 0x580723FF EQ PUSH2 0x264 JUMPI DUP1 PUSH4 0x8EBC0627 EQ PUSH2 0x282 JUMPI PUSH2 0xF5 JUMP JUMPDEST DUP1 PUSH4 0x1D504DC6 GT PUSH2 0xD3 JUMPI DUP1 PUSH4 0x1D504DC6 EQ PUSH2 0x179 JUMPI DUP1 PUSH4 0x1F78F57E EQ PUSH2 0x195 JUMPI DUP1 PUSH4 0x26782247 EQ PUSH2 0x1C5 JUMPI DUP1 PUSH4 0x2F22FF6A EQ PUSH2 0x1E3 JUMPI PUSH2 0xF5 JUMP JUMPDEST DUP1 PUSH4 0x2266147 EQ PUSH2 0xFA JUMPI DUP1 PUSH4 0x79D242A EQ PUSH2 0x12A JUMPI DUP1 PUSH4 0xD8E6E2C EQ PUSH2 0x15B JUMPI JUMPDEST PUSH1 0x0 DUP1 REVERT JUMPDEST PUSH2 0x114 PUSH1 0x4 DUP1 CALLDATASIZE SUB PUSH2 0x10F SWAP2 SWAP1 DUP2 ADD SWAP1 PUSH2 0x2D6B JUMP JUMPDEST PUSH2 0x32B JUMP JUMPDEST PUSH1 0x40 MLOAD PUSH2 0x121 SWAP2 SWAP1 PUSH2 0x3760 JUMP JUMPDEST PUSH1 0x40 MLOAD DUP1 SWAP2 SUB SWAP1 RETURN JUMPDEST PUSH2 0x144 PUSH1 0x4 DUP1 CALLDATASIZE SUB PUSH2 0x13F SWAP2 SWAP1 DUP2 ADD SWAP1 PUSH2 0x2DBD JUMP JUMPDEST PUSH2 0x3C9 JUMP JUMPDEST PUSH1 0x40 MLOAD PUSH2 0x152 SWAP3 SWAP2 SWAP1 PUSH2 0x3578 JUMP JUMPDEST PUSH1 0x40 MLOAD DUP1 SWAP2 SUB SWAP1 RETURN JUMPDEST PUSH2 0x163 PUSH2 0x7F6 JUMP JUMPDEST PUSH1 0x40 MLOAD PUSH2 0x170 SWAP2 SWAP1 PUSH2 0x35A1 JUMP JUMPDEST PUSH1 0x40 MLOAD DUP1 SWAP2 SUB SWAP1 RETURN JUMPDEST PUSH2 0x193 PUSH1 0x4 DUP1 CALLDATASIZE SUB PUSH2 0x18E SWAP2 SWAP1 DUP2 ADD SWAP1 PUSH2 0x2E9C JUMP JUMPDEST PUSH2 0x833 JUMP JUMPDEST STOP JUMPDEST PUSH2 0x1AF PUSH1 0x4 DUP1 CALLDATASIZE SUB PUSH2 0x1AA SWAP2 SWAP1 DUP2 ADD SWAP1 PUSH2 0x2D6B JUMP JUMPDEST PUSH2 0x9F5 JUMP JUMPDEST PUSH1 0x40 MLOAD PUSH2 0x1BC SWAP2 SWAP1 PUSH2 0x3745 JUMP JUMPDEST PUSH1 0x40 MLOAD DUP1 SWAP2 SUB SWAP1 RETURN JUMPDEST PUSH2 0x1CD PUSH2 0xB52 JUMP JUMPDEST PUSH1 0x40 MLOAD PUSH2 0x1DA SWAP2 SWAP1 PUSH2 0x34D4 JUMP JUMPDEST PUSH1 0x40 MLOAD DUP1 SWAP2 SUB SWAP1 RETURN JUMPDEST PUSH2 0x1FD PUSH1 0x4 DUP1 CALLDATASIZE SUB PUSH2 0x1F8 SWAP2 SWAP1 DUP2 ADD SWAP1 PUSH2 0x2DBD JUMP JUMPDEST PUSH2 0xB78 JUMP JUMPDEST PUSH1 0x40 MLOAD PUSH2 0x20B SWAP3 SWAP2 SWAP1 PUSH2 0x3578 JUMP JUMPDEST PUSH1 0x40 MLOAD DUP1 SWAP2 SUB SWAP1 RETURN JUMPDEST PUSH2 0x22E PUSH1 0x4 DUP1 CALLDATASIZE SUB PUSH2 0x229 SWAP2 SWAP1 DUP2 ADD SWAP1 PUSH2 0x2D6B JUMP JUMPDEST PUSH2 0xDE9 JUMP JUMPDEST PUSH1 0x40 MLOAD PUSH2 0x23D SWAP4 SWAP3 SWAP2 SWAP1 PUSH2 0x377B JUMP JUMPDEST PUSH1 0x40 MLOAD DUP1 SWAP2 SUB SWAP1 RETURN JUMPDEST PUSH2 0x24E PUSH2 0xE8C JUMP JUMPDEST PUSH1 0x40 MLOAD PUSH2 0x25B SWAP2 SWAP1 PUSH2 0x3760 JUMP JUMPDEST PUSH1 0x40 MLOAD DUP1 SWAP2 SUB SWAP1 RETURN JUMPDEST PUSH2 0x26C PUSH2 0xF26 JUMP JUMPDEST PUSH1 0x40 MLOAD PUSH2 0x279 SWAP2 SWAP1 PUSH2 0x3760 JUMP JUMPDEST PUSH1 0x40 MLOAD DUP1 SWAP2 SUB SWAP1 RETURN JUMPDEST PUSH2 0x28A PUSH2 0xF88 JUMP JUMPDEST PUSH1 0x40 MLOAD PUSH2 0x297 SWAP2 SWAP1 PUSH2 0x34D4 JUMP JUMPDEST PUSH1 0x40 MLOAD DUP1 SWAP2 SUB SWAP1 RETURN JUMPDEST PUSH2 0x2BA PUSH1 0x4 DUP1 CALLDATASIZE SUB PUSH2 0x2B5 SWAP2 SWAP1 DUP2 ADD SWAP1 PUSH2 0x2F06 JUMP JUMPDEST PUSH2 0xFAE JUMP JUMPDEST PUSH1 0x40 MLOAD PUSH2 0x2C7 SWAP2 SWAP1 PUSH2 0x3526 JUMP JUMPDEST PUSH1 0x40 MLOAD DUP1 SWAP2 SUB SWAP1 RETURN JUMPDEST PUSH2 0x2D8 PUSH2 0x1007 JUMP JUMPDEST PUSH1 0x40 MLOAD PUSH2 0x2E6 SWAP3 SWAP2 SWAP1 PUSH2 0x34EF JUMP JUMPDEST PUSH1 0x40 MLOAD DUP1 SWAP2 SUB SWAP1 RETURN JUMPDEST PUSH2 0x2F7 PUSH2 0x1132 JUMP JUMPDEST PUSH1 0x40 MLOAD PUSH2 0x304 SWAP2 SWAP1 PUSH2 0x34D4 JUMP JUMPDEST PUSH1 0x40 MLOAD DUP1 SWAP2 SUB SWAP1 RETURN JUMPDEST PUSH2 0x315 PUSH2 0x1158 JUMP JUMPDEST PUSH1 0x40 MLOAD PUSH2 0x322 SWAP2 SWAP1 PUSH2 0x34D4 JUMP JUMPDEST PUSH1 0x40 MLOAD DUP1 SWAP2 SUB SWAP1 RETURN JUMPDEST PUSH1 0x0 DUP1 PUSH2 0x336 PUSH2 0x117D JUMP JUMPDEST SWAP1 POP DUP1 PUSH20 0xFFFFFFFFFFFFFFFFFFFFFFFFFFFFFFFFFFFFFFFF AND PUSH4 0xFC57D4DF DUP5 PUSH1 0x40 MLOAD DUP3 PUSH4 0xFFFFFFFF AND PUSH1 0xE0 SHL DUP2 MSTORE PUSH1 0x4 ADD PUSH2 0x371 SWAP2 SWAP1 PUSH2 0x34D4 JUMP JUMPDEST PUSH1 0x20 PUSH1 0x40 MLOAD DUP1 DUP4 SUB DUP2 DUP7 DUP1 EXTCODESIZE ISZERO DUP1 ISZERO PUSH2 0x389 JUMPI PUSH1 0x0 DUP1 REVERT JUMPDEST POP GAS STATICCALL ISZERO DUP1 ISZERO PUSH2 0x39D JUMPI RETURNDATASIZE PUSH1 0x0 DUP1 RETURNDATACOPY RETURNDATASIZE PUSH1 0x0 REVERT JUMPDEST POP POP POP POP PUSH1 0x40 MLOAD RETURNDATASIZE PUSH1 0x1F NOT PUSH1 0x1F DUP3 ADD AND DUP3 ADD DUP1 PUSH1 0x40 MSTORE POP PUSH2 0x3C1 SWAP2 SWAP1 DUP2 ADD SWAP1 PUSH2 0x2F9B JUMP JUMPDEST SWAP2 POP POP SWAP2 SWAP1 POP JUMP JUMPDEST PUSH1 0x0 PUSH2 0x3D3 PUSH2 0x2982 JUMP JUMPDEST PUSH2 0x3DB PUSH2 0x2995 JUMP JUMPDEST DUP5 PUSH20 0xFFFFFFFFFFFFFFFFFFFFFFFFFFFFFFFFFFFFFFFF AND PUSH4 0x313CE567 PUSH1 0x40 MLOAD DUP2 PUSH4 0xFFFFFFFF AND PUSH1 0xE0 SHL DUP2 MSTORE PUSH1 0x4 ADD PUSH1 0x20 PUSH1 0x40 MLOAD DUP1 DUP4 SUB DUP2 DUP7 DUP1 EXTCODESIZE ISZERO DUP1 ISZERO PUSH2 0x421 JUMPI PUSH1 0x0 DUP1 REVERT JUMPDEST POP GAS STATICCALL ISZERO DUP1 ISZERO PUSH2 0x435 JUMPI RETURNDATASIZE PUSH1 0x0 DUP1 RETURNDATACOPY RETURNDATASIZE PUSH1 0x0 REVERT JUMPDEST POP POP POP POP PUSH1 0x40 MLOAD RETURNDATASIZE PUSH1 0x1F NOT PUSH1 0x1F DUP3 ADD AND DUP3 ADD DUP1 PUSH1 0x40 MSTORE POP PUSH2 0x459 SWAP2 SWAP1 DUP2 ADD SWAP1 PUSH2 0x2F9B JUMP JUMPDEST DUP2 PUSH1 0x0 ADD DUP2 DUP2 MSTORE POP POP PUSH2 0x46B DUP6 PUSH2 0x1199 JUMP JUMPDEST DUP2 PUSH1 0x20 ADD DUP2 DUP2 MSTORE POP POP PUSH2 0x47D DUP6 PUSH2 0x12E8 JUMP JUMPDEST DUP2 PUSH2 0x160 ADD DUP2 SWAP1 MSTORE POP PUSH2 0x490 DUP7 DUP7 PUSH2 0x1429 JUMP JUMPDEST DUP5 PUSH1 0x60 ADD DUP6 PUSH1 0x80 ADD DUP7 PUSH1 0xA0 ADD DUP8 PUSH1 0xC0 ADD DUP5 DUP2 MSTORE POP DUP5 DUP2 MSTORE POP DUP5 DUP2 MSTORE POP DUP5 DUP2 MSTORE POP POP POP POP POP PUSH1 0x0 DUP2 PUSH1 0x60 ADD MLOAD EQ PUSH2 0x4DF JUMPI PUSH1 0x3 PUSH1 0x40 MLOAD DUP1 PUSH1 0x20 ADD PUSH1 0x40 MSTORE DUP1 PUSH1 0x0 DUP2 MSTORE POP DUP1 SWAP1 POP SWAP3 POP SWAP3 POP POP PUSH2 0x7EE JUMP JUMPDEST PUSH2 0x50D PUSH1 0x40 MLOAD DUP1 PUSH1 0x20 ADD PUSH1 0x40 MSTORE DUP1 DUP4 PUSH1 0x80 ADD MLOAD DUP2 MSTORE POP PUSH1 0x40 MLOAD DUP1 PUSH1 0x20 ADD PUSH1 0x40 MSTORE DUP1 DUP5 PUSH1 0xC0 ADD MLOAD DUP2 MSTORE POP PUSH2 0x1658 JUMP JUMPDEST DUP2 PUSH2 0x180 ADD DUP2 SWAP1 MSTORE POP PUSH1 0x40 MLOAD DUP1 PUSH1 0x20 ADD PUSH1 0x40 MSTORE DUP1 DUP3 PUSH1 0xA0 ADD MLOAD DUP2 MSTORE POP DUP2 PUSH2 0x1A0 ADD DUP2 SWAP1 MSTORE POP PUSH2 0x53B DUP6 PUSH2 0x1699 JUMP JUMPDEST DUP2 PUSH2 0x120 ADD DUP2 DUP2 MSTORE POP POP PUSH2 0x54E DUP6 PUSH2 0x183D JUMP JUMPDEST DUP2 PUSH2 0x140 ADD DUP2 DUP2 MSTORE POP POP PUSH2 0x57C DUP2 PUSH2 0x180 ADD MLOAD PUSH2 0x577 DUP4 PUSH2 0x120 ADD MLOAD DUP5 PUSH1 0x20 ADD MLOAD PUSH1 0xA EXP PUSH2 0x18C9 JUMP JUMPDEST PUSH2 0x1913 JUMP JUMPDEST DUP2 PUSH2 0x1E0 ADD DUP2 SWAP1 MSTORE POP PUSH2 0x5A9 DUP2 PUSH2 0x1A0 ADD MLOAD PUSH2 0x5A4 DUP4 PUSH2 0x140 ADD MLOAD DUP5 PUSH1 0x20 ADD MLOAD PUSH1 0xA EXP PUSH2 0x18C9 JUMP JUMPDEST PUSH2 0x1913 JUMP JUMPDEST DUP2 PUSH2 0x200 ADD DUP2 SWAP1 MSTORE POP PUSH2 0x5C1 DUP2 PUSH2 0x160 ADD MLOAD DUP6 PUSH2 0x193F JUMP JUMPDEST DUP2 PUSH2 0x280 ADD DUP2 SWAP1 MSTORE POP PUSH2 0x5DE DUP2 PUSH2 0x280 ADD MLOAD DUP3 PUSH2 0x1E0 ADD MLOAD PUSH2 0x1658 JUMP JUMPDEST DUP2 PUSH2 0x220 ADD DUP2 SWAP1 MSTORE POP PUSH2 0x5FB DUP2 PUSH2 0x280 ADD MLOAD DUP3 PUSH2 0x200 ADD MLOAD PUSH2 0x1658 JUMP JUMPDEST DUP2 PUSH2 0x240 ADD DUP2 SWAP1 MSTORE POP PUSH2 0x618 DUP2 PUSH2 0x220 ADD MLOAD DUP3 PUSH2 0x240 ADD MLOAD PUSH2 0x196B JUMP JUMPDEST DUP2 PUSH2 0x260 ADD DUP2 SWAP1 MSTORE POP PUSH32 0x98D0CBF196B9B8D5AF7789D9821F2A58027207B1331C70F1325C8AC30EB5AC93 DUP2 PUSH2 0x160 ADD MLOAD PUSH1 0x0 ADD MLOAD PUSH1 0x40 MLOAD PUSH2 0x659 SWAP2 SWAP1 PUSH2 0x3611 JUMP JUMPDEST PUSH1 0x40 MLOAD DUP1 SWAP2 SUB SWAP1 LOG1 PUSH32 0x98D0CBF196B9B8D5AF7789D9821F2A58027207B1331C70F1325C8AC30EB5AC93 DUP2 PUSH2 0x1E0 ADD MLOAD PUSH1 0x0 ADD MLOAD PUSH1 0x40 MLOAD PUSH2 0x699 SWAP2 SWAP1 PUSH2 0x3717 JUMP JUMPDEST PUSH1 0x40 MLOAD DUP1 SWAP2 SUB SWAP1 LOG1 PUSH32 0x98D0CBF196B9B8D5AF7789D9821F2A58027207B1331C70F1325C8AC30EB5AC93 DUP2 PUSH2 0x200 ADD MLOAD PUSH1 0x0 ADD MLOAD PUSH1 0x40 MLOAD PUSH2 0x6D9 SWAP2 SWAP1 PUSH2 0x35C3 JUMP JUMPDEST PUSH1 0x40 MLOAD DUP1 SWAP2 SUB SWAP1 LOG1 PUSH32 0x98D0CBF196B9B8D5AF7789D9821F2A58027207B1331C70F1325C8AC30EB5AC93 DUP2 PUSH2 0x180 ADD MLOAD PUSH1 0x0 ADD MLOAD PUSH1 0x40 MLOAD PUSH2 0x719 SWAP2 SWAP1 PUSH2 0x36C9 JUMP JUMPDEST PUSH1 0x40 MLOAD DUP1 SWAP2 SUB SWAP1 LOG1 PUSH32 0x98D0CBF196B9B8D5AF7789D9821F2A58027207B1331C70F1325C8AC30EB5AC93 DUP2 PUSH2 0x280 ADD MLOAD PUSH1 0x0 ADD MLOAD PUSH1 0x40 MLOAD PUSH2 0x759 SWAP2 SWAP1 PUSH2 0x366D JUMP JUMPDEST PUSH1 0x40 MLOAD DUP1 SWAP2 SUB SWAP1 LOG1 PUSH32 0x98D0CBF196B9B8D5AF7789D9821F2A58027207B1331C70F1325C8AC30EB5AC93 DUP2 PUSH2 0x120 ADD MLOAD PUSH1 0x40 MLOAD PUSH2 0x795 SWAP2 SWAP1 PUSH2 0x369B JUMP JUMPDEST PUSH1 0x40 MLOAD DUP1 SWAP2 SUB SWAP1 LOG1 PUSH32 0x98D0CBF196B9B8D5AF7789D9821F2A58027207B1331C70F1325C8AC30EB5AC93 DUP2 PUSH2 0x260 ADD MLOAD PUSH1 0x0 ADD MLOAD PUSH1 0x40 MLOAD PUSH2 0x7D5 SWAP2 SWAP1 PUSH2 0x363F JUMP JUMPDEST PUSH1 0x40 MLOAD DUP1 SWAP2 SUB SWAP1 LOG1 PUSH1 0x0 DUP2 PUSH2 0x260 ADD MLOAD DUP1 SWAP1 POP SWAP3 POP SWAP3 POP POP JUMPDEST SWAP4 POP SWAP4 SWAP2 POP POP JUMP JUMPDEST PUSH1 0x60 PUSH1 0x40 MLOAD DUP1 PUSH1 0x40 ADD PUSH1 0x40 MSTORE DUP1 PUSH1 0x2 DUP2 MSTORE PUSH1 0x20 ADD PUSH32 0x7632000000000000000000000000000000000000000000000000000000000000 DUP2 MSTORE POP SWAP1 POP SWAP1 JUMP JUMPDEST DUP1 PUSH20 0xFFFFFFFFFFFFFFFFFFFFFFFFFFFFFFFFFFFFFFFF AND PUSH4 0xF851A440 PUSH1 0x40 MLOAD DUP2 PUSH4 0xFFFFFFFF AND PUSH1 0xE0 SHL DUP2 MSTORE PUSH1 0x4 ADD PUSH1 0x20 PUSH1 0x40 MLOAD DUP1 DUP4 SUB DUP2 DUP7 DUP1 EXTCODESIZE ISZERO DUP1 ISZERO PUSH2 0x879 JUMPI PUSH1 0x0 DUP1 REVERT JUMPDEST POP GAS STATICCALL ISZERO DUP1 ISZERO PUSH2 0x88D JUMPI RETURNDATASIZE PUSH1 0x0 DUP1 RETURNDATACOPY RETURNDATASIZE PUSH1 0x0 REVERT JUMPDEST POP POP POP POP PUSH1 0x40 MLOAD RETURNDATASIZE PUSH1 0x1F NOT PUSH1 0x1F DUP3 ADD AND DUP3 ADD DUP1 PUSH1 0x40 MSTORE POP PUSH2 0x8B1 SWAP2 SWAP1 DUP2 ADD SWAP1 PUSH2 0x2D94 JUMP JUMPDEST PUSH20 0xFFFFFFFFFFFFFFFFFFFFFFFFFFFFFFFFFFFFFFFF AND CALLER PUSH20 0xFFFFFFFFFFFFFFFFFFFFFFFFFFFFFFFFFFFFFFFF AND EQ PUSH2 0x91E JUMPI PUSH1 0x40 MLOAD PUSH32 0x8C379A000000000000000000000000000000000000000000000000000000000 DUP2 MSTORE PUSH1 0x4 ADD PUSH2 0x915 SWAP1 PUSH2 0x35F1 JUMP JUMPDEST PUSH1 0x40 MLOAD DUP1 SWAP2 SUB SWAP1 REVERT JUMPDEST PUSH1 0x0 DUP2 PUSH20 0xFFFFFFFFFFFFFFFFFFFFFFFFFFFFFFFFFFFFFFFF AND PUSH4 0xC1E80334 PUSH1 0x40 MLOAD DUP2 PUSH4 0xFFFFFFFF AND PUSH1 0xE0 SHL DUP2 MSTORE PUSH1 0x4 ADD PUSH1 0x20 PUSH1 0x40 MLOAD DUP1 DUP4 SUB DUP2 PUSH1 0x0 DUP8 DUP1 EXTCODESIZE ISZERO DUP1 ISZERO PUSH2 0x968 JUMPI PUSH1 0x0 DUP1 REVERT JUMPDEST POP GAS CALL ISZERO DUP1 ISZERO PUSH2 0x97C JUMPI RETURNDATASIZE PUSH1 0x0 DUP1 RETURNDATACOPY RETURNDATASIZE PUSH1 0x0 REVERT JUMPDEST POP POP POP POP PUSH1 0x40 MLOAD RETURNDATASIZE PUSH1 0x1F NOT PUSH1 0x1F DUP3 ADD AND DUP3 ADD DUP1 PUSH1 0x40 MSTORE POP PUSH2 0x9A0 SWAP2 SWAP1 DUP2 ADD SWAP1 PUSH2 0x2F9B JUMP JUMPDEST SWAP1 POP PUSH1 0x0 DUP2 EQ PUSH2 0x9AF DUP3 PUSH2 0x199B JUMP JUMPDEST SWAP1 PUSH2 0x9F0 JUMPI PUSH1 0x40 MLOAD PUSH32 0x8C379A000000000000000000000000000000000000000000000000000000000 DUP2 MSTORE PUSH1 0x4 ADD PUSH2 0x9E7 SWAP2 SWAP1 PUSH2 0x35A1 JUMP JUMPDEST PUSH1 0x40 MLOAD DUP1 SWAP2 SUB SWAP1 REVERT JUMPDEST POP POP POP JUMP JUMPDEST PUSH2 0x9FD PUSH2 0x2A71 JUMP JUMPDEST PUSH2 0xA05 PUSH2 0x1AC8 JUMP JUMPDEST PUSH20 0xFFFFFFFFFFFFFFFFFFFFFFFFFFFFFFFFFFFFFFFF AND PUSH4 0x70A08231 DUP4 PUSH1 0x40 MLOAD DUP3 PUSH4 0xFFFFFFFF AND PUSH1 0xE0 SHL DUP2 MSTORE PUSH1 0x4 ADD PUSH2 0xA3D SWAP2 SWAP1 PUSH2 0x34D4 JUMP JUMPDEST PUSH1 0x20 PUSH1 0x40 MLOAD DUP1 DUP4 SUB DUP2 DUP7 DUP1 EXTCODESIZE ISZERO DUP1 ISZERO PUSH2 0xA55 JUMPI PUSH1 0x0 DUP1 REVERT JUMPDEST POP GAS STATICCALL ISZERO DUP1 ISZERO PUSH2 0xA69 JUMPI RETURNDATASIZE PUSH1 0x0 DUP1 RETURNDATACOPY RETURNDATASIZE PUSH1 0x0 REVERT JUMPDEST POP POP POP POP PUSH1 0x40 MLOAD RETURNDATASIZE PUSH1 0x1F NOT PUSH1 0x1F DUP3 ADD AND DUP3 ADD DUP1 PUSH1 0x40 MSTORE POP PUSH2 0xA8D SWAP2 SWAP1 DUP2 ADD SWAP1 PUSH2 0x2F9B JUMP JUMPDEST DUP2 PUSH1 0x0 ADD DUP2 DUP2 MSTORE POP POP PUSH1 0x0 PUSH2 0xAA0 PUSH2 0x1AE4 JUMP JUMPDEST SWAP1 POP DUP1 PUSH20 0xFFFFFFFFFFFFFFFFFFFFFFFFFFFFFFFFFFFFFFFF AND PUSH4 0x1EA63741 PUSH2 0xAC6 PUSH2 0x1AC8 JUMP JUMPDEST PUSH2 0xACE PUSH2 0x1B00 JUMP JUMPDEST DUP7 PUSH1 0x40 MLOAD DUP5 PUSH4 0xFFFFFFFF AND PUSH1 0xE0 SHL DUP2 MSTORE PUSH1 0x4 ADD PUSH2 0xAED SWAP4 SWAP3 SWAP2 SWAP1 PUSH2 0x3541 JUMP JUMPDEST PUSH1 0x80 PUSH1 0x40 MLOAD DUP1 DUP4 SUB DUP2 PUSH1 0x0 DUP8 DUP1 EXTCODESIZE ISZERO DUP1 ISZERO PUSH2 0xB07 JUMPI PUSH1 0x0 DUP1 REVERT JUMPDEST POP GAS CALL ISZERO DUP1 ISZERO PUSH2 0xB1B JUMPI RETURNDATASIZE PUSH1 0x0 DUP1 RETURNDATACOPY RETURNDATASIZE PUSH1 0x0 REVERT JUMPDEST POP POP POP POP PUSH1 0x40 MLOAD RETURNDATASIZE PUSH1 0x1F NOT PUSH1 0x1F DUP3 ADD AND DUP3 ADD DUP1 PUSH1 0x40 MSTORE POP PUSH2 0xB3F SWAP2 SWAP1 DUP2 ADD SWAP1 PUSH2 0x2F72 JUMP JUMPDEST PUSH1 0x60 ADD MLOAD DUP3 PUSH1 0x20 ADD DUP2 DUP2 MSTORE POP POP POP SWAP2 SWAP1 POP JUMP JUMPDEST PUSH1 0x1 PUSH1 0x0 SWAP1 SLOAD SWAP1 PUSH2 0x100 EXP SWAP1 DIV PUSH20 0xFFFFFFFFFFFFFFFFFFFFFFFFFFFFFFFFFFFFFFFF AND DUP2 JUMP JUMPDEST PUSH1 0x0 PUSH2 0xB82 PUSH2 0x2982 JUMP JUMPDEST PUSH2 0xB8A PUSH2 0x2995 JUMP JUMPDEST DUP5 PUSH20 0xFFFFFFFFFFFFFFFFFFFFFFFFFFFFFFFFFFFFFFFF AND PUSH4 0x313CE567 PUSH1 0x40 MLOAD DUP2 PUSH4 0xFFFFFFFF AND PUSH1 0xE0 SHL DUP2 MSTORE PUSH1 0x4 ADD PUSH1 0x20 PUSH1 0x40 MLOAD DUP1 DUP4 SUB DUP2 DUP7 DUP1 EXTCODESIZE ISZERO DUP1 ISZERO PUSH2 0xBD0 JUMPI PUSH1 0x0 DUP1 REVERT JUMPDEST POP GAS STATICCALL ISZERO DUP1 ISZERO PUSH2 0xBE4 JUMPI RETURNDATASIZE PUSH1 0x0 DUP1 RETURNDATACOPY RETURNDATASIZE PUSH1 0x0 REVERT JUMPDEST POP POP POP POP PUSH1 0x40 MLOAD RETURNDATASIZE PUSH1 0x1F NOT PUSH1 0x1F DUP3 ADD AND DUP3 ADD DUP1 PUSH1 0x40 MSTORE POP PUSH2 0xC08 SWAP2 SWAP1 DUP2 ADD SWAP1 PUSH2 0x2F9B JUMP JUMPDEST DUP2 PUSH1 0x0 ADD DUP2 DUP2 MSTORE POP POP PUSH2 0xC1A DUP6 PUSH2 0x1199 JUMP JUMPDEST DUP2 PUSH1 0x20 ADD DUP2 DUP2 MSTORE POP POP PUSH2 0xC2C DUP6 PUSH2 0x12E8 JUMP JUMPDEST DUP2 PUSH2 0x160 ADD DUP2 SWAP1 MSTORE POP PUSH2 0xC3F DUP7 DUP7 PUSH2 0x1429 JUMP JUMPDEST DUP5 PUSH1 0x60 ADD DUP6 PUSH1 0x80 ADD DUP7 PUSH1 0xA0 ADD DUP8 PUSH1 0xC0 ADD DUP5 DUP2 MSTORE POP DUP5 DUP2 MSTORE POP DUP5 DUP2 MSTORE POP DUP5 DUP2 MSTORE POP POP POP POP POP PUSH1 0x0 DUP2 PUSH1 0x60 ADD MLOAD EQ PUSH2 0xC8E JUMPI PUSH1 0x3 PUSH1 0x40 MLOAD DUP1 PUSH1 0x20 ADD PUSH1 0x40 MSTORE DUP1 PUSH1 0x0 DUP2 MSTORE POP DUP1 SWAP1 POP SWAP3 POP SWAP3 POP POP PUSH2 0xDE1 JUMP JUMPDEST PUSH2 0xCBC PUSH1 0x40 MLOAD DUP1 PUSH1 0x20 ADD PUSH1 0x40 MSTORE DUP1 DUP4 PUSH1 0x80 ADD MLOAD DUP2 MSTORE POP PUSH1 0x40 MLOAD DUP1 PUSH1 0x20 ADD PUSH1 0x40 MSTORE DUP1 DUP5 PUSH1 0xC0 ADD MLOAD DUP2 MSTORE POP PUSH2 0x1658 JUMP JUMPDEST DUP2 PUSH2 0x180 ADD DUP2 SWAP1 MSTORE POP PUSH1 0x40 MLOAD DUP1 PUSH1 0x20 ADD PUSH1 0x40 MSTORE DUP1 DUP3 PUSH1 0xA0 ADD MLOAD DUP2 MSTORE POP DUP2 PUSH2 0x1A0 ADD DUP2 SWAP1 MSTORE POP PUSH2 0xCEA DUP6 PUSH2 0x1699 JUMP JUMPDEST DUP2 PUSH2 0x120 ADD DUP2 DUP2 MSTORE POP POP PUSH2 0xCFD DUP6 PUSH2 0x183D JUMP JUMPDEST DUP2 PUSH2 0x140 ADD DUP2 DUP2 MSTORE POP POP PUSH2 0xD2B DUP2 PUSH2 0x180 ADD MLOAD PUSH2 0xD26 DUP4 PUSH2 0x120 ADD MLOAD DUP5 PUSH1 0x20 ADD MLOAD PUSH1 0xA EXP PUSH2 0x18C9 JUMP JUMPDEST PUSH2 0x1913 JUMP JUMPDEST DUP2 PUSH2 0x1E0 ADD DUP2 SWAP1 MSTORE POP PUSH2 0xD58 DUP2 PUSH2 0x1A0 ADD MLOAD PUSH2 0xD53 DUP4 PUSH2 0x140 ADD MLOAD DUP5 PUSH1 0x20 ADD MLOAD PUSH1 0xA EXP PUSH2 0x18C9 JUMP JUMPDEST PUSH2 0x1913 JUMP JUMPDEST DUP2 PUSH2 0x200 ADD DUP2 SWAP1 MSTORE POP PUSH2 0xD70 DUP2 PUSH2 0x160 ADD MLOAD DUP6 PUSH2 0x193F JUMP JUMPDEST DUP2 PUSH2 0x280 ADD DUP2 SWAP1 MSTORE POP PUSH2 0xD8D DUP2 PUSH2 0x280 ADD MLOAD DUP3 PUSH2 0x1E0 ADD MLOAD PUSH2 0x1658 JUMP JUMPDEST DUP2 PUSH2 0x220 ADD DUP2 SWAP1 MSTORE POP PUSH2 0xDAA DUP2 PUSH2 0x280 ADD MLOAD DUP3 PUSH2 0x200 ADD MLOAD PUSH2 0x1658 JUMP JUMPDEST DUP2 PUSH2 0x240 ADD DUP2 SWAP1 MSTORE POP PUSH2 0xDC7 DUP2 PUSH2 0x220 ADD MLOAD DUP3 PUSH2 0x240 ADD MLOAD PUSH2 0x196B JUMP JUMPDEST DUP2 PUSH2 0x260 ADD DUP2 SWAP1 MSTORE POP PUSH1 0x0 DUP2 PUSH2 0x260 ADD MLOAD DUP1 SWAP1 POP SWAP3 POP SWAP3 POP POP JUMPDEST SWAP4 POP SWAP4 SWAP2 POP POP JUMP JUMPDEST PUSH1 0x0 PUSH1 0x60 PUSH1 0x0 DUP1 PUSH1 0x60 PUSH2 0xDFA PUSH2 0x2982 JUMP JUMPDEST PUSH2 0xE1C DUP8 PUSH2 0xE17 PUSH2 0xE09 PUSH2 0xF26 JUMP JUMPDEST PUSH8 0xDE0B6B3A7640000 PUSH2 0x18C9 JUMP JUMPDEST PUSH2 0x1B1C JUMP JUMPDEST SWAP3 POP SWAP3 POP SWAP3 POP PUSH1 0x0 PUSH1 0x4 DUP2 GT ISZERO PUSH2 0xE2F JUMPI INVALID JUMPDEST DUP4 PUSH1 0x4 DUP2 GT ISZERO PUSH2 0xE3B JUMPI INVALID JUMPDEST EQ PUSH2 0xE60 JUMPI DUP3 PUSH1 0x4 DUP2 GT ISZERO PUSH2 0xE4C JUMPI INVALID JUMPDEST DUP3 PUSH1 0x0 DUP1 SWAP1 POP SWAP6 POP SWAP6 POP SWAP6 POP POP POP POP PUSH2 0xE85 JUMP JUMPDEST PUSH1 0x0 DUP2 PUSH1 0x0 ADD MLOAD DUP2 SWAP2 POP PUSH1 0x40 MLOAD DUP1 PUSH1 0x20 ADD PUSH1 0x40 MSTORE DUP1 PUSH1 0x0 DUP2 MSTORE POP SWAP1 SWAP6 POP SWAP6 POP SWAP6 POP POP POP POP JUMPDEST SWAP2 SWAP4 SWAP1 SWAP3 POP JUMP JUMPDEST PUSH1 0x0 DUP1 PUSH2 0xE97 PUSH2 0x117D JUMP JUMPDEST SWAP1 POP DUP1 PUSH20 0xFFFFFFFFFFFFFFFFFFFFFFFFFFFFFFFFFFFFFFFF AND PUSH4 0xFE2C6198 PUSH1 0x40 MLOAD DUP2 PUSH4 0xFFFFFFFF AND PUSH1 0xE0 SHL DUP2 MSTORE PUSH1 0x4 ADD PUSH2 0xED0 SWAP1 PUSH2 0x36F7 JUMP JUMPDEST PUSH1 0x20 PUSH1 0x40 MLOAD DUP1 DUP4 SUB DUP2 DUP7 DUP1 EXTCODESIZE ISZERO DUP1 ISZERO PUSH2 0xEE8 JUMPI PUSH1 0x0 DUP1 REVERT JUMPDEST POP GAS STATICCALL ISZERO DUP1 ISZERO PUSH2 0xEFC JUMPI RETURNDATASIZE PUSH1 0x0 DUP1 RETURNDATACOPY RETURNDATASIZE PUSH1 0x0 REVERT JUMPDEST POP POP POP POP PUSH1 0x40 MLOAD RETURNDATASIZE PUSH1 0x1F NOT PUSH1 0x1F DUP3 ADD AND DUP3 ADD DUP1 PUSH1 0x40 MSTORE POP PUSH2 0xF20 SWAP2 SWAP1 DUP2 ADD SWAP1 PUSH2 0x2F9B JUMP JUMPDEST SWAP2 POP POP SWAP1 JUMP JUMPDEST PUSH1 0x0 DUP1 PUSH1 0xE SWAP1 POP PUSH1 0x0 PUSH4 0x1E13380 SWAP1 POP PUSH1 0x0 PUSH2 0xF40 PUSH2 0x2982 JUMP JUMPDEST PUSH2 0xF4A DUP4 DUP6 PUSH2 0x1C7F JUMP JUMPDEST SWAP2 POP SWAP2 POP PUSH1 0x0 PUSH1 0x3 DUP2 GT ISZERO PUSH2 0xF5B JUMPI INVALID JUMPDEST DUP3 PUSH1 0x3 DUP2 GT ISZERO PUSH2 0xF67 JUMPI INVALID JUMPDEST EQ PUSH2 0xF79 JUMPI PUSH1 0x0 SWAP5 POP POP POP POP POP PUSH2 0xF85 JUMP JUMPDEST DUP1 PUSH1 0x0 ADD MLOAD SWAP5 POP POP POP POP POP JUMPDEST SWAP1 JUMP JUMPDEST PUSH1 0x2 PUSH1 0x0 SWAP1 SLOAD SWAP1 PUSH2 0x100 EXP SWAP1 DIV PUSH20 0xFFFFFFFFFFFFFFFFFFFFFFFFFFFFFFFFFFFFFFFF AND DUP2 JUMP JUMPDEST PUSH1 0x0 DUP2 PUSH1 0x40 MLOAD PUSH1 0x20 ADD PUSH2 0xFC1 SWAP2 SWAP1 PUSH2 0x34BD JUMP JUMPDEST PUSH1 0x40 MLOAD PUSH1 0x20 DUP2 DUP4 SUB SUB DUP2 MSTORE SWAP1 PUSH1 0x40 MSTORE DUP1 MLOAD SWAP1 PUSH1 0x20 ADD KECCAK256 DUP4 PUSH1 0x40 MLOAD PUSH1 0x20 ADD PUSH2 0xFE8 SWAP2 SWAP1 PUSH2 0x34BD JUMP JUMPDEST PUSH1 0x40 MLOAD PUSH1 0x20 DUP2 DUP4 SUB SUB DUP2 MSTORE SWAP1 PUSH1 0x40 MSTORE DUP1 MLOAD SWAP1 PUSH1 0x20 ADD KECCAK256 EQ SWAP1 POP SWAP3 SWAP2 POP POP JUMP JUMPDEST PUSH1 0x60 DUP1 PUSH1 0x60 PUSH2 0x1014 PUSH2 0x1D53 JUMP JUMPDEST SWAP1 POP PUSH1 0x60 DUP2 MLOAD PUSH1 0x40 MLOAD SWAP1 DUP1 DUP3 MSTORE DUP1 PUSH1 0x20 MUL PUSH1 0x20 ADD DUP3 ADD PUSH1 0x40 MSTORE DUP1 ISZERO PUSH2 0x104D JUMPI DUP2 PUSH1 0x20 ADD JUMPDEST PUSH1 0x60 DUP2 MSTORE PUSH1 0x20 ADD SWAP1 PUSH1 0x1 SWAP1 SUB SWAP1 DUP2 PUSH2 0x1038 JUMPI SWAP1 POP JUMPDEST POP SWAP1 POP PUSH1 0x60 DUP3 MLOAD PUSH1 0x40 MLOAD SWAP1 DUP1 DUP3 MSTORE DUP1 PUSH1 0x20 MUL PUSH1 0x20 ADD DUP3 ADD PUSH1 0x40 MSTORE DUP1 ISZERO PUSH2 0x1082 JUMPI DUP2 PUSH1 0x20 ADD PUSH1 0x20 DUP3 MUL DUP1 CODESIZE DUP4 CODECOPY DUP1 DUP3 ADD SWAP2 POP POP SWAP1 POP JUMPDEST POP SWAP1 POP PUSH2 0x108D PUSH2 0x2982 JUMP JUMPDEST PUSH1 0x0 DUP1 SWAP1 POP JUMPDEST DUP5 MLOAD DUP2 LT ISZERO PUSH2 0x1117 JUMPI PUSH2 0x10C0 PUSH2 0x10BB DUP7 DUP4 DUP2 MLOAD DUP2 LT PUSH2 0x10AE JUMPI INVALID JUMPDEST PUSH1 0x20 MUL PUSH1 0x20 ADD ADD MLOAD PUSH2 0x2048 JUMP JUMPDEST PUSH2 0x12E8 JUMP JUMPDEST SWAP2 POP DUP5 DUP2 DUP2 MLOAD DUP2 LT PUSH2 0x10CE JUMPI INVALID JUMPDEST PUSH1 0x20 MUL PUSH1 0x20 ADD ADD MLOAD DUP5 DUP3 DUP2 MLOAD DUP2 LT PUSH2 0x10E2 JUMPI INVALID JUMPDEST PUSH1 0x20 MUL PUSH1 0x20 ADD ADD DUP2 SWAP1 MSTORE POP DUP2 PUSH1 0x0 ADD MLOAD DUP4 DUP3 DUP2 MLOAD DUP2 LT PUSH2 0x10FE JUMPI INVALID JUMPDEST PUSH1 0x20 MUL PUSH1 0x20 ADD ADD DUP2 DUP2 MSTORE POP POP DUP1 DUP1 PUSH1 0x1 ADD SWAP2 POP POP PUSH2 0x1093 JUMP JUMPDEST POP PUSH2 0x1122 DUP4 DUP4 PUSH2 0x21C2 JUMP JUMPDEST DUP1 SWAP7 POP DUP2 SWAP8 POP POP POP POP POP POP POP SWAP1 SWAP2 JUMP JUMPDEST PUSH1 0x3 PUSH1 0x0 SWAP1 SLOAD SWAP1 PUSH2 0x100 EXP SWAP1 DIV PUSH20 0xFFFFFFFFFFFFFFFFFFFFFFFFFFFFFFFFFFFFFFFF AND DUP2 JUMP JUMPDEST PUSH1 0x0 DUP1 SWAP1 SLOAD SWAP1 PUSH2 0x100 EXP SWAP1 DIV PUSH20 0xFFFFFFFFFFFFFFFFFFFFFFFFFFFFFFFFFFFFFFFF AND DUP2 JUMP JUMPDEST PUSH1 0x0 PUSH20 0x922018674C12A7F0D394EBEEF9B58F186CDE13C1 SWAP1 POP SWAP1 JUMP JUMPDEST PUSH1 0x0 PUSH2 0x11A3 PUSH2 0x23CD JUMP JUMPDEST PUSH20 0xFFFFFFFFFFFFFFFFFFFFFFFFFFFFFFFFFFFFFFFF AND DUP3 PUSH20 0xFFFFFFFFFFFFFFFFFFFFFFFFFFFFFFFFFFFFFFFF AND EQ ISZERO PUSH2 0x11DF JUMPI PUSH1 0x12 SWAP1 POP PUSH2 0x12E3 JUMP JUMPDEST PUSH1 0x0 DUP3 PUSH20 0xFFFFFFFFFFFFFFFFFFFFFFFFFFFFFFFFFFFFFFFF AND PUSH4 0x6F307DC3 PUSH1 0x40 MLOAD DUP2 PUSH4 0xFFFFFFFF AND PUSH1 0xE0 SHL DUP2 MSTORE PUSH1 0x4 ADD PUSH1 0x20 PUSH1 0x40 MLOAD DUP1 DUP4 SUB DUP2 DUP7 DUP1 EXTCODESIZE ISZERO DUP1 ISZERO PUSH2 0x1227 JUMPI PUSH1 0x0 DUP1 REVERT JUMPDEST POP GAS STATICCALL ISZERO DUP1 ISZERO PUSH2 0x123B JUMPI RETURNDATASIZE PUSH1 0x0 DUP1 RETURNDATACOPY RETURNDATASIZE PUSH1 0x0 REVERT JUMPDEST POP POP POP POP PUSH1 0x40 MLOAD RETURNDATASIZE PUSH1 0x1F NOT PUSH1 0x1F DUP3 ADD AND DUP3 ADD DUP1 PUSH1 0x40 MSTORE POP PUSH2 0x125F SWAP2 SWAP1 DUP2 ADD SWAP1 PUSH2 0x2D94 JUMP JUMPDEST SWAP1 POP DUP1 PUSH20 0xFFFFFFFFFFFFFFFFFFFFFFFFFFFFFFFFFFFFFFFF AND PUSH4 0x313CE567 PUSH1 0x40 MLOAD DUP2 PUSH4 0xFFFFFFFF AND PUSH1 0xE0 SHL DUP2 MSTORE PUSH1 0x4 ADD PUSH1 0x20 PUSH1 0x40 MLOAD DUP1 DUP4 SUB DUP2 DUP7 DUP1 EXTCODESIZE ISZERO DUP1 ISZERO PUSH2 0x12A7 JUMPI PUSH1 0x0 DUP1 REVERT JUMPDEST POP GAS STATICCALL ISZERO DUP1 ISZERO PUSH2 0x12BB JUMPI RETURNDATASIZE PUSH1 0x0 DUP1 RETURNDATACOPY RETURNDATASIZE PUSH1 0x0 REVERT JUMPDEST POP POP POP POP PUSH1 0x40 MLOAD RETURNDATASIZE PUSH1 0x1F NOT PUSH1 0x1F DUP3 ADD AND DUP3 ADD DUP1 PUSH1 0x40 MSTORE POP PUSH2 0x12DF SWAP2 SWAP1 DUP2 ADD SWAP1 PUSH2 0x2F9B JUMP JUMPDEST SWAP2 POP POP JUMPDEST SWAP2 SWAP1 POP JUMP JUMPDEST PUSH2 0x12F0 PUSH2 0x2982 JUMP JUMPDEST PUSH1 0x0 PUSH2 0x12FA PUSH2 0x1B00 JUMP JUMPDEST SWAP1 POP PUSH1 0x0 PUSH2 0x1306 PUSH2 0x1AC8 JUMP JUMPDEST PUSH20 0xFFFFFFFFFFFFFFFFFFFFFFFFFFFFFFFFFFFFFFFF AND PUSH4 0x313CE567 PUSH1 0x40 MLOAD DUP2 PUSH4 0xFFFFFFFF AND PUSH1 0xE0 SHL DUP2 MSTORE PUSH1 0x4 ADD PUSH1 0x20 PUSH1 0x40 MLOAD DUP1 DUP4 SUB DUP2 DUP7 DUP1 EXTCODESIZE ISZERO DUP1 ISZERO PUSH2 0x134B JUMPI PUSH1 0x0 DUP1 REVERT JUMPDEST POP GAS STATICCALL ISZERO DUP1 ISZERO PUSH2 0x135F JUMPI RETURNDATASIZE PUSH1 0x0 DUP1 RETURNDATACOPY RETURNDATASIZE PUSH1 0x0 REVERT JUMPDEST POP POP POP POP PUSH1 0x40 MLOAD RETURNDATASIZE PUSH1 0x1F NOT PUSH1 0x1F DUP3 ADD AND DUP3 ADD DUP1 PUSH1 0x40 MSTORE POP PUSH2 0x1383 SWAP2 SWAP1 DUP2 ADD SWAP1 PUSH2 0x2F9B JUMP JUMPDEST SWAP1 POP PUSH1 0x0 DUP3 PUSH20 0xFFFFFFFFFFFFFFFFFFFFFFFFFFFFFFFFFFFFFFFF AND PUSH4 0x1D7B33D7 DUP7 PUSH1 0x40 MLOAD DUP3 PUSH4 0xFFFFFFFF AND PUSH1 0xE0 SHL DUP2 MSTORE PUSH1 0x4 ADD PUSH2 0x13C0 SWAP2 SWAP1 PUSH2 0x34D4 JUMP JUMPDEST PUSH1 0x20 PUSH1 0x40 MLOAD DUP1 DUP4 SUB DUP2 DUP7 DUP1 EXTCODESIZE ISZERO DUP1 ISZERO PUSH2 0x13D8 JUMPI PUSH1 0x0 DUP1 REVERT JUMPDEST POP GAS STATICCALL ISZERO DUP1 ISZERO PUSH2 0x13EC JUMPI RETURNDATASIZE PUSH1 0x0 DUP1 RETURNDATACOPY RETURNDATASIZE PUSH1 0x0 REVERT JUMPDEST POP POP POP POP PUSH1 0x40 MLOAD RETURNDATASIZE PUSH1 0x1F NOT PUSH1 0x1F DUP3 ADD AND DUP3 ADD DUP1 PUSH1 0x40 MSTORE POP PUSH2 0x1410 SWAP2 SWAP1 DUP2 ADD SWAP1 PUSH2 0x2F9B JUMP JUMPDEST SWAP1 POP PUSH2 0x141C DUP2 DUP4 PUSH2 0x23E9 JUMP JUMPDEST SWAP4 POP DUP4 SWAP4 POP POP POP POP SWAP2 SWAP1 POP JUMP JUMPDEST PUSH1 0x0 DUP1 PUSH1 0x0 DUP1 PUSH2 0x1437 PUSH2 0x2A8B JUMP JUMPDEST PUSH1 0x0 DUP7 SWAP1 POP PUSH1 0x0 DUP8 PUSH20 0xFFFFFFFFFFFFFFFFFFFFFFFFFFFFFFFFFFFFFFFF AND PUSH4 0x313CE567 PUSH1 0x40 MLOAD DUP2 PUSH4 0xFFFFFFFF AND PUSH1 0xE0 SHL DUP2 MSTORE PUSH1 0x4 ADD PUSH1 0x20 PUSH1 0x40 MLOAD DUP1 DUP4 SUB DUP2 DUP7 DUP1 EXTCODESIZE ISZERO DUP1 ISZERO PUSH2 0x1484 JUMPI PUSH1 0x0 DUP1 REVERT JUMPDEST POP GAS STATICCALL ISZERO DUP1 ISZERO PUSH2 0x1498 JUMPI RETURNDATASIZE PUSH1 0x0 DUP1 RETURNDATACOPY RETURNDATASIZE PUSH1 0x0 REVERT JUMPDEST POP POP POP POP PUSH1 0x40 MLOAD RETURNDATASIZE PUSH1 0x1F NOT PUSH1 0x1F DUP3 ADD AND DUP3 ADD DUP1 PUSH1 0x40 MSTORE POP PUSH2 0x14BC SWAP2 SWAP1 DUP2 ADD SWAP1 PUSH2 0x2F9B JUMP JUMPDEST SWAP1 POP PUSH1 0x0 PUSH2 0x14C9 DUP10 PUSH2 0x1199 JUMP JUMPDEST SWAP1 POP DUP3 PUSH20 0xFFFFFFFFFFFFFFFFFFFFFFFFFFFFFFFFFFFFFFFF AND PUSH4 0xC37F68E2 DUP12 PUSH1 0x40 MLOAD DUP3 PUSH4 0xFFFFFFFF AND PUSH1 0xE0 SHL DUP2 MSTORE PUSH1 0x4 ADD PUSH2 0x1504 SWAP2 SWAP1 PUSH2 0x34D4 JUMP JUMPDEST PUSH1 0x80 PUSH1 0x40 MLOAD DUP1 DUP4 SUB DUP2 DUP7 DUP1 EXTCODESIZE ISZERO DUP1 ISZERO PUSH2 0x151C JUMPI PUSH1 0x0 DUP1 REVERT JUMPDEST POP GAS STATICCALL ISZERO DUP1 ISZERO PUSH2 0x1530 JUMPI RETURNDATASIZE PUSH1 0x0 DUP1 RETURNDATACOPY RETURNDATASIZE PUSH1 0x0 REVERT JUMPDEST POP POP POP POP PUSH1 0x40 MLOAD RETURNDATASIZE PUSH1 0x1F NOT PUSH1 0x1F DUP3 ADD AND DUP3 ADD DUP1 PUSH1 0x40 MSTORE POP PUSH2 0x1554 SWAP2 SWAP1 DUP2 ADD SWAP1 PUSH2 0x2FC4 JUMP JUMPDEST DUP8 PUSH1 0x0 ADD DUP9 PUSH1 0x20 ADD DUP10 PUSH1 0x40 ADD DUP11 PUSH1 0x60 ADD DUP5 DUP2 MSTORE POP DUP5 DUP2 MSTORE POP DUP5 DUP2 MSTORE POP DUP5 DUP2 MSTORE POP POP POP POP POP PUSH1 0x0 DUP5 PUSH1 0x0 ADD MLOAD EQ PUSH2 0x15A8 JUMPI DUP4 PUSH1 0x0 ADD MLOAD PUSH1 0x0 DUP1 PUSH1 0x0 DUP3 SWAP3 POP DUP2 SWAP2 POP DUP1 SWAP1 POP SWAP8 POP SWAP8 POP SWAP8 POP SWAP8 POP POP POP POP POP PUSH2 0x164F JUMP JUMPDEST PUSH2 0x15B6 DUP5 PUSH1 0x20 ADD MLOAD DUP4 PUSH2 0x23E9 JUMP JUMPDEST DUP5 PUSH2 0x100 ADD DUP2 SWAP1 MSTORE POP PUSH2 0x15CD DUP5 PUSH1 0x40 ADD MLOAD DUP3 PUSH2 0x23E9 JUMP JUMPDEST DUP5 PUSH2 0x140 ADD DUP2 SWAP1 MSTORE POP PUSH2 0x15EC DUP5 PUSH1 0x60 ADD MLOAD PUSH2 0x15E7 DUP12 PUSH2 0x244C JUMP JUMPDEST PUSH2 0x23E9 JUMP JUMPDEST DUP5 PUSH2 0x180 ADD DUP2 SWAP1 MSTORE POP DUP4 PUSH2 0x100 ADD MLOAD PUSH1 0x0 ADD MLOAD DUP5 PUSH1 0x80 ADD DUP2 DUP2 MSTORE POP POP DUP4 PUSH2 0x140 ADD MLOAD PUSH1 0x0 ADD MLOAD DUP5 PUSH1 0xA0 ADD DUP2 DUP2 MSTORE POP POP DUP4 PUSH2 0x180 ADD MLOAD PUSH1 0x0 ADD MLOAD DUP5 PUSH1 0xC0 ADD DUP2 DUP2 MSTORE POP POP PUSH1 0x0 DUP5 PUSH1 0x80 ADD MLOAD DUP6 PUSH1 0xA0 ADD MLOAD DUP7 PUSH1 0xC0 ADD MLOAD DUP4 SWAP4 POP SWAP8 POP SWAP8 POP SWAP8 POP SWAP8 POP POP POP POP POP JUMPDEST SWAP3 SWAP6 SWAP2 SWAP5 POP SWAP3 POP JUMP JUMPDEST PUSH2 0x1660 PUSH2 0x2982 JUMP JUMPDEST PUSH1 0x40 MLOAD DUP1 PUSH1 0x20 ADD PUSH1 0x40 MSTORE DUP1 PUSH8 0xDE0B6B3A7640000 PUSH2 0x1686 DUP7 PUSH1 0x0 ADD MLOAD DUP7 PUSH1 0x0 ADD MLOAD PUSH2 0x24F9 JUMP JUMPDEST DUP2 PUSH2 0x168D JUMPI INVALID JUMPDEST DIV DUP2 MSTORE POP SWAP1 POP SWAP3 SWAP2 POP POP JUMP JUMPDEST PUSH1 0x0 DUP1 DUP3 PUSH20 0xFFFFFFFFFFFFFFFFFFFFFFFFFFFFFFFFFFFFFFFF AND PUSH4 0x3B1D21A2 PUSH1 0x40 MLOAD DUP2 PUSH4 0xFFFFFFFF AND PUSH1 0xE0 SHL DUP2 MSTORE PUSH1 0x4 ADD PUSH1 0x20 PUSH1 0x40 MLOAD DUP1 DUP4 SUB DUP2 DUP7 DUP1 EXTCODESIZE ISZERO DUP1 ISZERO PUSH2 0x16E2 JUMPI PUSH1 0x0 DUP1 REVERT JUMPDEST POP GAS STATICCALL ISZERO DUP1 ISZERO PUSH2 0x16F6 JUMPI RETURNDATASIZE PUSH1 0x0 DUP1 RETURNDATACOPY RETURNDATASIZE PUSH1 0x0 REVERT JUMPDEST POP POP POP POP PUSH1 0x40 MLOAD RETURNDATASIZE PUSH1 0x1F NOT PUSH1 0x1F DUP3 ADD AND DUP3 ADD DUP1 PUSH1 0x40 MSTORE POP PUSH2 0x171A SWAP2 SWAP1 DUP2 ADD SWAP1 PUSH2 0x2F9B JUMP JUMPDEST SWAP1 POP PUSH1 0x0 DUP4 PUSH20 0xFFFFFFFFFFFFFFFFFFFFFFFFFFFFFFFFFFFFFFFF AND PUSH4 0x47BD3718 PUSH1 0x40 MLOAD DUP2 PUSH4 0xFFFFFFFF AND PUSH1 0xE0 SHL DUP2 MSTORE PUSH1 0x4 ADD PUSH1 0x20 PUSH1 0x40 MLOAD DUP1 DUP4 SUB DUP2 DUP7 DUP1 EXTCODESIZE ISZERO DUP1 ISZERO PUSH2 0x1764 JUMPI PUSH1 0x0 DUP1 REVERT JUMPDEST POP GAS STATICCALL ISZERO DUP1 ISZERO PUSH2 0x1778 JUMPI RETURNDATASIZE PUSH1 0x0 DUP1 RETURNDATACOPY RETURNDATASIZE PUSH1 0x0 REVERT JUMPDEST POP POP POP POP PUSH1 0x40 MLOAD RETURNDATASIZE PUSH1 0x1F NOT PUSH1 0x1F DUP3 ADD AND DUP3 ADD DUP1 PUSH1 0x40 MSTORE POP PUSH2 0x179C SWAP2 SWAP1 DUP2 ADD SWAP1 PUSH2 0x2F9B JUMP JUMPDEST SWAP1 POP PUSH1 0x0 DUP5 PUSH20 0xFFFFFFFFFFFFFFFFFFFFFFFFFFFFFFFFFFFFFFFF AND PUSH4 0x8F840DDD PUSH1 0x40 MLOAD DUP2 PUSH4 0xFFFFFFFF AND PUSH1 0xE0 SHL DUP2 MSTORE PUSH1 0x4 ADD PUSH1 0x20 PUSH1 0x40 MLOAD DUP1 DUP4 SUB DUP2 DUP7 DUP1 EXTCODESIZE ISZERO DUP1 ISZERO PUSH2 0x17E6 JUMPI PUSH1 0x0 DUP1 REVERT JUMPDEST POP GAS STATICCALL ISZERO DUP1 ISZERO PUSH2 0x17FA JUMPI RETURNDATASIZE PUSH1 0x0 DUP1 RETURNDATACOPY RETURNDATASIZE PUSH1 0x0 REVERT JUMPDEST POP POP POP POP PUSH1 0x40 MLOAD RETURNDATASIZE PUSH1 0x1F NOT PUSH1 0x1F DUP3 ADD AND DUP3 ADD DUP1 PUSH1 0x40 MSTORE POP PUSH2 0x181E SWAP2 SWAP1 DUP2 ADD SWAP1 PUSH2 0x2F9B JUMP JUMPDEST SWAP1 POP PUSH2 0x1833 PUSH2 0x182D DUP5 DUP5 PUSH2 0x2543 JUMP JUMPDEST DUP3 PUSH2 0x258D JUMP JUMPDEST SWAP4 POP POP POP POP SWAP2 SWAP1 POP JUMP JUMPDEST PUSH1 0x0 DUP1 DUP3 SWAP1 POP DUP1 PUSH20 0xFFFFFFFFFFFFFFFFFFFFFFFFFFFFFFFFFFFFFFFF AND PUSH4 0x47BD3718 PUSH1 0x40 MLOAD DUP2 PUSH4 0xFFFFFFFF AND PUSH1 0xE0 SHL DUP2 MSTORE PUSH1 0x4 ADD PUSH1 0x20 PUSH1 0x40 MLOAD DUP1 DUP4 SUB DUP2 DUP7 DUP1 EXTCODESIZE ISZERO DUP1 ISZERO PUSH2 0x1889 JUMPI PUSH1 0x0 DUP1 REVERT JUMPDEST POP GAS STATICCALL ISZERO DUP1 ISZERO PUSH2 0x189D JUMPI RETURNDATASIZE PUSH1 0x0 DUP1 RETURNDATACOPY RETURNDATASIZE PUSH1 0x0 REVERT JUMPDEST POP POP POP POP PUSH1 0x40 MLOAD RETURNDATASIZE PUSH1 0x1F NOT PUSH1 0x1F DUP3 ADD AND DUP3 ADD DUP1 PUSH1 0x40 MSTORE POP PUSH2 0x18C1 SWAP2 SWAP1 DUP2 ADD SWAP1 PUSH2 0x2F9B JUMP JUMPDEST SWAP2 POP POP SWAP2 SWAP1 POP JUMP JUMPDEST PUSH1 0x0 PUSH2 0x190B DUP4 DUP4 PUSH1 0x40 MLOAD DUP1 PUSH1 0x40 ADD PUSH1 0x40 MSTORE DUP1 PUSH1 0xE DUP2 MSTORE PUSH1 0x20 ADD PUSH32 0x646976696465206279207A65726F000000000000000000000000000000000000 DUP2 MSTORE POP PUSH2 0x25D7 JUMP JUMPDEST SWAP1 POP SWAP3 SWAP2 POP POP JUMP JUMPDEST PUSH2 0x191B PUSH2 0x2982 JUMP JUMPDEST PUSH1 0x40 MLOAD DUP1 PUSH1 0x20 ADD PUSH1 0x40 MSTORE DUP1 PUSH2 0x1934 DUP6 PUSH1 0x0 ADD MLOAD DUP6 PUSH2 0x18C9 JUMP JUMPDEST DUP2 MSTORE POP SWAP1 POP SWAP3 SWAP2 POP POP JUMP JUMPDEST PUSH2 0x1947 PUSH2 0x2982 JUMP JUMPDEST PUSH1 0x40 MLOAD DUP1 PUSH1 0x20 ADD PUSH1 0x40 MSTORE DUP1 PUSH2 0x1960 DUP6 PUSH1 0x0 ADD MLOAD DUP6 PUSH2 0x24F9 JUMP JUMPDEST DUP2 MSTORE POP SWAP1 POP SWAP3 SWAP2 POP POP JUMP JUMPDEST PUSH2 0x1973 PUSH2 0x2982 JUMP JUMPDEST PUSH1 0x40 MLOAD DUP1 PUSH1 0x20 ADD PUSH1 0x40 MSTORE DUP1 PUSH2 0x1990 DUP6 PUSH1 0x0 ADD MLOAD DUP6 PUSH1 0x0 ADD MLOAD PUSH2 0x2543 JUMP JUMPDEST DUP2 MSTORE POP SWAP1 POP SWAP3 SWAP2 POP POP JUMP JUMPDEST PUSH1 0x60 PUSH1 0x0 DUP3 EQ ISZERO PUSH2 0x19E3 JUMPI PUSH1 0x40 MLOAD DUP1 PUSH1 0x40 ADD PUSH1 0x40 MSTORE DUP1 PUSH1 0x1 DUP2 MSTORE PUSH1 0x20 ADD PUSH32 0x3000000000000000000000000000000000000000000000000000000000000000 DUP2 MSTORE POP SWAP1 POP PUSH2 0x1AC3 JUMP JUMPDEST PUSH1 0x0 DUP3 SWAP1 POP PUSH1 0x0 JUMPDEST PUSH1 0x0 DUP3 EQ PUSH2 0x1A0D JUMPI DUP1 DUP1 PUSH1 0x1 ADD SWAP2 POP POP PUSH1 0xA DUP3 DUP2 PUSH2 0x1A05 JUMPI INVALID JUMPDEST DIV SWAP2 POP PUSH2 0x19EB JUMP JUMPDEST PUSH1 0x60 DUP2 PUSH1 0x40 MLOAD SWAP1 DUP1 DUP3 MSTORE DUP1 PUSH1 0x1F ADD PUSH1 0x1F NOT AND PUSH1 0x20 ADD DUP3 ADD PUSH1 0x40 MSTORE DUP1 ISZERO PUSH2 0x1A42 JUMPI DUP2 PUSH1 0x20 ADD PUSH1 0x1 DUP3 MUL DUP1 CODESIZE DUP4 CODECOPY DUP1 DUP3 ADD SWAP2 POP POP SWAP1 POP JUMPDEST POP SWAP1 POP PUSH1 0x0 PUSH1 0x1 DUP4 SUB SWAP1 POP JUMPDEST PUSH1 0x0 DUP7 EQ PUSH2 0x1ABB JUMPI PUSH1 0xA DUP7 DUP2 PUSH2 0x1A60 JUMPI INVALID JUMPDEST MOD PUSH1 0x30 ADD PUSH1 0xF8 SHL DUP3 DUP3 DUP1 PUSH1 0x1 SWAP1 SUB SWAP4 POP DUP2 MLOAD DUP2 LT PUSH2 0x1A7A JUMPI INVALID JUMPDEST PUSH1 0x20 ADD ADD SWAP1 PUSH31 0xFFFFFFFFFFFFFFFFFFFFFFFFFFFFFFFFFFFFFFFFFFFFFFFFFFFFFFFFFFFFFF NOT AND SWAP1 DUP2 PUSH1 0x0 BYTE SWAP1 MSTORE8 POP PUSH1 0xA DUP7 DUP2 PUSH2 0x1AB3 JUMPI INVALID JUMPDEST DIV SWAP6 POP PUSH2 0x1A4E JUMP JUMPDEST DUP2 SWAP5 POP POP POP POP POP JUMPDEST SWAP2 SWAP1 POP JUMP JUMPDEST PUSH1 0x0 PUSH20 0xC00E94CB662C3520282E6F5717214004A7F26888 SWAP1 POP SWAP1 JUMP JUMPDEST PUSH1 0x0 PUSH20 0xD513D22422A3062BD342AE374B4B9C20E0A9A074 SWAP1 POP SWAP1 JUMP JUMPDEST PUSH1 0x0 PUSH20 0x3D9819210A31B4961B30EF54BE2AED79B9C9CD3B SWAP1 POP SWAP1 JUMP JUMPDEST PUSH1 0x0 PUSH1 0x60 PUSH2 0x1B28 PUSH2 0x2982 JUMP JUMPDEST PUSH1 0x60 PUSH2 0x1B32 PUSH2 0x1D53 JUMP JUMPDEST SWAP1 POP PUSH1 0x0 DUP2 MLOAD SWAP1 POP PUSH1 0x0 DUP1 SWAP1 POP PUSH1 0x60 DUP3 PUSH1 0x40 MLOAD SWAP1 DUP1 DUP3 MSTORE DUP1 PUSH1 0x20 MUL PUSH1 0x20 ADD DUP3 ADD PUSH1 0x40 MSTORE DUP1 ISZERO PUSH2 0x1B7B JUMPI DUP2 PUSH1 0x20 ADD JUMPDEST PUSH2 0x1B68 PUSH2 0x2B26 JUMP JUMPDEST DUP2 MSTORE PUSH1 0x20 ADD SWAP1 PUSH1 0x1 SWAP1 SUB SWAP1 DUP2 PUSH2 0x1B60 JUMPI SWAP1 POP JUMPDEST POP SWAP1 POP PUSH1 0x40 MLOAD DUP1 PUSH1 0x20 ADD PUSH1 0x40 MSTORE DUP1 PUSH1 0x0 DUP2 MSTORE POP SWAP5 POP PUSH1 0x0 DUP1 SWAP1 POP JUMPDEST DUP4 DUP2 LT ISZERO PUSH2 0x1C58 JUMPI PUSH1 0x60 DUP6 DUP3 DUP2 MLOAD DUP2 LT PUSH2 0x1BAC JUMPI INVALID JUMPDEST PUSH1 0x20 MUL PUSH1 0x20 ADD ADD MLOAD SWAP1 POP PUSH2 0x1BC9 DUP12 PUSH2 0x1BC3 DUP4 PUSH2 0x2048 JUMP JUMPDEST DUP13 PUSH2 0xB78 JUMP JUMPDEST DUP1 SWAP1 POP DUP5 DUP5 DUP2 MLOAD DUP2 LT PUSH2 0x1BD8 JUMPI INVALID JUMPDEST PUSH1 0x20 MUL PUSH1 0x20 ADD ADD DUP2 SWAP1 MSTORE DUP2 SWAP6 POP POP POP PUSH1 0x0 PUSH1 0x4 DUP2 GT ISZERO PUSH2 0x1BF4 JUMPI INVALID JUMPDEST DUP5 PUSH1 0x4 DUP2 GT ISZERO PUSH2 0x1C00 JUMPI INVALID JUMPDEST EQ PUSH2 0x1C2B JUMPI DUP4 DUP2 PUSH1 0x40 MLOAD DUP1 PUSH1 0x20 ADD PUSH1 0x40 MSTORE DUP1 PUSH1 0x0 DUP2 MSTORE POP DUP1 SWAP1 POP SWAP9 POP SWAP9 POP SWAP9 POP POP POP POP POP POP POP PUSH2 0x1C78 JUMP JUMPDEST PUSH2 0x1C48 DUP8 DUP5 DUP5 DUP2 MLOAD DUP2 LT PUSH2 0x1C3B JUMPI INVALID JUMPDEST PUSH1 0x20 MUL PUSH1 0x20 ADD ADD MLOAD PUSH2 0x196B JUMP JUMPDEST SWAP7 POP POP DUP1 DUP1 PUSH1 0x1 ADD SWAP2 POP POP PUSH2 0x1B96 JUMP JUMPDEST POP PUSH1 0x0 DUP6 PUSH1 0x40 MLOAD DUP1 PUSH1 0x20 ADD PUSH1 0x40 MSTORE DUP1 PUSH1 0x0 DUP2 MSTORE POP SWAP1 SWAP7 POP SWAP7 POP SWAP7 POP POP POP POP POP JUMPDEST SWAP3 POP SWAP3 POP SWAP3 JUMP JUMPDEST PUSH1 0x0 PUSH2 0x1C89 PUSH2 0x2982 JUMP JUMPDEST PUSH1 0x0 DUP1 PUSH2 0x1C9E DUP7 PUSH8 0xDE0B6B3A7640000 PUSH2 0x2632 JUMP JUMPDEST SWAP2 POP SWAP2 POP PUSH1 0x0 PUSH1 0x3 DUP2 GT ISZERO PUSH2 0x1CAF JUMPI INVALID JUMPDEST DUP3 PUSH1 0x3 DUP2 GT ISZERO PUSH2 0x1CBB JUMPI INVALID JUMPDEST EQ PUSH2 0x1CDF JUMPI DUP2 PUSH1 0x40 MLOAD DUP1 PUSH1 0x20 ADD PUSH1 0x40 MSTORE DUP1 PUSH1 0x0 DUP2 MSTORE POP DUP1 SWAP1 POP SWAP4 POP SWAP4 POP POP POP PUSH2 0x1D4C JUMP JUMPDEST PUSH1 0x0 DUP1 PUSH2 0x1CEC DUP4 DUP9 PUSH2 0x2685 JUMP JUMPDEST SWAP2 POP SWAP2 POP PUSH1 0x0 PUSH1 0x3 DUP2 GT ISZERO PUSH2 0x1CFD JUMPI INVALID JUMPDEST DUP3 PUSH1 0x3 DUP2 GT ISZERO PUSH2 0x1D09 JUMPI INVALID JUMPDEST EQ PUSH2 0x1D2F JUMPI DUP2 PUSH1 0x40 MLOAD DUP1 PUSH1 0x20 ADD PUSH1 0x40 MSTORE DUP1 PUSH1 0x0 DUP2 MSTORE POP DUP1 SWAP1 POP SWAP6 POP SWAP6 POP POP POP POP POP PUSH2 0x1D4C JUMP JUMPDEST PUSH1 0x0 PUSH1 0x40 MLOAD DUP1 PUSH1 0x20 ADD PUSH1 0x40 MSTORE DUP1 DUP4 DUP2 MSTORE POP DUP1 SWAP1 POP SWAP6 POP SWAP6 POP POP POP POP POP JUMPDEST SWAP3 POP SWAP3 SWAP1 POP JUMP JUMPDEST PUSH1 0x60 PUSH1 0x0 PUSH2 0x1D5F PUSH2 0x1B00 JUMP JUMPDEST SWAP1 POP PUSH1 0x60 DUP2 PUSH20 0xFFFFFFFFFFFFFFFFFFFFFFFFFFFFFFFFFFFFFFFF AND PUSH4 0xB0772D0B PUSH1 0x40 MLOAD DUP2 PUSH4 0xFFFFFFFF AND PUSH1 0xE0 SHL DUP2 MSTORE PUSH1 0x4 ADD PUSH1 0x0 PUSH1 0x40 MLOAD DUP1 DUP4 SUB DUP2 DUP7 DUP1 EXTCODESIZE ISZERO DUP1 ISZERO PUSH2 0x1DA9 JUMPI PUSH1 0x0 DUP1 REVERT JUMPDEST POP GAS STATICCALL ISZERO DUP1 ISZERO PUSH2 0x1DBD JUMPI RETURNDATASIZE PUSH1 0x0 DUP1 RETURNDATACOPY RETURNDATASIZE PUSH1 0x0 REVERT JUMPDEST POP POP POP POP PUSH1 0x40 MLOAD RETURNDATASIZE PUSH1 0x0 DUP3 RETURNDATACOPY RETURNDATASIZE PUSH1 0x1F NOT PUSH1 0x1F DUP3 ADD AND DUP3 ADD DUP1 PUSH1 0x40 MSTORE POP PUSH2 0x1DE6 SWAP2 SWAP1 DUP2 ADD SWAP1 PUSH2 0x2E0C JUMP JUMPDEST SWAP1 POP PUSH1 0x0 DUP1 PUSH1 0x0 DUP1 PUSH1 0x60 DUP6 MLOAD PUSH1 0x40 MLOAD SWAP1 DUP1 DUP3 MSTORE DUP1 PUSH1 0x20 MUL PUSH1 0x20 ADD DUP3 ADD PUSH1 0x40 MSTORE DUP1 ISZERO PUSH2 0x1E25 JUMPI DUP2 PUSH1 0x20 ADD JUMPDEST PUSH1 0x60 DUP2 MSTORE PUSH1 0x20 ADD SWAP1 PUSH1 0x1 SWAP1 SUB SWAP1 DUP2 PUSH2 0x1E10 JUMPI SWAP1 POP JUMPDEST POP SWAP1 POP PUSH1 0x0 DUP1 SWAP1 POP JUMPDEST DUP7 MLOAD DUP2 LT ISZERO PUSH2 0x1FBE JUMPI DUP7 DUP2 DUP2 MLOAD DUP2 LT PUSH2 0x1E43 JUMPI INVALID JUMPDEST PUSH1 0x20 MUL PUSH1 0x20 ADD ADD MLOAD SWAP4 POP DUP8 PUSH20 0xFFFFFFFFFFFFFFFFFFFFFFFFFFFFFFFFFFFFFFFF AND PUSH4 0x8E8F294B DUP6 PUSH1 0x40 MLOAD DUP3 PUSH4 0xFFFFFFFF AND PUSH1 0xE0 SHL DUP2 MSTORE PUSH1 0x4 ADD PUSH2 0x1E86 SWAP2 SWAP1 PUSH2 0x34D4 JUMP JUMPDEST PUSH1 0x60 PUSH1 0x40 MLOAD DUP1 DUP4 SUB DUP2 DUP7 DUP1 EXTCODESIZE ISZERO DUP1 ISZERO PUSH2 0x1E9E JUMPI PUSH1 0x0 DUP1 REVERT JUMPDEST POP GAS STATICCALL ISZERO DUP1 ISZERO PUSH2 0x1EB2 JUMPI RETURNDATASIZE PUSH1 0x0 DUP1 RETURNDATACOPY RETURNDATASIZE PUSH1 0x0 REVERT JUMPDEST POP POP POP POP PUSH1 0x40 MLOAD RETURNDATASIZE PUSH1 0x1F NOT PUSH1 0x1F DUP3 ADD AND DUP3 ADD DUP1 PUSH1 0x40 MSTORE POP PUSH2 0x1ED6 SWAP2 SWAP1 DUP2 ADD SWAP1 PUSH2 0x2E4D JUMP JUMPDEST SWAP1 POP DUP1 SWAP7 POP DUP2 SWAP8 POP POP POP DUP6 DUP1 ISZERO PUSH2 0x1EEA JUMPI POP DUP5 JUMPDEST ISZERO PUSH2 0x1FB1 JUMPI PUSH1 0x0 DUP8 DUP3 DUP2 MLOAD DUP2 LT PUSH2 0x1EFD JUMPI INVALID JUMPDEST PUSH1 0x20 MUL PUSH1 0x20 ADD ADD MLOAD SWAP1 POP PUSH1 0x60 DUP2 PUSH20 0xFFFFFFFFFFFFFFFFFFFFFFFFFFFFFFFFFFFFFFFF AND PUSH4 0x95D89B41 PUSH1 0x40 MLOAD DUP2 PUSH4 0xFFFFFFFF AND PUSH1 0xE0 SHL DUP2 MSTORE PUSH1 0x4 ADD PUSH1 0x0 PUSH1 0x40 MLOAD DUP1 DUP4 SUB DUP2 DUP7 DUP1 EXTCODESIZE ISZERO DUP1 ISZERO PUSH2 0x1F4F JUMPI PUSH1 0x0 DUP1 REVERT JUMPDEST POP GAS STATICCALL ISZERO DUP1 ISZERO PUSH2 0x1F63 JUMPI RETURNDATASIZE PUSH1 0x0 DUP1 RETURNDATACOPY RETURNDATASIZE PUSH1 0x0 REVERT JUMPDEST POP POP POP POP PUSH1 0x40 MLOAD RETURNDATASIZE PUSH1 0x0 DUP3 RETURNDATACOPY RETURNDATASIZE PUSH1 0x1F NOT PUSH1 0x1F DUP3 ADD AND DUP3 ADD DUP1 PUSH1 0x40 MSTORE POP PUSH2 0x1F8C SWAP2 SWAP1 DUP2 ADD SWAP1 PUSH2 0x2EC5 JUMP JUMPDEST SWAP1 POP DUP1 DUP5 DUP7 DUP2 MLOAD DUP2 LT PUSH2 0x1F9B JUMPI INVALID JUMPDEST PUSH1 0x20 MUL PUSH1 0x20 ADD ADD DUP2 SWAP1 MSTORE POP DUP5 DUP1 PUSH1 0x1 ADD SWAP6 POP POP POP POP JUMPDEST DUP1 DUP1 PUSH1 0x1 ADD SWAP2 POP POP PUSH2 0x1E2E JUMP JUMPDEST POP DUP2 PUSH1 0x40 MLOAD SWAP1 DUP1 DUP3 MSTORE DUP1 PUSH1 0x20 MUL PUSH1 0x20 ADD DUP3 ADD PUSH1 0x40 MSTORE DUP1 ISZERO PUSH2 0x1FF3 JUMPI DUP2 PUSH1 0x20 ADD JUMPDEST PUSH1 0x60 DUP2 MSTORE PUSH1 0x20 ADD SWAP1 PUSH1 0x1 SWAP1 SUB SWAP1 DUP2 PUSH2 0x1FDE JUMPI SWAP1 POP JUMPDEST POP SWAP8 POP PUSH1 0x0 DUP1 SWAP1 POP JUMPDEST DUP9 MLOAD DUP2 LT ISZERO PUSH2 0x203D JUMPI DUP2 DUP2 DUP2 MLOAD DUP2 LT PUSH2 0x2011 JUMPI INVALID JUMPDEST PUSH1 0x20 MUL PUSH1 0x20 ADD ADD MLOAD DUP10 DUP3 DUP2 MLOAD DUP2 LT PUSH2 0x2025 JUMPI INVALID JUMPDEST PUSH1 0x20 MUL PUSH1 0x20 ADD ADD DUP2 SWAP1 MSTORE POP DUP1 DUP1 PUSH1 0x1 ADD SWAP2 POP POP PUSH2 0x1FFC JUMP JUMPDEST POP POP POP POP POP POP POP POP SWAP1 JUMP JUMPDEST PUSH1 0x0 DUP1 PUSH2 0x2053 PUSH2 0x1B00 JUMP JUMPDEST SWAP1 POP PUSH1 0x60 DUP2 PUSH20 0xFFFFFFFFFFFFFFFFFFFFFFFFFFFFFFFFFFFFFFFF AND PUSH4 0xB0772D0B PUSH1 0x40 MLOAD DUP2 PUSH4 0xFFFFFFFF AND PUSH1 0xE0 SHL DUP2 MSTORE PUSH1 0x4 ADD PUSH1 0x0 PUSH1 0x40 MLOAD DUP1 DUP4 SUB DUP2 DUP7 DUP1 EXTCODESIZE ISZERO DUP1 ISZERO PUSH2 0x209D JUMPI PUSH1 0x0 DUP1 REVERT JUMPDEST POP GAS STATICCALL ISZERO DUP1 ISZERO PUSH2 0x20B1 JUMPI RETURNDATASIZE PUSH1 0x0 DUP1 RETURNDATACOPY RETURNDATASIZE PUSH1 0x0 REVERT JUMPDEST POP POP POP POP PUSH1 0x40 MLOAD RETURNDATASIZE PUSH1 0x0 DUP3 RETURNDATACOPY RETURNDATASIZE PUSH1 0x1F NOT PUSH1 0x1F DUP3 ADD AND DUP3 ADD DUP1 PUSH1 0x40 MSTORE POP PUSH2 0x20DA SWAP2 SWAP1 DUP2 ADD SWAP1 PUSH2 0x2E0C JUMP JUMPDEST SWAP1 POP PUSH1 0x0 DUP1 SWAP1 POP JUMPDEST DUP2 MLOAD DUP2 LT ISZERO PUSH2 0x21B5 JUMPI PUSH1 0x0 DUP3 DUP3 DUP2 MLOAD DUP2 LT PUSH2 0x20F9 JUMPI INVALID JUMPDEST PUSH1 0x20 MUL PUSH1 0x20 ADD ADD MLOAD SWAP1 POP PUSH1 0x60 DUP2 PUSH20 0xFFFFFFFFFFFFFFFFFFFFFFFFFFFFFFFFFFFFFFFF AND PUSH4 0x95D89B41 PUSH1 0x40 MLOAD DUP2 PUSH4 0xFFFFFFFF AND PUSH1 0xE0 SHL DUP2 MSTORE PUSH1 0x4 ADD PUSH1 0x0 PUSH1 0x40 MLOAD DUP1 DUP4 SUB DUP2 DUP7 DUP1 EXTCODESIZE ISZERO DUP1 ISZERO PUSH2 0x214B JUMPI PUSH1 0x0 DUP1 REVERT JUMPDEST POP GAS STATICCALL ISZERO DUP1 ISZERO PUSH2 0x215F JUMPI RETURNDATASIZE PUSH1 0x0 DUP1 RETURNDATACOPY RETURNDATASIZE PUSH1 0x0 REVERT JUMPDEST POP POP POP POP PUSH1 0x40 MLOAD RETURNDATASIZE PUSH1 0x0 DUP3 RETURNDATACOPY RETURNDATASIZE PUSH1 0x1F NOT PUSH1 0x1F DUP3 ADD AND DUP3 ADD DUP1 PUSH1 0x40 MSTORE POP PUSH2 0x2188 SWAP2 SWAP1 DUP2 ADD SWAP1 PUSH2 0x2EC5 JUMP JUMPDEST SWAP1 POP PUSH2 0x2194 DUP2 DUP9 PUSH2 0xFAE JUMP JUMPDEST ISZERO PUSH2 0x21A6 JUMPI DUP2 SWAP6 POP POP POP POP POP POP PUSH2 0x21BD JUMP JUMPDEST POP POP DUP1 DUP1 PUSH1 0x1 ADD SWAP2 POP POP PUSH2 0x20E2 JUMP JUMPDEST POP PUSH1 0x0 SWAP3 POP POP POP JUMPDEST SWAP2 SWAP1 POP JUMP JUMPDEST PUSH1 0x60 DUP1 PUSH1 0x60 PUSH1 0x1 DUP6 MLOAD ADD PUSH1 0x40 MLOAD SWAP1 DUP1 DUP3 MSTORE DUP1 PUSH1 0x20 MUL PUSH1 0x20 ADD DUP3 ADD PUSH1 0x40 MSTORE DUP1 ISZERO PUSH2 0x21FF JUMPI DUP2 PUSH1 0x20 ADD JUMPDEST PUSH1 0x60 DUP2 MSTORE PUSH1 0x20 ADD SWAP1 PUSH1 0x1 SWAP1 SUB SWAP1 DUP2 PUSH2 0x21EA JUMPI SWAP1 POP JUMPDEST POP SWAP1 POP PUSH1 0x60 PUSH1 0x1 DUP6 MLOAD ADD PUSH1 0x40 MLOAD SWAP1 DUP1 DUP3 MSTORE DUP1 PUSH1 0x20 MUL PUSH1 0x20 ADD DUP3 ADD PUSH1 0x40 MSTORE DUP1 ISZERO PUSH2 0x2237 JUMPI DUP2 PUSH1 0x20 ADD PUSH1 0x20 DUP3 MUL DUP1 CODESIZE DUP4 CODECOPY DUP1 DUP3 ADD SWAP2 POP POP SWAP1 POP JUMPDEST POP SWAP1 POP PUSH1 0x0 DUP1 SWAP1 POP JUMPDEST DUP7 MLOAD DUP2 LT ISZERO PUSH2 0x22AD JUMPI DUP7 DUP2 DUP2 MLOAD DUP2 LT PUSH2 0x2255 JUMPI INVALID JUMPDEST PUSH1 0x20 MUL PUSH1 0x20 ADD ADD MLOAD DUP4 DUP3 DUP2 MLOAD DUP2 LT PUSH2 0x2269 JUMPI INVALID JUMPDEST PUSH1 0x20 MUL PUSH1 0x20 ADD ADD DUP2 SWAP1 MSTORE POP DUP6 DUP2 DUP2 MLOAD DUP2 LT PUSH2 0x2280 JUMPI INVALID JUMPDEST PUSH1 0x20 MUL PUSH1 0x20 ADD ADD MLOAD DUP3 DUP3 DUP2 MLOAD DUP2 LT PUSH2 0x2294 JUMPI INVALID JUMPDEST PUSH1 0x20 MUL PUSH1 0x20 ADD ADD DUP2 DUP2 MSTORE POP POP DUP1 DUP1 PUSH1 0x1 ADD SWAP2 POP POP PUSH2 0x2240 JUMP JUMPDEST POP PUSH2 0x22BF DUP3 DUP3 PUSH1 0x0 PUSH1 0x1 DUP7 MLOAD SUB PUSH2 0x26B9 JUMP JUMPDEST DUP1 SWAP3 POP DUP2 SWAP4 POP POP POP PUSH1 0x60 DUP7 MLOAD PUSH1 0x40 MLOAD SWAP1 DUP1 DUP3 MSTORE DUP1 PUSH1 0x20 MUL PUSH1 0x20 ADD DUP3 ADD PUSH1 0x40 MSTORE DUP1 ISZERO PUSH2 0x22FE JUMPI DUP2 PUSH1 0x20 ADD JUMPDEST PUSH1 0x60 DUP2 MSTORE PUSH1 0x20 ADD SWAP1 PUSH1 0x1 SWAP1 SUB SWAP1 DUP2 PUSH2 0x22E9 JUMPI SWAP1 POP JUMPDEST POP SWAP1 POP PUSH1 0x60 DUP7 MLOAD PUSH1 0x40 MLOAD SWAP1 DUP1 DUP3 MSTORE DUP1 PUSH1 0x20 MUL PUSH1 0x20 ADD DUP3 ADD PUSH1 0x40 MSTORE DUP1 ISZERO PUSH2 0x2333 JUMPI DUP2 PUSH1 0x20 ADD PUSH1 0x20 DUP3 MUL DUP1 CODESIZE DUP4 CODECOPY DUP1 DUP3 ADD SWAP2 POP POP SWAP1 POP JUMPDEST POP SWAP1 POP PUSH1 0x0 DUP1 SWAP1 POP JUMPDEST DUP9 MLOAD DUP2 LT ISZERO PUSH2 0x23BB JUMPI DUP5 PUSH1 0x1 DUP3 ADD DUP2 MLOAD DUP2 LT PUSH2 0x2354 JUMPI INVALID JUMPDEST PUSH1 0x20 MUL PUSH1 0x20 ADD ADD MLOAD DUP4 DUP3 PUSH1 0x1 DUP13 MLOAD SUB SUB DUP2 MLOAD DUP2 LT PUSH2 0x236E JUMPI INVALID JUMPDEST PUSH1 0x20 MUL PUSH1 0x20 ADD ADD DUP2 SWAP1 MSTORE POP DUP4 PUSH1 0x1 DUP3 ADD DUP2 MLOAD DUP2 LT PUSH2 0x2388 JUMPI INVALID JUMPDEST PUSH1 0x20 MUL PUSH1 0x20 ADD ADD MLOAD DUP3 DUP3 PUSH1 0x1 DUP13 MLOAD SUB SUB DUP2 MLOAD DUP2 LT PUSH2 0x23A2 JUMPI INVALID JUMPDEST PUSH1 0x20 MUL PUSH1 0x20 ADD ADD DUP2 DUP2 MSTORE POP POP DUP1 DUP1 PUSH1 0x1 ADD SWAP2 POP POP PUSH2 0x233C JUMP JUMPDEST POP DUP2 DUP2 SWAP6 POP SWAP6 POP POP POP POP POP SWAP3 POP SWAP3 SWAP1 POP JUMP JUMPDEST PUSH1 0x0 PUSH20 0x4DDC2D193948926D02F9B1FE9E1DAA0718270ED5 SWAP1 POP SWAP1 JUMP JUMPDEST PUSH2 0x23F1 PUSH2 0x2982 JUMP JUMPDEST PUSH1 0x0 PUSH1 0x12 DUP4 GT ISZERO PUSH2 0x241A JUMPI PUSH2 0x2413 DUP5 PUSH2 0x240B DUP6 PUSH1 0x12 PUSH2 0x258D JUMP JUMPDEST PUSH1 0xA EXP PUSH2 0x18C9 JUMP JUMPDEST SWAP1 POP PUSH2 0x2434 JUMP JUMPDEST PUSH2 0x2431 DUP5 PUSH2 0x2429 PUSH1 0x12 DUP7 PUSH2 0x258D JUMP JUMPDEST PUSH1 0xA EXP PUSH2 0x24F9 JUMP JUMPDEST SWAP1 POP JUMPDEST PUSH1 0x40 MLOAD DUP1 PUSH1 0x20 ADD PUSH1 0x40 MSTORE DUP1 DUP3 DUP2 MSTORE POP SWAP2 POP POP SWAP3 SWAP2 POP POP JUMP JUMPDEST PUSH1 0x0 DUP1 PUSH2 0x2458 DUP4 PUSH2 0x1199 JUMP JUMPDEST SWAP1 POP PUSH1 0x0 DUP4 PUSH20 0xFFFFFFFFFFFFFFFFFFFFFFFFFFFFFFFFFFFFFFFF AND PUSH4 0x313CE567 PUSH1 0x40 MLOAD DUP2 PUSH4 0xFFFFFFFF AND PUSH1 0xE0 SHL DUP2 MSTORE PUSH1 0x4 ADD PUSH1 0x20 PUSH1 0x40 MLOAD DUP1 DUP4 SUB DUP2 DUP7 DUP1 EXTCODESIZE ISZERO DUP1 ISZERO PUSH2 0x24A2 JUMPI PUSH1 0x0 DUP1 REVERT JUMPDEST POP GAS STATICCALL ISZERO DUP1 ISZERO PUSH2 0x24B6 JUMPI RETURNDATASIZE PUSH1 0x0 DUP1 RETURNDATACOPY RETURNDATASIZE PUSH1 0x0 REVERT JUMPDEST POP POP POP POP PUSH1 0x40 MLOAD RETURNDATASIZE PUSH1 0x1F NOT PUSH1 0x1F DUP3 ADD AND DUP3 ADD DUP1 PUSH1 0x40 MSTORE POP PUSH2 0x24DA SWAP2 SWAP1 DUP2 ADD SWAP1 PUSH2 0x2F9B JUMP JUMPDEST SWAP1 POP PUSH2 0x24F0 PUSH2 0x24EA PUSH1 0x12 DUP5 PUSH2 0x2543 JUMP JUMPDEST DUP3 PUSH2 0x258D JUMP JUMPDEST SWAP3 POP POP POP SWAP2 SWAP1 POP JUMP JUMPDEST PUSH1 0x0 PUSH2 0x253B DUP4 DUP4 PUSH1 0x40 MLOAD DUP1 PUSH1 0x40 ADD PUSH1 0x40 MSTORE DUP1 PUSH1 0x17 DUP2 MSTORE PUSH1 0x20 ADD PUSH32 0x6D756C7469706C69636174696F6E206F766572666C6F77000000000000000000 DUP2 MSTORE POP PUSH2 0x2853 JUMP JUMPDEST SWAP1 POP SWAP3 SWAP2 POP POP JUMP JUMPDEST PUSH1 0x0 PUSH2 0x2585 DUP4 DUP4 PUSH1 0x40 MLOAD DUP1 PUSH1 0x40 ADD PUSH1 0x40 MSTORE DUP1 PUSH1 0x11 DUP2 MSTORE PUSH1 0x20 ADD PUSH32 0x6164646974696F6E206F766572666C6F77000000000000000000000000000000 DUP2 MSTORE POP PUSH2 0x28D3 JUMP JUMPDEST SWAP1 POP SWAP3 SWAP2 POP POP JUMP JUMPDEST PUSH1 0x0 PUSH2 0x25CF DUP4 DUP4 PUSH1 0x40 MLOAD DUP1 PUSH1 0x40 ADD PUSH1 0x40 MSTORE DUP1 PUSH1 0x15 DUP2 MSTORE PUSH1 0x20 ADD PUSH32 0x7375627472616374696F6E20756E646572666C6F770000000000000000000000 DUP2 MSTORE POP PUSH2 0x292D JUMP JUMPDEST SWAP1 POP SWAP3 SWAP2 POP POP JUMP JUMPDEST PUSH1 0x0 DUP1 DUP4 GT DUP3 SWAP1 PUSH2 0x261E JUMPI PUSH1 0x40 MLOAD PUSH32 0x8C379A000000000000000000000000000000000000000000000000000000000 DUP2 MSTORE PUSH1 0x4 ADD PUSH2 0x2615 SWAP2 SWAP1 PUSH2 0x35A1 JUMP JUMPDEST PUSH1 0x40 MLOAD DUP1 SWAP2 SUB SWAP1 REVERT JUMPDEST POP DUP3 DUP5 DUP2 PUSH2 0x2628 JUMPI INVALID JUMPDEST DIV SWAP1 POP SWAP4 SWAP3 POP POP POP JUMP JUMPDEST PUSH1 0x0 DUP1 PUSH1 0x0 DUP5 EQ ISZERO PUSH2 0x264D JUMPI PUSH1 0x0 DUP1 DUP1 SWAP1 POP SWAP2 POP SWAP2 POP PUSH2 0x267E JUMP JUMPDEST PUSH1 0x0 DUP4 DUP6 MUL SWAP1 POP DUP4 DUP6 DUP3 DUP2 PUSH2 0x265E JUMPI INVALID JUMPDEST DIV EQ PUSH2 0x2675 JUMPI PUSH1 0x2 PUSH1 0x0 DUP1 SWAP1 POP SWAP3 POP SWAP3 POP POP PUSH2 0x267E JUMP JUMPDEST PUSH1 0x0 DUP2 SWAP3 POP SWAP3 POP POP JUMPDEST SWAP3 POP SWAP3 SWAP1 POP JUMP JUMPDEST PUSH1 0x0 DUP1 PUSH1 0x0 DUP4 EQ ISZERO PUSH2 0x26A1 JUMPI PUSH1 0x1 PUSH1 0x0 DUP1 SWAP1 POP SWAP2 POP SWAP2 POP PUSH2 0x26B2 JUMP JUMPDEST PUSH1 0x0 DUP4 DUP6 DUP2 PUSH2 0x26AC JUMPI INVALID JUMPDEST DIV SWAP2 POP SWAP2 POP JUMPDEST SWAP3 POP SWAP3 SWAP1 POP JUMP JUMPDEST PUSH1 0x60 DUP1 PUSH1 0x0 DUP5 SWAP1 POP PUSH1 0x0 DUP5 SWAP1 POP PUSH1 0x0 DUP8 PUSH1 0x2 DUP9 DUP9 SUB DUP2 PUSH2 0x26D5 JUMPI INVALID JUMPDEST DIV DUP9 ADD DUP2 MLOAD DUP2 LT PUSH2 0x26E2 JUMPI INVALID JUMPDEST PUSH1 0x20 MUL PUSH1 0x20 ADD ADD MLOAD SWAP1 POP JUMPDEST DUP2 DUP4 GT PUSH2 0x2813 JUMPI JUMPDEST DUP1 DUP9 DUP5 DUP2 MLOAD DUP2 LT PUSH2 0x2702 JUMPI INVALID JUMPDEST PUSH1 0x20 MUL PUSH1 0x20 ADD ADD MLOAD LT ISZERO PUSH2 0x271D JUMPI DUP3 DUP1 PUSH1 0x1 ADD SWAP4 POP POP PUSH2 0x26F5 JUMP JUMPDEST JUMPDEST DUP8 DUP3 DUP2 MLOAD DUP2 LT PUSH2 0x272A JUMPI INVALID JUMPDEST PUSH1 0x20 MUL PUSH1 0x20 ADD ADD MLOAD DUP2 LT ISZERO PUSH2 0x2747 JUMPI DUP2 DUP1 PUSH1 0x1 SWAP1 SUB SWAP3 POP POP PUSH2 0x271E JUMP JUMPDEST DUP2 DUP4 GT PUSH2 0x280E JUMPI DUP9 DUP3 DUP2 MLOAD DUP2 LT PUSH2 0x275A JUMPI INVALID JUMPDEST PUSH1 0x20 MUL PUSH1 0x20 ADD ADD MLOAD DUP10 DUP5 DUP2 MLOAD DUP2 LT PUSH2 0x276E JUMPI INVALID JUMPDEST PUSH1 0x20 MUL PUSH1 0x20 ADD ADD MLOAD DUP11 DUP6 DUP2 MLOAD DUP2 LT PUSH2 0x2782 JUMPI INVALID JUMPDEST PUSH1 0x20 MUL PUSH1 0x20 ADD ADD DUP12 DUP6 DUP2 MLOAD DUP2 LT PUSH2 0x2795 JUMPI INVALID JUMPDEST PUSH1 0x20 MUL PUSH1 0x20 ADD ADD DUP3 SWAP1 MSTORE DUP3 SWAP1 MSTORE POP POP DUP8 DUP3 DUP2 MLOAD DUP2 LT PUSH2 0x27B0 JUMPI INVALID JUMPDEST PUSH1 0x20 MUL PUSH1 0x20 ADD ADD MLOAD DUP9 DUP5 DUP2 MLOAD DUP2 LT PUSH2 0x27C4 JUMPI INVALID JUMPDEST PUSH1 0x20 MUL PUSH1 0x20 ADD ADD MLOAD DUP10 DUP6 DUP2 MLOAD DUP2 LT PUSH2 0x27D8 JUMPI INVALID JUMPDEST PUSH1 0x20 MUL PUSH1 0x20 ADD ADD DUP11 DUP6 DUP2 MLOAD DUP2 LT PUSH2 0x27EB JUMPI INVALID JUMPDEST PUSH1 0x20 MUL PUSH1 0x20 ADD ADD DUP3 DUP2 MSTORE POP DUP3 DUP2 MSTORE POP POP POP DUP3 DUP1 PUSH1 0x1 ADD SWAP4 POP POP DUP2 DUP1 PUSH1 0x1 SWAP1 SUB SWAP3 POP POP JUMPDEST PUSH2 0x26ED JUMP JUMPDEST DUP2 DUP8 LT ISZERO PUSH2 0x282A JUMPI PUSH2 0x2827 DUP10 DUP10 DUP10 DUP6 PUSH2 0x26B9 JUMP JUMPDEST POP POP JUMPDEST DUP6 DUP4 LT ISZERO PUSH2 0x2841 JUMPI PUSH2 0x283E DUP10 DUP10 DUP6 DUP10 PUSH2 0x26B9 JUMP JUMPDEST POP POP JUMPDEST DUP9 DUP9 SWAP5 POP SWAP5 POP POP POP POP SWAP5 POP SWAP5 SWAP3 POP POP POP JUMP JUMPDEST PUSH1 0x0 DUP1 DUP5 EQ DUP1 PUSH2 0x2863 JUMPI POP PUSH1 0x0 DUP4 EQ JUMPDEST ISZERO PUSH2 0x2871 JUMPI PUSH1 0x0 SWAP1 POP PUSH2 0x28CC JUMP JUMPDEST PUSH1 0x0 DUP4 DUP6 MUL SWAP1 POP DUP4 DUP6 DUP3 DUP2 PUSH2 0x2882 JUMPI INVALID JUMPDEST DIV EQ DUP4 SWAP1 PUSH2 0x28C6 JUMPI PUSH1 0x40 MLOAD PUSH32 0x8C379A000000000000000000000000000000000000000000000000000000000 DUP2 MSTORE PUSH1 0x4 ADD PUSH2 0x28BD SWAP2 SWAP1 PUSH2 0x35A1 JUMP JUMPDEST PUSH1 0x40 MLOAD DUP1 SWAP2 SUB SWAP1 REVERT JUMPDEST POP DUP1 SWAP2 POP POP JUMPDEST SWAP4 SWAP3 POP POP POP JUMP JUMPDEST PUSH1 0x0 DUP1 DUP4 DUP6 ADD SWAP1 POP DUP5 DUP2 LT ISZERO DUP4 SWAP1 PUSH2 0x2921 JUMPI PUSH1 0x40 MLOAD PUSH32 0x8C379A000000000000000000000000000000000000000000000000000000000 DUP2 MSTORE PUSH1 0x4 ADD PUSH2 0x2918 SWAP2 SWAP1 PUSH2 0x35A1 JUMP JUMPDEST PUSH1 0x40 MLOAD DUP1 SWAP2 SUB SWAP1 REVERT JUMPDEST POP DUP1 SWAP2 POP POP SWAP4 SWAP3 POP POP POP JUMP JUMPDEST PUSH1 0x0 DUP4 DUP4 GT ISZERO DUP3 SWAP1 PUSH2 0x2975 JUMPI PUSH1 0x40 MLOAD PUSH32 0x8C379A000000000000000000000000000000000000000000000000000000000 DUP2 MSTORE PUSH1 0x4 ADD PUSH2 0x296C SWAP2 SWAP1 PUSH2 0x35A1 JUMP JUMPDEST PUSH1 0x40 MLOAD DUP1 SWAP2 SUB SWAP1 REVERT JUMPDEST POP DUP3 DUP5 SUB SWAP1 POP SWAP4 SWAP3 POP POP POP JUMP JUMPDEST PUSH1 0x40 MLOAD DUP1 PUSH1 0x20 ADD PUSH1 0x40 MSTORE DUP1 PUSH1 0x0 DUP2 MSTORE POP SWAP1 JUMP JUMPDEST PUSH1 0x40 MLOAD DUP1 PUSH2 0x2A0 ADD PUSH1 0x40 MSTORE DUP1 PUSH1 0x0 DUP2 MSTORE PUSH1 0x20 ADD PUSH1 0x0 DUP2 MSTORE PUSH1 0x20 ADD PUSH1 0x0 DUP2 MSTORE PUSH1 0x20 ADD PUSH1 0x0 DUP2 MSTORE PUSH1 0x20 ADD PUSH1 0x0 DUP2 MSTORE PUSH1 0x20 ADD PUSH1 0x0 DUP2 MSTORE PUSH1 0x20 ADD PUSH1 0x0 DUP2 MSTORE PUSH1 0x20 ADD PUSH1 0x0 DUP2 MSTORE PUSH1 0x20 ADD PUSH1 0x0 DUP2 MSTORE PUSH1 0x20 ADD PUSH1 0x0 DUP2 MSTORE PUSH1 0x20 ADD PUSH1 0x0 DUP2 MSTORE PUSH1 0x20 ADD PUSH2 0x29F6 PUSH2 0x2B26 JUMP JUMPDEST DUP2 MSTORE PUSH1 0x20 ADD PUSH2 0x2A03 PUSH2 0x2B26 JUMP JUMPDEST DUP2 MSTORE PUSH1 0x20 ADD PUSH2 0x2A10 PUSH2 0x2B26 JUMP JUMPDEST DUP2 MSTORE PUSH1 0x20 ADD PUSH2 0x2A1D PUSH2 0x2B26 JUMP JUMPDEST DUP2 MSTORE PUSH1 0x20 ADD PUSH2 0x2A2A PUSH2 0x2B26 JUMP JUMPDEST DUP2 MSTORE PUSH1 0x20 ADD PUSH2 0x2A37 PUSH2 0x2B26 JUMP JUMPDEST DUP2 MSTORE PUSH1 0x20 ADD PUSH2 0x2A44 PUSH2 0x2B26 JUMP JUMPDEST DUP2 MSTORE PUSH1 0x20 ADD PUSH2 0x2A51 PUSH2 0x2B26 JUMP JUMPDEST DUP2 MSTORE PUSH1 0x20 ADD PUSH2 0x2A5E PUSH2 0x2B26 JUMP JUMPDEST DUP2 MSTORE PUSH1 0x20 ADD PUSH2 0x2A6B PUSH2 0x2B26 JUMP JUMPDEST DUP2 MSTORE POP SWAP1 JUMP JUMPDEST PUSH1 0x40 MLOAD DUP1 PUSH1 0x40 ADD PUSH1 0x40 MSTORE DUP1 PUSH1 0x0 DUP2 MSTORE PUSH1 0x20 ADD PUSH1 0x0 DUP2 MSTORE POP SWAP1 JUMP JUMPDEST PUSH1 0x40 MLOAD DUP1 PUSH2 0x1A0 ADD PUSH1 0x40 MSTORE DUP1 PUSH1 0x0 DUP2 MSTORE PUSH1 0x20 ADD PUSH1 0x0 DUP2 MSTORE PUSH1 0x20 ADD PUSH1 0x0 DUP2 MSTORE PUSH1 0x20 ADD PUSH1 0x0 DUP2 MSTORE PUSH1 0x20 ADD PUSH1 0x0 DUP2 MSTORE PUSH1 0x20 ADD PUSH1 0x0 DUP2 MSTORE PUSH1 0x20 ADD PUSH1 0x0 DUP2 MSTORE PUSH1 0x20 ADD PUSH1 0x0 PUSH1 0x3 DUP2 GT ISZERO PUSH2 0x2AD5 JUMPI INVALID JUMPDEST DUP2 MSTORE PUSH1 0x20 ADD PUSH2 0x2AE2 PUSH2 0x2B26 JUMP JUMPDEST DUP2 MSTORE PUSH1 0x20 ADD PUSH1 0x0 PUSH1 0x3 DUP2 GT ISZERO PUSH2 0x2AF4 JUMPI INVALID JUMPDEST DUP2 MSTORE PUSH1 0x20 ADD PUSH2 0x2B01 PUSH2 0x2B26 JUMP JUMPDEST DUP2 MSTORE PUSH1 0x20 ADD PUSH1 0x0 PUSH1 0x3 DUP2 GT ISZERO PUSH2 0x2B13 JUMPI INVALID JUMPDEST DUP2 MSTORE PUSH1 0x20 ADD PUSH2 0x2B20 PUSH2 0x2B26 JUMP JUMPDEST DUP2 MSTORE POP SWAP1 JUMP JUMPDEST PUSH1 0x40 MLOAD DUP1 PUSH1 0x20 ADD PUSH1 0x40 MSTORE DUP1 PUSH1 0x0 DUP2 MSTORE POP SWAP1 JUMP JUMPDEST PUSH1 0x0 DUP2 CALLDATALOAD SWAP1 POP PUSH2 0x2B48 DUP2 PUSH2 0x3A66 JUMP JUMPDEST SWAP3 SWAP2 POP POP JUMP JUMPDEST PUSH1 0x0 DUP2 MLOAD SWAP1 POP PUSH2 0x2B5D DUP2 PUSH2 0x3A66 JUMP JUMPDEST SWAP3 SWAP2 POP POP JUMP JUMPDEST PUSH1 0x0 DUP3 PUSH1 0x1F DUP4 ADD SLT PUSH2 0x2B74 JUMPI PUSH1 0x0 DUP1 REVERT JUMPDEST DUP2 MLOAD PUSH2 0x2B87 PUSH2 0x2B82 DUP3 PUSH2 0x37E6 JUMP JUMPDEST PUSH2 0x37B9 JUMP JUMPDEST SWAP2 POP DUP2 DUP2 DUP4 MSTORE PUSH1 0x20 DUP5 ADD SWAP4 POP PUSH1 0x20 DUP2 ADD SWAP1 POP DUP4 DUP6 PUSH1 0x20 DUP5 MUL DUP3 ADD GT ISZERO PUSH2 0x2BAC JUMPI PUSH1 0x0 DUP1 REVERT JUMPDEST PUSH1 0x0 JUMPDEST DUP4 DUP2 LT ISZERO PUSH2 0x2BDC JUMPI DUP2 PUSH2 0x2BC2 DUP9 DUP3 PUSH2 0x2BFB JUMP JUMPDEST DUP5 MSTORE PUSH1 0x20 DUP5 ADD SWAP4 POP PUSH1 0x20 DUP4 ADD SWAP3 POP POP PUSH1 0x1 DUP2 ADD SWAP1 POP PUSH2 0x2BAF JUMP JUMPDEST POP POP POP POP SWAP3 SWAP2 POP POP JUMP JUMPDEST PUSH1 0x0 DUP2 MLOAD SWAP1 POP PUSH2 0x2BF5 DUP2 PUSH2 0x3A7D JUMP JUMPDEST SWAP3 SWAP2 POP POP JUMP JUMPDEST PUSH1 0x0 DUP2 MLOAD SWAP1 POP PUSH2 0x2C0A DUP2 PUSH2 0x3A94 JUMP JUMPDEST SWAP3 SWAP2 POP POP JUMP JUMPDEST PUSH1 0x0 DUP2 CALLDATALOAD SWAP1 POP PUSH2 0x2C1F DUP2 PUSH2 0x3AAB JUMP JUMPDEST SWAP3 SWAP2 POP POP JUMP JUMPDEST PUSH1 0x0 DUP3 PUSH1 0x1F DUP4 ADD SLT PUSH2 0x2C36 JUMPI PUSH1 0x0 DUP1 REVERT JUMPDEST DUP2 MLOAD PUSH2 0x2C49 PUSH2 0x2C44 DUP3 PUSH2 0x380E JUMP JUMPDEST PUSH2 0x37B9 JUMP JUMPDEST SWAP2 POP DUP1 DUP3 MSTORE PUSH1 0x20 DUP4 ADD PUSH1 0x20 DUP4 ADD DUP6 DUP4 DUP4 ADD GT ISZERO PUSH2 0x2C65 JUMPI PUSH1 0x0 DUP1 REVERT JUMPDEST PUSH2 0x2C70 DUP4 DUP3 DUP5 PUSH2 0x3A15 JUMP JUMPDEST POP POP POP SWAP3 SWAP2 POP POP JUMP JUMPDEST PUSH1 0x0 DUP3 PUSH1 0x1F DUP4 ADD SLT PUSH2 0x2C8A JUMPI PUSH1 0x0 DUP1 REVERT JUMPDEST DUP2 CALLDATALOAD PUSH2 0x2C9D PUSH2 0x2C98 DUP3 PUSH2 0x383A JUMP JUMPDEST PUSH2 0x37B9 JUMP JUMPDEST SWAP2 POP DUP1 DUP3 MSTORE PUSH1 0x20 DUP4 ADD PUSH1 0x20 DUP4 ADD DUP6 DUP4 DUP4 ADD GT ISZERO PUSH2 0x2CB9 JUMPI PUSH1 0x0 DUP1 REVERT JUMPDEST PUSH2 0x2CC4 DUP4 DUP3 DUP5 PUSH2 0x3A06 JUMP JUMPDEST POP POP POP SWAP3 SWAP2 POP POP JUMP JUMPDEST PUSH1 0x0 PUSH1 0x80 DUP3 DUP5 SUB SLT ISZERO PUSH2 0x2CDF JUMPI PUSH1 0x0 DUP1 REVERT JUMPDEST PUSH2 0x2CE9 PUSH1 0x80 PUSH2 0x37B9 JUMP JUMPDEST SWAP1 POP PUSH1 0x0 PUSH2 0x2CF9 DUP5 DUP3 DUP6 ADD PUSH2 0x2D56 JUMP JUMPDEST PUSH1 0x0 DUP4 ADD MSTORE POP PUSH1 0x20 PUSH2 0x2D0D DUP5 DUP3 DUP6 ADD PUSH2 0x2D56 JUMP JUMPDEST PUSH1 0x20 DUP4 ADD MSTORE POP PUSH1 0x40 PUSH2 0x2D21 DUP5 DUP3 DUP6 ADD PUSH2 0x2B4E JUMP JUMPDEST PUSH1 0x40 DUP4 ADD MSTORE POP PUSH1 0x60 PUSH2 0x2D35 DUP5 DUP3 DUP6 ADD PUSH2 0x2D56 JUMP JUMPDEST PUSH1 0x60 DUP4 ADD MSTORE POP SWAP3 SWAP2 POP POP JUMP JUMPDEST PUSH1 0x0 DUP2 CALLDATALOAD SWAP1 POP PUSH2 0x2D50 DUP2 PUSH2 0x3AC2 JUMP JUMPDEST SWAP3 SWAP2 POP POP JUMP JUMPDEST PUSH1 0x0 DUP2 MLOAD SWAP1 POP PUSH2 0x2D65 DUP2 PUSH2 0x3AC2 JUMP JUMPDEST SWAP3 SWAP2 POP POP JUMP JUMPDEST PUSH1 0x0 PUSH1 0x20 DUP3 DUP5 SUB SLT ISZERO PUSH2 0x2D7D JUMPI PUSH1 0x0 DUP1 REVERT JUMPDEST PUSH1 0x0 PUSH2 0x2D8B DUP5 DUP3 DUP6 ADD PUSH2 0x2B39 JUMP JUMPDEST SWAP2 POP POP SWAP3 SWAP2 POP POP JUMP JUMPDEST PUSH1 0x0 PUSH1 0x20 DUP3 DUP5 SUB SLT ISZERO PUSH2 0x2DA6 JUMPI PUSH1 0x0 DUP1 REVERT JUMPDEST PUSH1 0x0 PUSH2 0x2DB4 DUP5 DUP3 DUP6 ADD PUSH2 0x2B4E JUMP JUMPDEST SWAP2 POP POP SWAP3 SWAP2 POP POP JUMP JUMPDEST PUSH1 0x0 DUP1 PUSH1 0x0 PUSH1 0x60 DUP5 DUP7 SUB SLT ISZERO PUSH2 0x2DD2 JUMPI PUSH1 0x0 DUP1 REVERT JUMPDEST PUSH1 0x0 PUSH2 0x2DE0 DUP7 DUP3 DUP8 ADD PUSH2 0x2B39 JUMP JUMPDEST SWAP4 POP POP PUSH1 0x20 PUSH2 0x2DF1 DUP7 DUP3 DUP8 ADD PUSH2 0x2B39 JUMP JUMPDEST SWAP3 POP POP PUSH1 0x40 PUSH2 0x2E02 DUP7 DUP3 DUP8 ADD PUSH2 0x2D41 JUMP JUMPDEST SWAP2 POP POP SWAP3 POP SWAP3 POP SWAP3 JUMP JUMPDEST PUSH1 0x0 PUSH1 0x20 DUP3 DUP5 SUB SLT ISZERO PUSH2 0x2E1E JUMPI PUSH1 0x0 DUP1 REVERT JUMPDEST PUSH1 0x0 DUP3 ADD MLOAD PUSH8 0xFFFFFFFFFFFFFFFF DUP2 GT ISZERO PUSH2 0x2E38 JUMPI PUSH1 0x0 DUP1 REVERT JUMPDEST PUSH2 0x2E44 DUP5 DUP3 DUP6 ADD PUSH2 0x2B63 JUMP JUMPDEST SWAP2 POP POP SWAP3 SWAP2 POP POP JUMP JUMPDEST PUSH1 0x0 DUP1 PUSH1 0x0 PUSH1 0x60 DUP5 DUP7 SUB SLT ISZERO PUSH2 0x2E62 JUMPI PUSH1 0x0 DUP1 REVERT JUMPDEST PUSH1 0x0 PUSH2 0x2E70 DUP7 DUP3 DUP8 ADD PUSH2 0x2BE6 JUMP JUMPDEST SWAP4 POP POP PUSH1 0x20 PUSH2 0x2E81 DUP7 DUP3 DUP8 ADD PUSH2 0x2D56 JUMP JUMPDEST SWAP3 POP POP PUSH1 0x40 PUSH2 0x2E92 DUP7 DUP3 DUP8 ADD PUSH2 0x2BE6 JUMP JUMPDEST SWAP2 POP POP SWAP3 POP SWAP3 POP SWAP3 JUMP JUMPDEST PUSH1 0x0 PUSH1 0x20 DUP3 DUP5 SUB SLT ISZERO PUSH2 0x2EAE JUMPI PUSH1 0x0 DUP1 REVERT JUMPDEST PUSH1 0x0 PUSH2 0x2EBC DUP5 DUP3 DUP6 ADD PUSH2 0x2C10 JUMP JUMPDEST SWAP2 POP POP SWAP3 SWAP2 POP POP JUMP JUMPDEST PUSH1 0x0 PUSH1 0x20 DUP3 DUP5 SUB SLT ISZERO PUSH2 0x2ED7 JUMPI PUSH1 0x0 DUP1 REVERT JUMPDEST PUSH1 0x0 DUP3 ADD MLOAD PUSH8 0xFFFFFFFFFFFFFFFF DUP2 GT ISZERO PUSH2 0x2EF1 JUMPI PUSH1 0x0 DUP1 REVERT JUMPDEST PUSH2 0x2EFD DUP5 DUP3 DUP6 ADD PUSH2 0x2C25 JUMP JUMPDEST SWAP2 POP POP SWAP3 SWAP2 POP POP JUMP JUMPDEST PUSH1 0x0 DUP1 PUSH1 0x40 DUP4 DUP6 SUB SLT ISZERO PUSH2 0x2F19 JUMPI PUSH1 0x0 DUP1 REVERT JUMPDEST PUSH1 0x0 DUP4 ADD CALLDATALOAD PUSH8 0xFFFFFFFFFFFFFFFF DUP2 GT ISZERO PUSH2 0x2F33 JUMPI PUSH1 0x0 DUP1 REVERT JUMPDEST PUSH2 0x2F3F DUP6 DUP3 DUP7 ADD PUSH2 0x2C79 JUMP JUMPDEST SWAP3 POP POP PUSH1 0x20 DUP4 ADD CALLDATALOAD PUSH8 0xFFFFFFFFFFFFFFFF DUP2 GT ISZERO PUSH2 0x2F5C JUMPI PUSH1 0x0 DUP1 REVERT JUMPDEST PUSH2 0x2F68 DUP6 DUP3 DUP7 ADD PUSH2 0x2C79 JUMP JUMPDEST SWAP2 POP POP SWAP3 POP SWAP3 SWAP1 POP JUMP JUMPDEST PUSH1 0x0 PUSH1 0x80 DUP3 DUP5 SUB SLT ISZERO PUSH2 0x2F84 JUMPI PUSH1 0x0 DUP1 REVERT JUMPDEST PUSH1 0x0 PUSH2 0x2F92 DUP5 DUP3 DUP6 ADD PUSH2 0x2CCD JUMP JUMPDEST SWAP2 POP POP SWAP3 SWAP2 POP POP JUMP JUMPDEST PUSH1 0x0 PUSH1 0x20 DUP3 DUP5 SUB SLT ISZERO PUSH2 0x2FAD JUMPI PUSH1 0x0 DUP1 REVERT JUMPDEST PUSH1 0x0 PUSH2 0x2FBB DUP5 DUP3 DUP6 ADD PUSH2 0x2D56 JUMP JUMPDEST SWAP2 POP POP SWAP3 SWAP2 POP POP JUMP JUMPDEST PUSH1 0x0 DUP1 PUSH1 0x0 DUP1 PUSH1 0x80 DUP6 DUP8 SUB SLT ISZERO PUSH2 0x2FDA JUMPI PUSH1 0x0 DUP1 REVERT JUMPDEST PUSH1 0x0 PUSH2 0x2FE8 DUP8 DUP3 DUP9 ADD PUSH2 0x2D56 JUMP JUMPDEST SWAP5 POP POP PUSH1 0x20 PUSH2 0x2FF9 DUP8 DUP3 DUP9 ADD PUSH2 0x2D56 JUMP JUMPDEST SWAP4 POP POP PUSH1 0x40 PUSH2 0x300A DUP8 DUP3 DUP9 ADD PUSH2 0x2D56 JUMP JUMPDEST SWAP3 POP POP PUSH1 0x60 PUSH2 0x301B DUP8 DUP3 DUP9 ADD PUSH2 0x2D56 JUMP JUMPDEST SWAP2 POP POP SWAP3 SWAP6 SWAP2 SWAP5 POP SWAP3 POP JUMP JUMPDEST PUSH1 0x0 PUSH2 0x3033 DUP4 DUP4 PUSH2 0x31DB JUMP JUMPDEST SWAP1 POP SWAP3 SWAP2 POP POP JUMP JUMPDEST PUSH1 0x0 PUSH2 0x3047 DUP4 DUP4 PUSH2 0x349F JUMP JUMPDEST PUSH1 0x20 DUP4 ADD SWAP1 POP SWAP3 SWAP2 POP POP JUMP JUMPDEST PUSH2 0x305C DUP2 PUSH2 0x391B JUMP JUMPDEST DUP3 MSTORE POP POP JUMP JUMPDEST PUSH1 0x0 PUSH2 0x306D DUP3 PUSH2 0x3886 JUMP JUMPDEST PUSH2 0x3077 DUP2 DUP6 PUSH2 0x38CC JUMP JUMPDEST SWAP4 POP DUP4 PUSH1 0x20 DUP3 MUL DUP6 ADD PUSH2 0x3089 DUP6 PUSH2 0x3866 JUMP JUMPDEST DUP1 PUSH1 0x0 JUMPDEST DUP6 DUP2 LT ISZERO PUSH2 0x30C5 JUMPI DUP5 DUP5 SUB DUP10 MSTORE DUP2 MLOAD PUSH2 0x30A6 DUP6 DUP3 PUSH2 0x3027 JUMP JUMPDEST SWAP5 POP PUSH2 0x30B1 DUP4 PUSH2 0x38B2 JUMP JUMPDEST SWAP3 POP PUSH1 0x20 DUP11 ADD SWAP10 POP POP PUSH1 0x1 DUP2 ADD SWAP1 POP PUSH2 0x308D JUMP JUMPDEST POP DUP3 SWAP8 POP DUP8 SWAP6 POP POP POP POP POP POP SWAP3 SWAP2 POP POP JUMP JUMPDEST PUSH1 0x0 PUSH2 0x30E2 DUP3 PUSH2 0x3891 JUMP JUMPDEST PUSH2 0x30EC DUP2 DUP6 PUSH2 0x38DD JUMP JUMPDEST SWAP4 POP PUSH2 0x30F7 DUP4 PUSH2 0x3876 JUMP JUMPDEST DUP1 PUSH1 0x0 JUMPDEST DUP4 DUP2 LT ISZERO PUSH2 0x3128 JUMPI DUP2 MLOAD PUSH2 0x310F DUP9 DUP3 PUSH2 0x303B JUMP JUMPDEST SWAP8 POP PUSH2 0x311A DUP4 PUSH2 0x38BF JUMP JUMPDEST SWAP3 POP POP PUSH1 0x1 DUP2 ADD SWAP1 POP PUSH2 0x30FB JUMP JUMPDEST POP DUP6 SWAP4 POP POP POP POP SWAP3 SWAP2 POP POP JUMP JUMPDEST PUSH2 0x313E DUP2 PUSH2 0x393F JUMP JUMPDEST DUP3 MSTORE POP POP JUMP JUMPDEST PUSH2 0x314D DUP2 PUSH2 0x39AC JUMP JUMPDEST DUP3 MSTORE POP POP JUMP JUMPDEST PUSH2 0x315C DUP2 PUSH2 0x39D0 JUMP JUMPDEST DUP3 MSTORE POP POP JUMP JUMPDEST PUSH2 0x316B DUP2 PUSH2 0x39F4 JUMP JUMPDEST DUP3 MSTORE POP POP JUMP JUMPDEST PUSH1 0x0 PUSH2 0x317C DUP3 PUSH2 0x38A7 JUMP JUMPDEST PUSH2 0x3186 DUP2 DUP6 PUSH2 0x38FF JUMP JUMPDEST SWAP4 POP PUSH2 0x3196 DUP2 DUP6 PUSH1 0x20 DUP7 ADD PUSH2 0x3A15 JUMP JUMPDEST PUSH2 0x319F DUP2 PUSH2 0x3A48 JUMP JUMPDEST DUP5 ADD SWAP2 POP POP SWAP3 SWAP2 POP POP JUMP JUMPDEST PUSH1 0x0 PUSH2 0x31B5 DUP3 PUSH2 0x38A7 JUMP JUMPDEST PUSH2 0x31BF DUP2 DUP6 PUSH2 0x3910 JUMP JUMPDEST SWAP4 POP PUSH2 0x31CF DUP2 DUP6 PUSH1 0x20 DUP7 ADD PUSH2 0x3A15 JUMP JUMPDEST DUP1 DUP5 ADD SWAP2 POP POP SWAP3 SWAP2 POP POP JUMP JUMPDEST PUSH1 0x0 PUSH2 0x31E6 DUP3 PUSH2 0x389C JUMP JUMPDEST PUSH2 0x31F0 DUP2 DUP6 PUSH2 0x38EE JUMP JUMPDEST SWAP4 POP PUSH2 0x3200 DUP2 DUP6 PUSH1 0x20 DUP7 ADD PUSH2 0x3A15 JUMP JUMPDEST PUSH2 0x3209 DUP2 PUSH2 0x3A48 JUMP JUMPDEST DUP5 ADD SWAP2 POP POP SWAP3 SWAP2 POP POP JUMP JUMPDEST PUSH1 0x0 PUSH2 0x3221 PUSH1 0x15 DUP4 PUSH2 0x38FF JUMP JUMPDEST SWAP2 POP PUSH32 0x636F6D70496E636F6D654F6E426F72726F774578700000000000000000000000 PUSH1 0x0 DUP4 ADD MSTORE PUSH1 0x20 DUP3 ADD SWAP1 POP SWAP2 SWAP1 POP JUMP JUMPDEST PUSH1 0x0 PUSH2 0x3261 PUSH1 0x1C DUP4 PUSH2 0x38FF JUMP JUMPDEST SWAP2 POP PUSH32 0x6F6E6C792061646D696E2063616E206368616E676520627261696E7300000000 PUSH1 0x0 DUP4 ADD MSTORE PUSH1 0x20 DUP3 ADD SWAP1 POP SWAP2 SWAP1 POP JUMP JUMPDEST PUSH1 0x0 PUSH2 0x32A1 PUSH1 0x15 DUP4 PUSH2 0x38FF JUMP JUMPDEST SWAP2 POP PUSH32 0x636F6D70496E636F6D65506572426C6F636B4578700000000000000000000000 PUSH1 0x0 DUP4 ADD MSTORE PUSH1 0x20 DUP3 ADD SWAP1 POP SWAP2 SWAP1 POP JUMP JUMPDEST PUSH1 0x0 PUSH2 0x32E1 PUSH1 0xD DUP4 PUSH2 0x38FF JUMP JUMPDEST SWAP2 POP PUSH32 0x636F6D70496E636F6D6545787000000000000000000000000000000000000000 PUSH1 0x0 DUP4 ADD MSTORE PUSH1 0x20 DUP3 ADD SWAP1 POP SWAP2 SWAP1 POP JUMP JUMPDEST PUSH1 0x0 PUSH2 0x3321 PUSH1 0xF DUP4 PUSH2 0x38FF JUMP JUMPDEST SWAP2 POP PUSH32 0x636F6D7052656C65617365644578700000000000000000000000000000000000 PUSH1 0x0 DUP4 ADD MSTORE PUSH1 0x20 DUP3 ADD SWAP1 POP SWAP2 SWAP1 POP JUMP JUMPDEST PUSH1 0x0 PUSH2 0x3361 PUSH1 0xB DUP4 PUSH2 0x38FF JUMP JUMPDEST SWAP2 POP PUSH32 0x746F74616C537570706C79000000000000000000000000000000000000000000 PUSH1 0x0 DUP4 ADD MSTORE PUSH1 0x20 DUP3 ADD SWAP1 POP SWAP2 SWAP1 POP JUMP JUMPDEST PUSH1 0x0 PUSH2 0x33A1 PUSH1 0x19 DUP4 PUSH2 0x38FF JUMP JUMPDEST SWAP2 POP PUSH32 0x756E6465726C79696E67546F6B656E42616C616E636545787000000000000000 PUSH1 0x0 DUP4 ADD MSTORE PUSH1 0x20 DUP3 ADD SWAP1 POP SWAP2 SWAP1 POP JUMP JUMPDEST PUSH1 0x0 PUSH2 0x33E1 PUSH1 0x4 DUP4 PUSH2 0x38FF JUMP JUMPDEST SWAP2 POP PUSH32 0x434F4D5000000000000000000000000000000000000000000000000000000000 PUSH1 0x0 DUP4 ADD MSTORE PUSH1 0x20 DUP3 ADD SWAP1 POP SWAP2 SWAP1 POP JUMP JUMPDEST PUSH1 0x0 PUSH2 0x3421 PUSH1 0x15 DUP4 PUSH2 0x38FF JUMP JUMPDEST SWAP2 POP PUSH32 0x636F6D70496E636F6D654F6E537570706C794578700000000000000000000000 PUSH1 0x0 DUP4 ADD MSTORE PUSH1 0x20 DUP3 ADD SWAP1 POP SWAP2 SWAP1 POP JUMP JUMPDEST PUSH1 0x40 DUP3 ADD PUSH1 0x0 DUP3 ADD MLOAD PUSH2 0x346A PUSH1 0x0 DUP6 ADD DUP3 PUSH2 0x349F JUMP JUMPDEST POP PUSH1 0x20 DUP3 ADD MLOAD PUSH2 0x347D PUSH1 0x20 DUP6 ADD DUP3 PUSH2 0x349F JUMP JUMPDEST POP POP POP POP JUMP JUMPDEST PUSH1 0x20 DUP3 ADD PUSH1 0x0 DUP3 ADD MLOAD PUSH2 0x3499 PUSH1 0x0 DUP6 ADD DUP3 PUSH2 0x349F JUMP JUMPDEST POP POP POP POP JUMP JUMPDEST PUSH2 0x34A8 DUP2 PUSH2 0x39A2 JUMP JUMPDEST DUP3 MSTORE POP POP JUMP JUMPDEST PUSH2 0x34B7 DUP2 PUSH2 0x39A2 JUMP JUMPDEST DUP3 MSTORE POP POP JUMP JUMPDEST PUSH1 0x0 PUSH2 0x34C9 DUP3 DUP5 PUSH2 0x31AA JUMP JUMPDEST SWAP2 POP DUP2 SWAP1 POP SWAP3 SWAP2 POP POP JUMP JUMPDEST PUSH1 0x0 PUSH1 0x20 DUP3 ADD SWAP1 POP PUSH2 0x34E9 PUSH1 0x0 DUP4 ADD DUP5 PUSH2 0x3053 JUMP JUMPDEST SWAP3 SWAP2 POP POP JUMP JUMPDEST PUSH1 0x0 PUSH1 0x40 DUP3 ADD SWAP1 POP DUP2 DUP2 SUB PUSH1 0x0 DUP4 ADD MSTORE PUSH2 0x3509 DUP2 DUP6 PUSH2 0x3062 JUMP JUMPDEST SWAP1 POP DUP2 DUP2 SUB PUSH1 0x20 DUP4 ADD MSTORE PUSH2 0x351D DUP2 DUP5 PUSH2 0x30D7 JUMP JUMPDEST SWAP1 POP SWAP4 SWAP3 POP POP POP JUMP JUMPDEST PUSH1 0x0 PUSH1 0x20 DUP3 ADD SWAP1 POP PUSH2 0x353B PUSH1 0x0 DUP4 ADD DUP5 PUSH2 0x3135 JUMP JUMPDEST SWAP3 SWAP2 POP POP JUMP JUMPDEST PUSH1 0x0 PUSH1 0x60 DUP3 ADD SWAP1 POP PUSH2 0x3556 PUSH1 0x0 DUP4 ADD DUP7 PUSH2 0x3144 JUMP JUMPDEST PUSH2 0x3563 PUSH1 0x20 DUP4 ADD DUP6 PUSH2 0x3153 JUMP JUMPDEST PUSH2 0x3570 PUSH1 0x40 DUP4 ADD DUP5 PUSH2 0x3053 JUMP JUMPDEST SWAP5 SWAP4 POP POP POP POP JUMP JUMPDEST PUSH1 0x0 PUSH1 0x40 DUP3 ADD SWAP1 POP PUSH2 0x358D PUSH1 0x0 DUP4 ADD DUP6 PUSH2 0x3162 JUMP JUMPDEST PUSH2 0x359A PUSH1 0x20 DUP4 ADD DUP5 PUSH2 0x3483 JUMP JUMPDEST SWAP4 SWAP3 POP POP POP JUMP JUMPDEST PUSH1 0x0 PUSH1 0x20 DUP3 ADD SWAP1 POP DUP2 DUP2 SUB PUSH1 0x0 DUP4 ADD MSTORE PUSH2 0x35BB DUP2 DUP5 PUSH2 0x3171 JUMP JUMPDEST SWAP1 POP SWAP3 SWAP2 POP POP JUMP JUMPDEST PUSH1 0x0 PUSH1 0x40 DUP3 ADD SWAP1 POP DUP2 DUP2 SUB PUSH1 0x0 DUP4 ADD MSTORE PUSH2 0x35DC DUP2 PUSH2 0x3214 JUMP JUMPDEST SWAP1 POP PUSH2 0x35EB PUSH1 0x20 DUP4 ADD DUP5 PUSH2 0x34AE JUMP JUMPDEST SWAP3 SWAP2 POP POP JUMP JUMPDEST PUSH1 0x0 PUSH1 0x20 DUP3 ADD SWAP1 POP DUP2 DUP2 SUB PUSH1 0x0 DUP4 ADD MSTORE PUSH2 0x360A DUP2 PUSH2 0x3254 JUMP JUMPDEST SWAP1 POP SWAP2 SWAP1 POP JUMP JUMPDEST PUSH1 0x0 PUSH1 0x40 DUP3 ADD SWAP1 POP DUP2 DUP2 SUB PUSH1 0x0 DUP4 ADD MSTORE PUSH2 0x362A DUP2 PUSH2 0x3294 JUMP JUMPDEST SWAP1 POP PUSH2 0x3639 PUSH1 0x20 DUP4 ADD DUP5 PUSH2 0x34AE JUMP JUMPDEST SWAP3 SWAP2 POP POP JUMP JUMPDEST PUSH1 0x0 PUSH1 0x40 DUP3 ADD SWAP1 POP DUP2 DUP2 SUB PUSH1 0x0 DUP4 ADD MSTORE PUSH2 0x3658 DUP2 PUSH2 0x32D4 JUMP JUMPDEST SWAP1 POP PUSH2 0x3667 PUSH1 0x20 DUP4 ADD DUP5 PUSH2 0x34AE JUMP JUMPDEST SWAP3 SWAP2 POP POP JUMP JUMPDEST PUSH1 0x0 PUSH1 0x40 DUP3 ADD SWAP1 POP DUP2 DUP2 SUB PUSH1 0x0 DUP4 ADD MSTORE PUSH2 0x3686 DUP2 PUSH2 0x3314 JUMP JUMPDEST SWAP1 POP PUSH2 0x3695 PUSH1 0x20 DUP4 ADD DUP5 PUSH2 0x34AE JUMP JUMPDEST SWAP3 SWAP2 POP POP JUMP JUMPDEST PUSH1 0x0 PUSH1 0x40 DUP3 ADD SWAP1 POP DUP2 DUP2 SUB PUSH1 0x0 DUP4 ADD MSTORE PUSH2 0x36B4 DUP2 PUSH2 0x3354 JUMP JUMPDEST SWAP1 POP PUSH2 0x36C3 PUSH1 0x20 DUP4 ADD DUP5 PUSH2 0x34AE JUMP JUMPDEST SWAP3 SWAP2 POP POP JUMP JUMPDEST PUSH1 0x0 PUSH1 0x40 DUP3 ADD SWAP1 POP DUP2 DUP2 SUB PUSH1 0x0 DUP4 ADD MSTORE PUSH2 0x36E2 DUP2 PUSH2 0x3394 JUMP JUMPDEST SWAP1 POP PUSH2 0x36F1 PUSH1 0x20 DUP4 ADD DUP5 PUSH2 0x34AE JUMP JUMPDEST SWAP3 SWAP2 POP POP JUMP JUMPDEST PUSH1 0x0 PUSH1 0x20 DUP3 ADD SWAP1 POP DUP2 DUP2 SUB PUSH1 0x0 DUP4 ADD MSTORE PUSH2 0x3710 DUP2 PUSH2 0x33D4 JUMP JUMPDEST SWAP1 POP SWAP2 SWAP1 POP JUMP JUMPDEST PUSH1 0x0 PUSH1 0x40 DUP3 ADD SWAP1 POP DUP2 DUP2 SUB PUSH1 0x0 DUP4 ADD MSTORE PUSH2 0x3730 DUP2 PUSH2 0x3414 JUMP JUMPDEST SWAP1 POP PUSH2 0x373F PUSH1 0x20 DUP4 ADD DUP5 PUSH2 0x34AE JUMP JUMPDEST SWAP3 SWAP2 POP POP JUMP JUMPDEST PUSH1 0x0 PUSH1 0x40 DUP3 ADD SWAP1 POP PUSH2 0x375A PUSH1 0x0 DUP4 ADD DUP5 PUSH2 0x3454 JUMP JUMPDEST SWAP3 SWAP2 POP POP JUMP JUMPDEST PUSH1 0x0 PUSH1 0x20 DUP3 ADD SWAP1 POP PUSH2 0x3775 PUSH1 0x0 DUP4 ADD DUP5 PUSH2 0x34AE JUMP JUMPDEST SWAP3 SWAP2 POP POP JUMP JUMPDEST PUSH1 0x0 PUSH1 0x60 DUP3 ADD SWAP1 POP PUSH2 0x3790 PUSH1 0x0 DUP4 ADD DUP7 PUSH2 0x34AE JUMP JUMPDEST DUP2 DUP2 SUB PUSH1 0x20 DUP4 ADD MSTORE PUSH2 0x37A2 DUP2 DUP6 PUSH2 0x3171 JUMP JUMPDEST SWAP1 POP PUSH2 0x37B1 PUSH1 0x40 DUP4 ADD DUP5 PUSH2 0x34AE JUMP JUMPDEST SWAP5 SWAP4 POP POP POP POP JUMP JUMPDEST PUSH1 0x0 PUSH1 0x40 MLOAD SWAP1 POP DUP2 DUP2 ADD DUP2 DUP2 LT PUSH8 0xFFFFFFFFFFFFFFFF DUP3 GT OR ISZERO PUSH2 0x37DC JUMPI PUSH1 0x0 DUP1 REVERT JUMPDEST DUP1 PUSH1 0x40 MSTORE POP SWAP2 SWAP1 POP JUMP JUMPDEST PUSH1 0x0 PUSH8 0xFFFFFFFFFFFFFFFF DUP3 GT ISZERO PUSH2 0x37FD JUMPI PUSH1 0x0 DUP1 REVERT JUMPDEST PUSH1 0x20 DUP3 MUL SWAP1 POP PUSH1 0x20 DUP2 ADD SWAP1 POP SWAP2 SWAP1 POP JUMP JUMPDEST PUSH1 0x0 PUSH8 0xFFFFFFFFFFFFFFFF DUP3 GT ISZERO PUSH2 0x3825 JUMPI PUSH1 0x0 DUP1 REVERT JUMPDEST PUSH1 0x1F NOT PUSH1 0x1F DUP4 ADD AND SWAP1 POP PUSH1 0x20 DUP2 ADD SWAP1 POP SWAP2 SWAP1 POP JUMP JUMPDEST PUSH1 0x0 PUSH8 0xFFFFFFFFFFFFFFFF DUP3 GT ISZERO PUSH2 0x3851 JUMPI PUSH1 0x0 DUP1 REVERT JUMPDEST PUSH1 0x1F NOT PUSH1 0x1F DUP4 ADD AND SWAP1 POP PUSH1 0x20 DUP2 ADD SWAP1 POP SWAP2 SWAP1 POP JUMP JUMPDEST PUSH1 0x0 DUP2 SWAP1 POP PUSH1 0x20 DUP3 ADD SWAP1 POP SWAP2 SWAP1 POP JUMP JUMPDEST PUSH1 0x0 DUP2 SWAP1 POP PUSH1 0x20 DUP3 ADD SWAP1 POP SWAP2 SWAP1 POP JUMP JUMPDEST PUSH1 0x0 DUP2 MLOAD SWAP1 POP SWAP2 SWAP1 POP JUMP JUMPDEST PUSH1 0x0 DUP2 MLOAD SWAP1 POP SWAP2 SWAP1 POP JUMP JUMPDEST PUSH1 0x0 DUP2 MLOAD SWAP1 POP SWAP2 SWAP1 POP JUMP JUMPDEST PUSH1 0x0 DUP2 MLOAD SWAP1 POP SWAP2 SWAP1 POP JUMP JUMPDEST PUSH1 0x0 PUSH1 0x20 DUP3 ADD SWAP1 POP SWAP2 SWAP1 POP JUMP JUMPDEST PUSH1 0x0 PUSH1 0x20 DUP3 ADD SWAP1 POP SWAP2 SWAP1 POP JUMP JUMPDEST PUSH1 0x0 DUP3 DUP3 MSTORE PUSH1 0x20 DUP3 ADD SWAP1 POP SWAP3 SWAP2 POP POP JUMP JUMPDEST PUSH1 0x0 DUP3 DUP3 MSTORE PUSH1 0x20 DUP3 ADD SWAP1 POP SWAP3 SWAP2 POP POP JUMP JUMPDEST PUSH1 0x0 DUP3 DUP3 MSTORE PUSH1 0x20 DUP3 ADD SWAP1 POP SWAP3 SWAP2 POP POP JUMP JUMPDEST PUSH1 0x0 DUP3 DUP3 MSTORE PUSH1 0x20 DUP3 ADD SWAP1 POP SWAP3 SWAP2 POP POP JUMP JUMPDEST PUSH1 0x0 DUP2 SWAP1 POP SWAP3 SWAP2 POP POP JUMP JUMPDEST PUSH1 0x0 PUSH2 0x3926 DUP3 PUSH2 0x3982 JUMP JUMPDEST SWAP1 POP SWAP2 SWAP1 POP JUMP JUMPDEST PUSH1 0x0 PUSH2 0x3938 DUP3 PUSH2 0x3982 JUMP JUMPDEST SWAP1 POP SWAP2 SWAP1 POP JUMP JUMPDEST PUSH1 0x0 DUP2 ISZERO ISZERO SWAP1 POP SWAP2 SWAP1 POP JUMP JUMPDEST PUSH1 0x0 PUSH2 0x3956 DUP3 PUSH2 0x391B JUMP JUMPDEST SWAP1 POP SWAP2 SWAP1 POP JUMP JUMPDEST PUSH1 0x0 PUSH2 0x3968 DUP3 PUSH2 0x392D JUMP JUMPDEST SWAP1 POP SWAP2 SWAP1 POP JUMP JUMPDEST PUSH1 0x0 DUP2 SWAP1 POP PUSH2 0x397D DUP3 PUSH2 0x3A59 JUMP JUMPDEST SWAP2 SWAP1 POP JUMP JUMPDEST PUSH1 0x0 PUSH20 0xFFFFFFFFFFFFFFFFFFFFFFFFFFFFFFFFFFFFFFFF DUP3 AND SWAP1 POP SWAP2 SWAP1 POP JUMP JUMPDEST PUSH1 0x0 DUP2 SWAP1 POP SWAP2 SWAP1 POP JUMP JUMPDEST PUSH1 0x0 PUSH2 0x39B7 DUP3 PUSH2 0x39BE JUMP JUMPDEST SWAP1 POP SWAP2 SWAP1 POP JUMP JUMPDEST PUSH1 0x0 PUSH2 0x39C9 DUP3 PUSH2 0x3982 JUMP JUMPDEST SWAP1 POP SWAP2 SWAP1 POP JUMP JUMPDEST PUSH1 0x0 PUSH2 0x39DB DUP3 PUSH2 0x39E2 JUMP JUMPDEST SWAP1 POP SWAP2 SWAP1 POP JUMP JUMPDEST PUSH1 0x0 PUSH2 0x39ED DUP3 PUSH2 0x3982 JUMP JUMPDEST SWAP1 POP SWAP2 SWAP1 POP JUMP JUMPDEST PUSH1 0x0 PUSH2 0x39FF DUP3 PUSH2 0x396F JUMP JUMPDEST SWAP1 POP SWAP2 SWAP1 POP JUMP JUMPDEST DUP3 DUP2 DUP4 CALLDATACOPY PUSH1 0x0 DUP4 DUP4 ADD MSTORE POP POP POP JUMP JUMPDEST PUSH1 0x0 JUMPDEST DUP4 DUP2 LT ISZERO PUSH2 0x3A33 JUMPI DUP1 DUP3 ADD MLOAD DUP2 DUP5 ADD MSTORE PUSH1 0x20 DUP2 ADD SWAP1 POP PUSH2 0x3A18 JUMP JUMPDEST DUP4 DUP2 GT ISZERO PUSH2 0x3A42 JUMPI PUSH1 0x0 DUP5 DUP5 ADD MSTORE JUMPDEST POP POP POP POP JUMP JUMPDEST PUSH1 0x0 PUSH1 0x1F NOT PUSH1 0x1F DUP4 ADD AND SWAP1 POP SWAP2 SWAP1 POP JUMP JUMPDEST PUSH1 0x5 DUP2 LT PUSH2 0x3A63 JUMPI INVALID JUMPDEST POP JUMP JUMPDEST PUSH2 0x3A6F DUP2 PUSH2 0x391B JUMP JUMPDEST DUP2 EQ PUSH2 0x3A7A JUMPI PUSH1 0x0 DUP1 REVERT JUMPDEST POP JUMP JUMPDEST PUSH2 0x3A86 DUP2 PUSH2 0x393F JUMP JUMPDEST DUP2 EQ PUSH2 0x3A91 JUMPI PUSH1 0x0 DUP1 REVERT JUMPDEST POP JUMP JUMPDEST PUSH2 0x3A9D DUP2 PUSH2 0x394B JUMP JUMPDEST DUP2 EQ PUSH2 0x3AA8 JUMPI PUSH1 0x0 DUP1 REVERT JUMPDEST POP JUMP JUMPDEST PUSH2 0x3AB4 DUP2 PUSH2 0x395D JUMP JUMPDEST DUP2 EQ PUSH2 0x3ABF JUMPI PUSH1 0x0 DUP1 REVERT JUMPDEST POP JUMP JUMPDEST PUSH2 0x3ACB DUP2 PUSH2 0x39A2 JUMP JUMPDEST DUP2 EQ PUSH2 0x3AD6 JUMPI PUSH1 0x0 DUP1 REVERT JUMPDEST POP JUMP INVALID LOG3 PUSH6 0x627A7A723158 KECCAK256 PUSH32 0xAAE5FE9EBA252729A38E85AB906DE511D7FD757B06D942E18ED413913D0EB66C PUSH6 0x78706572696D PUSH6 0x6E74616CF564 PUSH20 0x6F6C634300051100400000000000000000000000 "
		},
		"gasEstimates": {
			"creation": {
				"codeDepositCost": "3026400",
				"executionCost": "3325",
				"totalCost": "3029725"
			},
			"external": {
				"TestCompIncomeByCToken(address,address,uint256)": "infinite",
				"_become(address)": "infinite",
				"admin()": "1302",
				"compFarmingSummaryImplmentation()": "1303",
				"compIncomeByCToken(address,address,uint256)": "infinite",
				"compProfile(address)": "infinite",
				"compareStrings(string,string)": "infinite",
				"estimatedNumberOfBlocksPerYear()": "infinite",
				"getPriceCOMP()": "infinite",
				"getPriceInUSD(address)": "infinite",
				"getVersion()": "infinite",
				"pendingAdmin()": "1281",
				"pendingCompFarmingSummaryImplmentation()": "1280",
				"sortedCompDistSpeedAllMarkets()": "infinite",
				"totalCompIncomePerYear(address)": "infinite"
			},
			"internal": {
				"appendStrings(string memory,string memory)": "infinite",
				"cTokenNameList()": "infinite",
				"compDistSpeed(address)": "infinite",
				"contractSymbolToAddressMap(string memory)": "infinite",
				"getAccountSnapshot(address,address)": "infinite",
				"getCEthAddress()": "23",
				"getCTokenTotalSupply(address)": "infinite",
				"getCompAddress()": "23",
				"getCompoundLensAddress()": "23",
				"getTotalBorrow(address)": "infinite",
				"getTotalSupply(address)": "infinite",
				"getUniswapAnchoredViewAddress()": "23",
				"getUnitrollerAddress()": "23",
				"hasCToken(address,string memory[] memory)": "infinite",
				"mantissaOfExchangeRate(address)": "infinite",
				"quickSort(string memory[] memory,uint256[] memory,uint256,uint256)": "infinite",
				"quickSortDESC(string memory[] memory,uint256[] memory)": "infinite",
				"totalCompIncome(address,uint256)": "infinite",
				"uint2str(uint256)": "infinite",
				"underlyingDecimals(address)": "infinite"
			}
		},
		"methodIdentifiers": {
			"TestCompIncomeByCToken(address,address,uint256)": "079d242a",
			"_become(address)": "1d504dc6",
			"admin()": "f851a440",
			"compFarmingSummaryImplmentation()": "8ebc0627",
			"compIncomeByCToken(address,address,uint256)": "2f22ff6a",
			"compProfile(address)": "1f78f57e",
			"compareStrings(string,string)": "bed34bba",
			"estimatedNumberOfBlocksPerYear()": "580723ff",
			"getPriceCOMP()": "4a0beecb",
			"getPriceInUSD(address)": "02266147",
			"getVersion()": "0d8e6e2c",
			"pendingAdmin()": "26782247",
			"pendingCompFarmingSummaryImplmentation()": "dd4a9aa7",
			"sortedCompDistSpeedAllMarkets()": "ce9d4aaa",
			"totalCompIncomePerYear(address)": "3b4fef63"
		}
	},
	"abi": [
		{
			"inputs": [],
			"payable": false,
			"stateMutability": "nonpayable",
			"type": "constructor"
		},
		{
			"anonymous": false,
			"inputs": [
				{
					"indexed": false,
					"internalType": "uint256",
					"name": "error",
					"type": "uint256"
				},
				{
					"indexed": false,
					"internalType": "uint256",
					"name": "info",
					"type": "uint256"
				},
				{
					"indexed": false,
					"internalType": "uint256",
					"name": "detail",
					"type": "uint256"
				}
			],
			"name": "Failure",
			"type": "event"
		},
		{
			"anonymous": false,
			"inputs": [
				{
					"indexed": false,
					"internalType": "string",
					"name": "",
					"type": "string"
				},
				{
					"indexed": false,
					"internalType": "uint256",
					"name": "",
					"type": "uint256"
				}
			],
			"name": "showVar",
			"type": "event"
		},
		{
			"constant": false,
			"inputs": [
				{
					"internalType": "address",
					"name": "_account",
					"type": "address"
				},
				{
					"internalType": "address",
					"name": "cTokenAddress",
					"type": "address"
				},
				{
					"internalType": "uint256",
					"name": "numberOfBlocks",
					"type": "uint256"
				}
			],
			"name": "TestCompIncomeByCToken",
			"outputs": [
				{
					"internalType": "enum CompFarmingSummaryErrorReporter.Error",
					"name": "",
					"type": "uint8"
				},
				{
					"components": [
						{
							"internalType": "uint256",
							"name": "mantissa",
							"type": "uint256"
						}
					],
					"internalType": "struct Exponential.Exp",
					"name": "",
					"type": "tuple"
				}
			],
			"payable": false,
			"stateMutability": "nonpayable",
			"type": "function"
		},
		{
			"constant": false,
			"inputs": [
				{
					"internalType": "contract CompFarmingSummaryProxy",
					"name": "proxy",
					"type": "address"
				}
			],
			"name": "_become",
			"outputs": [],
			"payable": false,
			"stateMutability": "nonpayable",
			"type": "function"
		},
		{
			"constant": true,
			"inputs": [],
			"name": "admin",
			"outputs": [
				{
					"internalType": "address",
					"name": "",
					"type": "address"
				}
			],
			"payable": false,
			"stateMutability": "view",
			"type": "function"
		},
		{
			"constant": true,
			"inputs": [],
			"name": "compFarmingSummaryImplmentation",
			"outputs": [
				{
					"internalType": "address",
					"name": "",
					"type": "address"
				}
			],
			"payable": false,
			"stateMutability": "view",
			"type": "function"
		},
		{
			"constant": true,
			"inputs": [
				{
					"internalType": "address",
					"name": "_account",
					"type": "address"
				},
				{
					"internalType": "address",
					"name": "cTokenAddress",
					"type": "address"
				},
				{
					"internalType": "uint256",
					"name": "numberOfBlocks",
					"type": "uint256"
				}
			],
			"name": "compIncomeByCToken",
			"outputs": [
				{
					"internalType": "enum CompFarmingSummaryErrorReporter.Error",
					"name": "",
					"type": "uint8"
				},
				{
					"components": [
						{
							"internalType": "uint256",
							"name": "mantissa",
							"type": "uint256"
						}
					],
					"internalType": "struct Exponential.Exp",
					"name": "",
					"type": "tuple"
				}
			],
			"payable": false,
			"stateMutability": "view",
			"type": "function"
		},
		{
			"constant": false,
			"inputs": [
				{
					"internalType": "address",
					"name": "account",
					"type": "address"
				}
			],
			"name": "compProfile",
			"outputs": [
				{
					"components": [
						{
							"internalType": "uint256",
							"name": "balance",
							"type": "uint256"
						},
						{
							"internalType": "uint256",
							"name": "yetToClaimed",
							"type": "uint256"
						}
					],
					"internalType": "struct CompFarmingSummaryInterface.CompProfile",
					"name": "_compProfile",
					"type": "tuple"
				}
			],
			"payable": false,
			"stateMutability": "nonpayable",
			"type": "function"
		},
		{
			"constant": true,
			"inputs": [
				{
					"internalType": "string",
					"name": "a",
					"type": "string"
				},
				{
					"internalType": "string",
					"name": "b",
					"type": "string"
				}
			],
			"name": "compareStrings",
			"outputs": [
				{
					"internalType": "bool",
					"name": "",
					"type": "bool"
				}
			],
			"payable": false,
			"stateMutability": "view",
			"type": "function"
		},
		{
			"constant": true,
			"inputs": [],
			"name": "estimatedNumberOfBlocksPerYear",
			"outputs": [
				{
					"internalType": "uint256",
					"name": "numberOfBlocksPerYearMantissa",
					"type": "uint256"
				}
			],
			"payable": false,
			"stateMutability": "view",
			"type": "function"
		},
		{
			"constant": true,
			"inputs": [],
			"name": "getPriceCOMP",
			"outputs": [
				{
					"internalType": "uint256",
					"name": "priceInUSD",
					"type": "uint256"
				}
			],
			"payable": false,
			"stateMutability": "view",
			"type": "function"
		},
		{
			"constant": true,
			"inputs": [
				{
					"internalType": "address",
					"name": "cTokenAddress",
					"type": "address"
				}
			],
			"name": "getPriceInUSD",
			"outputs": [
				{
					"internalType": "uint256",
					"name": "priceInUSD",
					"type": "uint256"
				}
			],
			"payable": false,
			"stateMutability": "view",
			"type": "function"
		},
		{
			"constant": true,
			"inputs": [],
			"name": "getVersion",
			"outputs": [
				{
					"internalType": "string",
					"name": "",
					"type": "string"
				}
			],
			"payable": false,
			"stateMutability": "view",
			"type": "function"
		},
		{
			"constant": true,
			"inputs": [],
			"name": "pendingAdmin",
			"outputs": [
				{
					"internalType": "address",
					"name": "",
					"type": "address"
				}
			],
			"payable": false,
			"stateMutability": "view",
			"type": "function"
		},
		{
			"constant": true,
			"inputs": [],
			"name": "pendingCompFarmingSummaryImplmentation",
			"outputs": [
				{
					"internalType": "address",
					"name": "",
					"type": "address"
				}
			],
			"payable": false,
			"stateMutability": "view",
			"type": "function"
		},
		{
			"constant": true,
			"inputs": [],
			"name": "sortedCompDistSpeedAllMarkets",
			"outputs": [
				{
					"internalType": "string[]",
					"name": "sortedCTokenNameList",
					"type": "string[]"
				},
				{
					"internalType": "uint256[]",
					"name": "sortedCompSpeedList",
					"type": "uint256[]"
				}
			],
			"payable": false,
			"stateMutability": "view",
			"type": "function"
		},
		{
			"constant": true,
			"inputs": [
				{
					"internalType": "address",
					"name": "_account",
					"type": "address"
				}
			],
			"name": "totalCompIncomePerYear",
			"outputs": [
				{
					"internalType": "uint256",
					"name": "errCode",
					"type": "uint256"
				},
				{
					"internalType": "string",
					"name": "",
					"type": "string"
				},
				{
					"internalType": "uint256",
					"name": "totalCompIncomeMantissa",
					"type": "uint256"
				}
			],
			"payable": false,
			"stateMutability": "view",
			"type": "function"
		}
	]
}