{
  "contractName": "CompFarmingSummaryV1",
  "abi": [
    {
      "inputs": [],
      "payable": false,
      "stateMutability": "nonpayable",
      "type": "constructor"
    },
    {
      "anonymous": false,
      "inputs": [
        {
          "indexed": false,
          "internalType": "uint256",
          "name": "error",
          "type": "uint256"
        },
        {
          "indexed": false,
          "internalType": "uint256",
          "name": "info",
          "type": "uint256"
        },
        {
          "indexed": false,
          "internalType": "uint256",
          "name": "detail",
          "type": "uint256"
        }
      ],
      "name": "Failure",
      "type": "event"
    },
    {
      "constant": false,
      "inputs": [
        {
          "internalType": "uint256",
          "name": "i",
          "type": "uint256"
        }
      ],
      "name": "addLog",
      "outputs": [],
      "payable": false,
      "stateMutability": "nonpayable",
      "type": "function"
    },
    {
      "constant": false,
      "inputs": [
        {
          "internalType": "address",
          "name": "a",
          "type": "address"
        }
      ],
      "name": "addLog",
      "outputs": [],
      "payable": false,
      "stateMutability": "nonpayable",
      "type": "function"
    },
    {
      "constant": false,
      "inputs": [
        {
          "internalType": "string",
          "name": "s",
          "type": "string"
        }
      ],
      "name": "addLog",
      "outputs": [],
      "payable": false,
      "stateMutability": "nonpayable",
      "type": "function"
    },
    {
      "constant": true,
      "inputs": [],
      "name": "admin",
      "outputs": [
        {
          "internalType": "address",
          "name": "",
          "type": "address"
        }
      ],
      "payable": false,
      "stateMutability": "view",
      "type": "function"
    },
    {
      "constant": false,
      "inputs": [],
      "name": "clearLogs",
      "outputs": [],
      "payable": false,
      "stateMutability": "nonpayable",
      "type": "function"
    },
    {
      "constant": true,
      "inputs": [],
      "name": "compFarmingSummaryImplmentation",
      "outputs": [
        {
          "internalType": "address",
          "name": "",
          "type": "address"
        }
      ],
      "payable": false,
      "stateMutability": "view",
      "type": "function"
    },
    {
      "constant": true,
      "inputs": [],
      "name": "getLoggings_address",
      "outputs": [
        {
          "internalType": "address[]",
          "name": "",
          "type": "address[]"
        }
      ],
      "payable": false,
      "stateMutability": "view",
      "type": "function"
    },
    {
      "constant": true,
      "inputs": [],
      "name": "getLoggings_uint",
      "outputs": [
        {
          "internalType": "uint256[]",
          "name": "",
          "type": "uint256[]"
        }
      ],
      "payable": false,
      "stateMutability": "view",
      "type": "function"
    },
    {
      "constant": true,
      "inputs": [],
      "name": "getLoggins_string",
      "outputs": [
        {
          "internalType": "string[]",
          "name": "",
          "type": "string[]"
        }
      ],
      "payable": false,
      "stateMutability": "view",
      "type": "function"
    },
    {
      "constant": true,
      "inputs": [],
      "name": "pendingAdmin",
      "outputs": [
        {
          "internalType": "address",
          "name": "",
          "type": "address"
        }
      ],
      "payable": false,
      "stateMutability": "view",
      "type": "function"
    },
    {
      "constant": true,
      "inputs": [],
      "name": "pendingCompFarmingSummaryImplmentation",
      "outputs": [
        {
          "internalType": "address",
          "name": "",
          "type": "address"
        }
      ],
      "payable": false,
      "stateMutability": "view",
      "type": "function"
    },
    {
      "constant": true,
      "inputs": [],
      "name": "getPriceCOMP",
      "outputs": [
        {
          "internalType": "uint256",
          "name": "priceInUSD",
          "type": "uint256"
        }
      ],
      "payable": false,
      "stateMutability": "view",
      "type": "function"
    },
    {
      "constant": true,
      "inputs": [],
      "name": "sortedCompDistSpeedAllMarkets",
      "outputs": [
        {
          "internalType": "string[]",
          "name": "sortedCTokenNameList",
          "type": "string[]"
        },
        {
          "internalType": "uint256[]",
          "name": "sortedCompSpeedList",
          "type": "uint256[]"
        }
      ],
      "payable": false,
      "stateMutability": "view",
      "type": "function"
    },
    {
      "constant": false,
      "inputs": [
        {
          "internalType": "address",
          "name": "account",
          "type": "address"
        }
      ],
      "name": "compProfile",
      "outputs": [
        {
          "components": [
            {
              "internalType": "uint256",
              "name": "balance",
              "type": "uint256"
            },
            {
              "internalType": "uint256",
              "name": "yetToClaimed",
              "type": "uint256"
            }
          ],
          "internalType": "struct CompFarmingSummaryInterface.CompProfile",
          "name": "_compProfile",
          "type": "tuple"
        }
      ],
      "payable": false,
      "stateMutability": "nonpayable",
      "type": "function"
    },
    {
      "constant": true,
      "inputs": [
        {
          "internalType": "address",
          "name": "_account",
          "type": "address"
        }
      ],
      "name": "totalCompIncomePerYear",
      "outputs": [
        {
          "internalType": "uint256",
          "name": "errCode",
          "type": "uint256"
        },
        {
          "internalType": "string",
          "name": "",
          "type": "string"
        },
        {
          "internalType": "uint256",
          "name": "totalCompIncomeMantissa",
          "type": "uint256"
        }
      ],
      "payable": false,
      "stateMutability": "view",
      "type": "function"
    },
    {
      "constant": true,
      "inputs": [
        {
          "internalType": "address",
          "name": "cTokenAddress",
          "type": "address"
        }
      ],
      "name": "getPriceInUSD",
      "outputs": [
        {
          "internalType": "uint256",
          "name": "priceInUSD",
          "type": "uint256"
        }
      ],
      "payable": false,
      "stateMutability": "view",
      "type": "function"
    },
    {
      "constant": true,
      "inputs": [
        {
          "internalType": "string",
          "name": "a",
          "type": "string"
        },
        {
          "internalType": "string",
          "name": "b",
          "type": "string"
        }
      ],
      "name": "compareStrings",
      "outputs": [
        {
          "internalType": "bool",
          "name": "",
          "type": "bool"
        }
      ],
      "payable": false,
      "stateMutability": "pure",
      "type": "function"
    },
    {
      "constant": false,
      "inputs": [
        {
          "internalType": "contract CompFarmingSummaryProxy",
          "name": "proxy",
          "type": "address"
        }
      ],
      "name": "_become",
      "outputs": [],
      "payable": false,
      "stateMutability": "nonpayable",
      "type": "function"
    },
    {
      "constant": true,
      "inputs": [],
      "name": "getVersion",
      "outputs": [
        {
          "internalType": "string",
          "name": "",
          "type": "string"
        }
      ],
      "payable": false,
      "stateMutability": "pure",
      "type": "function"
    }
  ],
  "bytecode": "0x608060405234801561001057600080fd5b5061391c806100206000396000f3fe608060405234801561001057600080fd5b50600436106101215760003560e01c80638ebc0627116100ad578063ce9d4aaa11610071578063ce9d4aaa146102f8578063dd4a9aa714610317578063f453f39214610335578063f47fc1f214610353578063f851a4401461037157610121565b80638ebc06271461026657806391dc956d146102845780639486baae146102a0578063bed34bba146102aa578063c0b0c9bf146102da57610121565b806326782247116100f457806326782247146101c05780633b4fef63146101de5780633d1fee84146102105780634a0beecb1461022c5780634ca219271461024a57610121565b806302266147146101265780630d8e6e2c146101565780631d504dc6146101745780631f78f57e14610190575b600080fd5b610140600480360361013b9190810190612db4565b61038f565b60405161014d9190613559565b60405180910390f35b61015e61042d565b60405161016b91906134dc565b60405180910390f35b61018e60048036036101899190810190612e96565b61046a565b005b6101aa60048036036101a59190810190612db4565b61062c565b6040516101b7919061353e565b60405180910390f35b6101c861070a565b6040516101d591906133d2565b60405180910390f35b6101f860048036036101f39190810190612db4565b610730565b60405161020793929190613574565b60405180910390f35b61022a60048036036102259190810190612fd6565b6107d3565b005b610234610802565b6040516102419190613559565b60405180910390f35b610264600480360361025f9190810190612db4565b61089c565b005b61026e610905565b60405161027b91906133d2565b60405180910390f35b61029e60048036036102999190810190612f00565b61092b565b005b6102a861096d565b005b6102c460048036036102bf9190810190612f41565b610999565b6040516102d1919061348a565b60405180910390f35b6102e26109f2565b6040516102ef9190613468565b60405180910390f35b610300610a4a565b60405161030e929190613431565b60405180910390f35b61031f610b75565b60405161032c91906133d2565b60405180910390f35b61033d610b9b565b60405161034a91906133ed565b60405180910390f35b61035b610c29565b604051610368919061340f565b60405180910390f35b610379610d12565b60405161038691906133d2565b60405180910390f35b60008061039a610d37565b90508073ffffffffffffffffffffffffffffffffffffffff1663fc57d4df846040518263ffffffff1660e01b81526004016103d591906133d2565b60206040518083038186803b1580156103ed57600080fd5b505afa158015610401573d6000803e3d6000fd5b505050506040513d601f19601f820116820180604052506104259190810190612fff565b915050919050565b60606040518060400160405280600281526020017f7631000000000000000000000000000000000000000000000000000000000000815250905090565b8073ffffffffffffffffffffffffffffffffffffffff1663f851a4406040518163ffffffff1660e01b815260040160206040518083038186803b1580156104b057600080fd5b505afa1580156104c4573d6000803e3d6000fd5b505050506040513d601f19601f820116820180604052506104e89190810190612ddd565b73ffffffffffffffffffffffffffffffffffffffff163373ffffffffffffffffffffffffffffffffffffffff1614610555576040517f08c379a000000000000000000000000000000000000000000000000000000000815260040161054c906134fe565b60405180910390fd5b60008173ffffffffffffffffffffffffffffffffffffffff1663c1e803346040518163ffffffff1660e01b8152600401602060405180830381600087803b15801561059f57600080fd5b505af11580156105b3573d6000803e3d6000fd5b505050506040513d601f19601f820116820180604052506105d79190810190612fff565b9050600081146105e682610d53565b90610627576040517f08c379a000000000000000000000000000000000000000000000000000000000815260040161061e91906134dc565b60405180910390fd5b505050565b610634612811565b600061063e610e80565b905061064861282b565b8173ffffffffffffffffffffffffffffffffffffffff16631ea6374161066c610e9c565b610674610eb8565b876040518463ffffffff1660e01b8152600401610693939291906134a5565b608060405180830381600087803b1580156106ad57600080fd5b505af11580156106c1573d6000803e3d6000fd5b505050506040513d601f19601f820116820180604052506106e59190810190612fad565b9050806000015183600001818152505080606001518360200181815250505050919050565b600160009054906101000a900473ffffffffffffffffffffffffffffffffffffffff1681565b600060606000806060610741612869565b6107638761075e610750610ed4565b670de0b6b3a7640000610f36565b610f80565b9250925092506000600481111561077657fe5b83600481111561078257fe5b146107a75782600481111561079357fe5b8260008090509550955095505050506107cc565b6000816000015181915060405180602001604052806000815250909550955095505050505b9193909250565b600481908060018154018082558091505090600182039060005260206000200160009091929091909150555050565b60008061080d610d37565b90508073ffffffffffffffffffffffffffffffffffffffff1663fe2c61986040518163ffffffff1660e01b81526004016108469061351e565b60206040518083038186803b15801561085e57600080fd5b505afa158015610872573d6000803e3d6000fd5b505050506040513d601f19601f820116820180604052506108969190810190612fff565b91505090565b60068190806001815401808255809150509060018203906000526020600020016000909192909190916101000a81548173ffffffffffffffffffffffffffffffffffffffff021916908373ffffffffffffffffffffffffffffffffffffffff1602179055505050565b600260009054906101000a900473ffffffffffffffffffffffffffffffffffffffff1681565b600581908060018154018082558091505090600182039060005260206000200160009091929091909150908051906020019061096892919061287c565b505050565b6004600061097b91906128fc565b60056000610989919061291d565b60066000610997919061293e565b565b6000816040516020016109ac91906133bb565b60405160208183030381529060405280519060200120836040516020016109d391906133bb565b6040516020818303038152906040528051906020012014905092915050565b60606004805480602002602001604051908101604052809291908181526020018280548015610a4057602002820191906000526020600020905b815481526020019060010190808311610a2c575b5050505050905090565b6060806060610a576110e3565b905060608151604051908082528060200260200182016040528015610a9057816020015b6060815260200190600190039081610a7b5790505b50905060608251604051908082528060200260200182016040528015610ac55781602001602082028038833980820191505090505b509050610ad0612869565b60008090505b8451811015610b5a57610b03610afe868381518110610af157fe5b60200260200101516113d8565b611552565b9150848181518110610b1157fe5b6020026020010151848281518110610b2557fe5b60200260200101819052508160000151838281518110610b4157fe5b6020026020010181815250508080600101915050610ad6565b50610b658383611693565b8096508197505050505050509091565b600360009054906101000a900473ffffffffffffffffffffffffffffffffffffffff1681565b60606006805480602002602001604051908101604052809291908181526020018280548015610c1f57602002820191906000526020600020905b8160009054906101000a900473ffffffffffffffffffffffffffffffffffffffff1673ffffffffffffffffffffffffffffffffffffffff1681526020019060010190808311610bd5575b5050505050905090565b60606005805480602002602001604051908101604052809291908181526020016000905b82821015610d09578382906000526020600020018054600181600116156101000203166002900480601f016020809104026020016040519081016040528092919081815260200182805460018160011615610100020316600290048015610cf55780601f10610cca57610100808354040283529160200191610cf5565b820191906000526020600020905b815481529060010190602001808311610cd857829003601f168201915b505050505081526020019060010190610c4d565b50505050905090565b6000809054906101000a900473ffffffffffffffffffffffffffffffffffffffff1681565b600073922018674c12a7f0d394ebeef9b58f186cde13c1905090565b60606000821415610d9b576040518060400160405280600181526020017f30000000000000000000000000000000000000000000000000000000000000008152509050610e7b565b600082905060005b60008214610dc5578080600101915050600a8281610dbd57fe5b049150610da3565b6060816040519080825280601f01601f191660200182016040528015610dfa5781602001600182028038833980820191505090505b50905060006001830390505b60008614610e7357600a8681610e1857fe5b0660300160f81b82828060019003935081518110610e3257fe5b60200101907effffffffffffffffffffffffffffffffffffffffffffffffffffffffffffff1916908160001a905350600a8681610e6b57fe5b049550610e06565b819450505050505b919050565b600073d513d22422a3062bd342ae374b4b9c20e0a9a074905090565b600073c00e94cb662c3520282e6f5717214004a7f26888905090565b6000733d9819210a31b4961b30ef54be2aed79b9c9cd3b905090565b600080600e905060006301e1338090506000610eee612869565b610ef8838561189e565b9150915060006003811115610f0957fe5b826003811115610f1557fe5b14610f27576000945050505050610f33565b80600001519450505050505b90565b6000610f7883836040518060400160405280600e81526020017f646976696465206279207a65726f000000000000000000000000000000000000815250611972565b905092915050565b60006060610f8c612869565b6060610f966110e3565b90506000815190506000809050606082604051908082528060200260200182016040528015610fdf57816020015b610fcc61295f565b815260200190600190039081610fc45790505b50905060405180602001604052806000815250945060008090505b838110156110bc57606085828151811061101057fe5b6020026020010151905061102d8b611027836113d8565b8c6119cd565b80905084848151811061103c57fe5b6020026020010181905281955050506000600481111561105857fe5b84600481111561106457fe5b1461108f578381604051806020016040528060008152508090509850985098505050505050506110dc565b6110ac8784848151811061109f57fe5b6020026020010151611c40565b9650508080600101915050610ffa565b506000856040518060200160405280600081525090965096509650505050505b9250925092565b606060006110ef610eb8565b905060608173ffffffffffffffffffffffffffffffffffffffff1663b0772d0b6040518163ffffffff1660e01b815260040160006040518083038186803b15801561113957600080fd5b505afa15801561114d573d6000803e3d6000fd5b505050506040513d6000823e3d601f19601f820116820180604052506111769190810190612e06565b9050600080600080606085516040519080825280602002602001820160405280156111b557816020015b60608152602001906001900390816111a05790505b50905060008090505b865181101561134e578681815181106111d357fe5b602002602001015193508773ffffffffffffffffffffffffffffffffffffffff16638e8f294b856040518263ffffffff1660e01b815260040161121691906133d2565b60606040518083038186803b15801561122e57600080fd5b505afa158015611242573d6000803e3d6000fd5b505050506040513d601f19601f820116820180604052506112669190810190612e47565b9050809650819750505085801561127a5750845b1561134157600087828151811061128d57fe5b6020026020010151905060608173ffffffffffffffffffffffffffffffffffffffff166395d89b416040518163ffffffff1660e01b815260040160006040518083038186803b1580156112df57600080fd5b505afa1580156112f3573d6000803e3d6000fd5b505050506040513d6000823e3d601f19601f8201168201806040525061131c9190810190612ebf565b90508084868151811061132b57fe5b6020026020010181905250848060010195505050505b80806001019150506111be565b508160405190808252806020026020018201604052801561138357816020015b606081526020019060019003908161136e5790505b50975060008090505b88518110156113cd578181815181106113a157fe5b60200260200101518982815181106113b557fe5b6020026020010181905250808060010191505061138c565b505050505050505090565b6000806113e3610eb8565b905060608173ffffffffffffffffffffffffffffffffffffffff1663b0772d0b6040518163ffffffff1660e01b815260040160006040518083038186803b15801561142d57600080fd5b505afa158015611441573d6000803e3d6000fd5b505050506040513d6000823e3d601f19601f8201168201806040525061146a9190810190612e06565b905060008090505b815181101561154557600082828151811061148957fe5b6020026020010151905060608173ffffffffffffffffffffffffffffffffffffffff166395d89b416040518163ffffffff1660e01b815260040160006040518083038186803b1580156114db57600080fd5b505afa1580156114ef573d6000803e3d6000fd5b505050506040513d6000823e3d601f19601f820116820180604052506115189190810190612ebf565b90506115248188610999565b1561153657819550505050505061154d565b50508080600101915050611472565b506000925050505b919050565b61155a612869565b6000611564610eb8565b90506000611570610e9c565b73ffffffffffffffffffffffffffffffffffffffff1663313ce5676040518163ffffffff1660e01b815260040160206040518083038186803b1580156115b557600080fd5b505afa1580156115c9573d6000803e3d6000fd5b505050506040513d601f19601f820116820180604052506115ed9190810190612fff565b905060008273ffffffffffffffffffffffffffffffffffffffff16631d7b33d7866040518263ffffffff1660e01b815260040161162a91906133d2565b60206040518083038186803b15801561164257600080fd5b505afa158015611656573d6000803e3d6000fd5b505050506040513d601f19601f8201168201806040525061167a9190810190612fff565b90506116868183611c70565b9350839350505050919050565b606080606060018551016040519080825280602002602001820160405280156116d057816020015b60608152602001906001900390816116bb5790505b509050606060018551016040519080825280602002602001820160405280156117085781602001602082028038833980820191505090505b50905060008090505b865181101561177e5786818151811061172657fe5b602002602001015183828151811061173a57fe5b602002602001018190525085818151811061175157fe5b602002602001015182828151811061176557fe5b6020026020010181815250508080600101915050611711565b50611790828260006001865103611cd3565b8092508193505050606086516040519080825280602002602001820160405280156117cf57816020015b60608152602001906001900390816117ba5790505b509050606086516040519080825280602002602001820160405280156118045781602001602082028038833980820191505090505b50905060008090505b885181101561188c5784600182018151811061182557fe5b6020026020010151838260018c5103038151811061183f57fe5b602002602001018190525083600182018151811061185957fe5b6020026020010151828260018c5103038151811061187357fe5b602002602001018181525050808060010191505061180d565b50818195509550505050509250929050565b60006118a8612869565b6000806118bd86670de0b6b3a7640000611e6d565b91509150600060038111156118ce57fe5b8260038111156118da57fe5b146118fe57816040518060200160405280600081525080905093509350505061196b565b60008061190b8388611ec0565b915091506000600381111561191c57fe5b82600381111561192857fe5b1461194e578160405180602001604052806000815250809050955095505050505061196b565b600060405180602001604052808381525080905095509550505050505b9250929050565b600080831182906119b9576040517f08c379a00000000000000000000000000000000000000000000000000000000081526004016119b091906134dc565b60405180910390fd5b508284816119c357fe5b0490509392505050565b60006119d7612869565b6119df612972565b8473ffffffffffffffffffffffffffffffffffffffff1663313ce5676040518163ffffffff1660e01b815260040160206040518083038186803b158015611a2557600080fd5b505afa158015611a39573d6000803e3d6000fd5b505050506040513d601f19601f82011682018060405250611a5d9190810190612fff565b816000018181525050611a6f85611ef4565b816020018181525050611a8185611552565b816101600181905250611a948686612043565b84606001856080018660a0018760c00184815250848152508481525084815250505050506000816060015114611ae3576003604051806020016040528060008152508090509250925050611c38565b611b116040518060200160405280836080015181525060405180602001604052808460c00151815250612272565b81610180018190525060405180602001604052808260a00151815250816101a00181905250611b3f856122b3565b81610120018181525050611b5285612457565b81610140018181525050611b81611b76826101800151670de0b6b3a76400006124e3565b82610120015161250f565b816101e00181905250611baf611ba4826101a00151670de0b6b3a76400006124e3565b82610140015161250f565b816102000181905250611bc7816101600151856124e3565b816102800181905250611be4816102800151826101e00151612272565b816102200181905250611c01816102800151826102000151612272565b816102400181905250611c1e816102200151826102400151611c40565b816102600181905250600081610260015180905092509250505b935093915050565b611c48612869565b6040518060200160405280611c658560000151856000015161253b565b815250905092915050565b611c78612869565b60006012831115611ca157611c9a84611c92856012612585565b600a0a610f36565b9050611cbb565b611cb884611cb0601286612585565b600a0a6125cf565b90505b60405180602001604052808281525091505092915050565b60608060008490506000849050600087600288880381611cef57fe5b04880181518110611cfc57fe5b602002602001015190505b818311611e2d575b80888481518110611d1c57fe5b60200260200101511015611d37578280600101935050611d0f565b5b878281518110611d4457fe5b6020026020010151811015611d6157818060019003925050611d38565b818311611e2857888281518110611d7457fe5b6020026020010151898481518110611d8857fe5b60200260200101518a8581518110611d9c57fe5b602002602001018b8581518110611daf57fe5b602002602001018290528290525050878281518110611dca57fe5b6020026020010151888481518110611dde57fe5b6020026020010151898581518110611df257fe5b602002602001018a8581518110611e0557fe5b602002602001018281525082815250505082806001019350508180600190039250505b611d07565b81871015611e4457611e4189898985611cd3565b50505b85831015611e5b57611e5889898589611cd3565b50505b88889450945050505094509492505050565b6000806000841415611e885760008080905091509150611eb9565b6000838502905083858281611e9957fe5b0414611eb057600260008090509250925050611eb9565b60008192509250505b9250929050565b6000806000831415611edc576001600080905091509150611eed565b6000838581611ee757fe5b04915091505b9250929050565b6000611efe612619565b73ffffffffffffffffffffffffffffffffffffffff168273ffffffffffffffffffffffffffffffffffffffff161415611f3a576012905061203e565b60008273ffffffffffffffffffffffffffffffffffffffff16636f307dc36040518163ffffffff1660e01b815260040160206040518083038186803b158015611f8257600080fd5b505afa158015611f96573d6000803e3d6000fd5b505050506040513d601f19601f82011682018060405250611fba9190810190612ddd565b90508073ffffffffffffffffffffffffffffffffffffffff1663313ce5676040518163ffffffff1660e01b815260040160206040518083038186803b15801561200257600080fd5b505afa158015612016573d6000803e3d6000fd5b505050506040513d601f19601f8201168201806040525061203a9190810190612fff565b9150505b919050565b600080600080612051612a4e565b600086905060008773ffffffffffffffffffffffffffffffffffffffff1663313ce5676040518163ffffffff1660e01b815260040160206040518083038186803b15801561209e57600080fd5b505afa1580156120b2573d6000803e3d6000fd5b505050506040513d601f19601f820116820180604052506120d69190810190612fff565b905060006120e389611ef4565b90508273ffffffffffffffffffffffffffffffffffffffff1663c37f68e28b6040518263ffffffff1660e01b815260040161211e91906133d2565b60806040518083038186803b15801561213657600080fd5b505afa15801561214a573d6000803e3d6000fd5b505050506040513d601f19601f8201168201806040525061216e9190810190613028565b8760000188602001896040018a606001848152508481525084815250848152505050505060008460000151146121c25783600001516000806000829250819150809050975097509750975050505050612269565b6121d0846020015183611c70565b8461010001819052506121e7846040015182611c70565b84610140018190525061220684606001516122018b612635565b611c70565b84610180018190525083610100015160000151846080018181525050836101400151600001518460a0018181525050836101800151600001518460c0018181525050600084608001518560a001518660c001518393509750975097509750505050505b92959194509250565b61227a612869565b6040518060200160405280670de0b6b3a76400006122a0866000015186600001516125cf565b816122a757fe5b04815250905092915050565b6000808273ffffffffffffffffffffffffffffffffffffffff16633b1d21a26040518163ffffffff1660e01b815260040160206040518083038186803b1580156122fc57600080fd5b505afa158015612310573d6000803e3d6000fd5b505050506040513d601f19601f820116820180604052506123349190810190612fff565b905060008373ffffffffffffffffffffffffffffffffffffffff166347bd37186040518163ffffffff1660e01b815260040160206040518083038186803b15801561237e57600080fd5b505afa158015612392573d6000803e3d6000fd5b505050506040513d601f19601f820116820180604052506123b69190810190612fff565b905060008473ffffffffffffffffffffffffffffffffffffffff16638f840ddd6040518163ffffffff1660e01b815260040160206040518083038186803b15801561240057600080fd5b505afa158015612414573d6000803e3d6000fd5b505050506040513d601f19601f820116820180604052506124389190810190612fff565b905061244d612447848461253b565b82612585565b9350505050919050565b6000808290508073ffffffffffffffffffffffffffffffffffffffff166347bd37186040518163ffffffff1660e01b815260040160206040518083038186803b1580156124a357600080fd5b505afa1580156124b7573d6000803e3d6000fd5b505050506040513d601f19601f820116820180604052506124db9190810190612fff565b915050919050565b6124eb612869565b60405180602001604052806125048560000151856125cf565b815250905092915050565b612517612869565b6040518060200160405280612530856000015185610f36565b815250905092915050565b600061257d83836040518060400160405280601181526020017f6164646974696f6e206f766572666c6f770000000000000000000000000000008152506126e2565b905092915050565b60006125c783836040518060400160405280601581526020017f7375627472616374696f6e20756e646572666c6f77000000000000000000000081525061273c565b905092915050565b600061261183836040518060400160405280601781526020017f6d756c7469706c69636174696f6e206f766572666c6f77000000000000000000815250612791565b905092915050565b6000734ddc2d193948926d02f9b1fe9e1daa0718270ed5905090565b60008061264183611ef4565b905060008373ffffffffffffffffffffffffffffffffffffffff1663313ce5676040518163ffffffff1660e01b815260040160206040518083038186803b15801561268b57600080fd5b505afa15801561269f573d6000803e3d6000fd5b505050506040513d601f19601f820116820180604052506126c39190810190612fff565b90506126d96126d360128461253b565b82612585565b92505050919050565b6000808385019050848110158390612730576040517f08c379a000000000000000000000000000000000000000000000000000000000815260040161272791906134dc565b60405180910390fd5b50809150509392505050565b6000838311158290612784576040517f08c379a000000000000000000000000000000000000000000000000000000000815260040161277b91906134dc565b60405180910390fd5b5082840390509392505050565b6000808414806127a15750600083145b156127af576000905061280a565b60008385029050838582816127c057fe5b04148390612804576040517f08c379a00000000000000000000000000000000000000000000000000000000081526004016127fb91906134dc565b60405180910390fd5b50809150505b9392505050565b604051806040016040528060008152602001600081525090565b60405180608001604052806000815260200160008152602001600073ffffffffffffffffffffffffffffffffffffffff168152602001600081525090565b6040518060200160405280600081525090565b828054600181600116156101000203166002900490600052602060002090601f016020900481019282601f106128bd57805160ff19168380011785556128eb565b828001600101855582156128eb579182015b828111156128ea5782518255916020019190600101906128cf565b5b5090506128f89190612ae9565b5090565b508054600082559060005260206000209081019061291a9190612ae9565b50565b508054600082559060005260206000209081019061293b9190612b0e565b50565b508054600082559060005260206000209081019061295c9190612ae9565b50565b6040518060200160405280600081525090565b604051806102a0016040528060008152602001600081526020016000815260200160008152602001600081526020016000815260200160008152602001600081526020016000815260200160008152602001600081526020016129d361295f565b81526020016129e061295f565b81526020016129ed61295f565b81526020016129fa61295f565b8152602001612a0761295f565b8152602001612a1461295f565b8152602001612a2161295f565b8152602001612a2e61295f565b8152602001612a3b61295f565b8152602001612a4861295f565b81525090565b604051806101a001604052806000815260200160008152602001600081526020016000815260200160008152602001600081526020016000815260200160006003811115612a9857fe5b8152602001612aa561295f565b815260200160006003811115612ab757fe5b8152602001612ac461295f565b815260200160006003811115612ad657fe5b8152602001612ae361295f565b81525090565b612b0b91905b80821115612b07576000816000905550600101612aef565b5090565b90565b612b3791905b80821115612b335760008181612b2a9190612b3a565b50600101612b14565b5090565b90565b50805460018160011615610100020316600290046000825580601f10612b605750612b7f565b601f016020900490600052602060002090810190612b7e9190612ae9565b5b50565b600081359050612b9181613866565b92915050565b600081519050612ba681613866565b92915050565b600082601f830112612bbd57600080fd5b8151612bd0612bcb826135df565b6135b2565b91508181835260208401935060208101905083856020840282011115612bf557600080fd5b60005b83811015612c255781612c0b8882612c44565b845260208401935060208301925050600181019050612bf8565b5050505092915050565b600081519050612c3e8161387d565b92915050565b600081519050612c5381613894565b92915050565b600081359050612c68816138ab565b92915050565b600082601f830112612c7f57600080fd5b8151612c92612c8d82613607565b6135b2565b91508082526020830160208301858383011115612cae57600080fd5b612cb9838284613822565b50505092915050565b600082601f830112612cd357600080fd5b8135612ce6612ce182613633565b6135b2565b91508082526020830160208301858383011115612d0257600080fd5b612d0d838284613813565b50505092915050565b600060808284031215612d2857600080fd5b612d3260806135b2565b90506000612d4284828501612d9f565b6000830152506020612d5684828501612d9f565b6020830152506040612d6a84828501612b97565b6040830152506060612d7e84828501612d9f565b60608301525092915050565b600081359050612d99816138c2565b92915050565b600081519050612dae816138c2565b92915050565b600060208284031215612dc657600080fd5b6000612dd484828501612b82565b91505092915050565b600060208284031215612def57600080fd5b6000612dfd84828501612b97565b91505092915050565b600060208284031215612e1857600080fd5b600082015167ffffffffffffffff811115612e3257600080fd5b612e3e84828501612bac565b91505092915050565b600080600060608486031215612e5c57600080fd5b6000612e6a86828701612c2f565b9350506020612e7b86828701612d9f565b9250506040612e8c86828701612c2f565b9150509250925092565b600060208284031215612ea857600080fd5b6000612eb684828501612c59565b91505092915050565b600060208284031215612ed157600080fd5b600082015167ffffffffffffffff811115612eeb57600080fd5b612ef784828501612c6e565b91505092915050565b600060208284031215612f1257600080fd5b600082013567ffffffffffffffff811115612f2c57600080fd5b612f3884828501612cc2565b91505092915050565b60008060408385031215612f5457600080fd5b600083013567ffffffffffffffff811115612f6e57600080fd5b612f7a85828601612cc2565b925050602083013567ffffffffffffffff811115612f9757600080fd5b612fa385828601612cc2565b9150509250929050565b600060808284031215612fbf57600080fd5b6000612fcd84828501612d16565b91505092915050565b600060208284031215612fe857600080fd5b6000612ff684828501612d8a565b91505092915050565b60006020828403121561301157600080fd5b600061301f84828501612d9f565b91505092915050565b6000806000806080858703121561303e57600080fd5b600061304c87828801612d9f565b945050602061305d87828801612d9f565b935050604061306e87828801612d9f565b925050606061307f87828801612d9f565b91505092959194509250565b600061309783836130cf565b60208301905092915050565b60006130af83836132b5565b905092915050565b60006130c3838361339d565b60208301905092915050565b6130d88161374d565b82525050565b6130e78161374d565b82525050565b60006130f88261368f565b61310281856136ed565b935061310d8361365f565b8060005b8381101561313e578151613125888261308b565b9750613130836136c6565b925050600181019050613111565b5085935050505092915050565b60006131568261369a565b61316081856136fe565b9350836020820285016131728561366f565b8060005b858110156131ae578484038952815161318f85826130a3565b945061319a836136d3565b925060208a01995050600181019050613176565b50829750879550505050505092915050565b60006131cb826136a5565b6131d5818561370f565b93506131e08361367f565b8060005b838110156132115781516131f888826130b7565b9750613203836136e0565b9250506001810190506131e4565b5085935050505092915050565b61322781613771565b82525050565b613236816137cb565b82525050565b613245816137ef565b82525050565b6000613256826136bb565b6132608185613731565b9350613270818560208601613822565b61327981613855565b840191505092915050565b600061328f826136bb565b6132998185613742565b93506132a9818560208601613822565b80840191505092915050565b60006132c0826136b0565b6132ca8185613720565b93506132da818560208601613822565b6132e381613855565b840191505092915050565b60006132fb601c83613731565b91507f6f6e6c792061646d696e2063616e206368616e676520627261696e73000000006000830152602082019050919050565b600061333b600483613731565b91507f434f4d50000000000000000000000000000000000000000000000000000000006000830152602082019050919050565b604082016000820151613384600085018261339d565b506020820151613397602085018261339d565b50505050565b6133a6816137c1565b82525050565b6133b5816137c1565b82525050565b60006133c78284613284565b915081905092915050565b60006020820190506133e760008301846130de565b92915050565b6000602082019050818103600083015261340781846130ed565b905092915050565b60006020820190508181036000830152613429818461314b565b905092915050565b6000604082019050818103600083015261344b818561314b565b9050818103602083015261345f81846131c0565b90509392505050565b6000602082019050818103600083015261348281846131c0565b905092915050565b600060208201905061349f600083018461321e565b92915050565b60006060820190506134ba600083018661322d565b6134c7602083018561323c565b6134d460408301846130de565b949350505050565b600060208201905081810360008301526134f6818461324b565b905092915050565b60006020820190508181036000830152613517816132ee565b9050919050565b600060208201905081810360008301526135378161332e565b9050919050565b6000604082019050613553600083018461336e565b92915050565b600060208201905061356e60008301846133ac565b92915050565b600060608201905061358960008301866133ac565b818103602083015261359b818561324b565b90506135aa60408301846133ac565b949350505050565b6000604051905081810181811067ffffffffffffffff821117156135d557600080fd5b8060405250919050565b600067ffffffffffffffff8211156135f657600080fd5b602082029050602081019050919050565b600067ffffffffffffffff82111561361e57600080fd5b601f19601f8301169050602081019050919050565b600067ffffffffffffffff82111561364a57600080fd5b601f19601f8301169050602081019050919050565b6000819050602082019050919050565b6000819050602082019050919050565b6000819050602082019050919050565b600081519050919050565b600081519050919050565b600081519050919050565b600081519050919050565b600081519050919050565b6000602082019050919050565b6000602082019050919050565b6000602082019050919050565b600082825260208201905092915050565b600082825260208201905092915050565b600082825260208201905092915050565b600082825260208201905092915050565b600082825260208201905092915050565b600081905092915050565b6000613758826137a1565b9050919050565b600061376a826137a1565b9050919050565b60008115159050919050565b60006137888261374d565b9050919050565b600061379a8261375f565b9050919050565b600073ffffffffffffffffffffffffffffffffffffffff82169050919050565b6000819050919050565b60006137d6826137dd565b9050919050565b60006137e8826137a1565b9050919050565b60006137fa82613801565b9050919050565b600061380c826137a1565b9050919050565b82818337600083830152505050565b60005b83811015613840578082015181840152602081019050613825565b8381111561384f576000848401525b50505050565b6000601f19601f8301169050919050565b61386f8161374d565b811461387a57600080fd5b50565b61388681613771565b811461389157600080fd5b50565b61389d8161377d565b81146138a857600080fd5b50565b6138b48161378f565b81146138bf57600080fd5b50565b6138cb816137c1565b81146138d657600080fd5b5056fea365627a7a723158208755cafde17e0c5b15cf19b35509133bf3e4e9135ba6a37b4921b710f850acea6c6578706572696d656e74616cf564736f6c63430005100040",
  "source": "pragma solidity ^0.5.16;\npragma experimental ABIEncoderV2;\n\nimport \"./CompoundInterfaces.sol\";\nimport \"./math/Exponential.sol\";\nimport \"./utility/Logging.sol\";\nimport \"./utility/ErrorReporter.sol\";\nimport \"./CompFarmingSummaryInterface.sol\";\nimport \"./CompFarmingSummaryProxyStorage.sol\";\nimport \"./CompFarmingSummaryProxy.sol\";\n\ncontract CompFarmingSummaryV1 is CompFarmingSummaryStorageV1, CompFarmingSummaryInterface, Exponential, Logging, CompFarmingSummaryErrorReporter{\n\n\n    struct CompIncomeLocalVars{\n        uint cTokenDecimals;\n        uint underlyingDecimals;\n        uint compDistSpeedErrCode;\n        uint getAccountSnapshotErrCode;\n        uint cTokenBalanceMantissa18;\n        uint borrowBalanceMantissa18;\n        uint exchangeRateMantissa18;\n        uint supplyRatePerBlock;\n        uint borrowRatePerBlock;\n        uint totalSupply;\n        uint totalBorrow;\n        Exp compIncomePerBlockExp;\n        Exp underlyingTokenBalanceExp;\n        Exp loanBalanceExp;\n        Exp loanBalanceWithInterestExp;\n        Exp supplyPercentageExp;\n        Exp borrowPercentageExp;\n        Exp compIncomeOnSupplyExp;\n        Exp compIncomeOnBorrowExp;\n        Exp compIncomeExp;\n        Exp compReleasedExp;\n    }\n\n    struct getAccountSnapshotLocalVars{\n        uint errCode;\n        uint cTokenBalance;\n        uint borrowBalance;\n        uint exchangeRateMantissa;\n        uint cTokenBalanceMantissa18;\n        uint borrowBalanceMantissa18;\n        uint exchangeRateMantissa18;\n        MathError cTokenBalanceExpErr;\n        Exp cTokenBalanceExp;\n        MathError borrowBalanceExpErr;\n        Exp borrowBalanceExp;\n        MathError exchangeRateExpErr;\n        Exp exchangeRateExp;\n    }\n\n    constructor() public {\n\n    }\n\n    //note: add view\n    function getPriceCOMP() external view returns (uint256 priceInUSD){\n        UniswapAnchoredView uniswapAnchoredView = UniswapAnchoredView(getUniswapAnchoredViewAddress());\n        priceInUSD = uniswapAnchoredView.price(\"COMP\");\n    }\n\n    //note: add view\n    function sortedCompDistSpeedAllMarkets() external view returns (string[] memory sortedCTokenNameList, uint[] memory sortedCompSpeedList) {\n\n        string[] memory cTokenNameList = cTokenNameList();\n\n        string[] memory _cTokenNameList = new string[](cTokenNameList.length);\n        uint[] memory compSpeedList = new uint[](cTokenNameList.length);\n\n        Exp memory compAmountPerBlockExp;\n\n        for(uint i = 0; i < cTokenNameList.length; i++){\n\n                compAmountPerBlockExp = compDistSpeed(contractSymbolToAddressMap(cTokenNameList[i]));\n                _cTokenNameList[i] = cTokenNameList[i];\n                compSpeedList[i] = compAmountPerBlockExp.mantissa;\n\n        }\n\n        //sort compSpeedList\n        (sortedCTokenNameList, sortedCompSpeedList) = quickSortDESC(_cTokenNameList, compSpeedList);\n    }\n\n    //note: add view\n    function compProfile(address account) external returns(CompProfile memory _compProfile){\n\n        CompoundLens compoundLens = CompoundLens(getCompoundLensAddress());\n        CompoundLens.CompBalanceMetadataExt memory result = compoundLens.getCompBalanceMetadataExt(Comp(getCompAddress()), ComptrollerLensInterface(getUnitrollerAddress()), account);\n        _compProfile.balance = result.balance;\n        _compProfile.yetToClaimed = result.allocated;\n    }\n\n    //note: add view\n    function totalCompIncomePerYear(address _account) external view returns(uint errCode, string memory, uint256 totalCompIncomeMantissa){\n        (Error err, string memory _errCTokenSymbol, Exp memory totalCompIncomeExp) = totalCompIncome(_account, div_(estimatedNumberOfBlocksPerYear(), expScale));\n        //require(err == Error.NO_ERROR, appendStrings(\"Error occured on: \", errCTokenSymbol));\n        if(err != Error.NO_ERROR){\n            return (uint(err), _errCTokenSymbol, 0);\n        }\n\n        return (0, \"\", totalCompIncomeExp.mantissa);\n    }\n\n\n    //note: add view\n    function totalCompIncome(address _account, uint numberOfBlocks) internal view returns(Error, string memory, Exp memory compIncomeForThePeriodExp){\n\n        string[] memory cTokenNameList = cTokenNameList();\n\n        uint256 numberOfMarkets = cTokenNameList.length;\n\n        Error err = Error.NO_ERROR;\n        Exp[] memory compIncomeExpOfTheMarketList = new Exp[](numberOfMarkets);\n        compIncomeForThePeriodExp = Exp({mantissa: 0});\n\n        for(uint i = 0; i < numberOfMarkets; i++){\n\n            string memory cTokenName = cTokenNameList[i];\n\n            (err, compIncomeExpOfTheMarketList[i]) = compIncomeByCToken(_account, contractSymbolToAddressMap(cTokenName), numberOfBlocks);\n\n            if(err != Error.NO_ERROR){\n                return (err, cTokenName, Exp({mantissa: 0}));\n            }\n            //addLog(cTokenName);\n            //addLog(compIncomeExpOfTheMarketList[i].mantissa);\n            compIncomeForThePeriodExp = add_(compIncomeForThePeriodExp, compIncomeExpOfTheMarketList[i]);\n        }\n\n\n\n        return (Error.NO_ERROR, \"\", compIncomeForThePeriodExp);\n\n    }\n\n\n\n    //note: add view\n    function compIncomeByCToken(address _account, address cTokenAddress, uint numberOfBlocks) internal view returns(Error, Exp memory){\n\n\n        CompIncomeLocalVars memory v;\n\n        //get cToken Decimals\n        v.cTokenDecimals = ERC20(cTokenAddress).decimals();\n        v.underlyingDecimals = underlyingDecimals(cTokenAddress);\n\n        //get comp token distrubtion speed\n        v.compIncomePerBlockExp = compDistSpeed(cTokenAddress);\n        //continue to refractor here\n\n        //get account snapshot\n        (v.getAccountSnapshotErrCode, v.cTokenBalanceMantissa18, v.borrowBalanceMantissa18, v.exchangeRateMantissa18) = getAccountSnapshot(_account, cTokenAddress);\n        if(v.getAccountSnapshotErrCode != 0){\n            return (Error.ACCOUNT_SNAPSHOT_ERROR, Exp({mantissa: 0}));\n        }\n        //underlyingTokenBalance\n        v.underlyingTokenBalanceExp = mul_(Exp({mantissa: v.cTokenBalanceMantissa18}), Exp({mantissa: v.exchangeRateMantissa18}));\n\n        //loanBalanceExp\n        v.loanBalanceExp = Exp({mantissa: v.borrowBalanceMantissa18});\n\n        //totalSupplyWithInterest\n        v.totalSupply = getTotalSupply(cTokenAddress);\n\n        //totalBorrowWithInterest\n        v.totalBorrow = getTotalBorrow(cTokenAddress);\n\n        //supplyPercentageMantissa\n        v.supplyPercentageExp = div_(mul_(v.underlyingTokenBalanceExp, expScale), v.totalSupply);\n        v.borrowPercentageExp = div_(mul_(v.loanBalanceExp, expScale), v.totalBorrow);\n\n        v.compReleasedExp = mul_(v.compIncomePerBlockExp, numberOfBlocks);\n\n        v.compIncomeOnSupplyExp = mul_(v.compReleasedExp, v.supplyPercentageExp);\n\n        v.compIncomeOnBorrowExp = mul_(v.compReleasedExp, v.borrowPercentageExp);\n\n        v.compIncomeExp = add_(v.compIncomeOnSupplyExp, v.compIncomeOnBorrowExp);\n\n\n        return (Error.NO_ERROR, v.compIncomeExp);\n    }\n\n    //note: add view\n    function getCTokenTotalSupply (address cTokenAddress) internal view returns (Error err, uint256 totalSupplyValueInUSD) {\n\n        string[] memory cTokenNameList = cTokenNameList();\n\n        //check\n        require(hasCToken(cTokenAddress, cTokenNameList), \"cToken not found!\");\n\n        address underlyingAddress = CErc20(cTokenAddress).underlying();\n\n        uint256 totalSupply = getTotalSupply(cTokenAddress);\n\n        Exp memory totalSupplyExp = getExp18(totalSupply, ERC20(underlyingAddress).decimals());//Exp({mantissa: mul_(totalSupply, 10**(sub_(18, ERC20(underlyingAddress).decimals()))});\n        Exp memory underlyingPriceInUSDExp = Exp({mantissa: getPriceInUSD(cTokenAddress)});\n        Exp memory totalSupplyValueExp = mul_(totalSupplyExp, underlyingPriceInUSDExp);\n\n        totalSupplyValueInUSD = totalSupplyValueExp.mantissa;\n\n        return (Error.NO_ERROR, totalSupplyValueInUSD);\n\n    }\n\n\n    function getPriceInUSD(address cTokenAddress) public view returns (uint256 priceInUSD) {\n        UniswapAnchoredView uniswapAnchoredView = UniswapAnchoredView(getUniswapAnchoredViewAddress());\n        priceInUSD = uniswapAnchoredView.getUnderlyingPrice(cTokenAddress);\n    }\n\n    function getTotalSupply(address cTokenAddress) internal view returns (uint256 totalSupply){\n        uint256 cash = CTokenInterface(cTokenAddress).getCash();\n        uint256 totalBorrow = CTokenInterface(cTokenAddress).totalBorrows();\n        uint256 totalReserves = CTokenInterface(cTokenAddress).totalReserves();\n\n        totalSupply = sub_(add_(cash, totalBorrow), totalReserves);\n\n    }\n\n    function getAccountSnapshot(address _account, address cTokenAddress) internal view returns (uint256, uint256, uint256, uint256){\n\n        getAccountSnapshotLocalVars memory v;\n\n        CTokenInterface cToken = CTokenInterface(cTokenAddress);\n        uint256 cTokenDecimals = ERC20(cTokenAddress).decimals();\n        uint256 _underlyingDecimals = underlyingDecimals(cTokenAddress);\n\n\n        (v.errCode, v.cTokenBalance, v.borrowBalance, v.exchangeRateMantissa) = cToken.getAccountSnapshot(_account);\n\n        if(v.errCode != 0){\n            return (v.errCode, 0, 0, 0);\n        }\n\n        v.cTokenBalanceExp = getExp18(v.cTokenBalance, cTokenDecimals);\n        v.borrowBalanceExp = getExp18(v.borrowBalance, _underlyingDecimals);\n        v.exchangeRateExp = getExp18(v.exchangeRateMantissa, mantissaOfExchangeRate(cTokenAddress));\n        v.cTokenBalanceMantissa18 = v.cTokenBalanceExp.mantissa;\n        v.borrowBalanceMantissa18 = v.borrowBalanceExp.mantissa;\n        v.exchangeRateMantissa18 = v.exchangeRateExp.mantissa;\n\n        return (0, v.cTokenBalanceMantissa18, v.borrowBalanceMantissa18, v.exchangeRateMantissa18);\n    }\n\n\n\n    function cTokenNameList() internal view returns(string[] memory _cTokenNameList){\n          Comptroller comptroller = Comptroller(getUnitrollerAddress());\n          CToken[] memory allMarkets = comptroller.getAllMarkets();\n\n          bool isListed;\n          bool isComped;\n          address addressOfMarket;\n          uint _index;\n          string[] memory _cTokenNameListFullSize = new string[](allMarkets.length);\n\n          for(uint i = 0; i < allMarkets.length; i++){\n              addressOfMarket = address(allMarkets[i]);\n              (isListed, , isComped) = comptroller.markets(addressOfMarket);\n\n              if(isListed && isComped){\n                  address cTokenAddress = address(allMarkets[i]);\n                  string memory cTokenName = CTokenInterface(cTokenAddress).symbol();\n                  _cTokenNameListFullSize[_index] = cTokenName;\n\n                  _index++;\n              }\n          }\n\n          _cTokenNameList = new string[](_index);\n\n          for(uint i = 0; i < _cTokenNameList.length; i++){\n              _cTokenNameList[i] = _cTokenNameListFullSize[i];\n          }\n    }\n\n    function contractSymbolToAddressMap(string memory symbol) internal view returns (address){\n          Comptroller comptroller = Comptroller(getUnitrollerAddress());\n          CToken[] memory allMarkets = comptroller.getAllMarkets();\n\n          for(uint i = 0; i < allMarkets.length; i++){\n              address addressOfMarket = address(allMarkets[i]);\n              string memory symbolOfMarket = CTokenInterface(addressOfMarket).symbol();\n\n              if(compareStrings(symbolOfMarket, symbol)){\n                  return addressOfMarket;\n              }\n          }\n\n          return address(0);\n    }\n\n    function hasCToken(address cTokenAddress, string[] memory _cTokenNameList) internal view returns (bool) {\n        for(uint i = 0; i < _cTokenNameList.length; i++){\n            if(compareStrings(_cTokenNameList[i], CTokenInterface(cTokenAddress).symbol())){\n                return true;\n            }\n        }\n\n        return false;\n    }\n\n    //require to check cTokenAddress is valid\n    function underlyingDecimals(address cTokenAddress) internal view returns (uint256) {\n\n        if(cTokenAddress == getCEthAddress()){\n            return 18;\n        }\n\n        address underlyingAddress = CErc20(cTokenAddress).underlying();\n\n        return ERC20(underlyingAddress).decimals();\n    }\n\n    function mantissaOfExchangeRate(address cTokenAddress) internal view returns (uint256 mantissa) {\n\n        uint256 _underlyingDecimals = underlyingDecimals(cTokenAddress);\n        uint256 cTokenDecimals = ERC20(cTokenAddress).decimals();\n\n        mantissa = sub_(add_(18, _underlyingDecimals), cTokenDecimals);\n    }\n\n    function getTotalBorrow(address cTokenAddress) internal view returns (uint totalBorrow){\n        CTokenInterface cToken = CTokenInterface(cTokenAddress);\n        totalBorrow = cToken.totalBorrows();\n    }\n\n    function compDistSpeed(address cTokenAddress) internal view returns (Exp memory compAmountPerBlockExp){\n\n        Comptroller comptroller = Comptroller(getUnitrollerAddress());\n\n        uint256 compDecimals = ERC20(getCompAddress()).decimals();\n\n        uint256 compAmountPerBlock = comptroller.compSpeeds(cTokenAddress);\n\n        compAmountPerBlockExp = getExp18(compAmountPerBlock, compDecimals);//Exp({mantissa: mul_(compAmountPerBlock, 10**sub_(18, compDecimals))});\n\n        return compAmountPerBlockExp;\n\n    }\n\n    function estimatedNumberOfBlocksPerYear() internal pure returns (uint256 numberOfBlocksPerYearMantissa){\n        uint256 numberOfBlockPerSec = 14;\n        uint256 secsPerYear = 31536000;\n\n        (MathError err, Exp memory numberOfBlocksPerYearExp) = getExp(secsPerYear, numberOfBlockPerSec);\n        if(err != MathError.NO_ERROR){ return 0; }\n\n        numberOfBlocksPerYearMantissa = numberOfBlocksPerYearExp.mantissa;\n    }\n\n    function compareStrings (string memory a, string memory b) public pure returns (bool) {\n          return (keccak256(abi.encodePacked((a))) == keccak256(abi.encodePacked((b))) );\n    }\n\n    function appendStrings(string memory a, string memory b) internal pure returns (string memory) {\n          return string(abi.encodePacked(a, b));\n    }\n\n    function quickSortDESC(string[] memory keys, uint[] memory values) internal pure returns (string[] memory, uint[] memory){\n\n          string[] memory keysPlus = new string[](keys.length + 1);\n          uint[] memory valuesPlus = new uint[](values.length + 1);\n\n          for(uint i = 0; i < keys.length; i++){\n              keysPlus[i] = keys[i];\n              valuesPlus[i] = values[i];\n          }\n\n          (keysPlus, valuesPlus) = quickSort(keysPlus, valuesPlus, 0, keysPlus.length - 1);\n\n          string[] memory keys_desc = new string[](keys.length);\n          uint[] memory values_desc = new uint[](values.length);\n          for(uint i = 0; i < keys.length; i++){\n              keys_desc[keys.length - 1 - i] = keysPlus[i + 1];\n              values_desc[keys.length - 1 - i] = valuesPlus[i + 1];\n          }\n\n          return (keys_desc, values_desc);\n    }\n\n    function quickSort(string[] memory keys, uint[] memory values, uint left, uint right) internal pure returns (string[] memory, uint[] memory){\n          uint i = left;\n          uint j = right;\n          uint pivot = values[left + (right - left) / 2];\n          while (i <= j) {\n              while (values[i] < pivot) i++;\n              while (pivot < values[j]) j--;\n              if (i <= j) {\n                  (keys[i], keys[j]) = (keys[j], keys[i]);\n                  (values[i], values[j]) = (values[j], values[i]);\n                  i++;\n                  j--;\n              }\n          }\n          if (left < j)\n              quickSort(keys, values, left, j);\n\n          if (i < right)\n              quickSort(keys, values, i, right);\n\n              return (keys, values);\n    }\n\n    function getCEthAddress() internal pure returns(address){\n          return 0x4Ddc2D193948926D02f9B1fE9e1daa0718270ED5;\n    }\n\n    function getCompAddress() internal pure returns(address){\n          return 0xc00e94Cb662C3520282E6f5717214004A7f26888;\n    }\n\n    function getUnitrollerAddress() internal pure returns(address){\n          return 0x3d9819210A31b4961b30EF54bE2aeD79B9c9Cd3B;\n    }\n\n    function getCompoundLensAddress() internal pure returns(address){\n          return 0xd513d22422a3062Bd342Ae374b4b9c20E0a9a074;\n    }\n\n    function getUniswapAnchoredViewAddress() internal pure returns(address){\n          return 0x922018674c12a7F0D394ebEEf9B58F186CdE13c1;\n    }\n\n\n    //admin functions\n\n    function _become(CompFarmingSummaryProxy proxy) public {\n        require(msg.sender == proxy.admin(), \"only admin can change brains\");\n\n        uint result = proxy._acceptImplementation();\n\n        require(result == 0, uint2str(result));\n    }\n\n\n    function getVersion() public pure returns(string memory){\n          return \"v1\";\n    }\n\n\n    function uint2str(uint _i) internal pure returns (string memory _uintAsString) {\n       if (_i == 0) {\n           return \"0\";\n       }\n       uint j = _i;\n       uint len;\n       while (j != 0) {\n           len++;\n           j /= 10;\n       }\n       bytes memory bstr = new bytes(len);\n       uint k = len - 1;\n       while (_i != 0) {\n           bstr[k--] = byte(uint8(48 + _i % 10));\n           _i /= 10;\n       }\n       return string(bstr);\n   }\n\n\n\n}\n",
  "sourcePath": "/Users/main/Documents/macDocumentBackup062020/coding/playground/EthDev/compoundFinance/myCompFarmingPrediction/contracts/CompFarmingSummaryV1.sol",
  "compiler": {
    "name": "solc",
    "version": "0.5.16+commit.9c3226ce.Emscripten.clang"
  },
  "schemaVersion": "3.2.3",
  "updatedAt": "2020-10-30T06:15:54.361Z",
  "networkType": "ethereum",
  "devdoc": {
    "methods": {}
  },
  "userdoc": {
    "methods": {}
  }
}