{
  "contractName": "CompFarmingSummaryV1",
  "abi": [
    {
      "inputs": [],
      "payable": false,
      "stateMutability": "nonpayable",
      "type": "constructor"
    },
    {
      "anonymous": false,
      "inputs": [
        {
          "indexed": false,
          "internalType": "uint256",
          "name": "error",
          "type": "uint256"
        },
        {
          "indexed": false,
          "internalType": "uint256",
          "name": "info",
          "type": "uint256"
        },
        {
          "indexed": false,
          "internalType": "uint256",
          "name": "detail",
          "type": "uint256"
        }
      ],
      "name": "Failure",
      "type": "event"
    },
    {
      "constant": true,
      "inputs": [],
      "name": "admin",
      "outputs": [
        {
          "internalType": "address",
          "name": "",
          "type": "address"
        }
      ],
      "payable": false,
      "stateMutability": "view",
      "type": "function"
    },
    {
      "constant": true,
      "inputs": [],
      "name": "compFarmingSummaryImplmentation",
      "outputs": [
        {
          "internalType": "address",
          "name": "",
          "type": "address"
        }
      ],
      "payable": false,
      "stateMutability": "view",
      "type": "function"
    },
    {
      "constant": true,
      "inputs": [],
      "name": "pendingAdmin",
      "outputs": [
        {
          "internalType": "address",
          "name": "",
          "type": "address"
        }
      ],
      "payable": false,
      "stateMutability": "view",
      "type": "function"
    },
    {
      "constant": true,
      "inputs": [],
      "name": "pendingCompFarmingSummaryImplmentation",
      "outputs": [
        {
          "internalType": "address",
          "name": "",
          "type": "address"
        }
      ],
      "payable": false,
      "stateMutability": "view",
      "type": "function"
    },
    {
      "constant": true,
      "inputs": [],
      "name": "getPriceCOMP",
      "outputs": [
        {
          "internalType": "uint256",
          "name": "priceInUSD",
          "type": "uint256"
        }
      ],
      "payable": false,
      "stateMutability": "view",
      "type": "function"
    },
    {
      "constant": true,
      "inputs": [],
      "name": "sortedCompDistSpeedAllMarkets",
      "outputs": [
        {
          "internalType": "string[]",
          "name": "sortedCTokenNameList",
          "type": "string[]"
        },
        {
          "internalType": "uint256[]",
          "name": "sortedCompSpeedList",
          "type": "uint256[]"
        }
      ],
      "payable": false,
      "stateMutability": "view",
      "type": "function"
    },
    {
      "constant": false,
      "inputs": [
        {
          "internalType": "address",
          "name": "account",
          "type": "address"
        }
      ],
      "name": "compProfile",
      "outputs": [
        {
          "components": [
            {
              "internalType": "uint256",
              "name": "balance",
              "type": "uint256"
            },
            {
              "internalType": "uint256",
              "name": "yetToClaimed",
              "type": "uint256"
            }
          ],
          "internalType": "struct CompFarmingSummaryInterface.CompProfile",
          "name": "_compProfile",
          "type": "tuple"
        }
      ],
      "payable": false,
      "stateMutability": "nonpayable",
      "type": "function"
    },
    {
      "constant": true,
      "inputs": [
        {
          "internalType": "address",
          "name": "_account",
          "type": "address"
        }
      ],
      "name": "totalCompIncomePerYear",
      "outputs": [
        {
          "internalType": "uint256",
          "name": "errCode",
          "type": "uint256"
        },
        {
          "internalType": "string",
          "name": "",
          "type": "string"
        },
        {
          "internalType": "uint256",
          "name": "totalCompIncomeMantissa",
          "type": "uint256"
        }
      ],
      "payable": false,
      "stateMutability": "view",
      "type": "function"
    },
    {
      "constant": true,
      "inputs": [
        {
          "internalType": "address",
          "name": "cTokenAddress",
          "type": "address"
        }
      ],
      "name": "getPriceInUSD",
      "outputs": [
        {
          "internalType": "uint256",
          "name": "priceInUSD",
          "type": "uint256"
        }
      ],
      "payable": false,
      "stateMutability": "view",
      "type": "function"
    },
    {
      "constant": true,
      "inputs": [
        {
          "internalType": "string",
          "name": "a",
          "type": "string"
        },
        {
          "internalType": "string",
          "name": "b",
          "type": "string"
        }
      ],
      "name": "compareStrings",
      "outputs": [
        {
          "internalType": "bool",
          "name": "",
          "type": "bool"
        }
      ],
      "payable": false,
      "stateMutability": "pure",
      "type": "function"
    },
    {
      "constant": false,
      "inputs": [
        {
          "internalType": "contract CompFarmingSummaryProxy",
          "name": "proxy",
          "type": "address"
        }
      ],
      "name": "_become",
      "outputs": [],
      "payable": false,
      "stateMutability": "nonpayable",
      "type": "function"
    },
    {
      "constant": true,
      "inputs": [],
      "name": "getVersion",
      "outputs": [
        {
          "internalType": "uint256",
          "name": "",
          "type": "uint256"
        }
      ],
      "payable": false,
      "stateMutability": "pure",
      "type": "function"
    }
  ],
  "bytecode": "0x608060405234801561001057600080fd5b506130f0806100206000396000f3fe608060405234801561001057600080fd5b50600436106100b45760003560e01c80634a0beecb116100715780634a0beecb146101a35780638ebc0627146101c1578063bed34bba146101df578063ce9d4aaa1461020f578063dd4a9aa71461022e578063f851a4401461024c576100b4565b806302266147146100b95780630d8e6e2c146100e95780631d504dc6146101075780631f78f57e1461012357806326782247146101535780633b4fef6314610171575b600080fd5b6100d360048036036100ce91908101906126b6565b61026a565b6040516100e09190612d66565b60405180910390f35b6100f1610308565b6040516100fe9190612d66565b60405180910390f35b610121600480360361011c9190810190612798565b610311565b005b61013d600480360361013891908101906126b6565b6104c1565b60405161014a9190612d4b565b60405180910390f35b61015b61059f565b6040516101689190612c25565b60405180910390f35b61018b600480360361018691908101906126b6565b6105c5565b60405161019a93929190612d81565b60405180910390f35b6101ab610668565b6040516101b89190612d66565b60405180910390f35b6101c9610702565b6040516101d69190612c25565b60405180910390f35b6101f960048036036101f49190810190612802565b610728565b6040516102069190612c77565b60405180910390f35b610217610781565b604051610225929190612c40565b60405180910390f35b6102366108ac565b6040516102439190612c25565b60405180910390f35b6102546108d2565b6040516102619190612c25565b60405180910390f35b6000806102756108f7565b90508073ffffffffffffffffffffffffffffffffffffffff1663fc57d4df846040518263ffffffff1660e01b81526004016102b09190612c25565b60206040518083038186803b1580156102c857600080fd5b505afa1580156102dc573d6000803e3d6000fd5b505050506040513d601f19601f820116820180604052506103009190810190612897565b915050919050565b60006001905090565b8073ffffffffffffffffffffffffffffffffffffffff1663f851a4406040518163ffffffff1660e01b815260040160206040518083038186803b15801561035757600080fd5b505afa15801561036b573d6000803e3d6000fd5b505050506040513d601f19601f8201168201806040525061038f91908101906126df565b73ffffffffffffffffffffffffffffffffffffffff163373ffffffffffffffffffffffffffffffffffffffff16146103fc576040517f08c379a00000000000000000000000000000000000000000000000000000000081526004016103f390612ceb565b60405180910390fd5b60008173ffffffffffffffffffffffffffffffffffffffff1663c1e803346040518163ffffffff1660e01b8152600401602060405180830381600087803b15801561044657600080fd5b505af115801561045a573d6000803e3d6000fd5b505050506040513d601f19601f8201168201806040525061047e9190810190612897565b146104be576040517f08c379a00000000000000000000000000000000000000000000000000000000081526004016104b590612d0b565b60405180910390fd5b50565b6104c96122a4565b60006104d3610913565b90506104dd6122be565b8173ffffffffffffffffffffffffffffffffffffffff16631ea6374161050161092f565b61050961094b565b876040518463ffffffff1660e01b815260040161052893929190612c92565b608060405180830381600087803b15801561054257600080fd5b505af1158015610556573d6000803e3d6000fd5b505050506040513d601f19601f8201168201806040525061057a919081019061286e565b9050806000015183600001818152505080606001518360200181815250505050919050565b600160009054906101000a900473ffffffffffffffffffffffffffffffffffffffff1681565b6000606060008060606105d66122fc565b6105f8876105f36105e5610967565b670de0b6b3a76400006109c9565b610a13565b9250925092506000600481111561060b57fe5b83600481111561061757fe5b1461063c5782600481111561062857fe5b826000809050955095509550505050610661565b6000816000015181915060405180602001604052806000815250909550955095505050505b9193909250565b6000806106736108f7565b90508073ffffffffffffffffffffffffffffffffffffffff1663fe2c61986040518163ffffffff1660e01b81526004016106ac90612d2b565b60206040518083038186803b1580156106c457600080fd5b505afa1580156106d8573d6000803e3d6000fd5b505050506040513d601f19601f820116820180604052506106fc9190810190612897565b91505090565b600260009054906101000a900473ffffffffffffffffffffffffffffffffffffffff1681565b60008160405160200161073b9190612c0e565b60405160208183030381529060405280519060200120836040516020016107629190612c0e565b6040516020818303038152906040528051906020012014905092915050565b606080606061078e610b76565b9050606081516040519080825280602002602001820160405280156107c757816020015b60608152602001906001900390816107b25790505b509050606082516040519080825280602002602001820160405280156107fc5781602001602082028038833980820191505090505b5090506108076122fc565b60008090505b84518110156108915761083a61083586838151811061082857fe5b6020026020010151610e6b565b610fe5565b915084818151811061084857fe5b602002602001015184828151811061085c57fe5b6020026020010181905250816000015183828151811061087857fe5b602002602001018181525050808060010191505061080d565b5061089c8383611126565b8096508197505050505050509091565b600360009054906101000a900473ffffffffffffffffffffffffffffffffffffffff1681565b6000809054906101000a900473ffffffffffffffffffffffffffffffffffffffff1681565b600073922018674c12a7f0d394ebeef9b58f186cde13c1905090565b600073d513d22422a3062bd342ae374b4b9c20e0a9a074905090565b600073c00e94cb662c3520282e6f5717214004a7f26888905090565b6000733d9819210a31b4961b30ef54be2aed79b9c9cd3b905090565b600080600e905060006301e13380905060006109816122fc565b61098b8385611331565b915091506000600381111561099c57fe5b8260038111156109a857fe5b146109ba5760009450505050506109c6565b80600001519450505050505b90565b6000610a0b83836040518060400160405280600e81526020017f646976696465206279207a65726f000000000000000000000000000000000000815250611405565b905092915050565b60006060610a1f6122fc565b6060610a29610b76565b90506000815190506000809050606082604051908082528060200260200182016040528015610a7257816020015b610a5f61230f565b815260200190600190039081610a575790505b50905060405180602001604052806000815250945060008090505b83811015610b4f576060858281518110610aa357fe5b60200260200101519050610ac08b610aba83610e6b565b8c611460565b809050848481518110610acf57fe5b60200260200101819052819550505060006004811115610aeb57fe5b846004811115610af757fe5b14610b2257838160405180602001604052806000815250809050985098509850505050505050610b6f565b610b3f87848481518110610b3257fe5b60200260200101516116d3565b9650508080600101915050610a8d565b506000856040518060200160405280600081525090965096509650505050505b9250925092565b60606000610b8261094b565b905060608173ffffffffffffffffffffffffffffffffffffffff1663b0772d0b6040518163ffffffff1660e01b815260040160006040518083038186803b158015610bcc57600080fd5b505afa158015610be0573d6000803e3d6000fd5b505050506040513d6000823e3d601f19601f82011682018060405250610c099190810190612708565b905060008060008060608551604051908082528060200260200182016040528015610c4857816020015b6060815260200190600190039081610c335790505b50905060008090505b8651811015610de157868181518110610c6657fe5b602002602001015193508773ffffffffffffffffffffffffffffffffffffffff16638e8f294b856040518263ffffffff1660e01b8152600401610ca99190612c25565b60606040518083038186803b158015610cc157600080fd5b505afa158015610cd5573d6000803e3d6000fd5b505050506040513d601f19601f82011682018060405250610cf99190810190612749565b90508096508197505050858015610d0d5750845b15610dd4576000878281518110610d2057fe5b6020026020010151905060608173ffffffffffffffffffffffffffffffffffffffff166395d89b416040518163ffffffff1660e01b815260040160006040518083038186803b158015610d7257600080fd5b505afa158015610d86573d6000803e3d6000fd5b505050506040513d6000823e3d601f19601f82011682018060405250610daf91908101906127c1565b905080848681518110610dbe57fe5b6020026020010181905250848060010195505050505b8080600101915050610c51565b5081604051908082528060200260200182016040528015610e1657816020015b6060815260200190600190039081610e015790505b50975060008090505b8851811015610e6057818181518110610e3457fe5b6020026020010151898281518110610e4857fe5b60200260200101819052508080600101915050610e1f565b505050505050505090565b600080610e7661094b565b905060608173ffffffffffffffffffffffffffffffffffffffff1663b0772d0b6040518163ffffffff1660e01b815260040160006040518083038186803b158015610ec057600080fd5b505afa158015610ed4573d6000803e3d6000fd5b505050506040513d6000823e3d601f19601f82011682018060405250610efd9190810190612708565b905060008090505b8151811015610fd8576000828281518110610f1c57fe5b6020026020010151905060608173ffffffffffffffffffffffffffffffffffffffff166395d89b416040518163ffffffff1660e01b815260040160006040518083038186803b158015610f6e57600080fd5b505afa158015610f82573d6000803e3d6000fd5b505050506040513d6000823e3d601f19601f82011682018060405250610fab91908101906127c1565b9050610fb78188610728565b15610fc9578195505050505050610fe0565b50508080600101915050610f05565b506000925050505b919050565b610fed6122fc565b6000610ff761094b565b9050600061100361092f565b73ffffffffffffffffffffffffffffffffffffffff1663313ce5676040518163ffffffff1660e01b815260040160206040518083038186803b15801561104857600080fd5b505afa15801561105c573d6000803e3d6000fd5b505050506040513d601f19601f820116820180604052506110809190810190612897565b905060008273ffffffffffffffffffffffffffffffffffffffff16631d7b33d7866040518263ffffffff1660e01b81526004016110bd9190612c25565b60206040518083038186803b1580156110d557600080fd5b505afa1580156110e9573d6000803e3d6000fd5b505050506040513d601f19601f8201168201806040525061110d9190810190612897565b90506111198183611703565b9350839350505050919050565b6060806060600185510160405190808252806020026020018201604052801561116357816020015b606081526020019060019003908161114e5790505b5090506060600185510160405190808252806020026020018201604052801561119b5781602001602082028038833980820191505090505b50905060008090505b8651811015611211578681815181106111b957fe5b60200260200101518382815181106111cd57fe5b60200260200101819052508581815181106111e457fe5b60200260200101518282815181106111f857fe5b60200260200101818152505080806001019150506111a4565b50611223828260006001865103611766565b80925081935050506060865160405190808252806020026020018201604052801561126257816020015b606081526020019060019003908161124d5790505b509050606086516040519080825280602002602001820160405280156112975781602001602082028038833980820191505090505b50905060008090505b885181101561131f578460018201815181106112b857fe5b6020026020010151838260018c510303815181106112d257fe5b60200260200101819052508360018201815181106112ec57fe5b6020026020010151828260018c5103038151811061130657fe5b60200260200101818152505080806001019150506112a0565b50818195509550505050509250929050565b600061133b6122fc565b60008061135086670de0b6b3a7640000611900565b915091506000600381111561136157fe5b82600381111561136d57fe5b146113915781604051806020016040528060008152508090509350935050506113fe565b60008061139e8388611953565b91509150600060038111156113af57fe5b8260038111156113bb57fe5b146113e157816040518060200160405280600081525080905095509550505050506113fe565b600060405180602001604052808381525080905095509550505050505b9250929050565b6000808311829061144c576040517f08c379a00000000000000000000000000000000000000000000000000000000081526004016114439190612cc9565b60405180910390fd5b5082848161145657fe5b0490509392505050565b600061146a6122fc565b611472612322565b8473ffffffffffffffffffffffffffffffffffffffff1663313ce5676040518163ffffffff1660e01b815260040160206040518083038186803b1580156114b857600080fd5b505afa1580156114cc573d6000803e3d6000fd5b505050506040513d601f19601f820116820180604052506114f09190810190612897565b81600001818152505061150285611987565b81602001818152505061151485610fe5565b8161016001819052506115278686611ad6565b84606001856080018660a0018760c001848152508481525084815250848152505050505060008160600151146115765760036040518060200160405280600081525080905092509250506116cb565b6115a46040518060200160405280836080015181525060405180602001604052808460c00151815250611d05565b81610180018190525060405180602001604052808260a00151815250816101a001819052506115d285611d46565b816101200181815250506115e585611eea565b81610140018181525050611614611609826101800151670de0b6b3a7640000611f76565b826101200151611fa2565b816101e00181905250611642611637826101a00151670de0b6b3a7640000611f76565b826101400151611fa2565b81610200018190525061165a81610160015185611f76565b816102800181905250611677816102800151826101e00151611d05565b816102200181905250611694816102800151826102000151611d05565b8161024001819052506116b18161022001518261024001516116d3565b816102600181905250600081610260015180905092509250505b935093915050565b6116db6122fc565b60405180602001604052806116f885600001518560000151611fce565b815250905092915050565b61170b6122fc565b600060128311156117345761172d84611725856012612018565b600a0a6109c9565b905061174e565b61174b84611743601286612018565b600a0a612062565b90505b60405180602001604052808281525091505092915050565b6060806000849050600084905060008760028888038161178257fe5b0488018151811061178f57fe5b602002602001015190505b8183116118c0575b808884815181106117af57fe5b602002602001015110156117ca5782806001019350506117a2565b5b8782815181106117d757fe5b60200260200101518110156117f4578180600190039250506117cb565b8183116118bb5788828151811061180757fe5b602002602001015189848151811061181b57fe5b60200260200101518a858151811061182f57fe5b602002602001018b858151811061184257fe5b60200260200101829052829052505087828151811061185d57fe5b602002602001015188848151811061187157fe5b602002602001015189858151811061188557fe5b602002602001018a858151811061189857fe5b602002602001018281525082815250505082806001019350508180600190039250505b61179a565b818710156118d7576118d489898985611766565b50505b858310156118ee576118eb89898589611766565b50505b88889450945050505094509492505050565b600080600084141561191b576000808090509150915061194c565b600083850290508385828161192c57fe5b04146119435760026000809050925092505061194c565b60008192509250505b9250929050565b600080600083141561196f576001600080905091509150611980565b600083858161197a57fe5b04915091505b9250929050565b60006119916120ac565b73ffffffffffffffffffffffffffffffffffffffff168273ffffffffffffffffffffffffffffffffffffffff1614156119cd5760129050611ad1565b60008273ffffffffffffffffffffffffffffffffffffffff16636f307dc36040518163ffffffff1660e01b815260040160206040518083038186803b158015611a1557600080fd5b505afa158015611a29573d6000803e3d6000fd5b505050506040513d601f19601f82011682018060405250611a4d91908101906126df565b90508073ffffffffffffffffffffffffffffffffffffffff1663313ce5676040518163ffffffff1660e01b815260040160206040518083038186803b158015611a9557600080fd5b505afa158015611aa9573d6000803e3d6000fd5b505050506040513d601f19601f82011682018060405250611acd9190810190612897565b9150505b919050565b600080600080611ae46123fe565b600086905060008773ffffffffffffffffffffffffffffffffffffffff1663313ce5676040518163ffffffff1660e01b815260040160206040518083038186803b158015611b3157600080fd5b505afa158015611b45573d6000803e3d6000fd5b505050506040513d601f19601f82011682018060405250611b699190810190612897565b90506000611b7689611987565b90508273ffffffffffffffffffffffffffffffffffffffff1663c37f68e28b6040518263ffffffff1660e01b8152600401611bb19190612c25565b60806040518083038186803b158015611bc957600080fd5b505afa158015611bdd573d6000803e3d6000fd5b505050506040513d601f19601f82011682018060405250611c0191908101906128c0565b8760000188602001896040018a60600184815250848152508481525084815250505050506000846000015114611c555783600001516000806000829250819150809050975097509750975050505050611cfc565b611c63846020015183611703565b846101000181905250611c7a846040015182611703565b846101400181905250611c998460600151611c948b6120c8565b611703565b84610180018190525083610100015160000151846080018181525050836101400151600001518460a0018181525050836101800151600001518460c0018181525050600084608001518560a001518660c001518393509750975097509750505050505b92959194509250565b611d0d6122fc565b6040518060200160405280670de0b6b3a7640000611d3386600001518660000151612062565b81611d3a57fe5b04815250905092915050565b6000808273ffffffffffffffffffffffffffffffffffffffff16633b1d21a26040518163ffffffff1660e01b815260040160206040518083038186803b158015611d8f57600080fd5b505afa158015611da3573d6000803e3d6000fd5b505050506040513d601f19601f82011682018060405250611dc79190810190612897565b905060008373ffffffffffffffffffffffffffffffffffffffff166347bd37186040518163ffffffff1660e01b815260040160206040518083038186803b158015611e1157600080fd5b505afa158015611e25573d6000803e3d6000fd5b505050506040513d601f19601f82011682018060405250611e499190810190612897565b905060008473ffffffffffffffffffffffffffffffffffffffff16638f840ddd6040518163ffffffff1660e01b815260040160206040518083038186803b158015611e9357600080fd5b505afa158015611ea7573d6000803e3d6000fd5b505050506040513d601f19601f82011682018060405250611ecb9190810190612897565b9050611ee0611eda8484611fce565b82612018565b9350505050919050565b6000808290508073ffffffffffffffffffffffffffffffffffffffff166347bd37186040518163ffffffff1660e01b815260040160206040518083038186803b158015611f3657600080fd5b505afa158015611f4a573d6000803e3d6000fd5b505050506040513d601f19601f82011682018060405250611f6e9190810190612897565b915050919050565b611f7e6122fc565b6040518060200160405280611f97856000015185612062565b815250905092915050565b611faa6122fc565b6040518060200160405280611fc38560000151856109c9565b815250905092915050565b600061201083836040518060400160405280601181526020017f6164646974696f6e206f766572666c6f77000000000000000000000000000000815250612175565b905092915050565b600061205a83836040518060400160405280601581526020017f7375627472616374696f6e20756e646572666c6f7700000000000000000000008152506121cf565b905092915050565b60006120a483836040518060400160405280601781526020017f6d756c7469706c69636174696f6e206f766572666c6f77000000000000000000815250612224565b905092915050565b6000734ddc2d193948926d02f9b1fe9e1daa0718270ed5905090565b6000806120d483611987565b905060008373ffffffffffffffffffffffffffffffffffffffff1663313ce5676040518163ffffffff1660e01b815260040160206040518083038186803b15801561211e57600080fd5b505afa158015612132573d6000803e3d6000fd5b505050506040513d601f19601f820116820180604052506121569190810190612897565b905061216c612166601284611fce565b82612018565b92505050919050565b60008083850190508481101583906121c3576040517f08c379a00000000000000000000000000000000000000000000000000000000081526004016121ba9190612cc9565b60405180910390fd5b50809150509392505050565b6000838311158290612217576040517f08c379a000000000000000000000000000000000000000000000000000000000815260040161220e9190612cc9565b60405180910390fd5b5082840390509392505050565b6000808414806122345750600083145b15612242576000905061229d565b600083850290508385828161225357fe5b04148390612297576040517f08c379a000000000000000000000000000000000000000000000000000000000815260040161228e9190612cc9565b60405180910390fd5b50809150505b9392505050565b604051806040016040528060008152602001600081525090565b60405180608001604052806000815260200160008152602001600073ffffffffffffffffffffffffffffffffffffffff168152602001600081525090565b6040518060200160405280600081525090565b6040518060200160405280600081525090565b604051806102a00160405280600081526020016000815260200160008152602001600081526020016000815260200160008152602001600081526020016000815260200160008152602001600081526020016000815260200161238361230f565b815260200161239061230f565b815260200161239d61230f565b81526020016123aa61230f565b81526020016123b761230f565b81526020016123c461230f565b81526020016123d161230f565b81526020016123de61230f565b81526020016123eb61230f565b81526020016123f861230f565b81525090565b604051806101a00160405280600081526020016000815260200160008152602001600081526020016000815260200160008152602001600081526020016000600381111561244857fe5b815260200161245561230f565b81526020016000600381111561246757fe5b815260200161247461230f565b81526020016000600381111561248657fe5b815260200161249361230f565b81525090565b6000813590506124a88161303a565b92915050565b6000815190506124bd8161303a565b92915050565b600082601f8301126124d457600080fd5b81516124e76124e282612dec565b612dbf565b9150818183526020840193506020810190508385602084028201111561250c57600080fd5b60005b8381101561253c5781612522888261255b565b84526020840193506020830192505060018101905061250f565b5050505092915050565b60008151905061255581613051565b92915050565b60008151905061256a81613068565b92915050565b60008135905061257f8161307f565b92915050565b600082601f83011261259657600080fd5b81516125a96125a482612e14565b612dbf565b915080825260208301602083018583830111156125c557600080fd5b6125d0838284612ff6565b50505092915050565b600082601f8301126125ea57600080fd5b81356125fd6125f882612e40565b612dbf565b9150808252602083016020830185838301111561261957600080fd5b612624838284612fe7565b50505092915050565b60006080828403121561263f57600080fd5b6126496080612dbf565b90506000612659848285016126a1565b600083015250602061266d848285016126a1565b6020830152506040612681848285016124ae565b6040830152506060612695848285016126a1565b60608301525092915050565b6000815190506126b081613096565b92915050565b6000602082840312156126c857600080fd5b60006126d684828501612499565b91505092915050565b6000602082840312156126f157600080fd5b60006126ff848285016124ae565b91505092915050565b60006020828403121561271a57600080fd5b600082015167ffffffffffffffff81111561273457600080fd5b612740848285016124c3565b91505092915050565b60008060006060848603121561275e57600080fd5b600061276c86828701612546565b935050602061277d868287016126a1565b925050604061278e86828701612546565b9150509250925092565b6000602082840312156127aa57600080fd5b60006127b884828501612570565b91505092915050565b6000602082840312156127d357600080fd5b600082015167ffffffffffffffff8111156127ed57600080fd5b6127f984828501612585565b91505092915050565b6000806040838503121561281557600080fd5b600083013567ffffffffffffffff81111561282f57600080fd5b61283b858286016125d9565b925050602083013567ffffffffffffffff81111561285857600080fd5b612864858286016125d9565b9150509250929050565b60006080828403121561288057600080fd5b600061288e8482850161262d565b91505092915050565b6000602082840312156128a957600080fd5b60006128b7848285016126a1565b91505092915050565b600080600080608085870312156128d657600080fd5b60006128e4878288016126a1565b94505060206128f5878288016126a1565b9350506040612906878288016126a1565b9250506060612917878288016126a1565b91505092959194509250565b600061292f8383612ac8565b905092915050565b60006129438383612bf0565b60208301905092915050565b61295881612f21565b82525050565b600061296982612e8c565b6129738185612ed2565b93508360208202850161298585612e6c565b8060005b858110156129c157848403895281516129a28582612923565b94506129ad83612eb8565b925060208a01995050600181019050612989565b50829750879550505050505092915050565b60006129de82612e97565b6129e88185612ee3565b93506129f383612e7c565b8060005b83811015612a24578151612a0b8882612937565b9750612a1683612ec5565b9250506001810190506129f7565b5085935050505092915050565b612a3a81612f45565b82525050565b612a4981612f9f565b82525050565b612a5881612fc3565b82525050565b6000612a6982612ead565b612a738185612f05565b9350612a83818560208601612ff6565b612a8c81613029565b840191505092915050565b6000612aa282612ead565b612aac8185612f16565b9350612abc818560208601612ff6565b80840191505092915050565b6000612ad382612ea2565b612add8185612ef4565b9350612aed818560208601612ff6565b612af681613029565b840191505092915050565b6000612b0e601c83612f05565b91507f6f6e6c792061646d696e2063616e206368616e676520627261696e73000000006000830152602082019050919050565b6000612b4e601583612f05565b91507f6368616e676573206e6f74207065726d697474656400000000000000000000006000830152602082019050919050565b6000612b8e600483612f05565b91507f434f4d50000000000000000000000000000000000000000000000000000000006000830152602082019050919050565b604082016000820151612bd76000850182612bf0565b506020820151612bea6020850182612bf0565b50505050565b612bf981612f95565b82525050565b612c0881612f95565b82525050565b6000612c1a8284612a97565b915081905092915050565b6000602082019050612c3a600083018461294f565b92915050565b60006040820190508181036000830152612c5a818561295e565b90508181036020830152612c6e81846129d3565b90509392505050565b6000602082019050612c8c6000830184612a31565b92915050565b6000606082019050612ca76000830186612a40565b612cb46020830185612a4f565b612cc1604083018461294f565b949350505050565b60006020820190508181036000830152612ce38184612a5e565b905092915050565b60006020820190508181036000830152612d0481612b01565b9050919050565b60006020820190508181036000830152612d2481612b41565b9050919050565b60006020820190508181036000830152612d4481612b81565b9050919050565b6000604082019050612d606000830184612bc1565b92915050565b6000602082019050612d7b6000830184612bff565b92915050565b6000606082019050612d966000830186612bff565b8181036020830152612da88185612a5e565b9050612db76040830184612bff565b949350505050565b6000604051905081810181811067ffffffffffffffff82111715612de257600080fd5b8060405250919050565b600067ffffffffffffffff821115612e0357600080fd5b602082029050602081019050919050565b600067ffffffffffffffff821115612e2b57600080fd5b601f19601f8301169050602081019050919050565b600067ffffffffffffffff821115612e5757600080fd5b601f19601f8301169050602081019050919050565b6000819050602082019050919050565b6000819050602082019050919050565b600081519050919050565b600081519050919050565b600081519050919050565b600081519050919050565b6000602082019050919050565b6000602082019050919050565b600082825260208201905092915050565b600082825260208201905092915050565b600082825260208201905092915050565b600082825260208201905092915050565b600081905092915050565b6000612f2c82612f75565b9050919050565b6000612f3e82612f75565b9050919050565b60008115159050919050565b6000612f5c82612f21565b9050919050565b6000612f6e82612f33565b9050919050565b600073ffffffffffffffffffffffffffffffffffffffff82169050919050565b6000819050919050565b6000612faa82612fb1565b9050919050565b6000612fbc82612f75565b9050919050565b6000612fce82612fd5565b9050919050565b6000612fe082612f75565b9050919050565b82818337600083830152505050565b60005b83811015613014578082015181840152602081019050612ff9565b83811115613023576000848401525b50505050565b6000601f19601f8301169050919050565b61304381612f21565b811461304e57600080fd5b50565b61305a81612f45565b811461306557600080fd5b50565b61307181612f51565b811461307c57600080fd5b50565b61308881612f63565b811461309357600080fd5b50565b61309f81612f95565b81146130aa57600080fd5b5056fea365627a7a723158203c07c0f0b7a41ae81f4ac10123834b638a191676fd2db432f667b489e21c94de6c6578706572696d656e74616cf564736f6c63430005100040",
  "source": "pragma solidity ^0.5.16;\npragma experimental ABIEncoderV2;\n\nimport \"./CompoundInterfaces.sol\";\nimport \"./math/Exponential.sol\";\nimport \"./utility/ErrorReporter.sol\";\nimport \"./CompFarmingSummaryInterface.sol\";\nimport \"./CompFarmingSummaryProxyStorage.sol\";\nimport \"./CompFarmingSummaryProxy.sol\";\n\ncontract CompFarmingSummaryV1 is CompFarmingSummaryStorageV1, CompFarmingSummaryInterface, Exponential, CompFarmingSummaryErrorReporter{\n\n\n    struct CompIncomeLocalVars{\n        uint cTokenDecimals;\n        uint underlyingDecimals;\n        uint compDistSpeedErrCode;\n        uint getAccountSnapshotErrCode;\n        uint cTokenBalanceMantissa18;\n        uint borrowBalanceMantissa18;\n        uint exchangeRateMantissa18;\n        uint supplyRatePerBlock;\n        uint borrowRatePerBlock;\n        uint totalSupply;\n        uint totalBorrow;\n        Exp compIncomePerBlockExp;\n        Exp underlyingTokenBalanceExp;\n        Exp loanBalanceExp;\n        Exp loanBalanceWithInterestExp;\n        Exp supplyPercentageExp;\n        Exp borrowPercentageExp;\n        Exp compIncomeOnSupplyExp;\n        Exp compIncomeOnBorrowExp;\n        Exp compIncomeExp;\n        Exp compReleasedExp;\n    }\n\n    struct getAccountSnapshotLocalVars{\n        uint errCode;\n        uint cTokenBalance;\n        uint borrowBalance;\n        uint exchangeRateMantissa;\n        uint cTokenBalanceMantissa18;\n        uint borrowBalanceMantissa18;\n        uint exchangeRateMantissa18;\n        MathError cTokenBalanceExpErr;\n        Exp cTokenBalanceExp;\n        MathError borrowBalanceExpErr;\n        Exp borrowBalanceExp;\n        MathError exchangeRateExpErr;\n        Exp exchangeRateExp;\n    }\n\n    constructor() public {\n\n    }\n\n    //note: add view\n    function getPriceCOMP() external view returns (uint256 priceInUSD){\n        UniswapAnchoredView uniswapAnchoredView = UniswapAnchoredView(getUniswapAnchoredViewAddress());\n        priceInUSD = uniswapAnchoredView.price(\"COMP\");\n    }\n\n    //note: add view\n    function sortedCompDistSpeedAllMarkets() external view returns (string[] memory sortedCTokenNameList, uint[] memory sortedCompSpeedList) {\n\n        string[] memory cTokenNameList = cTokenNameList();\n\n        string[] memory _cTokenNameList = new string[](cTokenNameList.length);\n        uint[] memory compSpeedList = new uint[](cTokenNameList.length);\n\n        Exp memory compAmountPerBlockExp;\n\n        for(uint i = 0; i < cTokenNameList.length; i++){\n\n                compAmountPerBlockExp = compDistSpeed(contractSymbolToAddressMap(cTokenNameList[i]));\n                _cTokenNameList[i] = cTokenNameList[i];\n                compSpeedList[i] = compAmountPerBlockExp.mantissa;\n\n        }\n\n        //sort compSpeedList\n        (sortedCTokenNameList, sortedCompSpeedList) = quickSortDESC(_cTokenNameList, compSpeedList);\n    }\n\n    //note: add view\n    function compProfile(address account) external returns(CompProfile memory _compProfile){\n\n        CompoundLens compoundLens = CompoundLens(getCompoundLensAddress());\n        CompoundLens.CompBalanceMetadataExt memory result = compoundLens.getCompBalanceMetadataExt(Comp(getCompAddress()), ComptrollerLensInterface(getUnitrollerAddress()), account);\n        _compProfile.balance = result.balance;\n        _compProfile.yetToClaimed = result.allocated;\n    }\n\n    //note: add view\n    function totalCompIncomePerYear(address _account) external view returns(uint errCode, string memory, uint256 totalCompIncomeMantissa){\n        (Error err, string memory _errCTokenSymbol, Exp memory totalCompIncomeExp) = totalCompIncome(_account, div_(estimatedNumberOfBlocksPerYear(), expScale));\n        //require(err == Error.NO_ERROR, appendStrings(\"Error occured on: \", errCTokenSymbol));\n        if(err != Error.NO_ERROR){\n            return (uint(err), _errCTokenSymbol, 0);\n        }\n\n        return (0, \"\", totalCompIncomeExp.mantissa);\n    }\n\n\n    //note: add view\n    function totalCompIncome(address _account, uint numberOfBlocks) internal view returns(Error, string memory, Exp memory compIncomeForThePeriodExp){\n\n        string[] memory cTokenNameList = cTokenNameList();\n\n        uint256 numberOfMarkets = cTokenNameList.length;\n\n        Error err = Error.NO_ERROR;\n        Exp[] memory compIncomeExpOfTheMarketList = new Exp[](numberOfMarkets);\n        compIncomeForThePeriodExp = Exp({mantissa: 0});\n\n        for(uint i = 0; i < numberOfMarkets; i++){\n\n            string memory cTokenName = cTokenNameList[i];\n\n            (err, compIncomeExpOfTheMarketList[i]) = compIncomeByCToken(_account, contractSymbolToAddressMap(cTokenName), numberOfBlocks);\n\n            if(err != Error.NO_ERROR){\n                return (err, cTokenName, Exp({mantissa: 0}));\n            }\n            //addLog(cTokenName);\n            //addLog(compIncomeExpOfTheMarketList[i].mantissa);\n            compIncomeForThePeriodExp = add_(compIncomeForThePeriodExp, compIncomeExpOfTheMarketList[i]);\n        }\n\n\n\n        return (Error.NO_ERROR, \"\", compIncomeForThePeriodExp);\n\n    }\n\n\n\n    //note: add view\n    function compIncomeByCToken(address _account, address cTokenAddress, uint numberOfBlocks) internal view returns(Error, Exp memory){\n\n\n        CompIncomeLocalVars memory v;\n\n        //get cToken Decimals\n        v.cTokenDecimals = ERC20(cTokenAddress).decimals();\n        v.underlyingDecimals = underlyingDecimals(cTokenAddress);\n\n        //get comp token distrubtion speed\n        v.compIncomePerBlockExp = compDistSpeed(cTokenAddress);\n        //continue to refractor here\n\n        //get account snapshot\n        (v.getAccountSnapshotErrCode, v.cTokenBalanceMantissa18, v.borrowBalanceMantissa18, v.exchangeRateMantissa18) = getAccountSnapshot(_account, cTokenAddress);\n        if(v.getAccountSnapshotErrCode != 0){\n            return (Error.ACCOUNT_SNAPSHOT_ERROR, Exp({mantissa: 0}));\n        }\n        //underlyingTokenBalance\n        v.underlyingTokenBalanceExp = mul_(Exp({mantissa: v.cTokenBalanceMantissa18}), Exp({mantissa: v.exchangeRateMantissa18}));\n\n        //loanBalanceExp\n        v.loanBalanceExp = Exp({mantissa: v.borrowBalanceMantissa18});\n\n        //totalSupplyWithInterest\n        v.totalSupply = getTotalSupply(cTokenAddress);\n\n        //totalBorrowWithInterest\n        v.totalBorrow = getTotalBorrow(cTokenAddress);\n\n        //supplyPercentageMantissa\n        v.supplyPercentageExp = div_(mul_(v.underlyingTokenBalanceExp, expScale), v.totalSupply);\n        v.borrowPercentageExp = div_(mul_(v.loanBalanceExp, expScale), v.totalBorrow);\n\n        v.compReleasedExp = mul_(v.compIncomePerBlockExp, numberOfBlocks);\n\n        v.compIncomeOnSupplyExp = mul_(v.compReleasedExp, v.supplyPercentageExp);\n\n        v.compIncomeOnBorrowExp = mul_(v.compReleasedExp, v.borrowPercentageExp);\n\n        v.compIncomeExp = add_(v.compIncomeOnSupplyExp, v.compIncomeOnBorrowExp);\n\n\n        return (Error.NO_ERROR, v.compIncomeExp);\n    }\n\n    //note: add view\n    function getCTokenTotalSupply (address cTokenAddress) internal view returns (Error err, uint256 totalSupplyValueInUSD) {\n\n        string[] memory cTokenNameList = cTokenNameList();\n\n        //check\n        require(hasCToken(cTokenAddress, cTokenNameList), \"cToken not found!\");\n\n        address underlyingAddress = CErc20(cTokenAddress).underlying();\n\n        uint256 totalSupply = getTotalSupply(cTokenAddress);\n\n        Exp memory totalSupplyExp = getExp18(totalSupply, ERC20(underlyingAddress).decimals());//Exp({mantissa: mul_(totalSupply, 10**(sub_(18, ERC20(underlyingAddress).decimals()))});\n        Exp memory underlyingPriceInUSDExp = Exp({mantissa: getPriceInUSD(cTokenAddress)});\n        Exp memory totalSupplyValueExp = mul_(totalSupplyExp, underlyingPriceInUSDExp);\n\n        totalSupplyValueInUSD = totalSupplyValueExp.mantissa;\n\n        return (Error.NO_ERROR, totalSupplyValueInUSD);\n\n    }\n\n\n    function getPriceInUSD(address cTokenAddress) public view returns (uint256 priceInUSD) {\n        UniswapAnchoredView uniswapAnchoredView = UniswapAnchoredView(getUniswapAnchoredViewAddress());\n        priceInUSD = uniswapAnchoredView.getUnderlyingPrice(cTokenAddress);\n    }\n\n    function getTotalSupply(address cTokenAddress) internal view returns (uint256 totalSupply){\n        uint256 cash = CTokenInterface(cTokenAddress).getCash();\n        uint256 totalBorrow = CTokenInterface(cTokenAddress).totalBorrows();\n        uint256 totalReserves = CTokenInterface(cTokenAddress).totalReserves();\n\n        totalSupply = sub_(add_(cash, totalBorrow), totalReserves);\n\n    }\n\n    function getAccountSnapshot(address _account, address cTokenAddress) internal view returns (uint256, uint256, uint256, uint256){\n\n        getAccountSnapshotLocalVars memory v;\n\n        CTokenInterface cToken = CTokenInterface(cTokenAddress);\n        uint256 cTokenDecimals = ERC20(cTokenAddress).decimals();\n        uint256 _underlyingDecimals = underlyingDecimals(cTokenAddress);\n\n\n        (v.errCode, v.cTokenBalance, v.borrowBalance, v.exchangeRateMantissa) = cToken.getAccountSnapshot(_account);\n\n        if(v.errCode != 0){\n            return (v.errCode, 0, 0, 0);\n        }\n\n        v.cTokenBalanceExp = getExp18(v.cTokenBalance, cTokenDecimals);\n        v.borrowBalanceExp = getExp18(v.borrowBalance, _underlyingDecimals);\n        v.exchangeRateExp = getExp18(v.exchangeRateMantissa, mantissaOfExchangeRate(cTokenAddress));\n        v.cTokenBalanceMantissa18 = v.cTokenBalanceExp.mantissa;\n        v.borrowBalanceMantissa18 = v.borrowBalanceExp.mantissa;\n        v.exchangeRateMantissa18 = v.exchangeRateExp.mantissa;\n\n        return (0, v.cTokenBalanceMantissa18, v.borrowBalanceMantissa18, v.exchangeRateMantissa18);\n    }\n\n\n\n    function cTokenNameList() internal view returns(string[] memory _cTokenNameList){\n          Comptroller comptroller = Comptroller(getUnitrollerAddress());\n          CToken[] memory allMarkets = comptroller.getAllMarkets();\n\n          bool isListed;\n          bool isComped;\n          address addressOfMarket;\n          uint _index;\n          string[] memory _cTokenNameListFullSize = new string[](allMarkets.length);\n\n          for(uint i = 0; i < allMarkets.length; i++){\n              addressOfMarket = address(allMarkets[i]);\n              (isListed, , isComped) = comptroller.markets(addressOfMarket);\n\n              if(isListed && isComped){\n                  address cTokenAddress = address(allMarkets[i]);\n                  string memory cTokenName = CTokenInterface(cTokenAddress).symbol();\n                  _cTokenNameListFullSize[_index] = cTokenName;\n\n                  _index++;\n              }\n          }\n\n          _cTokenNameList = new string[](_index);\n\n          for(uint i = 0; i < _cTokenNameList.length; i++){\n              _cTokenNameList[i] = _cTokenNameListFullSize[i];\n          }\n    }\n\n    function contractSymbolToAddressMap(string memory symbol) internal view returns (address){\n          Comptroller comptroller = Comptroller(getUnitrollerAddress());\n          CToken[] memory allMarkets = comptroller.getAllMarkets();\n\n          for(uint i = 0; i < allMarkets.length; i++){\n              address addressOfMarket = address(allMarkets[i]);\n              string memory symbolOfMarket = CTokenInterface(addressOfMarket).symbol();\n\n              if(compareStrings(symbolOfMarket, symbol)){\n                  return addressOfMarket;\n              }\n          }\n\n          return address(0);\n    }\n\n    function hasCToken(address cTokenAddress, string[] memory _cTokenNameList) internal view returns (bool) {\n        for(uint i = 0; i < _cTokenNameList.length; i++){\n            if(compareStrings(_cTokenNameList[i], CTokenInterface(cTokenAddress).symbol())){\n                return true;\n            }\n        }\n\n        return false;\n    }\n\n    //require to check cTokenAddress is valid\n    function underlyingDecimals(address cTokenAddress) internal view returns (uint256) {\n\n        if(cTokenAddress == getCEthAddress()){\n            return 18;\n        }\n\n        address underlyingAddress = CErc20(cTokenAddress).underlying();\n\n        return ERC20(underlyingAddress).decimals();\n    }\n\n    function mantissaOfExchangeRate(address cTokenAddress) internal view returns (uint256 mantissa) {\n\n        uint256 _underlyingDecimals = underlyingDecimals(cTokenAddress);\n        uint256 cTokenDecimals = ERC20(cTokenAddress).decimals();\n\n        mantissa = sub_(add_(18, _underlyingDecimals), cTokenDecimals);\n    }\n\n    function getTotalBorrow(address cTokenAddress) internal view returns (uint totalBorrow){\n        CTokenInterface cToken = CTokenInterface(cTokenAddress);\n        totalBorrow = cToken.totalBorrows();\n    }\n\n    function compDistSpeed(address cTokenAddress) internal view returns (Exp memory compAmountPerBlockExp){\n\n        Comptroller comptroller = Comptroller(getUnitrollerAddress());\n\n        uint256 compDecimals = ERC20(getCompAddress()).decimals();\n\n        uint256 compAmountPerBlock = comptroller.compSpeeds(cTokenAddress);\n\n        compAmountPerBlockExp = getExp18(compAmountPerBlock, compDecimals);//Exp({mantissa: mul_(compAmountPerBlock, 10**sub_(18, compDecimals))});\n\n        return compAmountPerBlockExp;\n\n    }\n\n    function estimatedNumberOfBlocksPerYear() internal pure returns (uint256 numberOfBlocksPerYearMantissa){\n        uint256 numberOfBlockPerSec = 14;\n        uint256 secsPerYear = 31536000;\n\n        (MathError err, Exp memory numberOfBlocksPerYearExp) = getExp(secsPerYear, numberOfBlockPerSec);\n        if(err != MathError.NO_ERROR){ return 0; }\n\n        numberOfBlocksPerYearMantissa = numberOfBlocksPerYearExp.mantissa;\n    }\n\n    function compareStrings (string memory a, string memory b) public pure returns (bool) {\n          return (keccak256(abi.encodePacked((a))) == keccak256(abi.encodePacked((b))) );\n    }\n\n    function quickSortDESC(string[] memory keys, uint[] memory values) internal pure returns (string[] memory, uint[] memory){\n\n          string[] memory keysPlus = new string[](keys.length + 1);\n          uint[] memory valuesPlus = new uint[](values.length + 1);\n\n          for(uint i = 0; i < keys.length; i++){\n              keysPlus[i] = keys[i];\n              valuesPlus[i] = values[i];\n          }\n\n          (keysPlus, valuesPlus) = quickSort(keysPlus, valuesPlus, 0, keysPlus.length - 1);\n\n          string[] memory keys_desc = new string[](keys.length);\n          uint[] memory values_desc = new uint[](values.length);\n          for(uint i = 0; i < keys.length; i++){\n              keys_desc[keys.length - 1 - i] = keysPlus[i + 1];\n              values_desc[keys.length - 1 - i] = valuesPlus[i + 1];\n          }\n\n          return (keys_desc, values_desc);\n    }\n\n    function quickSort(string[] memory keys, uint[] memory values, uint left, uint right) internal pure returns (string[] memory, uint[] memory){\n          uint i = left;\n          uint j = right;\n          uint pivot = values[left + (right - left) / 2];\n          while (i <= j) {\n              while (values[i] < pivot) i++;\n              while (pivot < values[j]) j--;\n              if (i <= j) {\n                  (keys[i], keys[j]) = (keys[j], keys[i]);\n                  (values[i], values[j]) = (values[j], values[i]);\n                  i++;\n                  j--;\n              }\n          }\n          if (left < j)\n              quickSort(keys, values, left, j);\n\n          if (i < right)\n              quickSort(keys, values, i, right);\n\n              return (keys, values);\n    }\n\n    function getCEthAddress() internal pure returns(address){\n          return 0x4Ddc2D193948926D02f9B1fE9e1daa0718270ED5;\n    }\n\n    function getCompAddress() internal pure returns(address){\n          return 0xc00e94Cb662C3520282E6f5717214004A7f26888;\n    }\n\n    function getUnitrollerAddress() internal pure returns(address){\n          return 0x3d9819210A31b4961b30EF54bE2aeD79B9c9Cd3B;\n    }\n\n    function getCompoundLensAddress() internal pure returns(address){\n          return 0xd513d22422a3062Bd342Ae374b4b9c20E0a9a074;\n    }\n\n    function getUniswapAnchoredViewAddress() internal pure returns(address){\n          return 0x922018674c12a7F0D394ebEEf9B58F186CdE13c1;\n    }\n\n    //admin functions\n    function _become(CompFarmingSummaryProxy proxy) public {\n        require(msg.sender == proxy.admin(), \"only admin can change brains\");\n\n        require(proxy._acceptImplementation() == 0, \"changes not permitted\");\n    }\n\n\n    function getVersion() external pure returns(uint){\n          return 1;\n    }\n\n\n\n}\n",
  "sourcePath": "/Users/main/Documents/macDocumentBackup062020/coding/playground/EthDev/compoundFinance/myCompFarmingPrediction/contracts/CompFarmingSummaryV1.sol",
  "compiler": {
    "name": "solc",
    "version": "0.5.16+commit.9c3226ce.Emscripten.clang"
  },
  "schemaVersion": "3.2.3",
  "updatedAt": "2020-11-04T04:39:13.273Z",
  "networkType": "ethereum",
  "devdoc": {
    "methods": {}
  },
  "userdoc": {
    "methods": {}
  }
}