{
  "contractName": "CompFarmingSummaryV2",
  "abi": [
    {
      "inputs": [],
      "payable": false,
      "stateMutability": "nonpayable",
      "type": "constructor"
    },
    {
      "anonymous": false,
      "inputs": [
        {
          "indexed": false,
          "internalType": "uint256",
          "name": "error",
          "type": "uint256"
        },
        {
          "indexed": false,
          "internalType": "uint256",
          "name": "info",
          "type": "uint256"
        },
        {
          "indexed": false,
          "internalType": "uint256",
          "name": "detail",
          "type": "uint256"
        }
      ],
      "name": "Failure",
      "type": "event"
    },
    {
      "constant": false,
      "inputs": [
        {
          "internalType": "uint256",
          "name": "i",
          "type": "uint256"
        }
      ],
      "name": "addLog",
      "outputs": [],
      "payable": false,
      "stateMutability": "nonpayable",
      "type": "function"
    },
    {
      "constant": false,
      "inputs": [
        {
          "internalType": "address",
          "name": "a",
          "type": "address"
        }
      ],
      "name": "addLog",
      "outputs": [],
      "payable": false,
      "stateMutability": "nonpayable",
      "type": "function"
    },
    {
      "constant": false,
      "inputs": [
        {
          "internalType": "string",
          "name": "s",
          "type": "string"
        }
      ],
      "name": "addLog",
      "outputs": [],
      "payable": false,
      "stateMutability": "nonpayable",
      "type": "function"
    },
    {
      "constant": true,
      "inputs": [],
      "name": "admin",
      "outputs": [
        {
          "internalType": "address",
          "name": "",
          "type": "address"
        }
      ],
      "payable": false,
      "stateMutability": "view",
      "type": "function"
    },
    {
      "constant": false,
      "inputs": [],
      "name": "clearLogs",
      "outputs": [],
      "payable": false,
      "stateMutability": "nonpayable",
      "type": "function"
    },
    {
      "constant": true,
      "inputs": [],
      "name": "compFarmingSummaryImplmentation",
      "outputs": [
        {
          "internalType": "address",
          "name": "",
          "type": "address"
        }
      ],
      "payable": false,
      "stateMutability": "view",
      "type": "function"
    },
    {
      "constant": true,
      "inputs": [],
      "name": "getLoggings_address",
      "outputs": [
        {
          "internalType": "address[]",
          "name": "",
          "type": "address[]"
        }
      ],
      "payable": false,
      "stateMutability": "view",
      "type": "function"
    },
    {
      "constant": true,
      "inputs": [],
      "name": "getLoggings_uint",
      "outputs": [
        {
          "internalType": "uint256[]",
          "name": "",
          "type": "uint256[]"
        }
      ],
      "payable": false,
      "stateMutability": "view",
      "type": "function"
    },
    {
      "constant": true,
      "inputs": [],
      "name": "getLoggins_string",
      "outputs": [
        {
          "internalType": "string[]",
          "name": "",
          "type": "string[]"
        }
      ],
      "payable": false,
      "stateMutability": "view",
      "type": "function"
    },
    {
      "constant": true,
      "inputs": [],
      "name": "pendingAdmin",
      "outputs": [
        {
          "internalType": "address",
          "name": "",
          "type": "address"
        }
      ],
      "payable": false,
      "stateMutability": "view",
      "type": "function"
    },
    {
      "constant": true,
      "inputs": [],
      "name": "pendingCompFarmingSummaryImplmentation",
      "outputs": [
        {
          "internalType": "address",
          "name": "",
          "type": "address"
        }
      ],
      "payable": false,
      "stateMutability": "view",
      "type": "function"
    },
    {
      "constant": true,
      "inputs": [],
      "name": "getPriceCOMP",
      "outputs": [
        {
          "internalType": "uint256",
          "name": "priceInUSD",
          "type": "uint256"
        }
      ],
      "payable": false,
      "stateMutability": "view",
      "type": "function"
    },
    {
      "constant": true,
      "inputs": [],
      "name": "sortedCompDistSpeedAllMarkets",
      "outputs": [
        {
          "internalType": "string[]",
          "name": "sortedCTokenNameList",
          "type": "string[]"
        },
        {
          "internalType": "uint256[]",
          "name": "sortedCompSpeedList",
          "type": "uint256[]"
        }
      ],
      "payable": false,
      "stateMutability": "view",
      "type": "function"
    },
    {
      "constant": false,
      "inputs": [
        {
          "internalType": "address",
          "name": "account",
          "type": "address"
        }
      ],
      "name": "compProfile",
      "outputs": [
        {
          "components": [
            {
              "internalType": "uint256",
              "name": "balance",
              "type": "uint256"
            },
            {
              "internalType": "uint256",
              "name": "yetToClaimed",
              "type": "uint256"
            }
          ],
          "internalType": "struct CompFarmingSummaryInterface.CompProfile",
          "name": "_compProfile",
          "type": "tuple"
        }
      ],
      "payable": false,
      "stateMutability": "nonpayable",
      "type": "function"
    },
    {
      "constant": true,
      "inputs": [
        {
          "internalType": "address",
          "name": "_account",
          "type": "address"
        }
      ],
      "name": "totalCompIncomePerYear",
      "outputs": [
        {
          "internalType": "uint256",
          "name": "errCode",
          "type": "uint256"
        },
        {
          "internalType": "string",
          "name": "",
          "type": "string"
        },
        {
          "internalType": "uint256",
          "name": "totalCompIncomeMantissa",
          "type": "uint256"
        }
      ],
      "payable": false,
      "stateMutability": "view",
      "type": "function"
    },
    {
      "constant": true,
      "inputs": [
        {
          "internalType": "address",
          "name": "cTokenAddress",
          "type": "address"
        }
      ],
      "name": "getPriceInUSD",
      "outputs": [
        {
          "internalType": "uint256",
          "name": "priceInUSD",
          "type": "uint256"
        }
      ],
      "payable": false,
      "stateMutability": "view",
      "type": "function"
    },
    {
      "constant": true,
      "inputs": [
        {
          "internalType": "string",
          "name": "a",
          "type": "string"
        },
        {
          "internalType": "string",
          "name": "b",
          "type": "string"
        }
      ],
      "name": "compareStrings",
      "outputs": [
        {
          "internalType": "bool",
          "name": "",
          "type": "bool"
        }
      ],
      "payable": false,
      "stateMutability": "pure",
      "type": "function"
    },
    {
      "constant": true,
      "inputs": [],
      "name": "getVersion",
      "outputs": [
        {
          "internalType": "string",
          "name": "",
          "type": "string"
        }
      ],
      "payable": false,
      "stateMutability": "pure",
      "type": "function"
    },
    {
      "constant": false,
      "inputs": [
        {
          "internalType": "contract CompFarmingSummaryProxy",
          "name": "proxy",
          "type": "address"
        }
      ],
      "name": "_become",
      "outputs": [],
      "payable": false,
      "stateMutability": "nonpayable",
      "type": "function"
    }
  ],
  "bytecode": "0x608060405234801561001057600080fd5b5061395d806100206000396000f3fe608060405234801561001057600080fd5b50600436106101215760003560e01c80638ebc0627116100ad578063ce9d4aaa11610071578063ce9d4aaa146102f8578063dd4a9aa714610317578063f453f39214610335578063f47fc1f214610353578063f851a4401461037157610121565b80638ebc06271461026657806391dc956d146102845780639486baae146102a0578063bed34bba146102aa578063c0b0c9bf146102da57610121565b806326782247116100f457806326782247146101c05780633b4fef63146101de5780633d1fee84146102105780634a0beecb1461022c5780634ca219271461024a57610121565b806302266147146101265780630d8e6e2c146101565780631d504dc6146101745780631f78f57e14610190575b600080fd5b610140600480360361013b9190810190612df5565b61038f565b60405161014d919061359a565b60405180910390f35b61015e61042d565b60405161016b919061351d565b60405180910390f35b61018e60048036036101899190810190612ed7565b61046a565b005b6101aa60048036036101a59190810190612df5565b61062c565b6040516101b7919061357f565b60405180910390f35b6101c8610789565b6040516101d59190613413565b60405180910390f35b6101f860048036036101f39190810190612df5565b6107af565b604051610207939291906135b5565b60405180910390f35b61022a60048036036102259190810190613017565b610852565b005b610234610881565b604051610241919061359a565b60405180910390f35b610264600480360361025f9190810190612df5565b61091b565b005b61026e610984565b60405161027b9190613413565b60405180910390f35b61029e60048036036102999190810190612f41565b6109aa565b005b6102a86109ec565b005b6102c460048036036102bf9190810190612f82565b610a18565b6040516102d191906134cb565b60405180910390f35b6102e2610a71565b6040516102ef91906134a9565b60405180910390f35b610300610ac9565b60405161030e929190613472565b60405180910390f35b61031f610bf4565b60405161032c9190613413565b60405180910390f35b61033d610c1a565b60405161034a919061342e565b60405180910390f35b61035b610ca8565b6040516103689190613450565b60405180910390f35b610379610d91565b6040516103869190613413565b60405180910390f35b60008061039a610db6565b90508073ffffffffffffffffffffffffffffffffffffffff1663fc57d4df846040518263ffffffff1660e01b81526004016103d59190613413565b60206040518083038186803b1580156103ed57600080fd5b505afa158015610401573d6000803e3d6000fd5b505050506040513d601f19601f820116820180604052506104259190810190613040565b915050919050565b60606040518060400160405280600281526020017f7632000000000000000000000000000000000000000000000000000000000000815250905090565b8073ffffffffffffffffffffffffffffffffffffffff1663f851a4406040518163ffffffff1660e01b815260040160206040518083038186803b1580156104b057600080fd5b505afa1580156104c4573d6000803e3d6000fd5b505050506040513d601f19601f820116820180604052506104e89190810190612e1e565b73ffffffffffffffffffffffffffffffffffffffff163373ffffffffffffffffffffffffffffffffffffffff1614610555576040517f08c379a000000000000000000000000000000000000000000000000000000000815260040161054c9061353f565b60405180910390fd5b60008173ffffffffffffffffffffffffffffffffffffffff1663c1e803346040518163ffffffff1660e01b8152600401602060405180830381600087803b15801561059f57600080fd5b505af11580156105b3573d6000803e3d6000fd5b505050506040513d601f19601f820116820180604052506105d79190810190613040565b9050600081146105e682610dd2565b90610627576040517f08c379a000000000000000000000000000000000000000000000000000000000815260040161061e919061351d565b60405180910390fd5b505050565b610634612890565b61063c610eff565b73ffffffffffffffffffffffffffffffffffffffff166370a08231836040518263ffffffff1660e01b81526004016106749190613413565b60206040518083038186803b15801561068c57600080fd5b505afa1580156106a0573d6000803e3d6000fd5b505050506040513d601f19601f820116820180604052506106c49190810190613040565b81600001818152505060006106d7610f1b565b90508073ffffffffffffffffffffffffffffffffffffffff16631ea637416106fd610eff565b610705610f37565b866040518463ffffffff1660e01b8152600401610724939291906134e6565b608060405180830381600087803b15801561073e57600080fd5b505af1158015610752573d6000803e3d6000fd5b505050506040513d601f19601f820116820180604052506107769190810190612fee565b6060015182602001818152505050919050565b600160009054906101000a900473ffffffffffffffffffffffffffffffffffffffff1681565b6000606060008060606107c06128aa565b6107e2876107dd6107cf610f53565b670de0b6b3a7640000610fb5565b610fff565b925092509250600060048111156107f557fe5b83600481111561080157fe5b146108265782600481111561081257fe5b82600080905095509550955050505061084b565b6000816000015181915060405180602001604052806000815250909550955095505050505b9193909250565b600481908060018154018082558091505090600182039060005260206000200160009091929091909150555050565b60008061088c610db6565b90508073ffffffffffffffffffffffffffffffffffffffff1663fe2c61986040518163ffffffff1660e01b81526004016108c59061355f565b60206040518083038186803b1580156108dd57600080fd5b505afa1580156108f1573d6000803e3d6000fd5b505050506040513d601f19601f820116820180604052506109159190810190613040565b91505090565b60068190806001815401808255809150509060018203906000526020600020016000909192909190916101000a81548173ffffffffffffffffffffffffffffffffffffffff021916908373ffffffffffffffffffffffffffffffffffffffff1602179055505050565b600260009054906101000a900473ffffffffffffffffffffffffffffffffffffffff1681565b60058190806001815401808255809150509060018203906000526020600020016000909192909190915090805190602001906109e79291906128bd565b505050565b600460006109fa919061293d565b60056000610a08919061295e565b60066000610a16919061297f565b565b600081604051602001610a2b91906133fc565b6040516020818303038152906040528051906020012083604051602001610a5291906133fc565b6040516020818303038152906040528051906020012014905092915050565b60606004805480602002602001604051908101604052809291908181526020018280548015610abf57602002820191906000526020600020905b815481526020019060010190808311610aab575b5050505050905090565b6060806060610ad6611162565b905060608151604051908082528060200260200182016040528015610b0f57816020015b6060815260200190600190039081610afa5790505b50905060608251604051908082528060200260200182016040528015610b445781602001602082028038833980820191505090505b509050610b4f6128aa565b60008090505b8451811015610bd957610b82610b7d868381518110610b7057fe5b6020026020010151611457565b6115d1565b9150848181518110610b9057fe5b6020026020010151848281518110610ba457fe5b60200260200101819052508160000151838281518110610bc057fe5b6020026020010181815250508080600101915050610b55565b50610be48383611712565b8096508197505050505050509091565b600360009054906101000a900473ffffffffffffffffffffffffffffffffffffffff1681565b60606006805480602002602001604051908101604052809291908181526020018280548015610c9e57602002820191906000526020600020905b8160009054906101000a900473ffffffffffffffffffffffffffffffffffffffff1673ffffffffffffffffffffffffffffffffffffffff1681526020019060010190808311610c54575b5050505050905090565b60606005805480602002602001604051908101604052809291908181526020016000905b82821015610d88578382906000526020600020018054600181600116156101000203166002900480601f016020809104026020016040519081016040528092919081815260200182805460018160011615610100020316600290048015610d745780601f10610d4957610100808354040283529160200191610d74565b820191906000526020600020905b815481529060010190602001808311610d5757829003601f168201915b505050505081526020019060010190610ccc565b50505050905090565b6000809054906101000a900473ffffffffffffffffffffffffffffffffffffffff1681565b600073922018674c12a7f0d394ebeef9b58f186cde13c1905090565b60606000821415610e1a576040518060400160405280600181526020017f30000000000000000000000000000000000000000000000000000000000000008152509050610efa565b600082905060005b60008214610e44578080600101915050600a8281610e3c57fe5b049150610e22565b6060816040519080825280601f01601f191660200182016040528015610e795781602001600182028038833980820191505090505b50905060006001830390505b60008614610ef257600a8681610e9757fe5b0660300160f81b82828060019003935081518110610eb157fe5b60200101907effffffffffffffffffffffffffffffffffffffffffffffffffffffffffffff1916908160001a905350600a8681610eea57fe5b049550610e85565b819450505050505b919050565b600073c00e94cb662c3520282e6f5717214004a7f26888905090565b600073d513d22422a3062bd342ae374b4b9c20e0a9a074905090565b6000733d9819210a31b4961b30ef54be2aed79b9c9cd3b905090565b600080600e905060006301e1338090506000610f6d6128aa565b610f77838561191d565b9150915060006003811115610f8857fe5b826003811115610f9457fe5b14610fa6576000945050505050610fb2565b80600001519450505050505b90565b6000610ff783836040518060400160405280600e81526020017f646976696465206279207a65726f0000000000000000000000000000000000008152506119f1565b905092915050565b6000606061100b6128aa565b6060611015611162565b9050600081519050600080905060608260405190808252806020026020018201604052801561105e57816020015b61104b6129a0565b8152602001906001900390816110435790505b50905060405180602001604052806000815250945060008090505b8381101561113b57606085828151811061108f57fe5b602002602001015190506110ac8b6110a683611457565b8c611a4c565b8090508484815181106110bb57fe5b602002602001018190528195505050600060048111156110d757fe5b8460048111156110e357fe5b1461110e5783816040518060200160405280600081525080905098509850985050505050505061115b565b61112b8784848151811061111e57fe5b6020026020010151611cbf565b9650508080600101915050611079565b506000856040518060200160405280600081525090965096509650505050505b9250925092565b6060600061116e610f37565b905060608173ffffffffffffffffffffffffffffffffffffffff1663b0772d0b6040518163ffffffff1660e01b815260040160006040518083038186803b1580156111b857600080fd5b505afa1580156111cc573d6000803e3d6000fd5b505050506040513d6000823e3d601f19601f820116820180604052506111f59190810190612e47565b90506000806000806060855160405190808252806020026020018201604052801561123457816020015b606081526020019060019003908161121f5790505b50905060008090505b86518110156113cd5786818151811061125257fe5b602002602001015193508773ffffffffffffffffffffffffffffffffffffffff16638e8f294b856040518263ffffffff1660e01b81526004016112959190613413565b60606040518083038186803b1580156112ad57600080fd5b505afa1580156112c1573d6000803e3d6000fd5b505050506040513d601f19601f820116820180604052506112e59190810190612e88565b905080965081975050508580156112f95750845b156113c057600087828151811061130c57fe5b6020026020010151905060608173ffffffffffffffffffffffffffffffffffffffff166395d89b416040518163ffffffff1660e01b815260040160006040518083038186803b15801561135e57600080fd5b505afa158015611372573d6000803e3d6000fd5b505050506040513d6000823e3d601f19601f8201168201806040525061139b9190810190612f00565b9050808486815181106113aa57fe5b6020026020010181905250848060010195505050505b808060010191505061123d565b508160405190808252806020026020018201604052801561140257816020015b60608152602001906001900390816113ed5790505b50975060008090505b885181101561144c5781818151811061142057fe5b602002602001015189828151811061143457fe5b6020026020010181905250808060010191505061140b565b505050505050505090565b600080611462610f37565b905060608173ffffffffffffffffffffffffffffffffffffffff1663b0772d0b6040518163ffffffff1660e01b815260040160006040518083038186803b1580156114ac57600080fd5b505afa1580156114c0573d6000803e3d6000fd5b505050506040513d6000823e3d601f19601f820116820180604052506114e99190810190612e47565b905060008090505b81518110156115c457600082828151811061150857fe5b6020026020010151905060608173ffffffffffffffffffffffffffffffffffffffff166395d89b416040518163ffffffff1660e01b815260040160006040518083038186803b15801561155a57600080fd5b505afa15801561156e573d6000803e3d6000fd5b505050506040513d6000823e3d601f19601f820116820180604052506115979190810190612f00565b90506115a38188610a18565b156115b55781955050505050506115cc565b505080806001019150506114f1565b506000925050505b919050565b6115d96128aa565b60006115e3610f37565b905060006115ef610eff565b73ffffffffffffffffffffffffffffffffffffffff1663313ce5676040518163ffffffff1660e01b815260040160206040518083038186803b15801561163457600080fd5b505afa158015611648573d6000803e3d6000fd5b505050506040513d601f19601f8201168201806040525061166c9190810190613040565b905060008273ffffffffffffffffffffffffffffffffffffffff16631d7b33d7866040518263ffffffff1660e01b81526004016116a99190613413565b60206040518083038186803b1580156116c157600080fd5b505afa1580156116d5573d6000803e3d6000fd5b505050506040513d601f19601f820116820180604052506116f99190810190613040565b90506117058183611cef565b9350839350505050919050565b6060806060600185510160405190808252806020026020018201604052801561174f57816020015b606081526020019060019003908161173a5790505b509050606060018551016040519080825280602002602001820160405280156117875781602001602082028038833980820191505090505b50905060008090505b86518110156117fd578681815181106117a557fe5b60200260200101518382815181106117b957fe5b60200260200101819052508581815181106117d057fe5b60200260200101518282815181106117e457fe5b6020026020010181815250508080600101915050611790565b5061180f828260006001865103611d52565b80925081935050506060865160405190808252806020026020018201604052801561184e57816020015b60608152602001906001900390816118395790505b509050606086516040519080825280602002602001820160405280156118835781602001602082028038833980820191505090505b50905060008090505b885181101561190b578460018201815181106118a457fe5b6020026020010151838260018c510303815181106118be57fe5b60200260200101819052508360018201815181106118d857fe5b6020026020010151828260018c510303815181106118f257fe5b602002602001018181525050808060010191505061188c565b50818195509550505050509250929050565b60006119276128aa565b60008061193c86670de0b6b3a7640000611eec565b915091506000600381111561194d57fe5b82600381111561195957fe5b1461197d5781604051806020016040528060008152508090509350935050506119ea565b60008061198a8388611f3f565b915091506000600381111561199b57fe5b8260038111156119a757fe5b146119cd57816040518060200160405280600081525080905095509550505050506119ea565b600060405180602001604052808381525080905095509550505050505b9250929050565b60008083118290611a38576040517f08c379a0000000000000000000000000000000000000000000000000000000008152600401611a2f919061351d565b60405180910390fd5b50828481611a4257fe5b0490509392505050565b6000611a566128aa565b611a5e6129b3565b8473ffffffffffffffffffffffffffffffffffffffff1663313ce5676040518163ffffffff1660e01b815260040160206040518083038186803b158015611aa457600080fd5b505afa158015611ab8573d6000803e3d6000fd5b505050506040513d601f19601f82011682018060405250611adc9190810190613040565b816000018181525050611aee85611f73565b816020018181525050611b00856115d1565b816101600181905250611b1386866120c2565b84606001856080018660a0018760c00184815250848152508481525084815250505050506000816060015114611b62576003604051806020016040528060008152508090509250925050611cb7565b611b906040518060200160405280836080015181525060405180602001604052808460c001518152506122f1565b81610180018190525060405180602001604052808260a00151815250816101a00181905250611bbe85612332565b81610120018181525050611bd1856124d6565b81610140018181525050611c00611bf5826101800151670de0b6b3a7640000612562565b82610120015161258e565b816101e00181905250611c2e611c23826101a00151670de0b6b3a7640000612562565b82610140015161258e565b816102000181905250611c4681610160015185612562565b816102800181905250611c63816102800151826101e001516122f1565b816102200181905250611c808161028001518261020001516122f1565b816102400181905250611c9d816102200151826102400151611cbf565b816102600181905250600081610260015180905092509250505b935093915050565b611cc76128aa565b6040518060200160405280611ce4856000015185600001516125ba565b815250905092915050565b611cf76128aa565b60006012831115611d2057611d1984611d11856012612604565b600a0a610fb5565b9050611d3a565b611d3784611d2f601286612604565b600a0a61264e565b90505b60405180602001604052808281525091505092915050565b60608060008490506000849050600087600288880381611d6e57fe5b04880181518110611d7b57fe5b602002602001015190505b818311611eac575b80888481518110611d9b57fe5b60200260200101511015611db6578280600101935050611d8e565b5b878281518110611dc357fe5b6020026020010151811015611de057818060019003925050611db7565b818311611ea757888281518110611df357fe5b6020026020010151898481518110611e0757fe5b60200260200101518a8581518110611e1b57fe5b602002602001018b8581518110611e2e57fe5b602002602001018290528290525050878281518110611e4957fe5b6020026020010151888481518110611e5d57fe5b6020026020010151898581518110611e7157fe5b602002602001018a8581518110611e8457fe5b602002602001018281525082815250505082806001019350508180600190039250505b611d86565b81871015611ec357611ec089898985611d52565b50505b85831015611eda57611ed789898589611d52565b50505b88889450945050505094509492505050565b6000806000841415611f075760008080905091509150611f38565b6000838502905083858281611f1857fe5b0414611f2f57600260008090509250925050611f38565b60008192509250505b9250929050565b6000806000831415611f5b576001600080905091509150611f6c565b6000838581611f6657fe5b04915091505b9250929050565b6000611f7d612698565b73ffffffffffffffffffffffffffffffffffffffff168273ffffffffffffffffffffffffffffffffffffffff161415611fb957601290506120bd565b60008273ffffffffffffffffffffffffffffffffffffffff16636f307dc36040518163ffffffff1660e01b815260040160206040518083038186803b15801561200157600080fd5b505afa158015612015573d6000803e3d6000fd5b505050506040513d601f19601f820116820180604052506120399190810190612e1e565b90508073ffffffffffffffffffffffffffffffffffffffff1663313ce5676040518163ffffffff1660e01b815260040160206040518083038186803b15801561208157600080fd5b505afa158015612095573d6000803e3d6000fd5b505050506040513d601f19601f820116820180604052506120b99190810190613040565b9150505b919050565b6000806000806120d0612a8f565b600086905060008773ffffffffffffffffffffffffffffffffffffffff1663313ce5676040518163ffffffff1660e01b815260040160206040518083038186803b15801561211d57600080fd5b505afa158015612131573d6000803e3d6000fd5b505050506040513d601f19601f820116820180604052506121559190810190613040565b9050600061216289611f73565b90508273ffffffffffffffffffffffffffffffffffffffff1663c37f68e28b6040518263ffffffff1660e01b815260040161219d9190613413565b60806040518083038186803b1580156121b557600080fd5b505afa1580156121c9573d6000803e3d6000fd5b505050506040513d601f19601f820116820180604052506121ed9190810190613069565b8760000188602001896040018a6060018481525084815250848152508481525050505050600084600001511461224157836000015160008060008292508191508090509750975097509750505050506122e8565b61224f846020015183611cef565b846101000181905250612266846040015182611cef565b84610140018190525061228584606001516122808b6126b4565b611cef565b84610180018190525083610100015160000151846080018181525050836101400151600001518460a0018181525050836101800151600001518460c0018181525050600084608001518560a001518660c001518393509750975097509750505050505b92959194509250565b6122f96128aa565b6040518060200160405280670de0b6b3a764000061231f8660000151866000015161264e565b8161232657fe5b04815250905092915050565b6000808273ffffffffffffffffffffffffffffffffffffffff16633b1d21a26040518163ffffffff1660e01b815260040160206040518083038186803b15801561237b57600080fd5b505afa15801561238f573d6000803e3d6000fd5b505050506040513d601f19601f820116820180604052506123b39190810190613040565b905060008373ffffffffffffffffffffffffffffffffffffffff166347bd37186040518163ffffffff1660e01b815260040160206040518083038186803b1580156123fd57600080fd5b505afa158015612411573d6000803e3d6000fd5b505050506040513d601f19601f820116820180604052506124359190810190613040565b905060008473ffffffffffffffffffffffffffffffffffffffff16638f840ddd6040518163ffffffff1660e01b815260040160206040518083038186803b15801561247f57600080fd5b505afa158015612493573d6000803e3d6000fd5b505050506040513d601f19601f820116820180604052506124b79190810190613040565b90506124cc6124c684846125ba565b82612604565b9350505050919050565b6000808290508073ffffffffffffffffffffffffffffffffffffffff166347bd37186040518163ffffffff1660e01b815260040160206040518083038186803b15801561252257600080fd5b505afa158015612536573d6000803e3d6000fd5b505050506040513d601f19601f8201168201806040525061255a9190810190613040565b915050919050565b61256a6128aa565b604051806020016040528061258385600001518561264e565b815250905092915050565b6125966128aa565b60405180602001604052806125af856000015185610fb5565b815250905092915050565b60006125fc83836040518060400160405280601181526020017f6164646974696f6e206f766572666c6f77000000000000000000000000000000815250612761565b905092915050565b600061264683836040518060400160405280601581526020017f7375627472616374696f6e20756e646572666c6f7700000000000000000000008152506127bb565b905092915050565b600061269083836040518060400160405280601781526020017f6d756c7469706c69636174696f6e206f766572666c6f77000000000000000000815250612810565b905092915050565b6000734ddc2d193948926d02f9b1fe9e1daa0718270ed5905090565b6000806126c083611f73565b905060008373ffffffffffffffffffffffffffffffffffffffff1663313ce5676040518163ffffffff1660e01b815260040160206040518083038186803b15801561270a57600080fd5b505afa15801561271e573d6000803e3d6000fd5b505050506040513d601f19601f820116820180604052506127429190810190613040565b90506127586127526012846125ba565b82612604565b92505050919050565b60008083850190508481101583906127af576040517f08c379a00000000000000000000000000000000000000000000000000000000081526004016127a6919061351d565b60405180910390fd5b50809150509392505050565b6000838311158290612803576040517f08c379a00000000000000000000000000000000000000000000000000000000081526004016127fa919061351d565b60405180910390fd5b5082840390509392505050565b6000808414806128205750600083145b1561282e5760009050612889565b600083850290508385828161283f57fe5b04148390612883576040517f08c379a000000000000000000000000000000000000000000000000000000000815260040161287a919061351d565b60405180910390fd5b50809150505b9392505050565b604051806040016040528060008152602001600081525090565b6040518060200160405280600081525090565b828054600181600116156101000203166002900490600052602060002090601f016020900481019282601f106128fe57805160ff191683800117855561292c565b8280016001018555821561292c579182015b8281111561292b578251825591602001919060010190612910565b5b5090506129399190612b2a565b5090565b508054600082559060005260206000209081019061295b9190612b2a565b50565b508054600082559060005260206000209081019061297c9190612b4f565b50565b508054600082559060005260206000209081019061299d9190612b2a565b50565b6040518060200160405280600081525090565b604051806102a001604052806000815260200160008152602001600081526020016000815260200160008152602001600081526020016000815260200160008152602001600081526020016000815260200160008152602001612a146129a0565b8152602001612a216129a0565b8152602001612a2e6129a0565b8152602001612a3b6129a0565b8152602001612a486129a0565b8152602001612a556129a0565b8152602001612a626129a0565b8152602001612a6f6129a0565b8152602001612a7c6129a0565b8152602001612a896129a0565b81525090565b604051806101a001604052806000815260200160008152602001600081526020016000815260200160008152602001600081526020016000815260200160006003811115612ad957fe5b8152602001612ae66129a0565b815260200160006003811115612af857fe5b8152602001612b056129a0565b815260200160006003811115612b1757fe5b8152602001612b246129a0565b81525090565b612b4c91905b80821115612b48576000816000905550600101612b30565b5090565b90565b612b7891905b80821115612b745760008181612b6b9190612b7b565b50600101612b55565b5090565b90565b50805460018160011615610100020316600290046000825580601f10612ba15750612bc0565b601f016020900490600052602060002090810190612bbf9190612b2a565b5b50565b600081359050612bd2816138a7565b92915050565b600081519050612be7816138a7565b92915050565b600082601f830112612bfe57600080fd5b8151612c11612c0c82613620565b6135f3565b91508181835260208401935060208101905083856020840282011115612c3657600080fd5b60005b83811015612c665781612c4c8882612c85565b845260208401935060208301925050600181019050612c39565b5050505092915050565b600081519050612c7f816138be565b92915050565b600081519050612c94816138d5565b92915050565b600081359050612ca9816138ec565b92915050565b600082601f830112612cc057600080fd5b8151612cd3612cce82613648565b6135f3565b91508082526020830160208301858383011115612cef57600080fd5b612cfa838284613863565b50505092915050565b600082601f830112612d1457600080fd5b8135612d27612d2282613674565b6135f3565b91508082526020830160208301858383011115612d4357600080fd5b612d4e838284613854565b50505092915050565b600060808284031215612d6957600080fd5b612d7360806135f3565b90506000612d8384828501612de0565b6000830152506020612d9784828501612de0565b6020830152506040612dab84828501612bd8565b6040830152506060612dbf84828501612de0565b60608301525092915050565b600081359050612dda81613903565b92915050565b600081519050612def81613903565b92915050565b600060208284031215612e0757600080fd5b6000612e1584828501612bc3565b91505092915050565b600060208284031215612e3057600080fd5b6000612e3e84828501612bd8565b91505092915050565b600060208284031215612e5957600080fd5b600082015167ffffffffffffffff811115612e7357600080fd5b612e7f84828501612bed565b91505092915050565b600080600060608486031215612e9d57600080fd5b6000612eab86828701612c70565b9350506020612ebc86828701612de0565b9250506040612ecd86828701612c70565b9150509250925092565b600060208284031215612ee957600080fd5b6000612ef784828501612c9a565b91505092915050565b600060208284031215612f1257600080fd5b600082015167ffffffffffffffff811115612f2c57600080fd5b612f3884828501612caf565b91505092915050565b600060208284031215612f5357600080fd5b600082013567ffffffffffffffff811115612f6d57600080fd5b612f7984828501612d03565b91505092915050565b60008060408385031215612f9557600080fd5b600083013567ffffffffffffffff811115612faf57600080fd5b612fbb85828601612d03565b925050602083013567ffffffffffffffff811115612fd857600080fd5b612fe485828601612d03565b9150509250929050565b60006080828403121561300057600080fd5b600061300e84828501612d57565b91505092915050565b60006020828403121561302957600080fd5b600061303784828501612dcb565b91505092915050565b60006020828403121561305257600080fd5b600061306084828501612de0565b91505092915050565b6000806000806080858703121561307f57600080fd5b600061308d87828801612de0565b945050602061309e87828801612de0565b93505060406130af87828801612de0565b92505060606130c087828801612de0565b91505092959194509250565b60006130d88383613110565b60208301905092915050565b60006130f083836132f6565b905092915050565b600061310483836133de565b60208301905092915050565b6131198161378e565b82525050565b6131288161378e565b82525050565b6000613139826136d0565b613143818561372e565b935061314e836136a0565b8060005b8381101561317f57815161316688826130cc565b975061317183613707565b925050600181019050613152565b5085935050505092915050565b6000613197826136db565b6131a1818561373f565b9350836020820285016131b3856136b0565b8060005b858110156131ef57848403895281516131d085826130e4565b94506131db83613714565b925060208a019950506001810190506131b7565b50829750879550505050505092915050565b600061320c826136e6565b6132168185613750565b9350613221836136c0565b8060005b8381101561325257815161323988826130f8565b975061324483613721565b925050600181019050613225565b5085935050505092915050565b613268816137b2565b82525050565b6132778161380c565b82525050565b61328681613830565b82525050565b6000613297826136fc565b6132a18185613772565b93506132b1818560208601613863565b6132ba81613896565b840191505092915050565b60006132d0826136fc565b6132da8185613783565b93506132ea818560208601613863565b80840191505092915050565b6000613301826136f1565b61330b8185613761565b935061331b818560208601613863565b61332481613896565b840191505092915050565b600061333c601c83613772565b91507f6f6e6c792061646d696e2063616e206368616e676520627261696e73000000006000830152602082019050919050565b600061337c600483613772565b91507f434f4d50000000000000000000000000000000000000000000000000000000006000830152602082019050919050565b6040820160008201516133c560008501826133de565b5060208201516133d860208501826133de565b50505050565b6133e781613802565b82525050565b6133f681613802565b82525050565b600061340882846132c5565b915081905092915050565b6000602082019050613428600083018461311f565b92915050565b60006020820190508181036000830152613448818461312e565b905092915050565b6000602082019050818103600083015261346a818461318c565b905092915050565b6000604082019050818103600083015261348c818561318c565b905081810360208301526134a08184613201565b90509392505050565b600060208201905081810360008301526134c38184613201565b905092915050565b60006020820190506134e0600083018461325f565b92915050565b60006060820190506134fb600083018661326e565b613508602083018561327d565b613515604083018461311f565b949350505050565b60006020820190508181036000830152613537818461328c565b905092915050565b600060208201905081810360008301526135588161332f565b9050919050565b600060208201905081810360008301526135788161336f565b9050919050565b600060408201905061359460008301846133af565b92915050565b60006020820190506135af60008301846133ed565b92915050565b60006060820190506135ca60008301866133ed565b81810360208301526135dc818561328c565b90506135eb60408301846133ed565b949350505050565b6000604051905081810181811067ffffffffffffffff8211171561361657600080fd5b8060405250919050565b600067ffffffffffffffff82111561363757600080fd5b602082029050602081019050919050565b600067ffffffffffffffff82111561365f57600080fd5b601f19601f8301169050602081019050919050565b600067ffffffffffffffff82111561368b57600080fd5b601f19601f8301169050602081019050919050565b6000819050602082019050919050565b6000819050602082019050919050565b6000819050602082019050919050565b600081519050919050565b600081519050919050565b600081519050919050565b600081519050919050565b600081519050919050565b6000602082019050919050565b6000602082019050919050565b6000602082019050919050565b600082825260208201905092915050565b600082825260208201905092915050565b600082825260208201905092915050565b600082825260208201905092915050565b600082825260208201905092915050565b600081905092915050565b6000613799826137e2565b9050919050565b60006137ab826137e2565b9050919050565b60008115159050919050565b60006137c98261378e565b9050919050565b60006137db826137a0565b9050919050565b600073ffffffffffffffffffffffffffffffffffffffff82169050919050565b6000819050919050565b60006138178261381e565b9050919050565b6000613829826137e2565b9050919050565b600061383b82613842565b9050919050565b600061384d826137e2565b9050919050565b82818337600083830152505050565b60005b83811015613881578082015181840152602081019050613866565b83811115613890576000848401525b50505050565b6000601f19601f8301169050919050565b6138b08161378e565b81146138bb57600080fd5b50565b6138c7816137b2565b81146138d257600080fd5b50565b6138de816137be565b81146138e957600080fd5b50565b6138f5816137d0565b811461390057600080fd5b50565b61390c81613802565b811461391757600080fd5b5056fea365627a7a723158209dbe9a65c11fec9590733809ef6bb69fa0b22a4838fe1d2101d2bfd54d1b1bd96c6578706572696d656e74616cf564736f6c63430005100040",
  "source": "pragma solidity ^0.5.16;\npragma experimental ABIEncoderV2;\n\nimport \"./CompoundInterfaces.sol\";\nimport \"./math/Exponential.sol\";\nimport \"./utility/Logging.sol\";\nimport \"./utility/ErrorReporter.sol\";\nimport \"./CompFarmingSummaryInterface.sol\";\nimport \"./CompFarmingSummaryProxyStorage.sol\";\nimport \"./CompFarmingSummaryProxy.sol\";\n\ncontract CompFarmingSummaryV2 is CompFarmingSummaryStorageV1, CompFarmingSummaryInterface, Exponential, Logging, CompFarmingSummaryErrorReporter{\n\n\n    struct CompIncomeLocalVars{\n        uint cTokenDecimals;\n        uint underlyingDecimals;\n        uint compDistSpeedErrCode;\n        uint getAccountSnapshotErrCode;\n        uint cTokenBalanceMantissa18;\n        uint borrowBalanceMantissa18;\n        uint exchangeRateMantissa18;\n        uint supplyRatePerBlock;\n        uint borrowRatePerBlock;\n        uint totalSupply;\n        uint totalBorrow;\n        Exp compIncomePerBlockExp;\n        Exp underlyingTokenBalanceExp;\n        Exp loanBalanceExp;\n        Exp loanBalanceWithInterestExp;\n        Exp supplyPercentageExp;\n        Exp borrowPercentageExp;\n        Exp compIncomeOnSupplyExp;\n        Exp compIncomeOnBorrowExp;\n        Exp compIncomeExp;\n        Exp compReleasedExp;\n    }\n\n    struct getAccountSnapshotLocalVars{\n        uint errCode;\n        uint cTokenBalance;\n        uint borrowBalance;\n        uint exchangeRateMantissa;\n        uint cTokenBalanceMantissa18;\n        uint borrowBalanceMantissa18;\n        uint exchangeRateMantissa18;\n        MathError cTokenBalanceExpErr;\n        Exp cTokenBalanceExp;\n        MathError borrowBalanceExpErr;\n        Exp borrowBalanceExp;\n        MathError exchangeRateExpErr;\n        Exp exchangeRateExp;\n    }\n\n    constructor() public {\n\n    }\n\n    //note: add view\n    function getPriceCOMP() external view returns (uint256 priceInUSD){\n        UniswapAnchoredView uniswapAnchoredView = UniswapAnchoredView(getUniswapAnchoredViewAddress());\n        priceInUSD = uniswapAnchoredView.price(\"COMP\");\n    }\n\n    //note: add view\n    function sortedCompDistSpeedAllMarkets() external view returns (string[] memory sortedCTokenNameList, uint[] memory sortedCompSpeedList) {\n\n        string[] memory cTokenNameList = cTokenNameList();\n\n        string[] memory _cTokenNameList = new string[](cTokenNameList.length);\n        uint[] memory compSpeedList = new uint[](cTokenNameList.length);\n\n        Exp memory compAmountPerBlockExp;\n\n        for(uint i = 0; i < cTokenNameList.length; i++){\n\n                compAmountPerBlockExp = compDistSpeed(contractSymbolToAddressMap(cTokenNameList[i]));\n                _cTokenNameList[i] = cTokenNameList[i];\n                compSpeedList[i] = compAmountPerBlockExp.mantissa;\n\n        }\n\n        //sort compSpeedList\n        (sortedCTokenNameList, sortedCompSpeedList) = quickSortDESC(_cTokenNameList, compSpeedList);\n    }\n\n    //note: add view\n    function compProfile(address account) external returns(CompProfile memory _compProfile){\n\n        _compProfile.balance = ERC20(getCompAddress()).balanceOf(account);\n\n        CompoundLens compoundLens = CompoundLens(getCompoundLensAddress());\n        _compProfile.yetToClaimed = compoundLens.getCompBalanceMetadataExt(Comp(getCompAddress()), ComptrollerLensInterface(getUnitrollerAddress()), account).allocated;\n\n    }\n\n    //note: add view\n    function totalCompIncomePerYear(address _account) external view returns(uint errCode, string memory, uint256 totalCompIncomeMantissa){\n        (Error err, string memory _errCTokenSymbol, Exp memory totalCompIncomeExp) = totalCompIncome(_account, div_(estimatedNumberOfBlocksPerYear(), expScale));\n        //require(err == Error.NO_ERROR, appendStrings(\"Error occured on: \", errCTokenSymbol));\n        if(err != Error.NO_ERROR){\n            return (uint(err), _errCTokenSymbol, 0);\n        }\n\n        return (0, \"\", totalCompIncomeExp.mantissa);\n    }\n\n\n    //note: add view\n    function totalCompIncome(address _account, uint numberOfBlocks) internal view returns(Error, string memory, Exp memory compIncomeForThePeriodExp){\n\n        string[] memory cTokenNameList = cTokenNameList();\n\n        uint256 numberOfMarkets = cTokenNameList.length;\n\n        Error err = Error.NO_ERROR;\n        Exp[] memory compIncomeExpOfTheMarketList = new Exp[](numberOfMarkets);\n        compIncomeForThePeriodExp = Exp({mantissa: 0});\n\n        for(uint i = 0; i < numberOfMarkets; i++){\n\n            string memory cTokenName = cTokenNameList[i];\n\n            (err, compIncomeExpOfTheMarketList[i]) = compIncomeByCToken(_account, contractSymbolToAddressMap(cTokenName), numberOfBlocks);\n\n            if(err != Error.NO_ERROR){\n                return (err, cTokenName, Exp({mantissa: 0}));\n            }\n            //addLog(cTokenName);\n            //addLog(compIncomeExpOfTheMarketList[i].mantissa);\n            compIncomeForThePeriodExp = add_(compIncomeForThePeriodExp, compIncomeExpOfTheMarketList[i]);\n        }\n\n\n\n        return (Error.NO_ERROR, \"\", compIncomeForThePeriodExp);\n\n    }\n\n\n\n    //note: add view\n    function compIncomeByCToken(address _account, address cTokenAddress, uint numberOfBlocks) internal view returns(Error, Exp memory){\n\n\n        CompIncomeLocalVars memory v;\n\n        //get cToken Decimals\n        v.cTokenDecimals = ERC20(cTokenAddress).decimals();\n        v.underlyingDecimals = underlyingDecimals(cTokenAddress);\n\n        //get comp token distrubtion speed\n        v.compIncomePerBlockExp = compDistSpeed(cTokenAddress);\n        //continue to refractor here\n\n        //get account snapshot\n        (v.getAccountSnapshotErrCode, v.cTokenBalanceMantissa18, v.borrowBalanceMantissa18, v.exchangeRateMantissa18) = getAccountSnapshot(_account, cTokenAddress);\n        if(v.getAccountSnapshotErrCode != 0){\n            return (Error.ACCOUNT_SNAPSHOT_ERROR, Exp({mantissa: 0}));\n        }\n        //underlyingTokenBalance\n        v.underlyingTokenBalanceExp = mul_(Exp({mantissa: v.cTokenBalanceMantissa18}), Exp({mantissa: v.exchangeRateMantissa18}));\n\n        //loanBalanceExp\n        v.loanBalanceExp = Exp({mantissa: v.borrowBalanceMantissa18});\n\n        //totalSupplyWithInterest\n        v.totalSupply = getTotalSupply(cTokenAddress);\n\n        //totalBorrowWithInterest\n        v.totalBorrow = getTotalBorrow(cTokenAddress);\n\n        //supplyPercentageMantissa\n        v.supplyPercentageExp = div_(mul_(v.underlyingTokenBalanceExp, expScale), v.totalSupply);\n        v.borrowPercentageExp = div_(mul_(v.loanBalanceExp, expScale), v.totalBorrow);\n\n        v.compReleasedExp = mul_(v.compIncomePerBlockExp, numberOfBlocks);\n\n        v.compIncomeOnSupplyExp = mul_(v.compReleasedExp, v.supplyPercentageExp);\n\n        v.compIncomeOnBorrowExp = mul_(v.compReleasedExp, v.borrowPercentageExp);\n\n        v.compIncomeExp = add_(v.compIncomeOnSupplyExp, v.compIncomeOnBorrowExp);\n\n\n        return (Error.NO_ERROR, v.compIncomeExp);\n    }\n\n    //note: add view\n    function getCTokenTotalSupply (address cTokenAddress) internal view returns (Error err, uint256 totalSupplyValueInUSD) {\n\n        string[] memory cTokenNameList = cTokenNameList();\n\n        //check\n        require(hasCToken(cTokenAddress, cTokenNameList), \"cToken not found!\");\n\n        address underlyingAddress = CErc20(cTokenAddress).underlying();\n\n        uint256 totalSupply = getTotalSupply(cTokenAddress);\n\n        Exp memory totalSupplyExp = getExp18(totalSupply, ERC20(underlyingAddress).decimals());//Exp({mantissa: mul_(totalSupply, 10**(sub_(18, ERC20(underlyingAddress).decimals()))});\n        Exp memory underlyingPriceInUSDExp = Exp({mantissa: getPriceInUSD(cTokenAddress)});\n        Exp memory totalSupplyValueExp = mul_(totalSupplyExp, underlyingPriceInUSDExp);\n\n        totalSupplyValueInUSD = totalSupplyValueExp.mantissa;\n\n        return (Error.NO_ERROR, totalSupplyValueInUSD);\n\n    }\n\n\n    function getPriceInUSD(address cTokenAddress) public view returns (uint256 priceInUSD) {\n        UniswapAnchoredView uniswapAnchoredView = UniswapAnchoredView(getUniswapAnchoredViewAddress());\n        priceInUSD = uniswapAnchoredView.getUnderlyingPrice(cTokenAddress);\n    }\n\n    function getTotalSupply(address cTokenAddress) internal view returns (uint256 totalSupply){\n        uint256 cash = CTokenInterface(cTokenAddress).getCash();\n        uint256 totalBorrow = CTokenInterface(cTokenAddress).totalBorrows();\n        uint256 totalReserves = CTokenInterface(cTokenAddress).totalReserves();\n\n        totalSupply = sub_(add_(cash, totalBorrow), totalReserves);\n\n    }\n\n    function getAccountSnapshot(address _account, address cTokenAddress) internal view returns (uint256, uint256, uint256, uint256){\n\n        getAccountSnapshotLocalVars memory v;\n\n        CTokenInterface cToken = CTokenInterface(cTokenAddress);\n        uint256 cTokenDecimals = ERC20(cTokenAddress).decimals();\n        uint256 _underlyingDecimals = underlyingDecimals(cTokenAddress);\n\n\n        (v.errCode, v.cTokenBalance, v.borrowBalance, v.exchangeRateMantissa) = cToken.getAccountSnapshot(_account);\n\n        if(v.errCode != 0){\n            return (v.errCode, 0, 0, 0);\n        }\n\n        v.cTokenBalanceExp = getExp18(v.cTokenBalance, cTokenDecimals);\n        v.borrowBalanceExp = getExp18(v.borrowBalance, _underlyingDecimals);\n        v.exchangeRateExp = getExp18(v.exchangeRateMantissa, mantissaOfExchangeRate(cTokenAddress));\n        v.cTokenBalanceMantissa18 = v.cTokenBalanceExp.mantissa;\n        v.borrowBalanceMantissa18 = v.borrowBalanceExp.mantissa;\n        v.exchangeRateMantissa18 = v.exchangeRateExp.mantissa;\n\n        return (0, v.cTokenBalanceMantissa18, v.borrowBalanceMantissa18, v.exchangeRateMantissa18);\n    }\n\n\n\n    function cTokenNameList() internal view returns(string[] memory _cTokenNameList){\n          Comptroller comptroller = Comptroller(getUnitrollerAddress());\n          CToken[] memory allMarkets = comptroller.getAllMarkets();\n\n          bool isListed;\n          bool isComped;\n          address addressOfMarket;\n          uint _index;\n          string[] memory _cTokenNameListFullSize = new string[](allMarkets.length);\n\n          for(uint i = 0; i < allMarkets.length; i++){\n              addressOfMarket = address(allMarkets[i]);\n              (isListed, , isComped) = comptroller.markets(addressOfMarket);\n\n              if(isListed && isComped){\n                  address cTokenAddress = address(allMarkets[i]);\n                  string memory cTokenName = CTokenInterface(cTokenAddress).symbol();\n                  _cTokenNameListFullSize[_index] = cTokenName;\n\n                  _index++;\n              }\n          }\n\n          _cTokenNameList = new string[](_index);\n\n          for(uint i = 0; i < _cTokenNameList.length; i++){\n              _cTokenNameList[i] = _cTokenNameListFullSize[i];\n          }\n    }\n\n    function contractSymbolToAddressMap(string memory symbol) internal view returns (address){\n          Comptroller comptroller = Comptroller(getUnitrollerAddress());\n          CToken[] memory allMarkets = comptroller.getAllMarkets();\n\n          for(uint i = 0; i < allMarkets.length; i++){\n              address addressOfMarket = address(allMarkets[i]);\n              string memory symbolOfMarket = CTokenInterface(addressOfMarket).symbol();\n\n              if(compareStrings(symbolOfMarket, symbol)){\n                  return addressOfMarket;\n              }\n          }\n\n          return address(0);\n    }\n\n    function hasCToken(address cTokenAddress, string[] memory _cTokenNameList) internal view returns (bool) {\n        for(uint i = 0; i < _cTokenNameList.length; i++){\n            if(compareStrings(_cTokenNameList[i], CTokenInterface(cTokenAddress).symbol())){\n                return true;\n            }\n        }\n\n        return false;\n    }\n\n    //require to check cTokenAddress is valid\n    function underlyingDecimals(address cTokenAddress) internal view returns (uint256) {\n\n        if(cTokenAddress == getCEthAddress()){\n            return 18;\n        }\n\n        address underlyingAddress = CErc20(cTokenAddress).underlying();\n\n        return ERC20(underlyingAddress).decimals();\n    }\n\n    function mantissaOfExchangeRate(address cTokenAddress) internal view returns (uint256 mantissa) {\n\n        uint256 _underlyingDecimals = underlyingDecimals(cTokenAddress);\n        uint256 cTokenDecimals = ERC20(cTokenAddress).decimals();\n\n        mantissa = sub_(add_(18, _underlyingDecimals), cTokenDecimals);\n    }\n\n    function getTotalBorrow(address cTokenAddress) internal view returns (uint totalBorrow){\n        CTokenInterface cToken = CTokenInterface(cTokenAddress);\n        totalBorrow = cToken.totalBorrows();\n    }\n\n    function compDistSpeed(address cTokenAddress) internal view returns (Exp memory compAmountPerBlockExp){\n\n        Comptroller comptroller = Comptroller(getUnitrollerAddress());\n\n        uint256 compDecimals = ERC20(getCompAddress()).decimals();\n\n        uint256 compAmountPerBlock = comptroller.compSpeeds(cTokenAddress);\n\n        compAmountPerBlockExp = getExp18(compAmountPerBlock, compDecimals);//Exp({mantissa: mul_(compAmountPerBlock, 10**sub_(18, compDecimals))});\n\n        return compAmountPerBlockExp;\n\n    }\n\n    function estimatedNumberOfBlocksPerYear() internal pure returns (uint256 numberOfBlocksPerYearMantissa){\n        uint256 numberOfBlockPerSec = 14;\n        uint256 secsPerYear = 31536000;\n\n        (MathError err, Exp memory numberOfBlocksPerYearExp) = getExp(secsPerYear, numberOfBlockPerSec);\n        if(err != MathError.NO_ERROR){ return 0; }\n\n        numberOfBlocksPerYearMantissa = numberOfBlocksPerYearExp.mantissa;\n    }\n\n    function compareStrings (string memory a, string memory b) public pure returns (bool) {\n          return (keccak256(abi.encodePacked((a))) == keccak256(abi.encodePacked((b))) );\n    }\n\n    function appendStrings(string memory a, string memory b) internal pure returns (string memory) {\n          return string(abi.encodePacked(a, b));\n    }\n\n    function quickSortDESC(string[] memory keys, uint[] memory values) internal pure returns (string[] memory, uint[] memory){\n\n          string[] memory keysPlus = new string[](keys.length + 1);\n          uint[] memory valuesPlus = new uint[](values.length + 1);\n\n          for(uint i = 0; i < keys.length; i++){\n              keysPlus[i] = keys[i];\n              valuesPlus[i] = values[i];\n          }\n\n          (keysPlus, valuesPlus) = quickSort(keysPlus, valuesPlus, 0, keysPlus.length - 1);\n\n          string[] memory keys_desc = new string[](keys.length);\n          uint[] memory values_desc = new uint[](values.length);\n          for(uint i = 0; i < keys.length; i++){\n              keys_desc[keys.length - 1 - i] = keysPlus[i + 1];\n              values_desc[keys.length - 1 - i] = valuesPlus[i + 1];\n          }\n\n          return (keys_desc, values_desc);\n    }\n\n    function quickSort(string[] memory keys, uint[] memory values, uint left, uint right) internal pure returns (string[] memory, uint[] memory){\n          uint i = left;\n          uint j = right;\n          uint pivot = values[left + (right - left) / 2];\n          while (i <= j) {\n              while (values[i] < pivot) i++;\n              while (pivot < values[j]) j--;\n              if (i <= j) {\n                  (keys[i], keys[j]) = (keys[j], keys[i]);\n                  (values[i], values[j]) = (values[j], values[i]);\n                  i++;\n                  j--;\n              }\n          }\n          if (left < j)\n              quickSort(keys, values, left, j);\n\n          if (i < right)\n              quickSort(keys, values, i, right);\n\n              return (keys, values);\n    }\n\n    function getCEthAddress() internal pure returns(address){\n          return 0x4Ddc2D193948926D02f9B1fE9e1daa0718270ED5;\n    }\n\n    function getCompAddress() internal pure returns(address){\n          return 0xc00e94Cb662C3520282E6f5717214004A7f26888;\n    }\n\n    function getUnitrollerAddress() internal pure returns(address){\n          return 0x3d9819210A31b4961b30EF54bE2aeD79B9c9Cd3B;\n    }\n\n    function getCompoundLensAddress() internal pure returns(address){\n          return 0xd513d22422a3062Bd342Ae374b4b9c20E0a9a074;\n    }\n\n    function getUniswapAnchoredViewAddress() internal pure returns(address){\n          return 0x922018674c12a7F0D394ebEEf9B58F186CdE13c1;\n    }\n\n    function getVersion() public pure returns(string memory){\n          return \"v2\";\n    }\n\n\n    //admin functions\n\n    function _become(CompFarmingSummaryProxy proxy) public {\n        require(msg.sender == proxy.admin(), \"only admin can change brains\");\n\n        uint result = proxy._acceptImplementation();\n\n        require(result == 0, uint2str(result));\n    }\n\n\n    function uint2str(uint _i) internal pure returns (string memory _uintAsString) {\n       if (_i == 0) {\n           return \"0\";\n       }\n       uint j = _i;\n       uint len;\n       while (j != 0) {\n           len++;\n           j /= 10;\n       }\n       bytes memory bstr = new bytes(len);\n       uint k = len - 1;\n       while (_i != 0) {\n           bstr[k--] = byte(uint8(48 + _i % 10));\n           _i /= 10;\n       }\n       return string(bstr);\n   }\n\n\n\n}\n",
  "sourcePath": "/Users/main/Documents/macDocumentBackup062020/coding/playground/EthDev/compoundFinance/myCompFarmingPrediction/contracts/CompFarmingSummaryV2.sol",
  "compiler": {
    "name": "solc",
    "version": "0.5.16+commit.9c3226ce.Emscripten.clang"
  },
  "schemaVersion": "3.2.3",
  "updatedAt": "2020-11-04T04:39:13.294Z",
  "networkType": "ethereum",
  "devdoc": {
    "methods": {}
  },
  "userdoc": {
    "methods": {}
  }
}