{
  "contractName": "CompFarmingSummaryProxy",
  "abi": [
    {
      "inputs": [],
      "payable": false,
      "stateMutability": "nonpayable",
      "type": "constructor"
    },
    {
      "anonymous": false,
      "inputs": [
        {
          "indexed": false,
          "internalType": "uint256",
          "name": "error",
          "type": "uint256"
        },
        {
          "indexed": false,
          "internalType": "uint256",
          "name": "info",
          "type": "uint256"
        },
        {
          "indexed": false,
          "internalType": "uint256",
          "name": "detail",
          "type": "uint256"
        }
      ],
      "name": "Failure",
      "type": "event"
    },
    {
      "anonymous": false,
      "inputs": [
        {
          "indexed": false,
          "internalType": "address",
          "name": "oldAdmin",
          "type": "address"
        },
        {
          "indexed": false,
          "internalType": "address",
          "name": "newAdmin",
          "type": "address"
        }
      ],
      "name": "NewAdmin",
      "type": "event"
    },
    {
      "anonymous": false,
      "inputs": [
        {
          "indexed": false,
          "internalType": "address",
          "name": "oldImplementation",
          "type": "address"
        },
        {
          "indexed": false,
          "internalType": "address",
          "name": "newImplementation",
          "type": "address"
        }
      ],
      "name": "NewImplementation",
      "type": "event"
    },
    {
      "anonymous": false,
      "inputs": [
        {
          "indexed": false,
          "internalType": "address",
          "name": "oldPendingAdmin",
          "type": "address"
        },
        {
          "indexed": false,
          "internalType": "address",
          "name": "newPendingAdmin",
          "type": "address"
        }
      ],
      "name": "NewPendingAdmin",
      "type": "event"
    },
    {
      "anonymous": false,
      "inputs": [
        {
          "indexed": false,
          "internalType": "address",
          "name": "oldPendingImplementation",
          "type": "address"
        },
        {
          "indexed": false,
          "internalType": "address",
          "name": "newPendingImplementation",
          "type": "address"
        }
      ],
      "name": "NewPendingImplementation",
      "type": "event"
    },
    {
      "payable": true,
      "stateMutability": "payable",
      "type": "fallback"
    },
    {
      "constant": true,
      "inputs": [],
      "name": "admin",
      "outputs": [
        {
          "internalType": "address",
          "name": "",
          "type": "address"
        }
      ],
      "payable": false,
      "stateMutability": "view",
      "type": "function"
    },
    {
      "constant": true,
      "inputs": [],
      "name": "compFarmingSummaryImplmentation",
      "outputs": [
        {
          "internalType": "address",
          "name": "",
          "type": "address"
        }
      ],
      "payable": false,
      "stateMutability": "view",
      "type": "function"
    },
    {
      "constant": true,
      "inputs": [],
      "name": "pendingAdmin",
      "outputs": [
        {
          "internalType": "address",
          "name": "",
          "type": "address"
        }
      ],
      "payable": false,
      "stateMutability": "view",
      "type": "function"
    },
    {
      "constant": true,
      "inputs": [],
      "name": "pendingCompFarmingSummaryImplmentation",
      "outputs": [
        {
          "internalType": "address",
          "name": "",
          "type": "address"
        }
      ],
      "payable": false,
      "stateMutability": "view",
      "type": "function"
    },
    {
      "constant": false,
      "inputs": [
        {
          "internalType": "address",
          "name": "newPendingImplementation",
          "type": "address"
        }
      ],
      "name": "_setPendingImplementation",
      "outputs": [
        {
          "internalType": "uint256",
          "name": "",
          "type": "uint256"
        }
      ],
      "payable": false,
      "stateMutability": "nonpayable",
      "type": "function"
    },
    {
      "constant": false,
      "inputs": [],
      "name": "_acceptImplementation",
      "outputs": [
        {
          "internalType": "uint256",
          "name": "",
          "type": "uint256"
        }
      ],
      "payable": false,
      "stateMutability": "nonpayable",
      "type": "function"
    },
    {
      "constant": false,
      "inputs": [
        {
          "internalType": "address",
          "name": "newPendingAdmin",
          "type": "address"
        }
      ],
      "name": "_setPendingAdmin",
      "outputs": [
        {
          "internalType": "uint256",
          "name": "",
          "type": "uint256"
        }
      ],
      "payable": false,
      "stateMutability": "nonpayable",
      "type": "function"
    },
    {
      "constant": false,
      "inputs": [],
      "name": "_acceptAdmin",
      "outputs": [
        {
          "internalType": "uint256",
          "name": "",
          "type": "uint256"
        }
      ],
      "payable": false,
      "stateMutability": "nonpayable",
      "type": "function"
    }
  ],
  "bytecode": "0x608060405234801561001057600080fd5b50336000806101000a81548173ffffffffffffffffffffffffffffffffffffffff021916908373ffffffffffffffffffffffffffffffffffffffff160217905550610ce3806100606000396000f3fe60806040526004361061007b5760003560e01c8063dd4a9aa71161004e578063dd4a9aa7146101e2578063e992a0411461020d578063e9c714f21461024a578063f851a440146102755761007b565b806326782247146101245780638ebc06271461014f578063b71d1a0c1461017a578063c1e80334146101b7575b6000600260009054906101000a900473ffffffffffffffffffffffffffffffffffffffff1673ffffffffffffffffffffffffffffffffffffffff166000366040516100c7929190610b72565b600060405180830381855af49150503d8060008114610102576040519150601f19603f3d011682016040523d82523d6000602084013e610107565b606091505b505090506040513d6000823e8160008114610120573d82f35b3d82fd5b34801561013057600080fd5b506101396102a0565b6040516101469190610b8b565b60405180910390f35b34801561015b57600080fd5b506101646102c6565b6040516101719190610b8b565b60405180910390f35b34801561018657600080fd5b506101a1600480360361019c9190810190610af7565b6102ec565b6040516101ae9190610bcf565b60405180910390f35b3480156101c357600080fd5b506101cc61040c565b6040516101d99190610bcf565b60405180910390f35b3480156101ee57600080fd5b506101f761068f565b6040516102049190610b8b565b60405180910390f35b34801561021957600080fd5b50610234600480360361022f9190810190610af7565b6106b5565b6040516102419190610bcf565b60405180910390f35b34801561025657600080fd5b5061025f6107f7565b60405161026c9190610bcf565b60405180910390f35b34801561028157600080fd5b5061028a610a55565b6040516102979190610b8b565b60405180910390f35b600160009054906101000a900473ffffffffffffffffffffffffffffffffffffffff1681565b600260009054906101000a900473ffffffffffffffffffffffffffffffffffffffff1681565b60008060009054906101000a900473ffffffffffffffffffffffffffffffffffffffff1673ffffffffffffffffffffffffffffffffffffffff163373ffffffffffffffffffffffffffffffffffffffff16146103555761034e60046002610a7a565b9050610407565b6000600160009054906101000a900473ffffffffffffffffffffffffffffffffffffffff16905082600160006101000a81548173ffffffffffffffffffffffffffffffffffffffff021916908373ffffffffffffffffffffffffffffffffffffffff1602179055507fca4f2f25d0898edd99413412fb94012f9e54ec8142f9b093e7720646a95b16a981846040516103ee929190610ba6565b60405180910390a16000600481111561040357fe5b9150505b919050565b6000600360009054906101000a900473ffffffffffffffffffffffffffffffffffffffff1673ffffffffffffffffffffffffffffffffffffffff163373ffffffffffffffffffffffffffffffffffffffff161415806104b95750600073ffffffffffffffffffffffffffffffffffffffff16600360009054906101000a900473ffffffffffffffffffffffffffffffffffffffff1673ffffffffffffffffffffffffffffffffffffffff16145b156104d1576104ca60046001610a7a565b905061068c565b6000600260009054906101000a900473ffffffffffffffffffffffffffffffffffffffff1690506000600360009054906101000a900473ffffffffffffffffffffffffffffffffffffffff169050600360009054906101000a900473ffffffffffffffffffffffffffffffffffffffff16600260006101000a81548173ffffffffffffffffffffffffffffffffffffffff021916908373ffffffffffffffffffffffffffffffffffffffff1602179055506000600360006101000a81548173ffffffffffffffffffffffffffffffffffffffff021916908373ffffffffffffffffffffffffffffffffffffffff1602179055507fd604de94d45953f9138079ec1b82d533cb2160c906d1076d1f7ed54befbca97a82600260009054906101000a900473ffffffffffffffffffffffffffffffffffffffff16604051610617929190610ba6565b60405180910390a17fe945ccee5d701fc83f9b8aa8ca94ea4219ec1fcbd4f4cab4f0ea57c5c3e1d81581600360009054906101000a900473ffffffffffffffffffffffffffffffffffffffff16604051610672929190610ba6565b60405180910390a16000600481111561068757fe5b925050505b90565b600360009054906101000a900473ffffffffffffffffffffffffffffffffffffffff1681565b60008060009054906101000a900473ffffffffffffffffffffffffffffffffffffffff1673ffffffffffffffffffffffffffffffffffffffff163373ffffffffffffffffffffffffffffffffffffffff161461071e5761071760046000610a7a565b90506107f2565b6000600360009054906101000a900473ffffffffffffffffffffffffffffffffffffffff16905082600360006101000a81548173ffffffffffffffffffffffffffffffffffffffff021916908373ffffffffffffffffffffffffffffffffffffffff1602179055507fe945ccee5d701fc83f9b8aa8ca94ea4219ec1fcbd4f4cab4f0ea57c5c3e1d81581600360009054906101000a900473ffffffffffffffffffffffffffffffffffffffff166040516107d9929190610ba6565b60405180910390a1600060048111156107ee57fe5b9150505b919050565b6000600160009054906101000a900473ffffffffffffffffffffffffffffffffffffffff1673ffffffffffffffffffffffffffffffffffffffff163373ffffffffffffffffffffffffffffffffffffffff161415806108825750600073ffffffffffffffffffffffffffffffffffffffff163373ffffffffffffffffffffffffffffffffffffffff16145b1561089a5761089360046003610a7a565b9050610a52565b60008060009054906101000a900473ffffffffffffffffffffffffffffffffffffffff1690506000600160009054906101000a900473ffffffffffffffffffffffffffffffffffffffff169050600160009054906101000a900473ffffffffffffffffffffffffffffffffffffffff166000806101000a81548173ffffffffffffffffffffffffffffffffffffffff021916908373ffffffffffffffffffffffffffffffffffffffff1602179055506000600160006101000a81548173ffffffffffffffffffffffffffffffffffffffff021916908373ffffffffffffffffffffffffffffffffffffffff1602179055507ff9ffabca9c8276e99321725bcb43fb076a6c66a54b7f21c4e8146d8519b417dc826000809054906101000a900473ffffffffffffffffffffffffffffffffffffffff166040516109dd929190610ba6565b60405180910390a17fca4f2f25d0898edd99413412fb94012f9e54ec8142f9b093e7720646a95b16a981600160009054906101000a900473ffffffffffffffffffffffffffffffffffffffff16604051610a38929190610ba6565b60405180910390a160006004811115610a4d57fe5b925050505b90565b6000809054906101000a900473ffffffffffffffffffffffffffffffffffffffff1681565b60007f45b96fe442630264581b197e84bbada861235052c5a1aadfff9ea4e40a969aa0836004811115610aa957fe5b836003811115610ab557fe5b6000604051610ac693929190610bea565b60405180910390a1826004811115610ada57fe5b905092915050565b600081359050610af181610c89565b92915050565b600060208284031215610b0957600080fd5b6000610b1784828501610ae2565b91505092915050565b610b2981610c2c565b82525050565b6000610b3b8385610c21565b9350610b48838584610c7a565b82840190509392505050565b610b5d81610c68565b82525050565b610b6c81610c5e565b82525050565b6000610b7f828486610b2f565b91508190509392505050565b6000602082019050610ba06000830184610b20565b92915050565b6000604082019050610bbb6000830185610b20565b610bc86020830184610b20565b9392505050565b6000602082019050610be46000830184610b63565b92915050565b6000606082019050610bff6000830186610b63565b610c0c6020830185610b63565b610c196040830184610b54565b949350505050565b600081905092915050565b6000610c3782610c3e565b9050919050565b600073ffffffffffffffffffffffffffffffffffffffff82169050919050565b6000819050919050565b6000610c7382610c5e565b9050919050565b82818337600083830152505050565b610c9281610c2c565b8114610c9d57600080fd5b5056fea365627a7a72315820c92b373504b1f5f56c83dc4b68a7e32890130f3e9e5aeaed6371285475f147186c6578706572696d656e74616cf564736f6c63430005100040",
  "source": "pragma solidity ^0.5.16;\npragma experimental ABIEncoderV2;\n\nimport \"./CompFarmingSummaryProxyStorage.sol\";\nimport \"./utility/ErrorReporter.sol\";\n\n\ncontract CompFarmingSummaryProxy is CompFarmingSummaryProxyStorage, CompFarmingSummaryErrorReporter{\n    event NewPendingImplementation(address oldPendingImplementation, address newPendingImplementation);\n    event NewImplementation(address oldImplementation, address newImplementation);\n    event NewPendingAdmin(address oldPendingAdmin, address newPendingAdmin);\n    event NewAdmin(address oldAdmin, address newAdmin);\n\n    constructor() public {\n        admin = msg.sender;\n    }\n\n    function _setPendingImplementation(address newPendingImplementation) public returns (uint) {\n\n        if (msg.sender != admin) {\n            return fail(Error.UNAUTHORIZED, FailureInfo.SET_PENDING_IMPLEMENTATION_OWNER_CHECK);\n        }\n\n        address oldPendingImplementation = pendingCompFarmingSummaryImplmentation;\n\n        pendingCompFarmingSummaryImplmentation = newPendingImplementation;\n\n        emit NewPendingImplementation(oldPendingImplementation, pendingCompFarmingSummaryImplmentation);\n\n        return uint(Error.NO_ERROR);\n    }\n\n    function _acceptImplementation() public returns (uint) {\n\n        if (msg.sender != pendingCompFarmingSummaryImplmentation || pendingCompFarmingSummaryImplmentation == address(0)) {\n            return fail(Error.UNAUTHORIZED, FailureInfo.ACCEPT_PENDING_IMPLEMENTATION_ADDRESS_CHECK);\n        }\n\n        // Save current values for inclusion in log\n        address oldImplementation = compFarmingSummaryImplmentation;\n        address oldPendingImplementation = pendingCompFarmingSummaryImplmentation;\n\n        compFarmingSummaryImplmentation = pendingCompFarmingSummaryImplmentation;\n\n        pendingCompFarmingSummaryImplmentation = address(0);\n\n        emit NewImplementation(oldImplementation, compFarmingSummaryImplmentation);\n        emit NewPendingImplementation(oldPendingImplementation, pendingCompFarmingSummaryImplmentation);\n\n        return uint(Error.NO_ERROR);\n    }\n\n\n    function _setPendingAdmin(address newPendingAdmin) public returns (uint) {\n\n        if (msg.sender != admin) {\n            return fail(Error.UNAUTHORIZED, FailureInfo.SET_PENDING_ADMIN_OWNER_CHECK);\n        }\n\n        address oldPendingAdmin = pendingAdmin;\n\n        pendingAdmin = newPendingAdmin;\n\n        emit NewPendingAdmin(oldPendingAdmin, newPendingAdmin);\n\n        return uint(Error.NO_ERROR);\n    }\n\n    function _acceptAdmin() public returns (uint) {\n\n        if (msg.sender != pendingAdmin || msg.sender == address(0)) {\n            return fail(Error.UNAUTHORIZED, FailureInfo.ACCEPT_ADMIN_PENDING_ADMIN_CHECK);\n        }\n\n        address oldAdmin = admin;\n        address oldPendingAdmin = pendingAdmin;\n\n        admin = pendingAdmin;\n\n        pendingAdmin = address(0);\n\n        emit NewAdmin(oldAdmin, admin);\n        emit NewPendingAdmin(oldPendingAdmin, pendingAdmin);\n\n        return uint(Error.NO_ERROR);\n    }\n\n    function () payable external {\n        // delegate all other functions to current implementation\n        (bool success, ) = compFarmingSummaryImplmentation.delegatecall(msg.data);\n\n        assembly {\n              let free_mem_ptr := mload(0x40)\n              returndatacopy(free_mem_ptr, 0, returndatasize)\n\n              switch success\n              case 0 { revert(free_mem_ptr, returndatasize) }\n              default { return(free_mem_ptr, returndatasize) }\n        }\n    }\n\n\n\n}\n",
  "sourcePath": "/Users/main/Documents/macDocumentBackup062020/coding/playground/EthDev/compoundFinance/myCompFarmingPrediction/contracts/CompFarmingSummaryProxy.sol",
  "compiler": {
    "name": "solc",
    "version": "0.5.16+commit.9c3226ce.Emscripten.clang"
  },
  "schemaVersion": "3.2.3",
  "updatedAt": "2020-11-04T04:39:13.261Z",
  "networkType": "ethereum",
  "devdoc": {
    "methods": {}
  },
  "userdoc": {
    "methods": {}
  }
}