{
  "contractName": "Logging",
  "abi": [
    {
      "constant": true,
      "inputs": [],
      "name": "getLoggings_uint",
      "outputs": [
        {
          "internalType": "uint256[]",
          "name": "",
          "type": "uint256[]"
        }
      ],
      "payable": false,
      "stateMutability": "view",
      "type": "function"
    },
    {
      "constant": true,
      "inputs": [],
      "name": "getLoggings_address",
      "outputs": [
        {
          "internalType": "address[]",
          "name": "",
          "type": "address[]"
        }
      ],
      "payable": false,
      "stateMutability": "view",
      "type": "function"
    },
    {
      "constant": true,
      "inputs": [],
      "name": "getLoggins_string",
      "outputs": [
        {
          "internalType": "string[]",
          "name": "",
          "type": "string[]"
        }
      ],
      "payable": false,
      "stateMutability": "view",
      "type": "function"
    },
    {
      "constant": false,
      "inputs": [],
      "name": "clearLogs",
      "outputs": [],
      "payable": false,
      "stateMutability": "nonpayable",
      "type": "function"
    },
    {
      "constant": false,
      "inputs": [
        {
          "internalType": "uint256",
          "name": "i",
          "type": "uint256"
        }
      ],
      "name": "addLog",
      "outputs": [],
      "payable": false,
      "stateMutability": "nonpayable",
      "type": "function"
    },
    {
      "constant": false,
      "inputs": [
        {
          "internalType": "address",
          "name": "a",
          "type": "address"
        }
      ],
      "name": "addLog",
      "outputs": [],
      "payable": false,
      "stateMutability": "nonpayable",
      "type": "function"
    },
    {
      "constant": false,
      "inputs": [
        {
          "internalType": "string",
          "name": "s",
          "type": "string"
        }
      ],
      "name": "addLog",
      "outputs": [],
      "payable": false,
      "stateMutability": "nonpayable",
      "type": "function"
    }
  ],
  "bytecode": "0x608060405234801561001057600080fd5b50610aed806100206000396000f3fe608060405234801561001057600080fd5b506004361061007d5760003560e01c80639486baae1161005b5780639486baae146100d6578063c0b0c9bf146100e0578063f453f392146100fe578063f47fc1f21461011c5761007d565b80633d1fee84146100825780634ca219271461009e57806391dc956d146100ba575b600080fd5b61009c60048036036100979190810190610672565b61013a565b005b6100b860048036036100b39190810190610608565b610169565b005b6100d460048036036100cf9190810190610631565b6101d2565b005b6100de610214565b005b6100e861023f565b6040516100f591906108ab565b60405180910390f35b610106610297565b6040516101139190610867565b60405180910390f35b610124610325565b6040516101319190610889565b60405180910390f35b600081908060018154018082558091505090600182039060005260206000200160009091929091909150555050565b60028190806001815401808255809150509060018203906000526020600020016000909192909190916101000a81548173ffffffffffffffffffffffffffffffffffffffff021916908373ffffffffffffffffffffffffffffffffffffffff1602179055505050565b600181908060018154018082558091505090600182039060005260206000200160009091929091909150908051906020019061020f92919061040e565b505050565b600080610221919061048e565b6001600061022f91906104af565b6002600061023d91906104d0565b565b6060600080548060200260200160405190810160405280929190818152602001828054801561028d57602002820191906000526020600020905b815481526020019060010190808311610279575b5050505050905090565b6060600280548060200260200160405190810160405280929190818152602001828054801561031b57602002820191906000526020600020905b8160009054906101000a900473ffffffffffffffffffffffffffffffffffffffff1673ffffffffffffffffffffffffffffffffffffffff16815260200190600101908083116102d1575b5050505050905090565b60606001805480602002602001604051908101604052809291908181526020016000905b82821015610405578382906000526020600020018054600181600116156101000203166002900480601f0160208091040260200160405190810160405280929190818152602001828054600181600116156101000203166002900480156103f15780601f106103c6576101008083540402835291602001916103f1565b820191906000526020600020905b8154815290600101906020018083116103d457829003601f168201915b505050505081526020019060010190610349565b50505050905090565b828054600181600116156101000203166002900490600052602060002090601f016020900481019282601f1061044f57805160ff191683800117855561047d565b8280016001018555821561047d579182015b8281111561047c578251825591602001919060010190610461565b5b50905061048a91906104f1565b5090565b50805460008255906000526020600020908101906104ac91906104f1565b50565b50805460008255906000526020600020908101906104cd9190610516565b50565b50805460008255906000526020600020908101906104ee91906104f1565b50565b61051391905b8082111561050f5760008160009055506001016104f7565b5090565b90565b61053f91905b8082111561053b57600081816105329190610542565b5060010161051c565b5090565b90565b50805460018160011615610100020316600290046000825580601f106105685750610587565b601f01602090049060005260206000209081019061058691906104f1565b5b50565b60008135905061059981610a7c565b92915050565b600082601f8301126105b057600080fd5b81356105c36105be826108fa565b6108cd565b915080825260208301602083018583830111156105df57600080fd5b6105ea838284610a29565b50505092915050565b60008135905061060281610a93565b92915050565b60006020828403121561061a57600080fd5b60006106288482850161058a565b91505092915050565b60006020828403121561064357600080fd5b600082013567ffffffffffffffff81111561065d57600080fd5b6106698482850161059f565b91505092915050565b60006020828403121561068457600080fd5b6000610692848285016105f3565b91505092915050565b60006106a783836106df565b60208301905092915050565b60006106bf838361081f565b905092915050565b60006106d38383610858565b60208301905092915050565b6106e8816109ed565b82525050565b60006106f982610956565b61070381856109a9565b935061070e83610926565b8060005b8381101561073f578151610726888261069b565b975061073183610982565b925050600181019050610712565b5085935050505092915050565b600061075782610961565b61076181856109ba565b93508360208202850161077385610936565b8060005b858110156107af578484038952815161079085826106b3565b945061079b8361098f565b925060208a01995050600181019050610777565b50829750879550505050505092915050565b60006107cc8261096c565b6107d681856109cb565b93506107e183610946565b8060005b838110156108125781516107f988826106c7565b97506108048361099c565b9250506001810190506107e5565b5085935050505092915050565b600061082a82610977565b61083481856109dc565b9350610844818560208601610a38565b61084d81610a6b565b840191505092915050565b61086181610a1f565b82525050565b6000602082019050818103600083015261088181846106ee565b905092915050565b600060208201905081810360008301526108a3818461074c565b905092915050565b600060208201905081810360008301526108c581846107c1565b905092915050565b6000604051905081810181811067ffffffffffffffff821117156108f057600080fd5b8060405250919050565b600067ffffffffffffffff82111561091157600080fd5b601f19601f8301169050602081019050919050565b6000819050602082019050919050565b6000819050602082019050919050565b6000819050602082019050919050565b600081519050919050565b600081519050919050565b600081519050919050565b600081519050919050565b6000602082019050919050565b6000602082019050919050565b6000602082019050919050565b600082825260208201905092915050565b600082825260208201905092915050565b600082825260208201905092915050565b600082825260208201905092915050565b60006109f8826109ff565b9050919050565b600073ffffffffffffffffffffffffffffffffffffffff82169050919050565b6000819050919050565b82818337600083830152505050565b60005b83811015610a56578082015181840152602081019050610a3b565b83811115610a65576000848401525b50505050565b6000601f19601f8301169050919050565b610a85816109ed565b8114610a9057600080fd5b50565b610a9c81610a1f565b8114610aa757600080fd5b5056fea365627a7a72315820a8d90b33955a1675a7776c448635593af5bfbc71371c87073fa98d63c05804606c6578706572696d656e74616cf564736f6c63430005100040",
  "source": "pragma solidity ^0.5.16;\npragma experimental ABIEncoderV2;\n\n\ncontract Logging{\n\n    uint256[] loggings_uint;\n    string[] loggins_string;\n    address[] loggings_address;\n\n    function getLoggings_uint() public view returns(uint256[] memory){\n        return loggings_uint;\n    }\n\n    function getLoggings_address() public view returns(address[] memory){\n        return loggings_address;\n    }\n\n    function getLoggins_string() public view returns(string[] memory){\n        return loggins_string;\n    }\n\n    function clearLogs() public {\n        delete loggings_uint;\n        delete loggins_string;\n        delete loggings_address;\n    }\n\n    function addLog(uint256 i) public {\n        loggings_uint.push(i);\n    }\n\n    function addLog(string memory s) public {\n        loggins_string.push(s);\n    }\n\n    function addLog(address a) public {\n        loggings_address.push(a);\n    }\n\n\n\n\n}\n",
  "sourcePath": "/Users/main/Documents/macDocumentBackup062020/coding/playground/EthDev/compoundFinance/myCompFarmingPrediction/contracts/utility/Logging.sol",
  "compiler": {
    "name": "solc",
    "version": "0.5.16+commit.9c3226ce.Emscripten.clang"
  },
  "schemaVersion": "3.2.3",
  "updatedAt": "2020-10-29T06:18:50.417Z",
  "devdoc": {
    "methods": {}
  },
  "userdoc": {
    "methods": {}
  }
}